{
	"014-Safe Deposit Box/TimeLockedDepositBox.sol": {
		"TimeLockedDepositBox": {
			"abi": [
				{
					"inputs": [
						{
							"internalType": "uint256",
							"name": "lockDuration",
							"type": "uint256"
						}
					],
					"stateMutability": "nonpayable",
					"type": "constructor"
				},
				{
					"anonymous": false,
					"inputs": [
						{
							"indexed": true,
							"internalType": "address",
							"name": "owner",
							"type": "address"
						}
					],
					"name": "SecretStored",
					"type": "event"
				},
				{
					"anonymous": false,
					"inputs": [
						{
							"indexed": true,
							"internalType": "address",
							"name": "previousOwner",
							"type": "address"
						},
						{
							"indexed": true,
							"internalType": "address",
							"name": "newOwner",
							"type": "address"
						}
					],
					"name": "TransferOwnership",
					"type": "event"
				},
				{
					"inputs": [],
					"name": "getBoxType",
					"outputs": [
						{
							"internalType": "string",
							"name": "",
							"type": "string"
						}
					],
					"stateMutability": "pure",
					"type": "function"
				},
				{
					"inputs": [],
					"name": "getDepositTime",
					"outputs": [
						{
							"internalType": "uint256",
							"name": "",
							"type": "uint256"
						}
					],
					"stateMutability": "view",
					"type": "function"
				},
				{
					"inputs": [],
					"name": "getOwner",
					"outputs": [
						{
							"internalType": "address",
							"name": "",
							"type": "address"
						}
					],
					"stateMutability": "view",
					"type": "function"
				},
				{
					"inputs": [],
					"name": "getRemainingTime",
					"outputs": [
						{
							"internalType": "uint256",
							"name": "",
							"type": "uint256"
						}
					],
					"stateMutability": "view",
					"type": "function"
				},
				{
					"inputs": [],
					"name": "getSecret",
					"outputs": [
						{
							"internalType": "string",
							"name": "",
							"type": "string"
						}
					],
					"stateMutability": "view",
					"type": "function"
				},
				{
					"inputs": [],
					"name": "getUnlockTime",
					"outputs": [
						{
							"internalType": "uint256",
							"name": "",
							"type": "uint256"
						}
					],
					"stateMutability": "view",
					"type": "function"
				},
				{
					"inputs": [
						{
							"internalType": "string",
							"name": "_secret",
							"type": "string"
						}
					],
					"name": "storeSecret",
					"outputs": [],
					"stateMutability": "nonpayable",
					"type": "function"
				},
				{
					"inputs": [
						{
							"internalType": "address",
							"name": "newOwner",
							"type": "address"
						}
					],
					"name": "transferOwnership",
					"outputs": [],
					"stateMutability": "nonpayable",
					"type": "function"
				}
			],
			"devdoc": {
				"kind": "dev",
				"methods": {},
				"version": 1
			},
			"evm": {
				"assembly": "    /* \"014-Safe Deposit Box/TimeLockedDepositBox.sol\":90:922  contract TimeLockedDepositBox is BaseDepositBox {... */\n  mstore(0x40, 0x80)\n    /* \"014-Safe Deposit Box/TimeLockedDepositBox.sol\":182:276  constructor(uint256 lockDuration) {... */\n  callvalue\n  dup1\n  iszero\n  tag_1\n  jumpi\n  revert(0x00, 0x00)\ntag_1:\n  pop\n  mload(0x40)\n  sub(codesize, bytecodeSize)\n  dup1\n  bytecodeSize\n  dup4\n  codecopy\n  dup2\n  dup2\n  add\n  0x40\n  mstore\n  dup2\n  add\n  swap1\n  tag_2\n  swap2\n  swap1\n  tag_3\n  jump\t// in\ntag_2:\n    /* \"014-Safe Deposit Box/BaseDepositBox.sol\":396:406  msg.sender */\n  caller\n    /* \"014-Safe Deposit Box/BaseDepositBox.sol\":388:393  owner */\n  0x00\n  0x00\n    /* \"014-Safe Deposit Box/BaseDepositBox.sol\":388:406  owner = msg.sender */\n  0x0100\n  exp\n  dup2\n  sload\n  dup2\n  0xffffffffffffffffffffffffffffffffffffffff\n  mul\n  not\n  and\n  swap1\n  dup4\n  0xffffffffffffffffffffffffffffffffffffffff\n  and\n  mul\n  or\n  swap1\n  sstore\n  pop\n    /* \"014-Safe Deposit Box/BaseDepositBox.sol\":430:445  block.timestamp */\n  timestamp\n    /* \"014-Safe Deposit Box/BaseDepositBox.sol\":416:427  depositTime */\n  0x02\n    /* \"014-Safe Deposit Box/BaseDepositBox.sol\":416:445  depositTime = block.timestamp */\n  dup2\n  swap1\n  sstore\n  pop\n    /* \"014-Safe Deposit Box/TimeLockedDepositBox.sol\":257:269  lockDuration */\n  dup1\n    /* \"014-Safe Deposit Box/TimeLockedDepositBox.sol\":239:254  block.timestamp */\n  timestamp\n    /* \"014-Safe Deposit Box/TimeLockedDepositBox.sol\":239:269  block.timestamp + lockDuration */\n  tag_8\n  swap2\n  swap1\n  tag_9\n  jump\t// in\ntag_8:\n    /* \"014-Safe Deposit Box/TimeLockedDepositBox.sol\":226:236  unlockTime */\n  0x03\n    /* \"014-Safe Deposit Box/TimeLockedDepositBox.sol\":226:269  unlockTime = block.timestamp + lockDuration */\n  dup2\n  swap1\n  sstore\n  pop\n    /* \"014-Safe Deposit Box/TimeLockedDepositBox.sol\":182:276  constructor(uint256 lockDuration) {... */\n  pop\n    /* \"014-Safe Deposit Box/TimeLockedDepositBox.sol\":90:922  contract TimeLockedDepositBox is BaseDepositBox {... */\n  jump(tag_10)\n    /* \"#utility.yul\":88:205   */\ntag_12:\n    /* \"#utility.yul\":197:198   */\n  0x00\n    /* \"#utility.yul\":194:195   */\n  0x00\n    /* \"#utility.yul\":187:199   */\n  revert\n    /* \"#utility.yul\":334:411   */\ntag_14:\n    /* \"#utility.yul\":371:378   */\n  0x00\n    /* \"#utility.yul\":400:405   */\n  dup2\n    /* \"#utility.yul\":389:405   */\n  swap1\n  pop\n    /* \"#utility.yul\":334:411   */\n  swap2\n  swap1\n  pop\n  jump\t// out\n    /* \"#utility.yul\":417:539   */\ntag_15:\n    /* \"#utility.yul\":490:514   */\n  tag_24\n    /* \"#utility.yul\":508:513   */\n  dup2\n    /* \"#utility.yul\":490:514   */\n  tag_14\n  jump\t// in\ntag_24:\n    /* \"#utility.yul\":483:488   */\n  dup2\n    /* \"#utility.yul\":480:515   */\n  eq\n    /* \"#utility.yul\":470:533   */\n  tag_25\n  jumpi\n    /* \"#utility.yul\":529:530   */\n  0x00\n    /* \"#utility.yul\":526:527   */\n  0x00\n    /* \"#utility.yul\":519:531   */\n  revert\n    /* \"#utility.yul\":470:533   */\ntag_25:\n    /* \"#utility.yul\":417:539   */\n  pop\n  jump\t// out\n    /* \"#utility.yul\":545:688   */\ntag_16:\n    /* \"#utility.yul\":602:607   */\n  0x00\n    /* \"#utility.yul\":633:639   */\n  dup2\n    /* \"#utility.yul\":627:640   */\n  mload\n    /* \"#utility.yul\":618:640   */\n  swap1\n  pop\n    /* \"#utility.yul\":649:682   */\n  tag_27\n    /* \"#utility.yul\":676:681   */\n  dup2\n    /* \"#utility.yul\":649:682   */\n  tag_15\n  jump\t// in\ntag_27:\n    /* \"#utility.yul\":545:688   */\n  swap3\n  swap2\n  pop\n  pop\n  jump\t// out\n    /* \"#utility.yul\":694:1045   */\ntag_3:\n    /* \"#utility.yul\":764:770   */\n  0x00\n    /* \"#utility.yul\":813:815   */\n  0x20\n    /* \"#utility.yul\":801:810   */\n  dup3\n    /* \"#utility.yul\":792:799   */\n  dup5\n    /* \"#utility.yul\":788:811   */\n  sub\n    /* \"#utility.yul\":784:816   */\n  slt\n    /* \"#utility.yul\":781:900   */\n  iszero\n  tag_29\n  jumpi\n    /* \"#utility.yul\":819:898   */\n  tag_30\n  tag_12\n  jump\t// in\ntag_30:\n    /* \"#utility.yul\":781:900   */\ntag_29:\n    /* \"#utility.yul\":939:940   */\n  0x00\n    /* \"#utility.yul\":964:1028   */\n  tag_31\n    /* \"#utility.yul\":1020:1027   */\n  dup5\n    /* \"#utility.yul\":1011:1017   */\n  dup3\n    /* \"#utility.yul\":1000:1009   */\n  dup6\n    /* \"#utility.yul\":996:1018   */\n  add\n    /* \"#utility.yul\":964:1028   */\n  tag_16\n  jump\t// in\ntag_31:\n    /* \"#utility.yul\":954:1028   */\n  swap2\n  pop\n    /* \"#utility.yul\":910:1038   */\n  pop\n    /* \"#utility.yul\":694:1045   */\n  swap3\n  swap2\n  pop\n  pop\n  jump\t// out\n    /* \"#utility.yul\":1051:1231   */\ntag_17:\n    /* \"#utility.yul\":1099:1176   */\n  0x4e487b7100000000000000000000000000000000000000000000000000000000\n    /* \"#utility.yul\":1096:1097   */\n  0x00\n    /* \"#utility.yul\":1089:1177   */\n  mstore\n    /* \"#utility.yul\":1196:1200   */\n  0x11\n    /* \"#utility.yul\":1193:1194   */\n  0x04\n    /* \"#utility.yul\":1186:1201   */\n  mstore\n    /* \"#utility.yul\":1220:1224   */\n  0x24\n    /* \"#utility.yul\":1217:1218   */\n  0x00\n    /* \"#utility.yul\":1210:1225   */\n  revert\n    /* \"#utility.yul\":1237:1428   */\ntag_9:\n    /* \"#utility.yul\":1277:1280   */\n  0x00\n    /* \"#utility.yul\":1296:1316   */\n  tag_34\n    /* \"#utility.yul\":1314:1315   */\n  dup3\n    /* \"#utility.yul\":1296:1316   */\n  tag_14\n  jump\t// in\ntag_34:\n    /* \"#utility.yul\":1291:1316   */\n  swap2\n  pop\n    /* \"#utility.yul\":1330:1350   */\n  tag_35\n    /* \"#utility.yul\":1348:1349   */\n  dup4\n    /* \"#utility.yul\":1330:1350   */\n  tag_14\n  jump\t// in\ntag_35:\n    /* \"#utility.yul\":1325:1350   */\n  swap3\n  pop\n    /* \"#utility.yul\":1373:1374   */\n  dup3\n    /* \"#utility.yul\":1370:1371   */\n  dup3\n    /* \"#utility.yul\":1366:1375   */\n  add\n    /* \"#utility.yul\":1359:1375   */\n  swap1\n  pop\n    /* \"#utility.yul\":1394:1397   */\n  dup1\n    /* \"#utility.yul\":1391:1392   */\n  dup3\n    /* \"#utility.yul\":1388:1398   */\n  gt\n    /* \"#utility.yul\":1385:1421   */\n  iszero\n  tag_36\n  jumpi\n    /* \"#utility.yul\":1401:1419   */\n  tag_37\n  tag_17\n  jump\t// in\ntag_37:\n    /* \"#utility.yul\":1385:1421   */\ntag_36:\n    /* \"#utility.yul\":1237:1428   */\n  swap3\n  swap2\n  pop\n  pop\n  jump\t// out\n    /* \"014-Safe Deposit Box/TimeLockedDepositBox.sol\":90:922  contract TimeLockedDepositBox is BaseDepositBox {... */\ntag_10:\n  dataSize(sub_0)\n  dup1\n  dataOffset(sub_0)\n  0x00\n  codecopy\n  0x00\n  return\nstop\n\nsub_0: assembly {\n        /* \"014-Safe Deposit Box/TimeLockedDepositBox.sol\":90:922  contract TimeLockedDepositBox is BaseDepositBox {... */\n      mstore(0x40, 0x80)\n      callvalue\n      dup1\n      iszero\n      tag_1\n      jumpi\n      revert(0x00, 0x00)\n    tag_1:\n      pop\n      jumpi(tag_2, lt(calldatasize, 0x04))\n      shr(0xe0, calldataload(0x00))\n      dup1\n      0x893d20e8\n      gt\n      tag_11\n      jumpi\n      dup1\n      0x893d20e8\n      eq\n      tag_7\n      jumpi\n      dup1\n      0xa14ab9f8\n      eq\n      tag_8\n      jumpi\n      dup1\n      0xefb98bcf\n      eq\n      tag_9\n      jumpi\n      dup1\n      0xf2fde38b\n      eq\n      tag_10\n      jumpi\n      jump(tag_2)\n    tag_11:\n      dup1\n      0x04199139\n      eq\n      tag_3\n      jumpi\n      dup1\n      0x51811f04\n      eq\n      tag_4\n      jumpi\n      dup1\n      0x5b9fdc30\n      eq\n      tag_5\n      jumpi\n      dup1\n      0x602bc62b\n      eq\n      tag_6\n      jumpi\n    tag_2:\n      revert(0x00, 0x00)\n        /* \"014-Safe Deposit Box/TimeLockedDepositBox.sol\":496:613  function getBoxType() external pure override returns(string memory) {... */\n    tag_3:\n      tag_12\n      tag_13\n      jump\t// in\n    tag_12:\n      mload(0x40)\n      tag_14\n      swap2\n      swap1\n      tag_15\n      jump\t// in\n    tag_14:\n      mload(0x40)\n      dup1\n      swap2\n      sub\n      swap1\n      return\n        /* \"014-Safe Deposit Box/BaseDepositBox.sol\":1161:1281  function getDepositTime() external view virtual override onlyOwner returns (uint256) {... */\n    tag_4:\n      tag_16\n      tag_17\n      jump\t// in\n    tag_16:\n      mload(0x40)\n      tag_18\n      swap2\n      swap1\n      tag_19\n      jump\t// in\n    tag_18:\n      mload(0x40)\n      dup1\n      swap2\n      sub\n      swap1\n      return\n        /* \"014-Safe Deposit Box/TimeLockedDepositBox.sol\":619:749  function getSecret() public view override onlyOwner timeUnlocked returns (string memory) {... */\n    tag_5:\n      tag_20\n      tag_21\n      jump\t// in\n    tag_20:\n      mload(0x40)\n      tag_22\n      swap2\n      swap1\n      tag_15\n      jump\t// in\n    tag_22:\n      mload(0x40)\n      dup1\n      swap2\n      sub\n      swap1\n      return\n        /* \"014-Safe Deposit Box/TimeLockedDepositBox.sol\":401:490  function getUnlockTime() public view returns (uint256) {... */\n    tag_6:\n      tag_23\n      tag_24\n      jump\t// in\n    tag_23:\n      mload(0x40)\n      tag_25\n      swap2\n      swap1\n      tag_19\n      jump\t// in\n    tag_25:\n      mload(0x40)\n      dup1\n      swap2\n      sub\n      swap1\n      return\n        /* \"014-Safe Deposit Box/BaseDepositBox.sol\":580:659  function getOwner() public view returns (address) {... */\n    tag_7:\n      tag_26\n      tag_27\n      jump\t// in\n    tag_26:\n      mload(0x40)\n      tag_28\n      swap2\n      swap1\n      tag_29\n      jump\t// in\n    tag_28:\n      mload(0x40)\n      dup1\n      swap2\n      sub\n      swap1\n      return\n        /* \"014-Safe Deposit Box/BaseDepositBox.sol\":900:1054  function storeSecret(string calldata _secret) external virtual override onlyOwner {... */\n    tag_8:\n      tag_30\n      0x04\n      dup1\n      calldatasize\n      sub\n      dup2\n      add\n      swap1\n      tag_31\n      swap2\n      swap1\n      tag_32\n      jump\t// in\n    tag_31:\n      tag_33\n      jump\t// in\n    tag_30:\n      stop\n        /* \"014-Safe Deposit Box/TimeLockedDepositBox.sol\":755:920  function getRemainingTime() external view returns (uint256) {... */\n    tag_9:\n      tag_34\n      tag_35\n      jump\t// in\n    tag_34:\n      mload(0x40)\n      tag_36\n      swap2\n      swap1\n      tag_19\n      jump\t// in\n    tag_36:\n      mload(0x40)\n      dup1\n      swap2\n      sub\n      swap1\n      return\n        /* \"014-Safe Deposit Box/BaseDepositBox.sol\":665:893  function transferOwnership(address newOwner) external virtual override onlyOwner {... */\n    tag_10:\n      tag_37\n      0x04\n      dup1\n      calldatasize\n      sub\n      dup2\n      add\n      swap1\n      tag_38\n      swap2\n      swap1\n      tag_39\n      jump\t// in\n    tag_38:\n      tag_40\n      jump\t// in\n    tag_37:\n      stop\n        /* \"014-Safe Deposit Box/TimeLockedDepositBox.sol\":496:613  function getBoxType() external pure override returns(string memory) {... */\n    tag_13:\n        /* \"014-Safe Deposit Box/TimeLockedDepositBox.sol\":549:562  string memory */\n      0x60\n        /* \"014-Safe Deposit Box/TimeLockedDepositBox.sol\":574:606  return \"Time Locked Deposit Box\" */\n      mload(0x40)\n      dup1\n      0x40\n      add\n      0x40\n      mstore\n      dup1\n      0x17\n      dup2\n      mstore\n      0x20\n      add\n      0x54696d65204c6f636b6564204465706f73697420426f78000000000000000000\n      dup2\n      mstore\n      pop\n      swap1\n      pop\n        /* \"014-Safe Deposit Box/TimeLockedDepositBox.sol\":496:613  function getBoxType() external pure override returns(string memory) {... */\n      swap1\n      jump\t// out\n        /* \"014-Safe Deposit Box/BaseDepositBox.sol\":1161:1281  function getDepositTime() external view virtual override onlyOwner returns (uint256) {... */\n    tag_17:\n        /* \"014-Safe Deposit Box/BaseDepositBox.sol\":1237:1244  uint256 */\n      0x00\n        /* \"014-Safe Deposit Box/BaseDepositBox.sol\":511:516  owner */\n      0x00\n      0x00\n      swap1\n      sload\n      swap1\n      0x0100\n      exp\n      swap1\n      div\n      0xffffffffffffffffffffffffffffffffffffffff\n      and\n        /* \"014-Safe Deposit Box/BaseDepositBox.sol\":497:516  msg.sender == owner */\n      0xffffffffffffffffffffffffffffffffffffffff\n      and\n        /* \"014-Safe Deposit Box/BaseDepositBox.sol\":497:507  msg.sender */\n      caller\n        /* \"014-Safe Deposit Box/BaseDepositBox.sol\":497:516  msg.sender == owner */\n      0xffffffffffffffffffffffffffffffffffffffff\n      and\n      eq\n        /* \"014-Safe Deposit Box/BaseDepositBox.sol\":489:556  require(msg.sender == owner, \"Only owner can perform this action.\") */\n      tag_43\n      jumpi\n      mload(0x40)\n      0x08c379a000000000000000000000000000000000000000000000000000000000\n      dup2\n      mstore\n      0x04\n      add\n      tag_44\n      swap1\n      tag_45\n      jump\t// in\n    tag_44:\n      mload(0x40)\n      dup1\n      swap2\n      sub\n      swap1\n      revert\n    tag_43:\n        /* \"014-Safe Deposit Box/BaseDepositBox.sol\":1263:1274  depositTime */\n      sload(0x02)\n        /* \"014-Safe Deposit Box/BaseDepositBox.sol\":1256:1274  return depositTime */\n      swap1\n      pop\n        /* \"014-Safe Deposit Box/BaseDepositBox.sol\":1161:1281  function getDepositTime() external view virtual override onlyOwner returns (uint256) {... */\n      swap1\n      jump\t// out\n        /* \"014-Safe Deposit Box/TimeLockedDepositBox.sol\":619:749  function getSecret() public view override onlyOwner timeUnlocked returns (string memory) {... */\n    tag_21:\n        /* \"014-Safe Deposit Box/TimeLockedDepositBox.sol\":693:706  string memory */\n      0x60\n        /* \"014-Safe Deposit Box/BaseDepositBox.sol\":511:516  owner */\n      0x00\n      0x00\n      swap1\n      sload\n      swap1\n      0x0100\n      exp\n      swap1\n      div\n      0xffffffffffffffffffffffffffffffffffffffff\n      and\n        /* \"014-Safe Deposit Box/BaseDepositBox.sol\":497:516  msg.sender == owner */\n      0xffffffffffffffffffffffffffffffffffffffff\n      and\n        /* \"014-Safe Deposit Box/BaseDepositBox.sol\":497:507  msg.sender */\n      caller\n        /* \"014-Safe Deposit Box/BaseDepositBox.sol\":497:516  msg.sender == owner */\n      0xffffffffffffffffffffffffffffffffffffffff\n      and\n      eq\n        /* \"014-Safe Deposit Box/BaseDepositBox.sol\":489:556  require(msg.sender == owner, \"Only owner can perform this action.\") */\n      tag_48\n      jumpi\n      mload(0x40)\n      0x08c379a000000000000000000000000000000000000000000000000000000000\n      dup2\n      mstore\n      0x04\n      add\n      tag_49\n      swap1\n      tag_45\n      jump\t// in\n    tag_49:\n      mload(0x40)\n      dup1\n      swap2\n      sub\n      swap1\n      revert\n    tag_48:\n        /* \"014-Safe Deposit Box/TimeLockedDepositBox.sol\":343:353  unlockTime */\n      sload(0x03)\n        /* \"014-Safe Deposit Box/TimeLockedDepositBox.sol\":324:339  block.timestamp */\n      timestamp\n        /* \"014-Safe Deposit Box/TimeLockedDepositBox.sol\":324:353  block.timestamp >= unlockTime */\n      lt\n      iszero\n        /* \"014-Safe Deposit Box/TimeLockedDepositBox.sol\":316:377  require(block.timestamp >= unlockTime, \"Box is still locked\") */\n      tag_51\n      jumpi\n      mload(0x40)\n      0x08c379a000000000000000000000000000000000000000000000000000000000\n      dup2\n      mstore\n      0x04\n      add\n      tag_52\n      swap1\n      tag_53\n      jump\t// in\n    tag_52:\n      mload(0x40)\n      dup1\n      swap2\n      sub\n      swap1\n      revert\n    tag_51:\n        /* \"014-Safe Deposit Box/TimeLockedDepositBox.sol\":725:742  super.getSecret() */\n      tag_55\n        /* \"014-Safe Deposit Box/TimeLockedDepositBox.sol\":725:740  super.getSecret */\n      tag_56\n        /* \"014-Safe Deposit Box/TimeLockedDepositBox.sol\":725:742  super.getSecret() */\n      jump\t// in\n    tag_55:\n        /* \"014-Safe Deposit Box/TimeLockedDepositBox.sol\":718:742  return super.getSecret() */\n      swap1\n      pop\n        /* \"014-Safe Deposit Box/TimeLockedDepositBox.sol\":619:749  function getSecret() public view override onlyOwner timeUnlocked returns (string memory) {... */\n      swap1\n      jump\t// out\n        /* \"014-Safe Deposit Box/TimeLockedDepositBox.sol\":401:490  function getUnlockTime() public view returns (uint256) {... */\n    tag_24:\n        /* \"014-Safe Deposit Box/TimeLockedDepositBox.sol\":447:454  uint256 */\n      0x00\n        /* \"014-Safe Deposit Box/TimeLockedDepositBox.sol\":473:483  unlockTime */\n      sload(0x03)\n        /* \"014-Safe Deposit Box/TimeLockedDepositBox.sol\":466:483  return unlockTime */\n      swap1\n      pop\n        /* \"014-Safe Deposit Box/TimeLockedDepositBox.sol\":401:490  function getUnlockTime() public view returns (uint256) {... */\n      swap1\n      jump\t// out\n        /* \"014-Safe Deposit Box/BaseDepositBox.sol\":580:659  function getOwner() public view returns (address) {... */\n    tag_27:\n        /* \"014-Safe Deposit Box/BaseDepositBox.sol\":621:628  address */\n      0x00\n        /* \"014-Safe Deposit Box/BaseDepositBox.sol\":647:652  owner */\n      0x00\n      0x00\n      swap1\n      sload\n      swap1\n      0x0100\n      exp\n      swap1\n      div\n      0xffffffffffffffffffffffffffffffffffffffff\n      and\n        /* \"014-Safe Deposit Box/BaseDepositBox.sol\":640:652  return owner */\n      swap1\n      pop\n        /* \"014-Safe Deposit Box/BaseDepositBox.sol\":580:659  function getOwner() public view returns (address) {... */\n      swap1\n      jump\t// out\n        /* \"014-Safe Deposit Box/BaseDepositBox.sol\":900:1054  function storeSecret(string calldata _secret) external virtual override onlyOwner {... */\n    tag_33:\n        /* \"014-Safe Deposit Box/BaseDepositBox.sol\":511:516  owner */\n      0x00\n      0x00\n      swap1\n      sload\n      swap1\n      0x0100\n      exp\n      swap1\n      div\n      0xffffffffffffffffffffffffffffffffffffffff\n      and\n        /* \"014-Safe Deposit Box/BaseDepositBox.sol\":497:516  msg.sender == owner */\n      0xffffffffffffffffffffffffffffffffffffffff\n      and\n        /* \"014-Safe Deposit Box/BaseDepositBox.sol\":497:507  msg.sender */\n      caller\n        /* \"014-Safe Deposit Box/BaseDepositBox.sol\":497:516  msg.sender == owner */\n      0xffffffffffffffffffffffffffffffffffffffff\n      and\n      eq\n        /* \"014-Safe Deposit Box/BaseDepositBox.sol\":489:556  require(msg.sender == owner, \"Only owner can perform this action.\") */\n      tag_60\n      jumpi\n      mload(0x40)\n      0x08c379a000000000000000000000000000000000000000000000000000000000\n      dup2\n      mstore\n      0x04\n      add\n      tag_61\n      swap1\n      tag_45\n      jump\t// in\n    tag_61:\n      mload(0x40)\n      dup1\n      swap2\n      sub\n      swap1\n      revert\n    tag_60:\n        /* \"014-Safe Deposit Box/BaseDepositBox.sol\":1001:1008  _secret */\n      dup2\n      dup2\n        /* \"014-Safe Deposit Box/BaseDepositBox.sol\":992:998  secret */\n      0x01\n        /* \"014-Safe Deposit Box/BaseDepositBox.sol\":992:1008  secret = _secret */\n      swap2\n      dup3\n      tag_63\n      swap3\n      swap2\n      swap1\n      tag_64\n      jump\t// in\n    tag_63:\n      pop\n        /* \"014-Safe Deposit Box/BaseDepositBox.sol\":1036:1046  msg.sender */\n      caller\n        /* \"014-Safe Deposit Box/BaseDepositBox.sol\":1023:1047  SecretStored(msg.sender) */\n      0xffffffffffffffffffffffffffffffffffffffff\n      and\n      0x0977f4c93d6a66455eb4f1467e8a01fec7c62b1ce20353fb51b7269712e11967\n      mload(0x40)\n      mload(0x40)\n      dup1\n      swap2\n      sub\n      swap1\n      log2\n        /* \"014-Safe Deposit Box/BaseDepositBox.sol\":900:1054  function storeSecret(string calldata _secret) external virtual override onlyOwner {... */\n      pop\n      pop\n      jump\t// out\n        /* \"014-Safe Deposit Box/TimeLockedDepositBox.sol\":755:920  function getRemainingTime() external view returns (uint256) {... */\n    tag_35:\n        /* \"014-Safe Deposit Box/TimeLockedDepositBox.sol\":806:813  uint256 */\n      0x00\n        /* \"014-Safe Deposit Box/TimeLockedDepositBox.sol\":848:858  unlockTime */\n      sload(0x03)\n        /* \"014-Safe Deposit Box/TimeLockedDepositBox.sol\":829:844  block.timestamp */\n      timestamp\n        /* \"014-Safe Deposit Box/TimeLockedDepositBox.sol\":829:858  block.timestamp >= unlockTime */\n      lt\n        /* \"014-Safe Deposit Box/TimeLockedDepositBox.sol\":825:868  if (block.timestamp >= unlockTime) return 0 */\n      tag_66\n      jumpi\n        /* \"014-Safe Deposit Box/TimeLockedDepositBox.sol\":867:868  0 */\n      0x00\n        /* \"014-Safe Deposit Box/TimeLockedDepositBox.sol\":860:868  return 0 */\n      swap1\n      pop\n      jump(tag_65)\n        /* \"014-Safe Deposit Box/TimeLockedDepositBox.sol\":825:868  if (block.timestamp >= unlockTime) return 0 */\n    tag_66:\n        /* \"014-Safe Deposit Box/TimeLockedDepositBox.sol\":898:913  block.timestamp */\n      timestamp\n        /* \"014-Safe Deposit Box/TimeLockedDepositBox.sol\":885:895  unlockTime */\n      sload(0x03)\n        /* \"014-Safe Deposit Box/TimeLockedDepositBox.sol\":885:913  unlockTime - block.timestamp */\n      tag_67\n      swap2\n      swap1\n      tag_68\n      jump\t// in\n    tag_67:\n        /* \"014-Safe Deposit Box/TimeLockedDepositBox.sol\":878:913  return unlockTime - block.timestamp */\n      swap1\n      pop\n        /* \"014-Safe Deposit Box/TimeLockedDepositBox.sol\":755:920  function getRemainingTime() external view returns (uint256) {... */\n    tag_65:\n      swap1\n      jump\t// out\n        /* \"014-Safe Deposit Box/BaseDepositBox.sol\":665:893  function transferOwnership(address newOwner) external virtual override onlyOwner {... */\n    tag_40:\n        /* \"014-Safe Deposit Box/BaseDepositBox.sol\":511:516  owner */\n      0x00\n      0x00\n      swap1\n      sload\n      swap1\n      0x0100\n      exp\n      swap1\n      div\n      0xffffffffffffffffffffffffffffffffffffffff\n      and\n        /* \"014-Safe Deposit Box/BaseDepositBox.sol\":497:516  msg.sender == owner */\n      0xffffffffffffffffffffffffffffffffffffffff\n      and\n        /* \"014-Safe Deposit Box/BaseDepositBox.sol\":497:507  msg.sender */\n      caller\n        /* \"014-Safe Deposit Box/BaseDepositBox.sol\":497:516  msg.sender == owner */\n      0xffffffffffffffffffffffffffffffffffffffff\n      and\n      eq\n        /* \"014-Safe Deposit Box/BaseDepositBox.sol\":489:556  require(msg.sender == owner, \"Only owner can perform this action.\") */\n      tag_70\n      jumpi\n      mload(0x40)\n      0x08c379a000000000000000000000000000000000000000000000000000000000\n      dup2\n      mstore\n      0x04\n      add\n      tag_71\n      swap1\n      tag_45\n      jump\t// in\n    tag_71:\n      mload(0x40)\n      dup1\n      swap2\n      sub\n      swap1\n      revert\n    tag_70:\n        /* \"014-Safe Deposit Box/BaseDepositBox.sol\":778:786  newOwner */\n      dup1\n        /* \"014-Safe Deposit Box/BaseDepositBox.sol\":764:786  address(0) != newOwner */\n      0xffffffffffffffffffffffffffffffffffffffff\n      and\n        /* \"014-Safe Deposit Box/BaseDepositBox.sol\":772:773  0 */\n      0x00\n        /* \"014-Safe Deposit Box/BaseDepositBox.sol\":764:786  address(0) != newOwner */\n      0xffffffffffffffffffffffffffffffffffffffff\n      and\n      sub\n        /* \"014-Safe Deposit Box/BaseDepositBox.sol\":756:806  require(address(0) != newOwner, \"Invalid address\") */\n      tag_73\n      jumpi\n      mload(0x40)\n      0x08c379a000000000000000000000000000000000000000000000000000000000\n      dup2\n      mstore\n      0x04\n      add\n      tag_74\n      swap1\n      tag_75\n      jump\t// in\n    tag_74:\n      mload(0x40)\n      dup1\n      swap2\n      sub\n      swap1\n      revert\n    tag_73:\n        /* \"014-Safe Deposit Box/BaseDepositBox.sol\":824:832  newOwner */\n      dup1\n        /* \"014-Safe Deposit Box/BaseDepositBox.sol\":816:821  owner */\n      0x00\n      0x00\n        /* \"014-Safe Deposit Box/BaseDepositBox.sol\":816:832  owner = newOwner */\n      0x0100\n      exp\n      dup2\n      sload\n      dup2\n      0xffffffffffffffffffffffffffffffffffffffff\n      mul\n      not\n      and\n      swap1\n      dup4\n      0xffffffffffffffffffffffffffffffffffffffff\n      and\n      mul\n      or\n      swap1\n      sstore\n      pop\n        /* \"014-Safe Deposit Box/BaseDepositBox.sol\":877:885  newOwner */\n      dup1\n        /* \"014-Safe Deposit Box/BaseDepositBox.sol\":847:886  TransferOwnership(msg.sender, newOwner) */\n      0xffffffffffffffffffffffffffffffffffffffff\n      and\n        /* \"014-Safe Deposit Box/BaseDepositBox.sol\":865:875  msg.sender */\n      caller\n        /* \"014-Safe Deposit Box/BaseDepositBox.sol\":847:886  TransferOwnership(msg.sender, newOwner) */\n      0xffffffffffffffffffffffffffffffffffffffff\n      and\n      0x5c486528ec3e3f0ea91181cff8116f02bfa350e03b8b6f12e00765adbb5af85c\n      mload(0x40)\n      mload(0x40)\n      dup1\n      swap2\n      sub\n      swap1\n      log3\n        /* \"014-Safe Deposit Box/BaseDepositBox.sol\":665:893  function transferOwnership(address newOwner) external virtual override onlyOwner {... */\n      pop\n      jump\t// out\n        /* \"014-Safe Deposit Box/BaseDepositBox.sol\":1060:1155  function getSecret() public view virtual returns (string memory) {... */\n    tag_56:\n        /* \"014-Safe Deposit Box/BaseDepositBox.sol\":1110:1123  string memory */\n      0x60\n        /* \"014-Safe Deposit Box/BaseDepositBox.sol\":1142:1148  secret */\n      0x01\n        /* \"014-Safe Deposit Box/BaseDepositBox.sol\":1135:1148  return secret */\n      dup1\n      sload\n      tag_77\n      swap1\n      tag_78\n      jump\t// in\n    tag_77:\n      dup1\n      0x1f\n      add\n      0x20\n      dup1\n      swap2\n      div\n      mul\n      0x20\n      add\n      mload(0x40)\n      swap1\n      dup2\n      add\n      0x40\n      mstore\n      dup1\n      swap3\n      swap2\n      swap1\n      dup2\n      dup2\n      mstore\n      0x20\n      add\n      dup3\n      dup1\n      sload\n      tag_79\n      swap1\n      tag_78\n      jump\t// in\n    tag_79:\n      dup1\n      iszero\n      tag_80\n      jumpi\n      dup1\n      0x1f\n      lt\n      tag_81\n      jumpi\n      0x0100\n      dup1\n      dup4\n      sload\n      div\n      mul\n      dup4\n      mstore\n      swap2\n      0x20\n      add\n      swap2\n      jump(tag_80)\n    tag_81:\n      dup3\n      add\n      swap2\n      swap1\n      0x00\n      mstore\n      keccak256(0x00, 0x20)\n      swap1\n    tag_82:\n      dup2\n      sload\n      dup2\n      mstore\n      swap1\n      0x01\n      add\n      swap1\n      0x20\n      add\n      dup1\n      dup4\n      gt\n      tag_82\n      jumpi\n      dup3\n      swap1\n      sub\n      0x1f\n      and\n      dup3\n      add\n      swap2\n    tag_80:\n      pop\n      pop\n      pop\n      pop\n      pop\n      swap1\n      pop\n        /* \"014-Safe Deposit Box/BaseDepositBox.sol\":1060:1155  function getSecret() public view virtual returns (string memory) {... */\n      swap1\n      jump\t// out\n        /* \"#utility.yul\":7:106   */\n    tag_83:\n        /* \"#utility.yul\":59:65   */\n      0x00\n        /* \"#utility.yul\":93:98   */\n      dup2\n        /* \"#utility.yul\":87:99   */\n      mload\n        /* \"#utility.yul\":77:99   */\n      swap1\n      pop\n        /* \"#utility.yul\":7:106   */\n      swap2\n      swap1\n      pop\n      jump\t// out\n        /* \"#utility.yul\":112:281   */\n    tag_84:\n        /* \"#utility.yul\":196:207   */\n      0x00\n        /* \"#utility.yul\":230:236   */\n      dup3\n        /* \"#utility.yul\":225:228   */\n      dup3\n        /* \"#utility.yul\":218:237   */\n      mstore\n        /* \"#utility.yul\":270:274   */\n      0x20\n        /* \"#utility.yul\":265:268   */\n      dup3\n        /* \"#utility.yul\":261:275   */\n      add\n        /* \"#utility.yul\":246:275   */\n      swap1\n      pop\n        /* \"#utility.yul\":112:281   */\n      swap3\n      swap2\n      pop\n      pop\n      jump\t// out\n        /* \"#utility.yul\":287:426   */\n    tag_85:\n        /* \"#utility.yul\":376:382   */\n      dup3\n        /* \"#utility.yul\":371:374   */\n      dup2\n        /* \"#utility.yul\":366:369   */\n      dup4\n        /* \"#utility.yul\":360:383   */\n      mcopy\n        /* \"#utility.yul\":417:418   */\n      0x00\n        /* \"#utility.yul\":408:414   */\n      dup4\n        /* \"#utility.yul\":403:406   */\n      dup4\n        /* \"#utility.yul\":399:415   */\n      add\n        /* \"#utility.yul\":392:419   */\n      mstore\n        /* \"#utility.yul\":287:426   */\n      pop\n      pop\n      pop\n      jump\t// out\n        /* \"#utility.yul\":432:534   */\n    tag_86:\n        /* \"#utility.yul\":473:479   */\n      0x00\n        /* \"#utility.yul\":524:526   */\n      0x1f\n        /* \"#utility.yul\":520:527   */\n      not\n        /* \"#utility.yul\":515:517   */\n      0x1f\n        /* \"#utility.yul\":508:513   */\n      dup4\n        /* \"#utility.yul\":504:518   */\n      add\n        /* \"#utility.yul\":500:528   */\n      and\n        /* \"#utility.yul\":490:528   */\n      swap1\n      pop\n        /* \"#utility.yul\":432:534   */\n      swap2\n      swap1\n      pop\n      jump\t// out\n        /* \"#utility.yul\":540:917   */\n    tag_87:\n        /* \"#utility.yul\":628:631   */\n      0x00\n        /* \"#utility.yul\":656:695   */\n      tag_133\n        /* \"#utility.yul\":689:694   */\n      dup3\n        /* \"#utility.yul\":656:695   */\n      tag_83\n      jump\t// in\n    tag_133:\n        /* \"#utility.yul\":711:782   */\n      tag_134\n        /* \"#utility.yul\":775:781   */\n      dup2\n        /* \"#utility.yul\":770:773   */\n      dup6\n        /* \"#utility.yul\":711:782   */\n      tag_84\n      jump\t// in\n    tag_134:\n        /* \"#utility.yul\":704:782   */\n      swap4\n      pop\n        /* \"#utility.yul\":791:856   */\n      tag_135\n        /* \"#utility.yul\":849:855   */\n      dup2\n        /* \"#utility.yul\":844:847   */\n      dup6\n        /* \"#utility.yul\":837:841   */\n      0x20\n        /* \"#utility.yul\":830:835   */\n      dup7\n        /* \"#utility.yul\":826:842   */\n      add\n        /* \"#utility.yul\":791:856   */\n      tag_85\n      jump\t// in\n    tag_135:\n        /* \"#utility.yul\":881:910   */\n      tag_136\n        /* \"#utility.yul\":903:909   */\n      dup2\n        /* \"#utility.yul\":881:910   */\n      tag_86\n      jump\t// in\n    tag_136:\n        /* \"#utility.yul\":876:879   */\n      dup5\n        /* \"#utility.yul\":872:911   */\n      add\n        /* \"#utility.yul\":865:911   */\n      swap2\n      pop\n        /* \"#utility.yul\":632:917   */\n      pop\n        /* \"#utility.yul\":540:917   */\n      swap3\n      swap2\n      pop\n      pop\n      jump\t// out\n        /* \"#utility.yul\":923:1236   */\n    tag_15:\n        /* \"#utility.yul\":1036:1040   */\n      0x00\n        /* \"#utility.yul\":1074:1076   */\n      0x20\n        /* \"#utility.yul\":1063:1072   */\n      dup3\n        /* \"#utility.yul\":1059:1077   */\n      add\n        /* \"#utility.yul\":1051:1077   */\n      swap1\n      pop\n        /* \"#utility.yul\":1123:1132   */\n      dup2\n        /* \"#utility.yul\":1117:1121   */\n      dup2\n        /* \"#utility.yul\":1113:1133   */\n      sub\n        /* \"#utility.yul\":1109:1110   */\n      0x00\n        /* \"#utility.yul\":1098:1107   */\n      dup4\n        /* \"#utility.yul\":1094:1111   */\n      add\n        /* \"#utility.yul\":1087:1134   */\n      mstore\n        /* \"#utility.yul\":1151:1229   */\n      tag_138\n        /* \"#utility.yul\":1224:1228   */\n      dup2\n        /* \"#utility.yul\":1215:1221   */\n      dup5\n        /* \"#utility.yul\":1151:1229   */\n      tag_87\n      jump\t// in\n    tag_138:\n        /* \"#utility.yul\":1143:1229   */\n      swap1\n      pop\n        /* \"#utility.yul\":923:1236   */\n      swap3\n      swap2\n      pop\n      pop\n      jump\t// out\n        /* \"#utility.yul\":1242:1319   */\n    tag_88:\n        /* \"#utility.yul\":1279:1286   */\n      0x00\n        /* \"#utility.yul\":1308:1313   */\n      dup2\n        /* \"#utility.yul\":1297:1313   */\n      swap1\n      pop\n        /* \"#utility.yul\":1242:1319   */\n      swap2\n      swap1\n      pop\n      jump\t// out\n        /* \"#utility.yul\":1325:1443   */\n    tag_89:\n        /* \"#utility.yul\":1412:1436   */\n      tag_141\n        /* \"#utility.yul\":1430:1435   */\n      dup2\n        /* \"#utility.yul\":1412:1436   */\n      tag_88\n      jump\t// in\n    tag_141:\n        /* \"#utility.yul\":1407:1410   */\n      dup3\n        /* \"#utility.yul\":1400:1437   */\n      mstore\n        /* \"#utility.yul\":1325:1443   */\n      pop\n      pop\n      jump\t// out\n        /* \"#utility.yul\":1449:1671   */\n    tag_19:\n        /* \"#utility.yul\":1542:1546   */\n      0x00\n        /* \"#utility.yul\":1580:1582   */\n      0x20\n        /* \"#utility.yul\":1569:1578   */\n      dup3\n        /* \"#utility.yul\":1565:1583   */\n      add\n        /* \"#utility.yul\":1557:1583   */\n      swap1\n      pop\n        /* \"#utility.yul\":1593:1664   */\n      tag_143\n        /* \"#utility.yul\":1661:1662   */\n      0x00\n        /* \"#utility.yul\":1650:1659   */\n      dup4\n        /* \"#utility.yul\":1646:1663   */\n      add\n        /* \"#utility.yul\":1637:1643   */\n      dup5\n        /* \"#utility.yul\":1593:1664   */\n      tag_89\n      jump\t// in\n    tag_143:\n        /* \"#utility.yul\":1449:1671   */\n      swap3\n      swap2\n      pop\n      pop\n      jump\t// out\n        /* \"#utility.yul\":1677:1803   */\n    tag_90:\n        /* \"#utility.yul\":1714:1721   */\n      0x00\n        /* \"#utility.yul\":1754:1796   */\n      0xffffffffffffffffffffffffffffffffffffffff\n        /* \"#utility.yul\":1747:1752   */\n      dup3\n        /* \"#utility.yul\":1743:1797   */\n      and\n        /* \"#utility.yul\":1732:1797   */\n      swap1\n      pop\n        /* \"#utility.yul\":1677:1803   */\n      swap2\n      swap1\n      pop\n      jump\t// out\n        /* \"#utility.yul\":1809:1905   */\n    tag_91:\n        /* \"#utility.yul\":1846:1853   */\n      0x00\n        /* \"#utility.yul\":1875:1899   */\n      tag_146\n        /* \"#utility.yul\":1893:1898   */\n      dup3\n        /* \"#utility.yul\":1875:1899   */\n      tag_90\n      jump\t// in\n    tag_146:\n        /* \"#utility.yul\":1864:1899   */\n      swap1\n      pop\n        /* \"#utility.yul\":1809:1905   */\n      swap2\n      swap1\n      pop\n      jump\t// out\n        /* \"#utility.yul\":1911:2029   */\n    tag_92:\n        /* \"#utility.yul\":1998:2022   */\n      tag_148\n        /* \"#utility.yul\":2016:2021   */\n      dup2\n        /* \"#utility.yul\":1998:2022   */\n      tag_91\n      jump\t// in\n    tag_148:\n        /* \"#utility.yul\":1993:1996   */\n      dup3\n        /* \"#utility.yul\":1986:2023   */\n      mstore\n        /* \"#utility.yul\":1911:2029   */\n      pop\n      pop\n      jump\t// out\n        /* \"#utility.yul\":2035:2257   */\n    tag_29:\n        /* \"#utility.yul\":2128:2132   */\n      0x00\n        /* \"#utility.yul\":2166:2168   */\n      0x20\n        /* \"#utility.yul\":2155:2164   */\n      dup3\n        /* \"#utility.yul\":2151:2169   */\n      add\n        /* \"#utility.yul\":2143:2169   */\n      swap1\n      pop\n        /* \"#utility.yul\":2179:2250   */\n      tag_150\n        /* \"#utility.yul\":2247:2248   */\n      0x00\n        /* \"#utility.yul\":2236:2245   */\n      dup4\n        /* \"#utility.yul\":2232:2249   */\n      add\n        /* \"#utility.yul\":2223:2229   */\n      dup5\n        /* \"#utility.yul\":2179:2250   */\n      tag_92\n      jump\t// in\n    tag_150:\n        /* \"#utility.yul\":2035:2257   */\n      swap3\n      swap2\n      pop\n      pop\n      jump\t// out\n        /* \"#utility.yul\":2344:2461   */\n    tag_94:\n        /* \"#utility.yul\":2453:2454   */\n      0x00\n        /* \"#utility.yul\":2450:2451   */\n      0x00\n        /* \"#utility.yul\":2443:2455   */\n      revert\n        /* \"#utility.yul\":2467:2584   */\n    tag_95:\n        /* \"#utility.yul\":2576:2577   */\n      0x00\n        /* \"#utility.yul\":2573:2574   */\n      0x00\n        /* \"#utility.yul\":2566:2578   */\n      revert\n        /* \"#utility.yul\":2590:2707   */\n    tag_96:\n        /* \"#utility.yul\":2699:2700   */\n      0x00\n        /* \"#utility.yul\":2696:2697   */\n      0x00\n        /* \"#utility.yul\":2689:2701   */\n      revert\n        /* \"#utility.yul\":2713:2830   */\n    tag_97:\n        /* \"#utility.yul\":2822:2823   */\n      0x00\n        /* \"#utility.yul\":2819:2820   */\n      0x00\n        /* \"#utility.yul\":2812:2824   */\n      revert\n        /* \"#utility.yul\":2836:2953   */\n    tag_98:\n        /* \"#utility.yul\":2945:2946   */\n      0x00\n        /* \"#utility.yul\":2942:2943   */\n      0x00\n        /* \"#utility.yul\":2935:2947   */\n      revert\n        /* \"#utility.yul\":2973:3526   */\n    tag_99:\n        /* \"#utility.yul\":3031:3039   */\n      0x00\n        /* \"#utility.yul\":3041:3047   */\n      0x00\n        /* \"#utility.yul\":3091:3094   */\n      dup4\n        /* \"#utility.yul\":3084:3088   */\n      0x1f\n        /* \"#utility.yul\":3076:3082   */\n      dup5\n        /* \"#utility.yul\":3072:3089   */\n      add\n        /* \"#utility.yul\":3068:3095   */\n      slt\n        /* \"#utility.yul\":3058:3180   */\n      tag_158\n      jumpi\n        /* \"#utility.yul\":3099:3178   */\n      tag_159\n      tag_96\n      jump\t// in\n    tag_159:\n        /* \"#utility.yul\":3058:3180   */\n    tag_158:\n        /* \"#utility.yul\":3212:3218   */\n      dup3\n        /* \"#utility.yul\":3199:3219   */\n      calldataload\n        /* \"#utility.yul\":3189:3219   */\n      swap1\n      pop\n        /* \"#utility.yul\":3242:3260   */\n      0xffffffffffffffff\n        /* \"#utility.yul\":3234:3240   */\n      dup2\n        /* \"#utility.yul\":3231:3261   */\n      gt\n        /* \"#utility.yul\":3228:3345   */\n      iszero\n      tag_160\n      jumpi\n        /* \"#utility.yul\":3264:3343   */\n      tag_161\n      tag_97\n      jump\t// in\n    tag_161:\n        /* \"#utility.yul\":3228:3345   */\n    tag_160:\n        /* \"#utility.yul\":3378:3382   */\n      0x20\n        /* \"#utility.yul\":3370:3376   */\n      dup4\n        /* \"#utility.yul\":3366:3383   */\n      add\n        /* \"#utility.yul\":3354:3383   */\n      swap2\n      pop\n        /* \"#utility.yul\":3432:3435   */\n      dup4\n        /* \"#utility.yul\":3424:3428   */\n      0x01\n        /* \"#utility.yul\":3416:3422   */\n      dup3\n        /* \"#utility.yul\":3412:3429   */\n      mul\n        /* \"#utility.yul\":3402:3410   */\n      dup4\n        /* \"#utility.yul\":3398:3430   */\n      add\n        /* \"#utility.yul\":3395:3436   */\n      gt\n        /* \"#utility.yul\":3392:3520   */\n      iszero\n      tag_162\n      jumpi\n        /* \"#utility.yul\":3439:3518   */\n      tag_163\n      tag_98\n      jump\t// in\n    tag_163:\n        /* \"#utility.yul\":3392:3520   */\n    tag_162:\n        /* \"#utility.yul\":2973:3526   */\n      swap3\n      pop\n      swap3\n      swap1\n      pop\n      jump\t// out\n        /* \"#utility.yul\":3532:4061   */\n    tag_32:\n        /* \"#utility.yul\":3603:3609   */\n      0x00\n        /* \"#utility.yul\":3611:3617   */\n      0x00\n        /* \"#utility.yul\":3660:3662   */\n      0x20\n        /* \"#utility.yul\":3648:3657   */\n      dup4\n        /* \"#utility.yul\":3639:3646   */\n      dup6\n        /* \"#utility.yul\":3635:3658   */\n      sub\n        /* \"#utility.yul\":3631:3663   */\n      slt\n        /* \"#utility.yul\":3628:3747   */\n      iszero\n      tag_165\n      jumpi\n        /* \"#utility.yul\":3666:3745   */\n      tag_166\n      tag_94\n      jump\t// in\n    tag_166:\n        /* \"#utility.yul\":3628:3747   */\n    tag_165:\n        /* \"#utility.yul\":3814:3815   */\n      0x00\n        /* \"#utility.yul\":3803:3812   */\n      dup4\n        /* \"#utility.yul\":3799:3816   */\n      add\n        /* \"#utility.yul\":3786:3817   */\n      calldataload\n        /* \"#utility.yul\":3844:3862   */\n      0xffffffffffffffff\n        /* \"#utility.yul\":3836:3842   */\n      dup2\n        /* \"#utility.yul\":3833:3863   */\n      gt\n        /* \"#utility.yul\":3830:3947   */\n      iszero\n      tag_167\n      jumpi\n        /* \"#utility.yul\":3866:3945   */\n      tag_168\n      tag_95\n      jump\t// in\n    tag_168:\n        /* \"#utility.yul\":3830:3947   */\n    tag_167:\n        /* \"#utility.yul\":3979:4044   */\n      tag_169\n        /* \"#utility.yul\":4036:4043   */\n      dup6\n        /* \"#utility.yul\":4027:4033   */\n      dup3\n        /* \"#utility.yul\":4016:4025   */\n      dup7\n        /* \"#utility.yul\":4012:4034   */\n      add\n        /* \"#utility.yul\":3979:4044   */\n      tag_99\n      jump\t// in\n    tag_169:\n        /* \"#utility.yul\":3961:4044   */\n      swap3\n      pop\n      swap3\n      pop\n        /* \"#utility.yul\":3757:4054   */\n      pop\n        /* \"#utility.yul\":3532:4061   */\n      swap3\n      pop\n      swap3\n      swap1\n      pop\n      jump\t// out\n        /* \"#utility.yul\":4067:4189   */\n    tag_100:\n        /* \"#utility.yul\":4140:4164   */\n      tag_171\n        /* \"#utility.yul\":4158:4163   */\n      dup2\n        /* \"#utility.yul\":4140:4164   */\n      tag_91\n      jump\t// in\n    tag_171:\n        /* \"#utility.yul\":4133:4138   */\n      dup2\n        /* \"#utility.yul\":4130:4165   */\n      eq\n        /* \"#utility.yul\":4120:4183   */\n      tag_172\n      jumpi\n        /* \"#utility.yul\":4179:4180   */\n      0x00\n        /* \"#utility.yul\":4176:4177   */\n      0x00\n        /* \"#utility.yul\":4169:4181   */\n      revert\n        /* \"#utility.yul\":4120:4183   */\n    tag_172:\n        /* \"#utility.yul\":4067:4189   */\n      pop\n      jump\t// out\n        /* \"#utility.yul\":4195:4334   */\n    tag_101:\n        /* \"#utility.yul\":4241:4246   */\n      0x00\n        /* \"#utility.yul\":4279:4285   */\n      dup2\n        /* \"#utility.yul\":4266:4286   */\n      calldataload\n        /* \"#utility.yul\":4257:4286   */\n      swap1\n      pop\n        /* \"#utility.yul\":4295:4328   */\n      tag_174\n        /* \"#utility.yul\":4322:4327   */\n      dup2\n        /* \"#utility.yul\":4295:4328   */\n      tag_100\n      jump\t// in\n    tag_174:\n        /* \"#utility.yul\":4195:4334   */\n      swap3\n      swap2\n      pop\n      pop\n      jump\t// out\n        /* \"#utility.yul\":4340:4669   */\n    tag_39:\n        /* \"#utility.yul\":4399:4405   */\n      0x00\n        /* \"#utility.yul\":4448:4450   */\n      0x20\n        /* \"#utility.yul\":4436:4445   */\n      dup3\n        /* \"#utility.yul\":4427:4434   */\n      dup5\n        /* \"#utility.yul\":4423:4446   */\n      sub\n        /* \"#utility.yul\":4419:4451   */\n      slt\n        /* \"#utility.yul\":4416:4535   */\n      iszero\n      tag_176\n      jumpi\n        /* \"#utility.yul\":4454:4533   */\n      tag_177\n      tag_94\n      jump\t// in\n    tag_177:\n        /* \"#utility.yul\":4416:4535   */\n    tag_176:\n        /* \"#utility.yul\":4574:4575   */\n      0x00\n        /* \"#utility.yul\":4599:4652   */\n      tag_178\n        /* \"#utility.yul\":4644:4651   */\n      dup5\n        /* \"#utility.yul\":4635:4641   */\n      dup3\n        /* \"#utility.yul\":4624:4633   */\n      dup6\n        /* \"#utility.yul\":4620:4642   */\n      add\n        /* \"#utility.yul\":4599:4652   */\n      tag_101\n      jump\t// in\n    tag_178:\n        /* \"#utility.yul\":4589:4652   */\n      swap2\n      pop\n        /* \"#utility.yul\":4545:4662   */\n      pop\n        /* \"#utility.yul\":4340:4669   */\n      swap3\n      swap2\n      pop\n      pop\n      jump\t// out\n        /* \"#utility.yul\":4675:4897   */\n    tag_102:\n        /* \"#utility.yul\":4815:4849   */\n      0x4f6e6c79206f776e65722063616e20706572666f726d20746869732061637469\n        /* \"#utility.yul\":4811:4812   */\n      0x00\n        /* \"#utility.yul\":4803:4809   */\n      dup3\n        /* \"#utility.yul\":4799:4813   */\n      add\n        /* \"#utility.yul\":4792:4850   */\n      mstore\n        /* \"#utility.yul\":4884:4889   */\n      0x6f6e2e0000000000000000000000000000000000000000000000000000000000\n        /* \"#utility.yul\":4879:4881   */\n      0x20\n        /* \"#utility.yul\":4871:4877   */\n      dup3\n        /* \"#utility.yul\":4867:4882   */\n      add\n        /* \"#utility.yul\":4860:4890   */\n      mstore\n        /* \"#utility.yul\":4675:4897   */\n      pop\n      jump\t// out\n        /* \"#utility.yul\":4903:5269   */\n    tag_103:\n        /* \"#utility.yul\":5045:5048   */\n      0x00\n        /* \"#utility.yul\":5066:5133   */\n      tag_181\n        /* \"#utility.yul\":5130:5132   */\n      0x23\n        /* \"#utility.yul\":5125:5128   */\n      dup4\n        /* \"#utility.yul\":5066:5133   */\n      tag_84\n      jump\t// in\n    tag_181:\n        /* \"#utility.yul\":5059:5133   */\n      swap2\n      pop\n        /* \"#utility.yul\":5142:5235   */\n      tag_182\n        /* \"#utility.yul\":5231:5234   */\n      dup3\n        /* \"#utility.yul\":5142:5235   */\n      tag_102\n      jump\t// in\n    tag_182:\n        /* \"#utility.yul\":5260:5262   */\n      0x40\n        /* \"#utility.yul\":5255:5258   */\n      dup3\n        /* \"#utility.yul\":5251:5263   */\n      add\n        /* \"#utility.yul\":5244:5263   */\n      swap1\n      pop\n        /* \"#utility.yul\":4903:5269   */\n      swap2\n      swap1\n      pop\n      jump\t// out\n        /* \"#utility.yul\":5275:5694   */\n    tag_45:\n        /* \"#utility.yul\":5441:5445   */\n      0x00\n        /* \"#utility.yul\":5479:5481   */\n      0x20\n        /* \"#utility.yul\":5468:5477   */\n      dup3\n        /* \"#utility.yul\":5464:5482   */\n      add\n        /* \"#utility.yul\":5456:5482   */\n      swap1\n      pop\n        /* \"#utility.yul\":5528:5537   */\n      dup2\n        /* \"#utility.yul\":5522:5526   */\n      dup2\n        /* \"#utility.yul\":5518:5538   */\n      sub\n        /* \"#utility.yul\":5514:5515   */\n      0x00\n        /* \"#utility.yul\":5503:5512   */\n      dup4\n        /* \"#utility.yul\":5499:5516   */\n      add\n        /* \"#utility.yul\":5492:5539   */\n      mstore\n        /* \"#utility.yul\":5556:5687   */\n      tag_184\n        /* \"#utility.yul\":5682:5686   */\n      dup2\n        /* \"#utility.yul\":5556:5687   */\n      tag_103\n      jump\t// in\n    tag_184:\n        /* \"#utility.yul\":5548:5687   */\n      swap1\n      pop\n        /* \"#utility.yul\":5275:5694   */\n      swap2\n      swap1\n      pop\n      jump\t// out\n        /* \"#utility.yul\":5700:5869   */\n    tag_104:\n        /* \"#utility.yul\":5840:5861   */\n      0x426f78206973207374696c6c206c6f636b656400000000000000000000000000\n        /* \"#utility.yul\":5836:5837   */\n      0x00\n        /* \"#utility.yul\":5828:5834   */\n      dup3\n        /* \"#utility.yul\":5824:5838   */\n      add\n        /* \"#utility.yul\":5817:5862   */\n      mstore\n        /* \"#utility.yul\":5700:5869   */\n      pop\n      jump\t// out\n        /* \"#utility.yul\":5875:6241   */\n    tag_105:\n        /* \"#utility.yul\":6017:6020   */\n      0x00\n        /* \"#utility.yul\":6038:6105   */\n      tag_187\n        /* \"#utility.yul\":6102:6104   */\n      0x13\n        /* \"#utility.yul\":6097:6100   */\n      dup4\n        /* \"#utility.yul\":6038:6105   */\n      tag_84\n      jump\t// in\n    tag_187:\n        /* \"#utility.yul\":6031:6105   */\n      swap2\n      pop\n        /* \"#utility.yul\":6114:6207   */\n      tag_188\n        /* \"#utility.yul\":6203:6206   */\n      dup3\n        /* \"#utility.yul\":6114:6207   */\n      tag_104\n      jump\t// in\n    tag_188:\n        /* \"#utility.yul\":6232:6234   */\n      0x20\n        /* \"#utility.yul\":6227:6230   */\n      dup3\n        /* \"#utility.yul\":6223:6235   */\n      add\n        /* \"#utility.yul\":6216:6235   */\n      swap1\n      pop\n        /* \"#utility.yul\":5875:6241   */\n      swap2\n      swap1\n      pop\n      jump\t// out\n        /* \"#utility.yul\":6247:6666   */\n    tag_53:\n        /* \"#utility.yul\":6413:6417   */\n      0x00\n        /* \"#utility.yul\":6451:6453   */\n      0x20\n        /* \"#utility.yul\":6440:6449   */\n      dup3\n        /* \"#utility.yul\":6436:6454   */\n      add\n        /* \"#utility.yul\":6428:6454   */\n      swap1\n      pop\n        /* \"#utility.yul\":6500:6509   */\n      dup2\n        /* \"#utility.yul\":6494:6498   */\n      dup2\n        /* \"#utility.yul\":6490:6510   */\n      sub\n        /* \"#utility.yul\":6486:6487   */\n      0x00\n        /* \"#utility.yul\":6475:6484   */\n      dup4\n        /* \"#utility.yul\":6471:6488   */\n      add\n        /* \"#utility.yul\":6464:6511   */\n      mstore\n        /* \"#utility.yul\":6528:6659   */\n      tag_190\n        /* \"#utility.yul\":6654:6658   */\n      dup2\n        /* \"#utility.yul\":6528:6659   */\n      tag_105\n      jump\t// in\n    tag_190:\n        /* \"#utility.yul\":6520:6659   */\n      swap1\n      pop\n        /* \"#utility.yul\":6247:6666   */\n      swap2\n      swap1\n      pop\n      jump\t// out\n        /* \"#utility.yul\":6672:6769   */\n    tag_106:\n        /* \"#utility.yul\":6731:6737   */\n      0x00\n        /* \"#utility.yul\":6759:6762   */\n      dup3\n        /* \"#utility.yul\":6749:6762   */\n      swap1\n      pop\n        /* \"#utility.yul\":6672:6769   */\n      swap3\n      swap2\n      pop\n      pop\n      jump\t// out\n        /* \"#utility.yul\":6775:6955   */\n    tag_107:\n        /* \"#utility.yul\":6823:6900   */\n      0x4e487b7100000000000000000000000000000000000000000000000000000000\n        /* \"#utility.yul\":6820:6821   */\n      0x00\n        /* \"#utility.yul\":6813:6901   */\n      mstore\n        /* \"#utility.yul\":6920:6924   */\n      0x41\n        /* \"#utility.yul\":6917:6918   */\n      0x04\n        /* \"#utility.yul\":6910:6925   */\n      mstore\n        /* \"#utility.yul\":6944:6948   */\n      0x24\n        /* \"#utility.yul\":6941:6942   */\n      0x00\n        /* \"#utility.yul\":6934:6949   */\n      revert\n        /* \"#utility.yul\":6961:7141   */\n    tag_108:\n        /* \"#utility.yul\":7009:7086   */\n      0x4e487b7100000000000000000000000000000000000000000000000000000000\n        /* \"#utility.yul\":7006:7007   */\n      0x00\n        /* \"#utility.yul\":6999:7087   */\n      mstore\n        /* \"#utility.yul\":7106:7110   */\n      0x22\n        /* \"#utility.yul\":7103:7104   */\n      0x04\n        /* \"#utility.yul\":7096:7111   */\n      mstore\n        /* \"#utility.yul\":7130:7134   */\n      0x24\n        /* \"#utility.yul\":7127:7128   */\n      0x00\n        /* \"#utility.yul\":7120:7135   */\n      revert\n        /* \"#utility.yul\":7147:7467   */\n    tag_78:\n        /* \"#utility.yul\":7191:7197   */\n      0x00\n        /* \"#utility.yul\":7228:7229   */\n      0x02\n        /* \"#utility.yul\":7222:7226   */\n      dup3\n        /* \"#utility.yul\":7218:7230   */\n      div\n        /* \"#utility.yul\":7208:7230   */\n      swap1\n      pop\n        /* \"#utility.yul\":7275:7276   */\n      0x01\n        /* \"#utility.yul\":7269:7273   */\n      dup3\n        /* \"#utility.yul\":7265:7277   */\n      and\n        /* \"#utility.yul\":7296:7314   */\n      dup1\n        /* \"#utility.yul\":7286:7367   */\n      tag_195\n      jumpi\n        /* \"#utility.yul\":7352:7356   */\n      0x7f\n        /* \"#utility.yul\":7344:7350   */\n      dup3\n        /* \"#utility.yul\":7340:7357   */\n      and\n        /* \"#utility.yul\":7330:7357   */\n      swap2\n      pop\n        /* \"#utility.yul\":7286:7367   */\n    tag_195:\n        /* \"#utility.yul\":7414:7416   */\n      0x20\n        /* \"#utility.yul\":7406:7412   */\n      dup3\n        /* \"#utility.yul\":7403:7417   */\n      lt\n        /* \"#utility.yul\":7383:7401   */\n      dup2\n        /* \"#utility.yul\":7380:7418   */\n      sub\n        /* \"#utility.yul\":7377:7461   */\n      tag_196\n      jumpi\n        /* \"#utility.yul\":7433:7451   */\n      tag_197\n      tag_108\n      jump\t// in\n    tag_197:\n        /* \"#utility.yul\":7377:7461   */\n    tag_196:\n        /* \"#utility.yul\":7198:7467   */\n      pop\n        /* \"#utility.yul\":7147:7467   */\n      swap2\n      swap1\n      pop\n      jump\t// out\n        /* \"#utility.yul\":7473:7614   */\n    tag_109:\n        /* \"#utility.yul\":7522:7526   */\n      0x00\n        /* \"#utility.yul\":7545:7548   */\n      dup2\n        /* \"#utility.yul\":7537:7548   */\n      swap1\n      pop\n        /* \"#utility.yul\":7568:7571   */\n      dup2\n        /* \"#utility.yul\":7565:7566   */\n      0x00\n        /* \"#utility.yul\":7558:7572   */\n      mstore\n        /* \"#utility.yul\":7602:7606   */\n      0x20\n        /* \"#utility.yul\":7599:7600   */\n      0x00\n        /* \"#utility.yul\":7589:7607   */\n      keccak256\n        /* \"#utility.yul\":7581:7607   */\n      swap1\n      pop\n        /* \"#utility.yul\":7473:7614   */\n      swap2\n      swap1\n      pop\n      jump\t// out\n        /* \"#utility.yul\":7620:7713   */\n    tag_110:\n        /* \"#utility.yul\":7657:7663   */\n      0x00\n        /* \"#utility.yul\":7704:7706   */\n      0x20\n        /* \"#utility.yul\":7699:7701   */\n      0x1f\n        /* \"#utility.yul\":7692:7697   */\n      dup4\n        /* \"#utility.yul\":7688:7702   */\n      add\n        /* \"#utility.yul\":7684:7707   */\n      div\n        /* \"#utility.yul\":7674:7707   */\n      swap1\n      pop\n        /* \"#utility.yul\":7620:7713   */\n      swap2\n      swap1\n      pop\n      jump\t// out\n        /* \"#utility.yul\":7719:7826   */\n    tag_111:\n        /* \"#utility.yul\":7763:7771   */\n      0x00\n        /* \"#utility.yul\":7813:7818   */\n      dup3\n        /* \"#utility.yul\":7807:7811   */\n      dup3\n        /* \"#utility.yul\":7803:7819   */\n      shl\n        /* \"#utility.yul\":7782:7819   */\n      swap1\n      pop\n        /* \"#utility.yul\":7719:7826   */\n      swap3\n      swap2\n      pop\n      pop\n      jump\t// out\n        /* \"#utility.yul\":7832:8225   */\n    tag_112:\n        /* \"#utility.yul\":7901:7907   */\n      0x00\n        /* \"#utility.yul\":7951:7952   */\n      0x08\n        /* \"#utility.yul\":7939:7949   */\n      dup4\n        /* \"#utility.yul\":7935:7953   */\n      mul\n        /* \"#utility.yul\":7974:8071   */\n      tag_202\n        /* \"#utility.yul\":8004:8070   */\n      0xffffffffffffffffffffffffffffffffffffffffffffffffffffffffffffffff\n        /* \"#utility.yul\":7993:8002   */\n      dup3\n        /* \"#utility.yul\":7974:8071   */\n      tag_111\n      jump\t// in\n    tag_202:\n        /* \"#utility.yul\":8092:8131   */\n      tag_203\n        /* \"#utility.yul\":8122:8130   */\n      dup7\n        /* \"#utility.yul\":8111:8120   */\n      dup4\n        /* \"#utility.yul\":8092:8131   */\n      tag_111\n      jump\t// in\n    tag_203:\n        /* \"#utility.yul\":8080:8131   */\n      swap6\n      pop\n        /* \"#utility.yul\":8164:8168   */\n      dup1\n        /* \"#utility.yul\":8160:8169   */\n      not\n        /* \"#utility.yul\":8153:8158   */\n      dup5\n        /* \"#utility.yul\":8149:8170   */\n      and\n        /* \"#utility.yul\":8140:8170   */\n      swap4\n      pop\n        /* \"#utility.yul\":8213:8217   */\n      dup1\n        /* \"#utility.yul\":8203:8211   */\n      dup7\n        /* \"#utility.yul\":8199:8218   */\n      and\n        /* \"#utility.yul\":8192:8197   */\n      dup5\n        /* \"#utility.yul\":8189:8219   */\n      or\n        /* \"#utility.yul\":8179:8219   */\n      swap3\n      pop\n        /* \"#utility.yul\":7908:8225   */\n      pop\n      pop\n        /* \"#utility.yul\":7832:8225   */\n      swap4\n      swap3\n      pop\n      pop\n      pop\n      jump\t// out\n        /* \"#utility.yul\":8231:8291   */\n    tag_113:\n        /* \"#utility.yul\":8259:8262   */\n      0x00\n        /* \"#utility.yul\":8280:8285   */\n      dup2\n        /* \"#utility.yul\":8273:8285   */\n      swap1\n      pop\n        /* \"#utility.yul\":8231:8291   */\n      swap2\n      swap1\n      pop\n      jump\t// out\n        /* \"#utility.yul\":8297:8439   */\n    tag_114:\n        /* \"#utility.yul\":8347:8356   */\n      0x00\n        /* \"#utility.yul\":8380:8433   */\n      tag_206\n        /* \"#utility.yul\":8398:8432   */\n      tag_207\n        /* \"#utility.yul\":8407:8431   */\n      tag_208\n        /* \"#utility.yul\":8425:8430   */\n      dup5\n        /* \"#utility.yul\":8407:8431   */\n      tag_88\n      jump\t// in\n    tag_208:\n        /* \"#utility.yul\":8398:8432   */\n      tag_113\n      jump\t// in\n    tag_207:\n        /* \"#utility.yul\":8380:8433   */\n      tag_88\n      jump\t// in\n    tag_206:\n        /* \"#utility.yul\":8367:8433   */\n      swap1\n      pop\n        /* \"#utility.yul\":8297:8439   */\n      swap2\n      swap1\n      pop\n      jump\t// out\n        /* \"#utility.yul\":8445:8520   */\n    tag_115:\n        /* \"#utility.yul\":8488:8491   */\n      0x00\n        /* \"#utility.yul\":8509:8514   */\n      dup2\n        /* \"#utility.yul\":8502:8514   */\n      swap1\n      pop\n        /* \"#utility.yul\":8445:8520   */\n      swap2\n      swap1\n      pop\n      jump\t// out\n        /* \"#utility.yul\":8526:8795   */\n    tag_116:\n        /* \"#utility.yul\":8636:8675   */\n      tag_211\n        /* \"#utility.yul\":8667:8674   */\n      dup4\n        /* \"#utility.yul\":8636:8675   */\n      tag_114\n      jump\t// in\n    tag_211:\n        /* \"#utility.yul\":8697:8788   */\n      tag_212\n        /* \"#utility.yul\":8746:8787   */\n      tag_213\n        /* \"#utility.yul\":8770:8786   */\n      dup3\n        /* \"#utility.yul\":8746:8787   */\n      tag_115\n      jump\t// in\n    tag_213:\n        /* \"#utility.yul\":8738:8744   */\n      dup5\n        /* \"#utility.yul\":8731:8735   */\n      dup5\n        /* \"#utility.yul\":8725:8736   */\n      sload\n        /* \"#utility.yul\":8697:8788   */\n      tag_112\n      jump\t// in\n    tag_212:\n        /* \"#utility.yul\":8691:8695   */\n      dup3\n        /* \"#utility.yul\":8684:8789   */\n      sstore\n        /* \"#utility.yul\":8602:8795   */\n      pop\n        /* \"#utility.yul\":8526:8795   */\n      pop\n      pop\n      pop\n      jump\t// out\n        /* \"#utility.yul\":8801:8874   */\n    tag_117:\n        /* \"#utility.yul\":8846:8849   */\n      0x00\n        /* \"#utility.yul\":8867:8868   */\n      0x00\n        /* \"#utility.yul\":8860:8868   */\n      swap1\n      pop\n        /* \"#utility.yul\":8801:8874   */\n      swap1\n      jump\t// out\n        /* \"#utility.yul\":8880:9069   */\n    tag_118:\n        /* \"#utility.yul\":8957:8989   */\n      tag_216\n      tag_117\n      jump\t// in\n    tag_216:\n        /* \"#utility.yul\":8998:9063   */\n      tag_217\n        /* \"#utility.yul\":9056:9062   */\n      dup2\n        /* \"#utility.yul\":9048:9054   */\n      dup5\n        /* \"#utility.yul\":9042:9046   */\n      dup5\n        /* \"#utility.yul\":8998:9063   */\n      tag_116\n      jump\t// in\n    tag_217:\n        /* \"#utility.yul\":8933:9069   */\n      pop\n        /* \"#utility.yul\":8880:9069   */\n      pop\n      pop\n      jump\t// out\n        /* \"#utility.yul\":9075:9261   */\n    tag_119:\n        /* \"#utility.yul\":9135:9255   */\n    tag_219:\n        /* \"#utility.yul\":9152:9155   */\n      dup2\n        /* \"#utility.yul\":9145:9150   */\n      dup2\n        /* \"#utility.yul\":9142:9156   */\n      lt\n        /* \"#utility.yul\":9135:9255   */\n      iszero\n      tag_221\n      jumpi\n        /* \"#utility.yul\":9206:9245   */\n      tag_222\n        /* \"#utility.yul\":9243:9244   */\n      0x00\n        /* \"#utility.yul\":9236:9241   */\n      dup3\n        /* \"#utility.yul\":9206:9245   */\n      tag_118\n      jump\t// in\n    tag_222:\n        /* \"#utility.yul\":9179:9180   */\n      0x01\n        /* \"#utility.yul\":9172:9177   */\n      dup2\n        /* \"#utility.yul\":9168:9181   */\n      add\n        /* \"#utility.yul\":9159:9181   */\n      swap1\n      pop\n        /* \"#utility.yul\":9135:9255   */\n      jump(tag_219)\n    tag_221:\n        /* \"#utility.yul\":9075:9261   */\n      pop\n      pop\n      jump\t// out\n        /* \"#utility.yul\":9267:9810   */\n    tag_120:\n        /* \"#utility.yul\":9368:9370   */\n      0x1f\n        /* \"#utility.yul\":9363:9366   */\n      dup3\n        /* \"#utility.yul\":9360:9371   */\n      gt\n        /* \"#utility.yul\":9357:9803   */\n      iszero\n      tag_224\n      jumpi\n        /* \"#utility.yul\":9402:9440   */\n      tag_225\n        /* \"#utility.yul\":9434:9439   */\n      dup2\n        /* \"#utility.yul\":9402:9440   */\n      tag_109\n      jump\t// in\n    tag_225:\n        /* \"#utility.yul\":9486:9515   */\n      tag_226\n        /* \"#utility.yul\":9504:9514   */\n      dup5\n        /* \"#utility.yul\":9486:9515   */\n      tag_110\n      jump\t// in\n    tag_226:\n        /* \"#utility.yul\":9476:9484   */\n      dup2\n        /* \"#utility.yul\":9472:9516   */\n      add\n        /* \"#utility.yul\":9669:9671   */\n      0x20\n        /* \"#utility.yul\":9657:9667   */\n      dup6\n        /* \"#utility.yul\":9654:9672   */\n      lt\n        /* \"#utility.yul\":9651:9700   */\n      iszero\n      tag_227\n      jumpi\n        /* \"#utility.yul\":9690:9698   */\n      dup2\n        /* \"#utility.yul\":9675:9698   */\n      swap1\n      pop\n        /* \"#utility.yul\":9651:9700   */\n    tag_227:\n        /* \"#utility.yul\":9713:9793   */\n      tag_228\n        /* \"#utility.yul\":9769:9791   */\n      tag_229\n        /* \"#utility.yul\":9787:9790   */\n      dup6\n        /* \"#utility.yul\":9769:9791   */\n      tag_110\n      jump\t// in\n    tag_229:\n        /* \"#utility.yul\":9759:9767   */\n      dup4\n        /* \"#utility.yul\":9755:9792   */\n      add\n        /* \"#utility.yul\":9742:9753   */\n      dup3\n        /* \"#utility.yul\":9713:9793   */\n      tag_119\n      jump\t// in\n    tag_228:\n        /* \"#utility.yul\":9372:9803   */\n      pop\n      pop\n        /* \"#utility.yul\":9357:9803   */\n    tag_224:\n        /* \"#utility.yul\":9267:9810   */\n      pop\n      pop\n      pop\n      jump\t// out\n        /* \"#utility.yul\":9816:9933   */\n    tag_121:\n        /* \"#utility.yul\":9870:9878   */\n      0x00\n        /* \"#utility.yul\":9920:9925   */\n      dup3\n        /* \"#utility.yul\":9914:9918   */\n      dup3\n        /* \"#utility.yul\":9910:9926   */\n      shr\n        /* \"#utility.yul\":9889:9926   */\n      swap1\n      pop\n        /* \"#utility.yul\":9816:9933   */\n      swap3\n      swap2\n      pop\n      pop\n      jump\t// out\n        /* \"#utility.yul\":9939:10108   */\n    tag_122:\n        /* \"#utility.yul\":9983:9989   */\n      0x00\n        /* \"#utility.yul\":10016:10067   */\n      tag_232\n        /* \"#utility.yul\":10064:10065   */\n      0x00\n        /* \"#utility.yul\":10060:10066   */\n      not\n        /* \"#utility.yul\":10052:10057   */\n      dup5\n        /* \"#utility.yul\":10049:10050   */\n      0x08\n        /* \"#utility.yul\":10045:10058   */\n      mul\n        /* \"#utility.yul\":10016:10067   */\n      tag_121\n      jump\t// in\n    tag_232:\n        /* \"#utility.yul\":10012:10068   */\n      not\n        /* \"#utility.yul\":10097:10101   */\n      dup1\n        /* \"#utility.yul\":10091:10095   */\n      dup4\n        /* \"#utility.yul\":10087:10102   */\n      and\n        /* \"#utility.yul\":10077:10102   */\n      swap2\n      pop\n        /* \"#utility.yul\":9990:10108   */\n      pop\n        /* \"#utility.yul\":9939:10108   */\n      swap3\n      swap2\n      pop\n      pop\n      jump\t// out\n        /* \"#utility.yul\":10113:10408   */\n    tag_123:\n        /* \"#utility.yul\":10189:10193   */\n      0x00\n        /* \"#utility.yul\":10335:10364   */\n      tag_234\n        /* \"#utility.yul\":10360:10363   */\n      dup4\n        /* \"#utility.yul\":10354:10358   */\n      dup4\n        /* \"#utility.yul\":10335:10364   */\n      tag_122\n      jump\t// in\n    tag_234:\n        /* \"#utility.yul\":10327:10364   */\n      swap2\n      pop\n        /* \"#utility.yul\":10397:10400   */\n      dup3\n        /* \"#utility.yul\":10394:10395   */\n      0x02\n        /* \"#utility.yul\":10390:10401   */\n      mul\n        /* \"#utility.yul\":10384:10388   */\n      dup3\n        /* \"#utility.yul\":10381:10402   */\n      or\n        /* \"#utility.yul\":10373:10402   */\n      swap1\n      pop\n        /* \"#utility.yul\":10113:10408   */\n      swap3\n      swap2\n      pop\n      pop\n      jump\t// out\n        /* \"#utility.yul\":10413:11816   */\n    tag_64:\n        /* \"#utility.yul\":10537:10581   */\n      tag_236\n        /* \"#utility.yul\":10577:10580   */\n      dup4\n        /* \"#utility.yul\":10572:10575   */\n      dup4\n        /* \"#utility.yul\":10537:10581   */\n      tag_106\n      jump\t// in\n    tag_236:\n        /* \"#utility.yul\":10646:10664   */\n      0xffffffffffffffff\n        /* \"#utility.yul\":10638:10644   */\n      dup2\n        /* \"#utility.yul\":10635:10665   */\n      gt\n        /* \"#utility.yul\":10632:10688   */\n      iszero\n      tag_237\n      jumpi\n        /* \"#utility.yul\":10668:10686   */\n      tag_238\n      tag_107\n      jump\t// in\n    tag_238:\n        /* \"#utility.yul\":10632:10688   */\n    tag_237:\n        /* \"#utility.yul\":10712:10750   */\n      tag_239\n        /* \"#utility.yul\":10744:10748   */\n      dup3\n        /* \"#utility.yul\":10738:10749   */\n      sload\n        /* \"#utility.yul\":10712:10750   */\n      tag_78\n      jump\t// in\n    tag_239:\n        /* \"#utility.yul\":10797:10864   */\n      tag_240\n        /* \"#utility.yul\":10857:10863   */\n      dup3\n        /* \"#utility.yul\":10849:10855   */\n      dup3\n        /* \"#utility.yul\":10843:10847   */\n      dup6\n        /* \"#utility.yul\":10797:10864   */\n      tag_120\n      jump\t// in\n    tag_240:\n        /* \"#utility.yul\":10891:10892   */\n      0x00\n        /* \"#utility.yul\":10920:10922   */\n      0x1f\n        /* \"#utility.yul\":10912:10918   */\n      dup4\n        /* \"#utility.yul\":10909:10923   */\n      gt\n        /* \"#utility.yul\":10937:10938   */\n      0x01\n        /* \"#utility.yul\":10932:11564   */\n      dup2\n      eq\n      tag_242\n      jumpi\n        /* \"#utility.yul\":11608:11609   */\n      0x00\n        /* \"#utility.yul\":11625:11631   */\n      dup5\n        /* \"#utility.yul\":11622:11706   */\n      iszero\n      tag_243\n      jumpi\n        /* \"#utility.yul\":11681:11690   */\n      dup3\n        /* \"#utility.yul\":11676:11679   */\n      dup8\n        /* \"#utility.yul\":11672:11691   */\n      add\n        /* \"#utility.yul\":11659:11692   */\n      calldataload\n        /* \"#utility.yul\":11650:11692   */\n      swap1\n      pop\n        /* \"#utility.yul\":11622:11706   */\n    tag_243:\n        /* \"#utility.yul\":11732:11799   */\n      tag_244\n        /* \"#utility.yul\":11792:11798   */\n      dup6\n        /* \"#utility.yul\":11785:11790   */\n      dup3\n        /* \"#utility.yul\":11732:11799   */\n      tag_123\n      jump\t// in\n    tag_244:\n        /* \"#utility.yul\":11726:11730   */\n      dup7\n        /* \"#utility.yul\":11719:11800   */\n      sstore\n        /* \"#utility.yul\":11581:11810   */\n      pop\n        /* \"#utility.yul\":10902:11810   */\n      jump(tag_241)\n        /* \"#utility.yul\":10932:11564   */\n    tag_242:\n        /* \"#utility.yul\":10984:10988   */\n      0x1f\n        /* \"#utility.yul\":10980:10989   */\n      not\n        /* \"#utility.yul\":10972:10978   */\n      dup5\n        /* \"#utility.yul\":10968:10990   */\n      and\n        /* \"#utility.yul\":11018:11055   */\n      tag_245\n        /* \"#utility.yul\":11050:11054   */\n      dup7\n        /* \"#utility.yul\":11018:11055   */\n      tag_109\n      jump\t// in\n    tag_245:\n        /* \"#utility.yul\":11077:11078   */\n      0x00\n        /* \"#utility.yul\":11091:11306   */\n    tag_246:\n        /* \"#utility.yul\":11105:11112   */\n      dup3\n        /* \"#utility.yul\":11102:11103   */\n      dup2\n        /* \"#utility.yul\":11099:11113   */\n      lt\n        /* \"#utility.yul\":11091:11306   */\n      iszero\n      tag_248\n      jumpi\n        /* \"#utility.yul\":11191:11200   */\n      dup5\n        /* \"#utility.yul\":11186:11189   */\n      dup10\n        /* \"#utility.yul\":11182:11201   */\n      add\n        /* \"#utility.yul\":11169:11202   */\n      calldataload\n        /* \"#utility.yul\":11161:11167   */\n      dup3\n        /* \"#utility.yul\":11154:11203   */\n      sstore\n        /* \"#utility.yul\":11242:11243   */\n      0x01\n        /* \"#utility.yul\":11234:11240   */\n      dup3\n        /* \"#utility.yul\":11230:11244   */\n      add\n        /* \"#utility.yul\":11220:11244   */\n      swap2\n      pop\n        /* \"#utility.yul\":11289:11291   */\n      0x20\n        /* \"#utility.yul\":11278:11287   */\n      dup6\n        /* \"#utility.yul\":11274:11292   */\n      add\n        /* \"#utility.yul\":11261:11292   */\n      swap5\n      pop\n        /* \"#utility.yul\":11128:11132   */\n      0x20\n        /* \"#utility.yul\":11125:11126   */\n      dup2\n        /* \"#utility.yul\":11121:11133   */\n      add\n        /* \"#utility.yul\":11116:11133   */\n      swap1\n      pop\n        /* \"#utility.yul\":11091:11306   */\n      jump(tag_246)\n    tag_248:\n        /* \"#utility.yul\":11334:11340   */\n      dup7\n        /* \"#utility.yul\":11325:11332   */\n      dup4\n        /* \"#utility.yul\":11322:11341   */\n      lt\n        /* \"#utility.yul\":11319:11505   */\n      iszero\n      tag_249\n      jumpi\n        /* \"#utility.yul\":11399:11408   */\n      dup5\n        /* \"#utility.yul\":11394:11397   */\n      dup10\n        /* \"#utility.yul\":11390:11409   */\n      add\n        /* \"#utility.yul\":11377:11410   */\n      calldataload\n        /* \"#utility.yul\":11442:11490   */\n      tag_250\n        /* \"#utility.yul\":11484:11488   */\n      0x1f\n        /* \"#utility.yul\":11476:11482   */\n      dup10\n        /* \"#utility.yul\":11472:11489   */\n      and\n        /* \"#utility.yul\":11461:11470   */\n      dup3\n        /* \"#utility.yul\":11442:11490   */\n      tag_122\n      jump\t// in\n    tag_250:\n        /* \"#utility.yul\":11434:11440   */\n      dup4\n        /* \"#utility.yul\":11427:11491   */\n      sstore\n        /* \"#utility.yul\":11342:11505   */\n      pop\n        /* \"#utility.yul\":11319:11505   */\n    tag_249:\n        /* \"#utility.yul\":11551:11552   */\n      0x01\n        /* \"#utility.yul\":11547:11548   */\n      0x02\n        /* \"#utility.yul\":11539:11545   */\n      dup9\n        /* \"#utility.yul\":11535:11549   */\n      mul\n        /* \"#utility.yul\":11531:11553   */\n      add\n        /* \"#utility.yul\":11525:11529   */\n      dup9\n        /* \"#utility.yul\":11518:11554   */\n      sstore\n        /* \"#utility.yul\":10939:11564   */\n      pop\n      pop\n      pop\n        /* \"#utility.yul\":10902:11810   */\n    tag_241:\n      pop\n        /* \"#utility.yul\":10512:11816   */\n      pop\n      pop\n      pop\n        /* \"#utility.yul\":10413:11816   */\n      pop\n      pop\n      pop\n      jump\t// out\n        /* \"#utility.yul\":11822:12002   */\n    tag_124:\n        /* \"#utility.yul\":11870:11947   */\n      0x4e487b7100000000000000000000000000000000000000000000000000000000\n        /* \"#utility.yul\":11867:11868   */\n      0x00\n        /* \"#utility.yul\":11860:11948   */\n      mstore\n        /* \"#utility.yul\":11967:11971   */\n      0x11\n        /* \"#utility.yul\":11964:11965   */\n      0x04\n        /* \"#utility.yul\":11957:11972   */\n      mstore\n        /* \"#utility.yul\":11991:11995   */\n      0x24\n        /* \"#utility.yul\":11988:11989   */\n      0x00\n        /* \"#utility.yul\":11981:11996   */\n      revert\n        /* \"#utility.yul\":12008:12202   */\n    tag_68:\n        /* \"#utility.yul\":12048:12052   */\n      0x00\n        /* \"#utility.yul\":12068:12088   */\n      tag_253\n        /* \"#utility.yul\":12086:12087   */\n      dup3\n        /* \"#utility.yul\":12068:12088   */\n      tag_88\n      jump\t// in\n    tag_253:\n        /* \"#utility.yul\":12063:12088   */\n      swap2\n      pop\n        /* \"#utility.yul\":12102:12122   */\n      tag_254\n        /* \"#utility.yul\":12120:12121   */\n      dup4\n        /* \"#utility.yul\":12102:12122   */\n      tag_88\n      jump\t// in\n    tag_254:\n        /* \"#utility.yul\":12097:12122   */\n      swap3\n      pop\n        /* \"#utility.yul\":12146:12147   */\n      dup3\n        /* \"#utility.yul\":12143:12144   */\n      dup3\n        /* \"#utility.yul\":12139:12148   */\n      sub\n        /* \"#utility.yul\":12131:12148   */\n      swap1\n      pop\n        /* \"#utility.yul\":12170:12171   */\n      dup2\n        /* \"#utility.yul\":12164:12168   */\n      dup2\n        /* \"#utility.yul\":12161:12172   */\n      gt\n        /* \"#utility.yul\":12158:12195   */\n      iszero\n      tag_255\n      jumpi\n        /* \"#utility.yul\":12175:12193   */\n      tag_256\n      tag_124\n      jump\t// in\n    tag_256:\n        /* \"#utility.yul\":12158:12195   */\n    tag_255:\n        /* \"#utility.yul\":12008:12202   */\n      swap3\n      swap2\n      pop\n      pop\n      jump\t// out\n        /* \"#utility.yul\":12208:12373   */\n    tag_125:\n        /* \"#utility.yul\":12348:12365   */\n      0x496e76616c696420616464726573730000000000000000000000000000000000\n        /* \"#utility.yul\":12344:12345   */\n      0x00\n        /* \"#utility.yul\":12336:12342   */\n      dup3\n        /* \"#utility.yul\":12332:12346   */\n      add\n        /* \"#utility.yul\":12325:12366   */\n      mstore\n        /* \"#utility.yul\":12208:12373   */\n      pop\n      jump\t// out\n        /* \"#utility.yul\":12379:12745   */\n    tag_126:\n        /* \"#utility.yul\":12521:12524   */\n      0x00\n        /* \"#utility.yul\":12542:12609   */\n      tag_259\n        /* \"#utility.yul\":12606:12608   */\n      0x0f\n        /* \"#utility.yul\":12601:12604   */\n      dup4\n        /* \"#utility.yul\":12542:12609   */\n      tag_84\n      jump\t// in\n    tag_259:\n        /* \"#utility.yul\":12535:12609   */\n      swap2\n      pop\n        /* \"#utility.yul\":12618:12711   */\n      tag_260\n        /* \"#utility.yul\":12707:12710   */\n      dup3\n        /* \"#utility.yul\":12618:12711   */\n      tag_125\n      jump\t// in\n    tag_260:\n        /* \"#utility.yul\":12736:12738   */\n      0x20\n        /* \"#utility.yul\":12731:12734   */\n      dup3\n        /* \"#utility.yul\":12727:12739   */\n      add\n        /* \"#utility.yul\":12720:12739   */\n      swap1\n      pop\n        /* \"#utility.yul\":12379:12745   */\n      swap2\n      swap1\n      pop\n      jump\t// out\n        /* \"#utility.yul\":12751:13170   */\n    tag_75:\n        /* \"#utility.yul\":12917:12921   */\n      0x00\n        /* \"#utility.yul\":12955:12957   */\n      0x20\n        /* \"#utility.yul\":12944:12953   */\n      dup3\n        /* \"#utility.yul\":12940:12958   */\n      add\n        /* \"#utility.yul\":12932:12958   */\n      swap1\n      pop\n        /* \"#utility.yul\":13004:13013   */\n      dup2\n        /* \"#utility.yul\":12998:13002   */\n      dup2\n        /* \"#utility.yul\":12994:13014   */\n      sub\n        /* \"#utility.yul\":12990:12991   */\n      0x00\n        /* \"#utility.yul\":12979:12988   */\n      dup4\n        /* \"#utility.yul\":12975:12992   */\n      add\n        /* \"#utility.yul\":12968:13015   */\n      mstore\n        /* \"#utility.yul\":13032:13163   */\n      tag_262\n        /* \"#utility.yul\":13158:13162   */\n      dup2\n        /* \"#utility.yul\":13032:13163   */\n      tag_126\n      jump\t// in\n    tag_262:\n        /* \"#utility.yul\":13024:13163   */\n      swap1\n      pop\n        /* \"#utility.yul\":12751:13170   */\n      swap2\n      swap1\n      pop\n      jump\t// out\n\n    auxdata: 0xa2646970667358221220e56ff19e14b4e28dd5efea45e668ed3a040cf0e3031bdbb7ca34325a941400cb64736f6c634300081f0033\n}\n",
				"bytecode": {
					"linkReferences": {},
					"object": "608060405234801561000f575f5ffd5b50604051610f06380380610f06833981810160405281019061003191906100c6565b335f5f6101000a81548173ffffffffffffffffffffffffffffffffffffffff021916908373ffffffffffffffffffffffffffffffffffffffff160217905550426002819055508042610083919061011e565b60038190555050610151565b5f5ffd5b5f819050919050565b6100a581610093565b81146100af575f5ffd5b50565b5f815190506100c08161009c565b92915050565b5f602082840312156100db576100da61008f565b5b5f6100e8848285016100b2565b91505092915050565b7f4e487b71000000000000000000000000000000000000000000000000000000005f52601160045260245ffd5b5f61012882610093565b915061013383610093565b925082820190508082111561014b5761014a6100f1565b5b92915050565b610da88061015e5f395ff3fe608060405234801561000f575f5ffd5b5060043610610086575f3560e01c8063893d20e811610059578063893d20e814610102578063a14ab9f814610120578063efb98bcf1461013c578063f2fde38b1461015a57610086565b8063041991391461008a57806351811f04146100a85780635b9fdc30146100c6578063602bc62b146100e4575b5f5ffd5b610092610176565b60405161009f9190610701565b60405180910390f35b6100b06101b3565b6040516100bd9190610739565b60405180910390f35b6100ce61024a565b6040516100db9190610701565b60405180910390f35b6100ec61032c565b6040516100f99190610739565b60405180910390f35b61010a610335565b6040516101179190610791565b60405180910390f35b61013a60048036038101906101359190610813565b61035c565b005b610144610443565b6040516101519190610739565b60405180910390f35b610174600480360381019061016f9190610888565b610469565b005b60606040518060400160405280601781526020017f54696d65204c6f636b6564204465706f73697420426f78000000000000000000815250905090565b5f5f5f9054906101000a900473ffffffffffffffffffffffffffffffffffffffff1673ffffffffffffffffffffffffffffffffffffffff163373ffffffffffffffffffffffffffffffffffffffff1614610242576040517f08c379a000000000000000000000000000000000000000000000000000000000815260040161023990610923565b60405180910390fd5b600254905090565b60605f5f9054906101000a900473ffffffffffffffffffffffffffffffffffffffff1673ffffffffffffffffffffffffffffffffffffffff163373ffffffffffffffffffffffffffffffffffffffff16146102da576040517f08c379a00000000000000000000000000000000000000000000000000000000081526004016102d190610923565b60405180910390fd5b60035442101561031f576040517f08c379a00000000000000000000000000000000000000000000000000000000081526004016103169061098b565b60405180910390fd5b610327610601565b905090565b5f600354905090565b5f5f5f9054906101000a900473ffffffffffffffffffffffffffffffffffffffff16905090565b5f5f9054906101000a900473ffffffffffffffffffffffffffffffffffffffff1673ffffffffffffffffffffffffffffffffffffffff163373ffffffffffffffffffffffffffffffffffffffff16146103ea576040517f08c379a00000000000000000000000000000000000000000000000000000000081526004016103e190610923565b60405180910390fd5b8181600191826103fb929190610bdd565b503373ffffffffffffffffffffffffffffffffffffffff167f0977f4c93d6a66455eb4f1467e8a01fec7c62b1ce20353fb51b7269712e1196760405160405180910390a25050565b5f6003544210610455575f9050610466565b426003546104639190610cd7565b90505b90565b5f5f9054906101000a900473ffffffffffffffffffffffffffffffffffffffff1673ffffffffffffffffffffffffffffffffffffffff163373ffffffffffffffffffffffffffffffffffffffff16146104f7576040517f08c379a00000000000000000000000000000000000000000000000000000000081526004016104ee90610923565b60405180910390fd5b8073ffffffffffffffffffffffffffffffffffffffff165f73ffffffffffffffffffffffffffffffffffffffff1603610565576040517f08c379a000000000000000000000000000000000000000000000000000000000815260040161055c90610d54565b60405180910390fd5b805f5f6101000a81548173ffffffffffffffffffffffffffffffffffffffff021916908373ffffffffffffffffffffffffffffffffffffffff1602179055508073ffffffffffffffffffffffffffffffffffffffff163373ffffffffffffffffffffffffffffffffffffffff167f5c486528ec3e3f0ea91181cff8116f02bfa350e03b8b6f12e00765adbb5af85c60405160405180910390a350565b60606001805461061090610a0d565b80601f016020809104026020016040519081016040528092919081815260200182805461063c90610a0d565b80156106875780601f1061065e57610100808354040283529160200191610687565b820191905f5260205f20905b81548152906001019060200180831161066a57829003601f168201915b5050505050905090565b5f81519050919050565b5f82825260208201905092915050565b8281835e5f83830152505050565b5f601f19601f8301169050919050565b5f6106d382610691565b6106dd818561069b565b93506106ed8185602086016106ab565b6106f6816106b9565b840191505092915050565b5f6020820190508181035f83015261071981846106c9565b905092915050565b5f819050919050565b61073381610721565b82525050565b5f60208201905061074c5f83018461072a565b92915050565b5f73ffffffffffffffffffffffffffffffffffffffff82169050919050565b5f61077b82610752565b9050919050565b61078b81610771565b82525050565b5f6020820190506107a45f830184610782565b92915050565b5f5ffd5b5f5ffd5b5f5ffd5b5f5ffd5b5f5ffd5b5f5f83601f8401126107d3576107d26107b2565b5b8235905067ffffffffffffffff8111156107f0576107ef6107b6565b5b60208301915083600182028301111561080c5761080b6107ba565b5b9250929050565b5f5f60208385031215610829576108286107aa565b5b5f83013567ffffffffffffffff811115610846576108456107ae565b5b610852858286016107be565b92509250509250929050565b61086781610771565b8114610871575f5ffd5b50565b5f813590506108828161085e565b92915050565b5f6020828403121561089d5761089c6107aa565b5b5f6108aa84828501610874565b91505092915050565b7f4f6e6c79206f776e65722063616e20706572666f726d207468697320616374695f8201527f6f6e2e0000000000000000000000000000000000000000000000000000000000602082015250565b5f61090d60238361069b565b9150610918826108b3565b604082019050919050565b5f6020820190508181035f83015261093a81610901565b9050919050565b7f426f78206973207374696c6c206c6f636b6564000000000000000000000000005f82015250565b5f61097560138361069b565b915061098082610941565b602082019050919050565b5f6020820190508181035f8301526109a281610969565b9050919050565b5f82905092915050565b7f4e487b71000000000000000000000000000000000000000000000000000000005f52604160045260245ffd5b7f4e487b71000000000000000000000000000000000000000000000000000000005f52602260045260245ffd5b5f6002820490506001821680610a2457607f821691505b602082108103610a3757610a366109e0565b5b50919050565b5f819050815f5260205f209050919050565b5f6020601f8301049050919050565b5f82821b905092915050565b5f60088302610a997fffffffffffffffffffffffffffffffffffffffffffffffffffffffffffffffff82610a5e565b610aa38683610a5e565b95508019841693508086168417925050509392505050565b5f819050919050565b5f610ade610ad9610ad484610721565b610abb565b610721565b9050919050565b5f819050919050565b610af783610ac4565b610b0b610b0382610ae5565b848454610a6a565b825550505050565b5f5f905090565b610b22610b13565b610b2d818484610aee565b505050565b5b81811015610b5057610b455f82610b1a565b600181019050610b33565b5050565b601f821115610b9557610b6681610a3d565b610b6f84610a4f565b81016020851015610b7e578190505b610b92610b8a85610a4f565b830182610b32565b50505b505050565b5f82821c905092915050565b5f610bb55f1984600802610b9a565b1980831691505092915050565b5f610bcd8383610ba6565b9150826002028217905092915050565b610be783836109a9565b67ffffffffffffffff811115610c0057610bff6109b3565b5b610c0a8254610a0d565b610c15828285610b54565b5f601f831160018114610c42575f8415610c30578287013590505b610c3a8582610bc2565b865550610ca1565b601f198416610c5086610a3d565b5f5b82811015610c7757848901358255600182019150602085019450602081019050610c52565b86831015610c945784890135610c90601f891682610ba6565b8355505b6001600288020188555050505b50505050505050565b7f4e487b71000000000000000000000000000000000000000000000000000000005f52601160045260245ffd5b5f610ce182610721565b9150610cec83610721565b9250828203905081811115610d0457610d03610caa565b5b92915050565b7f496e76616c6964206164647265737300000000000000000000000000000000005f82015250565b5f610d3e600f8361069b565b9150610d4982610d0a565b602082019050919050565b5f6020820190508181035f830152610d6b81610d32565b905091905056fea2646970667358221220e56ff19e14b4e28dd5efea45e668ed3a040cf0e3031bdbb7ca34325a941400cb64736f6c634300081f0033",
					"opcodes": "PUSH1 0x80 PUSH1 0x40 MSTORE CALLVALUE DUP1 ISZERO PUSH2 0xF JUMPI PUSH0 PUSH0 REVERT JUMPDEST POP PUSH1 0x40 MLOAD PUSH2 0xF06 CODESIZE SUB DUP1 PUSH2 0xF06 DUP4 CODECOPY DUP2 DUP2 ADD PUSH1 0x40 MSTORE DUP2 ADD SWAP1 PUSH2 0x31 SWAP2 SWAP1 PUSH2 0xC6 JUMP JUMPDEST CALLER PUSH0 PUSH0 PUSH2 0x100 EXP DUP2 SLOAD DUP2 PUSH20 0xFFFFFFFFFFFFFFFFFFFFFFFFFFFFFFFFFFFFFFFF MUL NOT AND SWAP1 DUP4 PUSH20 0xFFFFFFFFFFFFFFFFFFFFFFFFFFFFFFFFFFFFFFFF AND MUL OR SWAP1 SSTORE POP TIMESTAMP PUSH1 0x2 DUP2 SWAP1 SSTORE POP DUP1 TIMESTAMP PUSH2 0x83 SWAP2 SWAP1 PUSH2 0x11E JUMP JUMPDEST PUSH1 0x3 DUP2 SWAP1 SSTORE POP POP PUSH2 0x151 JUMP JUMPDEST PUSH0 PUSH0 REVERT JUMPDEST PUSH0 DUP2 SWAP1 POP SWAP2 SWAP1 POP JUMP JUMPDEST PUSH2 0xA5 DUP2 PUSH2 0x93 JUMP JUMPDEST DUP2 EQ PUSH2 0xAF JUMPI PUSH0 PUSH0 REVERT JUMPDEST POP JUMP JUMPDEST PUSH0 DUP2 MLOAD SWAP1 POP PUSH2 0xC0 DUP2 PUSH2 0x9C JUMP JUMPDEST SWAP3 SWAP2 POP POP JUMP JUMPDEST PUSH0 PUSH1 0x20 DUP3 DUP5 SUB SLT ISZERO PUSH2 0xDB JUMPI PUSH2 0xDA PUSH2 0x8F JUMP JUMPDEST JUMPDEST PUSH0 PUSH2 0xE8 DUP5 DUP3 DUP6 ADD PUSH2 0xB2 JUMP JUMPDEST SWAP2 POP POP SWAP3 SWAP2 POP POP JUMP JUMPDEST PUSH32 0x4E487B7100000000000000000000000000000000000000000000000000000000 PUSH0 MSTORE PUSH1 0x11 PUSH1 0x4 MSTORE PUSH1 0x24 PUSH0 REVERT JUMPDEST PUSH0 PUSH2 0x128 DUP3 PUSH2 0x93 JUMP JUMPDEST SWAP2 POP PUSH2 0x133 DUP4 PUSH2 0x93 JUMP JUMPDEST SWAP3 POP DUP3 DUP3 ADD SWAP1 POP DUP1 DUP3 GT ISZERO PUSH2 0x14B JUMPI PUSH2 0x14A PUSH2 0xF1 JUMP JUMPDEST JUMPDEST SWAP3 SWAP2 POP POP JUMP JUMPDEST PUSH2 0xDA8 DUP1 PUSH2 0x15E PUSH0 CODECOPY PUSH0 RETURN INVALID PUSH1 0x80 PUSH1 0x40 MSTORE CALLVALUE DUP1 ISZERO PUSH2 0xF JUMPI PUSH0 PUSH0 REVERT JUMPDEST POP PUSH1 0x4 CALLDATASIZE LT PUSH2 0x86 JUMPI PUSH0 CALLDATALOAD PUSH1 0xE0 SHR DUP1 PUSH4 0x893D20E8 GT PUSH2 0x59 JUMPI DUP1 PUSH4 0x893D20E8 EQ PUSH2 0x102 JUMPI DUP1 PUSH4 0xA14AB9F8 EQ PUSH2 0x120 JUMPI DUP1 PUSH4 0xEFB98BCF EQ PUSH2 0x13C JUMPI DUP1 PUSH4 0xF2FDE38B EQ PUSH2 0x15A JUMPI PUSH2 0x86 JUMP JUMPDEST DUP1 PUSH4 0x4199139 EQ PUSH2 0x8A JUMPI DUP1 PUSH4 0x51811F04 EQ PUSH2 0xA8 JUMPI DUP1 PUSH4 0x5B9FDC30 EQ PUSH2 0xC6 JUMPI DUP1 PUSH4 0x602BC62B EQ PUSH2 0xE4 JUMPI JUMPDEST PUSH0 PUSH0 REVERT JUMPDEST PUSH2 0x92 PUSH2 0x176 JUMP JUMPDEST PUSH1 0x40 MLOAD PUSH2 0x9F SWAP2 SWAP1 PUSH2 0x701 JUMP JUMPDEST PUSH1 0x40 MLOAD DUP1 SWAP2 SUB SWAP1 RETURN JUMPDEST PUSH2 0xB0 PUSH2 0x1B3 JUMP JUMPDEST PUSH1 0x40 MLOAD PUSH2 0xBD SWAP2 SWAP1 PUSH2 0x739 JUMP JUMPDEST PUSH1 0x40 MLOAD DUP1 SWAP2 SUB SWAP1 RETURN JUMPDEST PUSH2 0xCE PUSH2 0x24A JUMP JUMPDEST PUSH1 0x40 MLOAD PUSH2 0xDB SWAP2 SWAP1 PUSH2 0x701 JUMP JUMPDEST PUSH1 0x40 MLOAD DUP1 SWAP2 SUB SWAP1 RETURN JUMPDEST PUSH2 0xEC PUSH2 0x32C JUMP JUMPDEST PUSH1 0x40 MLOAD PUSH2 0xF9 SWAP2 SWAP1 PUSH2 0x739 JUMP JUMPDEST PUSH1 0x40 MLOAD DUP1 SWAP2 SUB SWAP1 RETURN JUMPDEST PUSH2 0x10A PUSH2 0x335 JUMP JUMPDEST PUSH1 0x40 MLOAD PUSH2 0x117 SWAP2 SWAP1 PUSH2 0x791 JUMP JUMPDEST PUSH1 0x40 MLOAD DUP1 SWAP2 SUB SWAP1 RETURN JUMPDEST PUSH2 0x13A PUSH1 0x4 DUP1 CALLDATASIZE SUB DUP2 ADD SWAP1 PUSH2 0x135 SWAP2 SWAP1 PUSH2 0x813 JUMP JUMPDEST PUSH2 0x35C JUMP JUMPDEST STOP JUMPDEST PUSH2 0x144 PUSH2 0x443 JUMP JUMPDEST PUSH1 0x40 MLOAD PUSH2 0x151 SWAP2 SWAP1 PUSH2 0x739 JUMP JUMPDEST PUSH1 0x40 MLOAD DUP1 SWAP2 SUB SWAP1 RETURN JUMPDEST PUSH2 0x174 PUSH1 0x4 DUP1 CALLDATASIZE SUB DUP2 ADD SWAP1 PUSH2 0x16F SWAP2 SWAP1 PUSH2 0x888 JUMP JUMPDEST PUSH2 0x469 JUMP JUMPDEST STOP JUMPDEST PUSH1 0x60 PUSH1 0x40 MLOAD DUP1 PUSH1 0x40 ADD PUSH1 0x40 MSTORE DUP1 PUSH1 0x17 DUP2 MSTORE PUSH1 0x20 ADD PUSH32 0x54696D65204C6F636B6564204465706F73697420426F78000000000000000000 DUP2 MSTORE POP SWAP1 POP SWAP1 JUMP JUMPDEST PUSH0 PUSH0 PUSH0 SWAP1 SLOAD SWAP1 PUSH2 0x100 EXP SWAP1 DIV PUSH20 0xFFFFFFFFFFFFFFFFFFFFFFFFFFFFFFFFFFFFFFFF AND PUSH20 0xFFFFFFFFFFFFFFFFFFFFFFFFFFFFFFFFFFFFFFFF AND CALLER PUSH20 0xFFFFFFFFFFFFFFFFFFFFFFFFFFFFFFFFFFFFFFFF AND EQ PUSH2 0x242 JUMPI PUSH1 0x40 MLOAD PUSH32 0x8C379A000000000000000000000000000000000000000000000000000000000 DUP2 MSTORE PUSH1 0x4 ADD PUSH2 0x239 SWAP1 PUSH2 0x923 JUMP JUMPDEST PUSH1 0x40 MLOAD DUP1 SWAP2 SUB SWAP1 REVERT JUMPDEST PUSH1 0x2 SLOAD SWAP1 POP SWAP1 JUMP JUMPDEST PUSH1 0x60 PUSH0 PUSH0 SWAP1 SLOAD SWAP1 PUSH2 0x100 EXP SWAP1 DIV PUSH20 0xFFFFFFFFFFFFFFFFFFFFFFFFFFFFFFFFFFFFFFFF AND PUSH20 0xFFFFFFFFFFFFFFFFFFFFFFFFFFFFFFFFFFFFFFFF AND CALLER PUSH20 0xFFFFFFFFFFFFFFFFFFFFFFFFFFFFFFFFFFFFFFFF AND EQ PUSH2 0x2DA JUMPI PUSH1 0x40 MLOAD PUSH32 0x8C379A000000000000000000000000000000000000000000000000000000000 DUP2 MSTORE PUSH1 0x4 ADD PUSH2 0x2D1 SWAP1 PUSH2 0x923 JUMP JUMPDEST PUSH1 0x40 MLOAD DUP1 SWAP2 SUB SWAP1 REVERT JUMPDEST PUSH1 0x3 SLOAD TIMESTAMP LT ISZERO PUSH2 0x31F JUMPI PUSH1 0x40 MLOAD PUSH32 0x8C379A000000000000000000000000000000000000000000000000000000000 DUP2 MSTORE PUSH1 0x4 ADD PUSH2 0x316 SWAP1 PUSH2 0x98B JUMP JUMPDEST PUSH1 0x40 MLOAD DUP1 SWAP2 SUB SWAP1 REVERT JUMPDEST PUSH2 0x327 PUSH2 0x601 JUMP JUMPDEST SWAP1 POP SWAP1 JUMP JUMPDEST PUSH0 PUSH1 0x3 SLOAD SWAP1 POP SWAP1 JUMP JUMPDEST PUSH0 PUSH0 PUSH0 SWAP1 SLOAD SWAP1 PUSH2 0x100 EXP SWAP1 DIV PUSH20 0xFFFFFFFFFFFFFFFFFFFFFFFFFFFFFFFFFFFFFFFF AND SWAP1 POP SWAP1 JUMP JUMPDEST PUSH0 PUSH0 SWAP1 SLOAD SWAP1 PUSH2 0x100 EXP SWAP1 DIV PUSH20 0xFFFFFFFFFFFFFFFFFFFFFFFFFFFFFFFFFFFFFFFF AND PUSH20 0xFFFFFFFFFFFFFFFFFFFFFFFFFFFFFFFFFFFFFFFF AND CALLER PUSH20 0xFFFFFFFFFFFFFFFFFFFFFFFFFFFFFFFFFFFFFFFF AND EQ PUSH2 0x3EA JUMPI PUSH1 0x40 MLOAD PUSH32 0x8C379A000000000000000000000000000000000000000000000000000000000 DUP2 MSTORE PUSH1 0x4 ADD PUSH2 0x3E1 SWAP1 PUSH2 0x923 JUMP JUMPDEST PUSH1 0x40 MLOAD DUP1 SWAP2 SUB SWAP1 REVERT JUMPDEST DUP2 DUP2 PUSH1 0x1 SWAP2 DUP3 PUSH2 0x3FB SWAP3 SWAP2 SWAP1 PUSH2 0xBDD JUMP JUMPDEST POP CALLER PUSH20 0xFFFFFFFFFFFFFFFFFFFFFFFFFFFFFFFFFFFFFFFF AND PUSH32 0x977F4C93D6A66455EB4F1467E8A01FEC7C62B1CE20353FB51B7269712E11967 PUSH1 0x40 MLOAD PUSH1 0x40 MLOAD DUP1 SWAP2 SUB SWAP1 LOG2 POP POP JUMP JUMPDEST PUSH0 PUSH1 0x3 SLOAD TIMESTAMP LT PUSH2 0x455 JUMPI PUSH0 SWAP1 POP PUSH2 0x466 JUMP JUMPDEST TIMESTAMP PUSH1 0x3 SLOAD PUSH2 0x463 SWAP2 SWAP1 PUSH2 0xCD7 JUMP JUMPDEST SWAP1 POP JUMPDEST SWAP1 JUMP JUMPDEST PUSH0 PUSH0 SWAP1 SLOAD SWAP1 PUSH2 0x100 EXP SWAP1 DIV PUSH20 0xFFFFFFFFFFFFFFFFFFFFFFFFFFFFFFFFFFFFFFFF AND PUSH20 0xFFFFFFFFFFFFFFFFFFFFFFFFFFFFFFFFFFFFFFFF AND CALLER PUSH20 0xFFFFFFFFFFFFFFFFFFFFFFFFFFFFFFFFFFFFFFFF AND EQ PUSH2 0x4F7 JUMPI PUSH1 0x40 MLOAD PUSH32 0x8C379A000000000000000000000000000000000000000000000000000000000 DUP2 MSTORE PUSH1 0x4 ADD PUSH2 0x4EE SWAP1 PUSH2 0x923 JUMP JUMPDEST PUSH1 0x40 MLOAD DUP1 SWAP2 SUB SWAP1 REVERT JUMPDEST DUP1 PUSH20 0xFFFFFFFFFFFFFFFFFFFFFFFFFFFFFFFFFFFFFFFF AND PUSH0 PUSH20 0xFFFFFFFFFFFFFFFFFFFFFFFFFFFFFFFFFFFFFFFF AND SUB PUSH2 0x565 JUMPI PUSH1 0x40 MLOAD PUSH32 0x8C379A000000000000000000000000000000000000000000000000000000000 DUP2 MSTORE PUSH1 0x4 ADD PUSH2 0x55C SWAP1 PUSH2 0xD54 JUMP JUMPDEST PUSH1 0x40 MLOAD DUP1 SWAP2 SUB SWAP1 REVERT JUMPDEST DUP1 PUSH0 PUSH0 PUSH2 0x100 EXP DUP2 SLOAD DUP2 PUSH20 0xFFFFFFFFFFFFFFFFFFFFFFFFFFFFFFFFFFFFFFFF MUL NOT AND SWAP1 DUP4 PUSH20 0xFFFFFFFFFFFFFFFFFFFFFFFFFFFFFFFFFFFFFFFF AND MUL OR SWAP1 SSTORE POP DUP1 PUSH20 0xFFFFFFFFFFFFFFFFFFFFFFFFFFFFFFFFFFFFFFFF AND CALLER PUSH20 0xFFFFFFFFFFFFFFFFFFFFFFFFFFFFFFFFFFFFFFFF AND PUSH32 0x5C486528EC3E3F0EA91181CFF8116F02BFA350E03B8B6F12E00765ADBB5AF85C PUSH1 0x40 MLOAD PUSH1 0x40 MLOAD DUP1 SWAP2 SUB SWAP1 LOG3 POP JUMP JUMPDEST PUSH1 0x60 PUSH1 0x1 DUP1 SLOAD PUSH2 0x610 SWAP1 PUSH2 0xA0D JUMP JUMPDEST DUP1 PUSH1 0x1F ADD PUSH1 0x20 DUP1 SWAP2 DIV MUL PUSH1 0x20 ADD PUSH1 0x40 MLOAD SWAP1 DUP2 ADD PUSH1 0x40 MSTORE DUP1 SWAP3 SWAP2 SWAP1 DUP2 DUP2 MSTORE PUSH1 0x20 ADD DUP3 DUP1 SLOAD PUSH2 0x63C SWAP1 PUSH2 0xA0D JUMP JUMPDEST DUP1 ISZERO PUSH2 0x687 JUMPI DUP1 PUSH1 0x1F LT PUSH2 0x65E JUMPI PUSH2 0x100 DUP1 DUP4 SLOAD DIV MUL DUP4 MSTORE SWAP2 PUSH1 0x20 ADD SWAP2 PUSH2 0x687 JUMP JUMPDEST DUP3 ADD SWAP2 SWAP1 PUSH0 MSTORE PUSH1 0x20 PUSH0 KECCAK256 SWAP1 JUMPDEST DUP2 SLOAD DUP2 MSTORE SWAP1 PUSH1 0x1 ADD SWAP1 PUSH1 0x20 ADD DUP1 DUP4 GT PUSH2 0x66A JUMPI DUP3 SWAP1 SUB PUSH1 0x1F AND DUP3 ADD SWAP2 JUMPDEST POP POP POP POP POP SWAP1 POP SWAP1 JUMP JUMPDEST PUSH0 DUP2 MLOAD SWAP1 POP SWAP2 SWAP1 POP JUMP JUMPDEST PUSH0 DUP3 DUP3 MSTORE PUSH1 0x20 DUP3 ADD SWAP1 POP SWAP3 SWAP2 POP POP JUMP JUMPDEST DUP3 DUP2 DUP4 MCOPY PUSH0 DUP4 DUP4 ADD MSTORE POP POP POP JUMP JUMPDEST PUSH0 PUSH1 0x1F NOT PUSH1 0x1F DUP4 ADD AND SWAP1 POP SWAP2 SWAP1 POP JUMP JUMPDEST PUSH0 PUSH2 0x6D3 DUP3 PUSH2 0x691 JUMP JUMPDEST PUSH2 0x6DD DUP2 DUP6 PUSH2 0x69B JUMP JUMPDEST SWAP4 POP PUSH2 0x6ED DUP2 DUP6 PUSH1 0x20 DUP7 ADD PUSH2 0x6AB JUMP JUMPDEST PUSH2 0x6F6 DUP2 PUSH2 0x6B9 JUMP JUMPDEST DUP5 ADD SWAP2 POP POP SWAP3 SWAP2 POP POP JUMP JUMPDEST PUSH0 PUSH1 0x20 DUP3 ADD SWAP1 POP DUP2 DUP2 SUB PUSH0 DUP4 ADD MSTORE PUSH2 0x719 DUP2 DUP5 PUSH2 0x6C9 JUMP JUMPDEST SWAP1 POP SWAP3 SWAP2 POP POP JUMP JUMPDEST PUSH0 DUP2 SWAP1 POP SWAP2 SWAP1 POP JUMP JUMPDEST PUSH2 0x733 DUP2 PUSH2 0x721 JUMP JUMPDEST DUP3 MSTORE POP POP JUMP JUMPDEST PUSH0 PUSH1 0x20 DUP3 ADD SWAP1 POP PUSH2 0x74C PUSH0 DUP4 ADD DUP5 PUSH2 0x72A JUMP JUMPDEST SWAP3 SWAP2 POP POP JUMP JUMPDEST PUSH0 PUSH20 0xFFFFFFFFFFFFFFFFFFFFFFFFFFFFFFFFFFFFFFFF DUP3 AND SWAP1 POP SWAP2 SWAP1 POP JUMP JUMPDEST PUSH0 PUSH2 0x77B DUP3 PUSH2 0x752 JUMP JUMPDEST SWAP1 POP SWAP2 SWAP1 POP JUMP JUMPDEST PUSH2 0x78B DUP2 PUSH2 0x771 JUMP JUMPDEST DUP3 MSTORE POP POP JUMP JUMPDEST PUSH0 PUSH1 0x20 DUP3 ADD SWAP1 POP PUSH2 0x7A4 PUSH0 DUP4 ADD DUP5 PUSH2 0x782 JUMP JUMPDEST SWAP3 SWAP2 POP POP JUMP JUMPDEST PUSH0 PUSH0 REVERT JUMPDEST PUSH0 PUSH0 REVERT JUMPDEST PUSH0 PUSH0 REVERT JUMPDEST PUSH0 PUSH0 REVERT JUMPDEST PUSH0 PUSH0 REVERT JUMPDEST PUSH0 PUSH0 DUP4 PUSH1 0x1F DUP5 ADD SLT PUSH2 0x7D3 JUMPI PUSH2 0x7D2 PUSH2 0x7B2 JUMP JUMPDEST JUMPDEST DUP3 CALLDATALOAD SWAP1 POP PUSH8 0xFFFFFFFFFFFFFFFF DUP2 GT ISZERO PUSH2 0x7F0 JUMPI PUSH2 0x7EF PUSH2 0x7B6 JUMP JUMPDEST JUMPDEST PUSH1 0x20 DUP4 ADD SWAP2 POP DUP4 PUSH1 0x1 DUP3 MUL DUP4 ADD GT ISZERO PUSH2 0x80C JUMPI PUSH2 0x80B PUSH2 0x7BA JUMP JUMPDEST JUMPDEST SWAP3 POP SWAP3 SWAP1 POP JUMP JUMPDEST PUSH0 PUSH0 PUSH1 0x20 DUP4 DUP6 SUB SLT ISZERO PUSH2 0x829 JUMPI PUSH2 0x828 PUSH2 0x7AA JUMP JUMPDEST JUMPDEST PUSH0 DUP4 ADD CALLDATALOAD PUSH8 0xFFFFFFFFFFFFFFFF DUP2 GT ISZERO PUSH2 0x846 JUMPI PUSH2 0x845 PUSH2 0x7AE JUMP JUMPDEST JUMPDEST PUSH2 0x852 DUP6 DUP3 DUP7 ADD PUSH2 0x7BE JUMP JUMPDEST SWAP3 POP SWAP3 POP POP SWAP3 POP SWAP3 SWAP1 POP JUMP JUMPDEST PUSH2 0x867 DUP2 PUSH2 0x771 JUMP JUMPDEST DUP2 EQ PUSH2 0x871 JUMPI PUSH0 PUSH0 REVERT JUMPDEST POP JUMP JUMPDEST PUSH0 DUP2 CALLDATALOAD SWAP1 POP PUSH2 0x882 DUP2 PUSH2 0x85E JUMP JUMPDEST SWAP3 SWAP2 POP POP JUMP JUMPDEST PUSH0 PUSH1 0x20 DUP3 DUP5 SUB SLT ISZERO PUSH2 0x89D JUMPI PUSH2 0x89C PUSH2 0x7AA JUMP JUMPDEST JUMPDEST PUSH0 PUSH2 0x8AA DUP5 DUP3 DUP6 ADD PUSH2 0x874 JUMP JUMPDEST SWAP2 POP POP SWAP3 SWAP2 POP POP JUMP JUMPDEST PUSH32 0x4F6E6C79206F776E65722063616E20706572666F726D20746869732061637469 PUSH0 DUP3 ADD MSTORE PUSH32 0x6F6E2E0000000000000000000000000000000000000000000000000000000000 PUSH1 0x20 DUP3 ADD MSTORE POP JUMP JUMPDEST PUSH0 PUSH2 0x90D PUSH1 0x23 DUP4 PUSH2 0x69B JUMP JUMPDEST SWAP2 POP PUSH2 0x918 DUP3 PUSH2 0x8B3 JUMP JUMPDEST PUSH1 0x40 DUP3 ADD SWAP1 POP SWAP2 SWAP1 POP JUMP JUMPDEST PUSH0 PUSH1 0x20 DUP3 ADD SWAP1 POP DUP2 DUP2 SUB PUSH0 DUP4 ADD MSTORE PUSH2 0x93A DUP2 PUSH2 0x901 JUMP JUMPDEST SWAP1 POP SWAP2 SWAP1 POP JUMP JUMPDEST PUSH32 0x426F78206973207374696C6C206C6F636B656400000000000000000000000000 PUSH0 DUP3 ADD MSTORE POP JUMP JUMPDEST PUSH0 PUSH2 0x975 PUSH1 0x13 DUP4 PUSH2 0x69B JUMP JUMPDEST SWAP2 POP PUSH2 0x980 DUP3 PUSH2 0x941 JUMP JUMPDEST PUSH1 0x20 DUP3 ADD SWAP1 POP SWAP2 SWAP1 POP JUMP JUMPDEST PUSH0 PUSH1 0x20 DUP3 ADD SWAP1 POP DUP2 DUP2 SUB PUSH0 DUP4 ADD MSTORE PUSH2 0x9A2 DUP2 PUSH2 0x969 JUMP JUMPDEST SWAP1 POP SWAP2 SWAP1 POP JUMP JUMPDEST PUSH0 DUP3 SWAP1 POP SWAP3 SWAP2 POP POP JUMP JUMPDEST PUSH32 0x4E487B7100000000000000000000000000000000000000000000000000000000 PUSH0 MSTORE PUSH1 0x41 PUSH1 0x4 MSTORE PUSH1 0x24 PUSH0 REVERT JUMPDEST PUSH32 0x4E487B7100000000000000000000000000000000000000000000000000000000 PUSH0 MSTORE PUSH1 0x22 PUSH1 0x4 MSTORE PUSH1 0x24 PUSH0 REVERT JUMPDEST PUSH0 PUSH1 0x2 DUP3 DIV SWAP1 POP PUSH1 0x1 DUP3 AND DUP1 PUSH2 0xA24 JUMPI PUSH1 0x7F DUP3 AND SWAP2 POP JUMPDEST PUSH1 0x20 DUP3 LT DUP2 SUB PUSH2 0xA37 JUMPI PUSH2 0xA36 PUSH2 0x9E0 JUMP JUMPDEST JUMPDEST POP SWAP2 SWAP1 POP JUMP JUMPDEST PUSH0 DUP2 SWAP1 POP DUP2 PUSH0 MSTORE PUSH1 0x20 PUSH0 KECCAK256 SWAP1 POP SWAP2 SWAP1 POP JUMP JUMPDEST PUSH0 PUSH1 0x20 PUSH1 0x1F DUP4 ADD DIV SWAP1 POP SWAP2 SWAP1 POP JUMP JUMPDEST PUSH0 DUP3 DUP3 SHL SWAP1 POP SWAP3 SWAP2 POP POP JUMP JUMPDEST PUSH0 PUSH1 0x8 DUP4 MUL PUSH2 0xA99 PUSH32 0xFFFFFFFFFFFFFFFFFFFFFFFFFFFFFFFFFFFFFFFFFFFFFFFFFFFFFFFFFFFFFFFF DUP3 PUSH2 0xA5E JUMP JUMPDEST PUSH2 0xAA3 DUP7 DUP4 PUSH2 0xA5E JUMP JUMPDEST SWAP6 POP DUP1 NOT DUP5 AND SWAP4 POP DUP1 DUP7 AND DUP5 OR SWAP3 POP POP POP SWAP4 SWAP3 POP POP POP JUMP JUMPDEST PUSH0 DUP2 SWAP1 POP SWAP2 SWAP1 POP JUMP JUMPDEST PUSH0 PUSH2 0xADE PUSH2 0xAD9 PUSH2 0xAD4 DUP5 PUSH2 0x721 JUMP JUMPDEST PUSH2 0xABB JUMP JUMPDEST PUSH2 0x721 JUMP JUMPDEST SWAP1 POP SWAP2 SWAP1 POP JUMP JUMPDEST PUSH0 DUP2 SWAP1 POP SWAP2 SWAP1 POP JUMP JUMPDEST PUSH2 0xAF7 DUP4 PUSH2 0xAC4 JUMP JUMPDEST PUSH2 0xB0B PUSH2 0xB03 DUP3 PUSH2 0xAE5 JUMP JUMPDEST DUP5 DUP5 SLOAD PUSH2 0xA6A JUMP JUMPDEST DUP3 SSTORE POP POP POP POP JUMP JUMPDEST PUSH0 PUSH0 SWAP1 POP SWAP1 JUMP JUMPDEST PUSH2 0xB22 PUSH2 0xB13 JUMP JUMPDEST PUSH2 0xB2D DUP2 DUP5 DUP5 PUSH2 0xAEE JUMP JUMPDEST POP POP POP JUMP JUMPDEST JUMPDEST DUP2 DUP2 LT ISZERO PUSH2 0xB50 JUMPI PUSH2 0xB45 PUSH0 DUP3 PUSH2 0xB1A JUMP JUMPDEST PUSH1 0x1 DUP2 ADD SWAP1 POP PUSH2 0xB33 JUMP JUMPDEST POP POP JUMP JUMPDEST PUSH1 0x1F DUP3 GT ISZERO PUSH2 0xB95 JUMPI PUSH2 0xB66 DUP2 PUSH2 0xA3D JUMP JUMPDEST PUSH2 0xB6F DUP5 PUSH2 0xA4F JUMP JUMPDEST DUP2 ADD PUSH1 0x20 DUP6 LT ISZERO PUSH2 0xB7E JUMPI DUP2 SWAP1 POP JUMPDEST PUSH2 0xB92 PUSH2 0xB8A DUP6 PUSH2 0xA4F JUMP JUMPDEST DUP4 ADD DUP3 PUSH2 0xB32 JUMP JUMPDEST POP POP JUMPDEST POP POP POP JUMP JUMPDEST PUSH0 DUP3 DUP3 SHR SWAP1 POP SWAP3 SWAP2 POP POP JUMP JUMPDEST PUSH0 PUSH2 0xBB5 PUSH0 NOT DUP5 PUSH1 0x8 MUL PUSH2 0xB9A JUMP JUMPDEST NOT DUP1 DUP4 AND SWAP2 POP POP SWAP3 SWAP2 POP POP JUMP JUMPDEST PUSH0 PUSH2 0xBCD DUP4 DUP4 PUSH2 0xBA6 JUMP JUMPDEST SWAP2 POP DUP3 PUSH1 0x2 MUL DUP3 OR SWAP1 POP SWAP3 SWAP2 POP POP JUMP JUMPDEST PUSH2 0xBE7 DUP4 DUP4 PUSH2 0x9A9 JUMP JUMPDEST PUSH8 0xFFFFFFFFFFFFFFFF DUP2 GT ISZERO PUSH2 0xC00 JUMPI PUSH2 0xBFF PUSH2 0x9B3 JUMP JUMPDEST JUMPDEST PUSH2 0xC0A DUP3 SLOAD PUSH2 0xA0D JUMP JUMPDEST PUSH2 0xC15 DUP3 DUP3 DUP6 PUSH2 0xB54 JUMP JUMPDEST PUSH0 PUSH1 0x1F DUP4 GT PUSH1 0x1 DUP2 EQ PUSH2 0xC42 JUMPI PUSH0 DUP5 ISZERO PUSH2 0xC30 JUMPI DUP3 DUP8 ADD CALLDATALOAD SWAP1 POP JUMPDEST PUSH2 0xC3A DUP6 DUP3 PUSH2 0xBC2 JUMP JUMPDEST DUP7 SSTORE POP PUSH2 0xCA1 JUMP JUMPDEST PUSH1 0x1F NOT DUP5 AND PUSH2 0xC50 DUP7 PUSH2 0xA3D JUMP JUMPDEST PUSH0 JUMPDEST DUP3 DUP2 LT ISZERO PUSH2 0xC77 JUMPI DUP5 DUP10 ADD CALLDATALOAD DUP3 SSTORE PUSH1 0x1 DUP3 ADD SWAP2 POP PUSH1 0x20 DUP6 ADD SWAP5 POP PUSH1 0x20 DUP2 ADD SWAP1 POP PUSH2 0xC52 JUMP JUMPDEST DUP7 DUP4 LT ISZERO PUSH2 0xC94 JUMPI DUP5 DUP10 ADD CALLDATALOAD PUSH2 0xC90 PUSH1 0x1F DUP10 AND DUP3 PUSH2 0xBA6 JUMP JUMPDEST DUP4 SSTORE POP JUMPDEST PUSH1 0x1 PUSH1 0x2 DUP9 MUL ADD DUP9 SSTORE POP POP POP JUMPDEST POP POP POP POP POP POP POP JUMP JUMPDEST PUSH32 0x4E487B7100000000000000000000000000000000000000000000000000000000 PUSH0 MSTORE PUSH1 0x11 PUSH1 0x4 MSTORE PUSH1 0x24 PUSH0 REVERT JUMPDEST PUSH0 PUSH2 0xCE1 DUP3 PUSH2 0x721 JUMP JUMPDEST SWAP2 POP PUSH2 0xCEC DUP4 PUSH2 0x721 JUMP JUMPDEST SWAP3 POP DUP3 DUP3 SUB SWAP1 POP DUP2 DUP2 GT ISZERO PUSH2 0xD04 JUMPI PUSH2 0xD03 PUSH2 0xCAA JUMP JUMPDEST JUMPDEST SWAP3 SWAP2 POP POP JUMP JUMPDEST PUSH32 0x496E76616C696420616464726573730000000000000000000000000000000000 PUSH0 DUP3 ADD MSTORE POP JUMP JUMPDEST PUSH0 PUSH2 0xD3E PUSH1 0xF DUP4 PUSH2 0x69B JUMP JUMPDEST SWAP2 POP PUSH2 0xD49 DUP3 PUSH2 0xD0A JUMP JUMPDEST PUSH1 0x20 DUP3 ADD SWAP1 POP SWAP2 SWAP1 POP JUMP JUMPDEST PUSH0 PUSH1 0x20 DUP3 ADD SWAP1 POP DUP2 DUP2 SUB PUSH0 DUP4 ADD MSTORE PUSH2 0xD6B DUP2 PUSH2 0xD32 JUMP JUMPDEST SWAP1 POP SWAP2 SWAP1 POP JUMP INVALID LOG2 PUSH5 0x6970667358 0x22 SLT KECCAK256 JUMPF 0x6FF1 SWAP15 EQ 0xB4 0xE2 DUP14 0xD5 0xEF 0xEA GASLIMIT DUPN 0x68 0xED GASPRICE DIV 0xC CREATE CALLF 0x31B 0xDB 0xB7 0xCA CALLVALUE ORIGIN GAS SWAP5 EQ STOP 0xCB PUSH5 0x736F6C6343 STOP ADDMOD 0x1F STOP CALLER "
				},
				"gasEstimates": {
					"creation": {
						"codeDepositCost": "699200",
						"executionCost": "infinite",
						"totalCost": "infinite"
					},
					"external": {
						"getBoxType()": "infinite",
						"getDepositTime()": "4623",
						"getOwner()": "2514",
						"getRemainingTime()": "infinite",
						"getSecret()": "infinite",
						"getUnlockTime()": "2499",
						"storeSecret(string)": "infinite",
						"transferOwnership(address)": "28526"
					}
				},
				"methodIdentifiers": {
					"getBoxType()": "04199139",
					"getDepositTime()": "51811f04",
					"getOwner()": "893d20e8",
					"getRemainingTime()": "efb98bcf",
					"getSecret()": "5b9fdc30",
					"getUnlockTime()": "602bc62b",
					"storeSecret(string)": "a14ab9f8",
					"transferOwnership(address)": "f2fde38b"
				}
			},
			"storageLayout": {
				"storage": [
					{
						"astId": 6,
						"contract": "014-Safe Deposit Box/TimeLockedDepositBox.sol:TimeLockedDepositBox",
						"label": "owner",
						"offset": 0,
						"slot": "0",
						"type": "t_address"
					},
					{
						"astId": 8,
						"contract": "014-Safe Deposit Box/TimeLockedDepositBox.sol:TimeLockedDepositBox",
						"label": "secret",
						"offset": 0,
						"slot": "1",
						"type": "t_string_storage"
					},
					{
						"astId": 10,
						"contract": "014-Safe Deposit Box/TimeLockedDepositBox.sol:TimeLockedDepositBox",
						"label": "depositTime",
						"offset": 0,
						"slot": "2",
						"type": "t_uint256"
					},
					{
						"astId": 161,
						"contract": "014-Safe Deposit Box/TimeLockedDepositBox.sol:TimeLockedDepositBox",
						"label": "unlockTime",
						"offset": 0,
						"slot": "3",
						"type": "t_uint256"
					}
				],
				"types": {
					"t_address": {
						"encoding": "inplace",
						"label": "address",
						"numberOfBytes": "20"
					},
					"t_string_storage": {
						"encoding": "bytes",
						"label": "string",
						"numberOfBytes": "32"
					},
					"t_uint256": {
						"encoding": "inplace",
						"label": "uint256",
						"numberOfBytes": "32"
					}
				}
			},
			"userdoc": {
				"kind": "user",
				"methods": {},
				"version": 1
			}
		}
	}
}