{
	"015-Gas Saver Voting/GasEfficientVoting.sol": {
		"GasEfficientVoting": {
			"abi": [
				{
					"inputs": [
						{
							"internalType": "string",
							"name": "message",
							"type": "string"
						}
					],
					"name": "Voting__LimitProposals",
					"type": "error"
				},
				{
					"inputs": [],
					"name": "Voting__NoProposals",
					"type": "error"
				},
				{
					"inputs": [],
					"name": "Voting__OwnerCannotVote",
					"type": "error"
				},
				{
					"inputs": [],
					"name": "Voting__ProposalExecuted",
					"type": "error"
				},
				{
					"anonymous": false,
					"inputs": [
						{
							"indexed": true,
							"internalType": "uint8",
							"name": "proposalId",
							"type": "uint8"
						},
						{
							"indexed": false,
							"internalType": "bytes32",
							"name": "name",
							"type": "bytes32"
						}
					],
					"name": "CreateProposal",
					"type": "event"
				},
				{
					"anonymous": false,
					"inputs": [
						{
							"indexed": true,
							"internalType": "address",
							"name": "owner",
							"type": "address"
						},
						{
							"indexed": true,
							"internalType": "uint8",
							"name": "proposalId",
							"type": "uint8"
						}
					],
					"name": "ProposalExecuted",
					"type": "event"
				},
				{
					"anonymous": false,
					"inputs": [
						{
							"indexed": true,
							"internalType": "address",
							"name": "voter",
							"type": "address"
						},
						{
							"indexed": true,
							"internalType": "uint8",
							"name": "proposalId",
							"type": "uint8"
						}
					],
					"name": "Voted",
					"type": "event"
				},
				{
					"inputs": [
						{
							"internalType": "string",
							"name": "name",
							"type": "string"
						},
						{
							"internalType": "uint32",
							"name": "duration",
							"type": "uint32"
						}
					],
					"name": "createProposal",
					"outputs": [],
					"stateMutability": "nonpayable",
					"type": "function"
				},
				{
					"inputs": [
						{
							"internalType": "uint8",
							"name": "proposalId",
							"type": "uint8"
						}
					],
					"name": "executeProposal",
					"outputs": [],
					"stateMutability": "nonpayable",
					"type": "function"
				},
				{
					"inputs": [
						{
							"internalType": "uint8",
							"name": "proposalId",
							"type": "uint8"
						}
					],
					"name": "getProposal",
					"outputs": [
						{
							"internalType": "bytes32",
							"name": "name",
							"type": "bytes32"
						},
						{
							"internalType": "uint32",
							"name": "voteCount",
							"type": "uint32"
						},
						{
							"internalType": "uint32",
							"name": "startTime",
							"type": "uint32"
						},
						{
							"internalType": "uint32",
							"name": "endTime",
							"type": "uint32"
						},
						{
							"internalType": "bool",
							"name": "executed",
							"type": "bool"
						},
						{
							"internalType": "bool",
							"name": "active",
							"type": "bool"
						}
					],
					"stateMutability": "view",
					"type": "function"
				},
				{
					"inputs": [],
					"name": "proposalCounts",
					"outputs": [
						{
							"internalType": "uint8",
							"name": "",
							"type": "uint8"
						}
					],
					"stateMutability": "view",
					"type": "function"
				},
				{
					"inputs": [
						{
							"internalType": "uint8",
							"name": "",
							"type": "uint8"
						}
					],
					"name": "proposals",
					"outputs": [
						{
							"internalType": "bytes32",
							"name": "name",
							"type": "bytes32"
						},
						{
							"internalType": "uint32",
							"name": "voteCounts",
							"type": "uint32"
						},
						{
							"internalType": "uint32",
							"name": "startTime",
							"type": "uint32"
						},
						{
							"internalType": "uint32",
							"name": "endTime",
							"type": "uint32"
						},
						{
							"internalType": "bool",
							"name": "votingEnded",
							"type": "bool"
						},
						{
							"internalType": "address",
							"name": "owner",
							"type": "address"
						}
					],
					"stateMutability": "view",
					"type": "function"
				},
				{
					"inputs": [
						{
							"internalType": "uint8",
							"name": "proposalId",
							"type": "uint8"
						}
					],
					"name": "voteProposal",
					"outputs": [
						{
							"internalType": "uint256",
							"name": "",
							"type": "uint256"
						}
					],
					"stateMutability": "nonpayable",
					"type": "function"
				}
			],
			"devdoc": {
				"kind": "dev",
				"methods": {},
				"version": 1
			},
			"evm": {
				"assembly": "    /* \"015-Gas Saver Voting/GasEfficientVoting.sol\":331:3661  contract GasEfficientVoting {... */\n  mstore(0x40, 0x80)\n    /* \"015-Gas Saver Voting/GasEfficientVoting.sol\":555:556  1 */\n  0x01\n    /* \"015-Gas Saver Voting/GasEfficientVoting.sol\":525:556  uint8 public proposalCounts = 1 */\n  0x00\n  exp(0x0100, 0x00)\n  dup2\n  sload\n  dup2\n  0xff\n  mul\n  not\n  and\n  swap1\n  dup4\n  0xff\n  and\n  mul\n  or\n  swap1\n  sstore\n  pop\n    /* \"015-Gas Saver Voting/GasEfficientVoting.sol\":331:3661  contract GasEfficientVoting {... */\n  callvalue\n  dup1\n  iszero\n  tag_1\n  jumpi\n  revert(0x00, 0x00)\ntag_1:\n  pop\n  dataSize(sub_0)\n  dup1\n  dataOffset(sub_0)\n  0x00\n  codecopy\n  0x00\n  return\nstop\n\nsub_0: assembly {\n        /* \"015-Gas Saver Voting/GasEfficientVoting.sol\":331:3661  contract GasEfficientVoting {... */\n      mstore(0x40, 0x80)\n      callvalue\n      dup1\n      iszero\n      tag_1\n      jumpi\n      revert(0x00, 0x00)\n    tag_1:\n      pop\n      jumpi(tag_2, lt(calldatasize, 0x04))\n      shr(0xe0, calldataload(0x00))\n      dup1\n      0x4a91da48\n      eq\n      tag_3\n      jumpi\n      dup1\n      0x655a61e5\n      eq\n      tag_4\n      jumpi\n      dup1\n      0x81cadf5e\n      eq\n      tag_5\n      jumpi\n      dup1\n      0x84acf0f5\n      eq\n      tag_6\n      jumpi\n      dup1\n      0xb62f72f3\n      eq\n      tag_7\n      jumpi\n      dup1\n      0xdac001fe\n      eq\n      tag_8\n      jumpi\n    tag_2:\n      revert(0x00, 0x00)\n        /* \"015-Gas Saver Voting/GasEfficientVoting.sol\":525:556  uint8 public proposalCounts = 1 */\n    tag_3:\n      tag_9\n      tag_10\n      jump\t// in\n    tag_9:\n      mload(0x40)\n      tag_11\n      swap2\n      swap1\n      tag_12\n      jump\t// in\n    tag_11:\n      mload(0x40)\n      dup1\n      swap2\n      sub\n      swap1\n      return\n        /* \"015-Gas Saver Voting/GasEfficientVoting.sol\":879:1495  function createProposal(... */\n    tag_4:\n      tag_13\n      0x04\n      dup1\n      calldatasize\n      sub\n      dup2\n      add\n      swap1\n      tag_14\n      swap2\n      swap1\n      tag_15\n      jump\t// in\n    tag_14:\n      tag_16\n      jump\t// in\n    tag_13:\n      stop\n        /* \"015-Gas Saver Voting/GasEfficientVoting.sol\":1501:2485  function voteProposal(uint8 proposalId) public returns(uint256){... */\n    tag_5:\n      tag_17\n      0x04\n      dup1\n      calldatasize\n      sub\n      dup2\n      add\n      swap1\n      tag_18\n      swap2\n      swap1\n      tag_19\n      jump\t// in\n    tag_18:\n      tag_20\n      jump\t// in\n    tag_17:\n      mload(0x40)\n      tag_21\n      swap2\n      swap1\n      tag_22\n      jump\t// in\n    tag_21:\n      mload(0x40)\n      dup1\n      swap2\n      sub\n      swap1\n      return\n        /* \"015-Gas Saver Voting/GasEfficientVoting.sol\":563:607  mapping (uint8 => Proposal) public proposals */\n    tag_6:\n      tag_23\n      0x04\n      dup1\n      calldatasize\n      sub\n      dup2\n      add\n      swap1\n      tag_24\n      swap2\n      swap1\n      tag_19\n      jump\t// in\n    tag_24:\n      tag_25\n      jump\t// in\n    tag_23:\n      mload(0x40)\n      tag_26\n      swap7\n      swap6\n      swap5\n      swap4\n      swap3\n      swap2\n      swap1\n      tag_27\n      jump\t// in\n    tag_26:\n      mload(0x40)\n      dup1\n      swap2\n      sub\n      swap1\n      return\n        /* \"015-Gas Saver Voting/GasEfficientVoting.sol\":2491:3019  function executeProposal(uint8 proposalId) public {... */\n    tag_7:\n      tag_28\n      0x04\n      dup1\n      calldatasize\n      sub\n      dup2\n      add\n      swap1\n      tag_29\n      swap2\n      swap1\n      tag_19\n      jump\t// in\n    tag_29:\n      tag_30\n      jump\t// in\n    tag_28:\n      stop\n        /* \"015-Gas Saver Voting/GasEfficientVoting.sol\":3025:3659  function getProposal(uint8 proposalId) public view returns(... */\n    tag_8:\n      tag_31\n      0x04\n      dup1\n      calldatasize\n      sub\n      dup2\n      add\n      swap1\n      tag_32\n      swap2\n      swap1\n      tag_19\n      jump\t// in\n    tag_32:\n      tag_33\n      jump\t// in\n    tag_31:\n      mload(0x40)\n      tag_34\n      swap7\n      swap6\n      swap5\n      swap4\n      swap3\n      swap2\n      swap1\n      tag_35\n      jump\t// in\n    tag_34:\n      mload(0x40)\n      dup1\n      swap2\n      sub\n      swap1\n      return\n        /* \"015-Gas Saver Voting/GasEfficientVoting.sol\":525:556  uint8 public proposalCounts = 1 */\n    tag_10:\n      0x00\n      0x00\n      swap1\n      sload\n      swap1\n      0x0100\n      exp\n      swap1\n      div\n      0xff\n      and\n      dup2\n      jump\t// out\n        /* \"015-Gas Saver Voting/GasEfficientVoting.sol\":879:1495  function createProposal(... */\n    tag_16:\n        /* \"015-Gas Saver Voting/GasEfficientVoting.sol\":1000:1003  600 */\n      0x0258\n        /* \"015-Gas Saver Voting/GasEfficientVoting.sol\":988:996  duration */\n      dup2\n        /* \"015-Gas Saver Voting/GasEfficientVoting.sol\":988:1003  duration >= 600 */\n      0xffffffff\n      and\n      lt\n      iszero\n        /* \"015-Gas Saver Voting/GasEfficientVoting.sol\":980:1047  require(duration >= 600, \"Duration should be atleast 600 seconds.\") */\n      tag_37\n      jumpi\n      mload(0x40)\n      0x08c379a000000000000000000000000000000000000000000000000000000000\n      dup2\n      mstore\n      0x04\n      add\n      tag_38\n      swap1\n      tag_39\n      jump\t// in\n    tag_38:\n      mload(0x40)\n      dup1\n      swap2\n      sub\n      swap1\n      revert\n    tag_37:\n        /* \"015-Gas Saver Voting/GasEfficientVoting.sol\":1058:1085  Proposal memory newProposal */\n      0x00\n        /* \"015-Gas Saver Voting/GasEfficientVoting.sol\":1088:1344  Proposal({... */\n      mload(0x40)\n      dup1\n      0xc0\n      add\n      0x40\n      mstore\n      dup1\n        /* \"015-Gas Saver Voting/GasEfficientVoting.sol\":1131:1135  name */\n      dup5\n        /* \"015-Gas Saver Voting/GasEfficientVoting.sol\":1117:1137  bytes32(bytes(name)) */\n      tag_40\n      swap1\n      tag_41\n      jump\t// in\n    tag_40:\n        /* \"015-Gas Saver Voting/GasEfficientVoting.sol\":1088:1344  Proposal({... */\n      dup2\n      mstore\n      0x20\n      add\n        /* \"015-Gas Saver Voting/GasEfficientVoting.sol\":1164:1165  0 */\n      0x00\n        /* \"015-Gas Saver Voting/GasEfficientVoting.sol\":1088:1344  Proposal({... */\n      0xffffffff\n      and\n      dup2\n      mstore\n      0x20\n      add\n        /* \"015-Gas Saver Voting/GasEfficientVoting.sol\":1197:1212  block.timestamp */\n      timestamp\n        /* \"015-Gas Saver Voting/GasEfficientVoting.sol\":1088:1344  Proposal({... */\n      0xffffffff\n      and\n      dup2\n      mstore\n      0x20\n      add\n        /* \"015-Gas Saver Voting/GasEfficientVoting.sol\":1262:1270  duration */\n      dup4\n        /* \"015-Gas Saver Voting/GasEfficientVoting.sol\":1243:1258  block.timestamp */\n      timestamp\n        /* \"015-Gas Saver Voting/GasEfficientVoting.sol\":1236:1270  uint32(block.timestamp) + duration */\n      tag_42\n      swap2\n      swap1\n      tag_43\n      jump\t// in\n    tag_42:\n        /* \"015-Gas Saver Voting/GasEfficientVoting.sol\":1088:1344  Proposal({... */\n      0xffffffff\n      and\n      dup2\n      mstore\n      0x20\n      add\n        /* \"015-Gas Saver Voting/GasEfficientVoting.sol\":1297:1302  false */\n      0x00\n        /* \"015-Gas Saver Voting/GasEfficientVoting.sol\":1088:1344  Proposal({... */\n      iszero\n      iszero\n      dup2\n      mstore\n      0x20\n      add\n        /* \"015-Gas Saver Voting/GasEfficientVoting.sol\":1323:1333  msg.sender */\n      caller\n        /* \"015-Gas Saver Voting/GasEfficientVoting.sol\":1088:1344  Proposal({... */\n      0xffffffffffffffffffffffffffffffffffffffff\n      and\n      dup2\n      mstore\n      pop\n        /* \"015-Gas Saver Voting/GasEfficientVoting.sol\":1058:1344  Proposal memory newProposal = Proposal({... */\n      swap1\n      pop\n        /* \"015-Gas Saver Voting/GasEfficientVoting.sol\":1383:1394  newProposal */\n      dup1\n        /* \"015-Gas Saver Voting/GasEfficientVoting.sol\":1355:1364  proposals */\n      0x01\n        /* \"015-Gas Saver Voting/GasEfficientVoting.sol\":1355:1380  proposals[proposalCounts] */\n      0x00\n        /* \"015-Gas Saver Voting/GasEfficientVoting.sol\":1365:1379  proposalCounts */\n      0x00\n      0x00\n      swap1\n      sload\n      swap1\n      0x0100\n      exp\n      swap1\n      div\n      0xff\n      and\n        /* \"015-Gas Saver Voting/GasEfficientVoting.sol\":1355:1380  proposals[proposalCounts] */\n      0xff\n      and\n      0xff\n      and\n      dup2\n      mstore\n      0x20\n      add\n      swap1\n      dup2\n      mstore\n      0x20\n      add\n      0x00\n      keccak256\n        /* \"015-Gas Saver Voting/GasEfficientVoting.sol\":1355:1394  proposals[proposalCounts] = newProposal */\n      0x00\n      dup3\n      add\n      mload\n      dup2\n      0x00\n      add\n      sstore\n      0x20\n      dup3\n      add\n      mload\n      dup2\n      0x01\n      add\n      exp(0x0100, 0x00)\n      dup2\n      sload\n      dup2\n      0xffffffff\n      mul\n      not\n      and\n      swap1\n      dup4\n      0xffffffff\n      and\n      mul\n      or\n      swap1\n      sstore\n      pop\n      0x40\n      dup3\n      add\n      mload\n      dup2\n      0x01\n      add\n      exp(0x0100, 0x04)\n      dup2\n      sload\n      dup2\n      0xffffffff\n      mul\n      not\n      and\n      swap1\n      dup4\n      0xffffffff\n      and\n      mul\n      or\n      swap1\n      sstore\n      pop\n      0x60\n      dup3\n      add\n      mload\n      dup2\n      0x01\n      add\n      exp(0x0100, 0x08)\n      dup2\n      sload\n      dup2\n      0xffffffff\n      mul\n      not\n      and\n      swap1\n      dup4\n      0xffffffff\n      and\n      mul\n      or\n      swap1\n      sstore\n      pop\n      0x80\n      dup3\n      add\n      mload\n      dup2\n      0x01\n      add\n      exp(0x0100, 0x0c)\n      dup2\n      sload\n      dup2\n      0xff\n      mul\n      not\n      and\n      swap1\n      dup4\n      iszero\n      iszero\n      mul\n      or\n      swap1\n      sstore\n      pop\n      0xa0\n      dup3\n      add\n      mload\n      dup2\n      0x02\n      add\n      exp(0x0100, 0x00)\n      dup2\n      sload\n      dup2\n      0xffffffffffffffffffffffffffffffffffffffff\n      mul\n      not\n      and\n      swap1\n      dup4\n      0xffffffffffffffffffffffffffffffffffffffff\n      and\n      mul\n      or\n      swap1\n      sstore\n      pop\n      swap1\n      pop\n      pop\n        /* \"015-Gas Saver Voting/GasEfficientVoting.sol\":1425:1439  proposalCounts */\n      0x00\n      0x00\n      swap1\n      sload\n      swap1\n      0x0100\n      exp\n      swap1\n      div\n      0xff\n      and\n        /* \"015-Gas Saver Voting/GasEfficientVoting.sol\":1410:1462  CreateProposal(proposalCounts, bytes32(bytes(name))) */\n      0xff\n      and\n      0xf8911b31a70033943dccd9f54bb08abe3a63e53e41971ac6f7857ffe1bb52834\n        /* \"015-Gas Saver Voting/GasEfficientVoting.sol\":1455:1459  name */\n      dup5\n        /* \"015-Gas Saver Voting/GasEfficientVoting.sol\":1441:1461  bytes32(bytes(name)) */\n      tag_44\n      swap1\n      tag_41\n      jump\t// in\n    tag_44:\n        /* \"015-Gas Saver Voting/GasEfficientVoting.sol\":1410:1462  CreateProposal(proposalCounts, bytes32(bytes(name))) */\n      mload(0x40)\n      tag_45\n      swap2\n      swap1\n      tag_46\n      jump\t// in\n    tag_45:\n      mload(0x40)\n      dup1\n      swap2\n      sub\n      swap1\n      log2\n        /* \"015-Gas Saver Voting/GasEfficientVoting.sol\":1472:1486  proposalCounts */\n      0x00\n      0x00\n        /* \"015-Gas Saver Voting/GasEfficientVoting.sol\":1472:1488  proposalCounts++ */\n      dup2\n      dup2\n      swap1\n      sload\n      swap1\n      0x0100\n      exp\n      swap1\n      div\n      0xff\n      and\n      dup1\n      swap3\n      swap2\n      swap1\n      tag_47\n      swap1\n      tag_48\n      jump\t// in\n    tag_47:\n      swap2\n      swap1\n      0x0100\n      exp\n      dup2\n      sload\n      dup2\n      0xff\n      mul\n      not\n      and\n      swap1\n      dup4\n      0xff\n      and\n      mul\n      or\n      swap1\n      sstore\n      pop\n      pop\n        /* \"015-Gas Saver Voting/GasEfficientVoting.sol\":970:1495  {... */\n      pop\n        /* \"015-Gas Saver Voting/GasEfficientVoting.sol\":879:1495  function createProposal(... */\n      pop\n      pop\n      jump\t// out\n        /* \"015-Gas Saver Voting/GasEfficientVoting.sol\":1501:2485  function voteProposal(uint8 proposalId) public returns(uint256){... */\n    tag_20:\n        /* \"015-Gas Saver Voting/GasEfficientVoting.sol\":1556:1563  uint256 */\n      0x00\n        /* \"015-Gas Saver Voting/GasEfficientVoting.sol\":1618:1619  0 */\n      0x00\n        /* \"015-Gas Saver Voting/GasEfficientVoting.sol\":1579:1620  proposals[proposalId].owner == address(0) */\n      0xffffffffffffffffffffffffffffffffffffffff\n      and\n        /* \"015-Gas Saver Voting/GasEfficientVoting.sol\":1579:1588  proposals */\n      0x01\n        /* \"015-Gas Saver Voting/GasEfficientVoting.sol\":1579:1600  proposals[proposalId] */\n      0x00\n        /* \"015-Gas Saver Voting/GasEfficientVoting.sol\":1589:1599  proposalId */\n      dup5\n        /* \"015-Gas Saver Voting/GasEfficientVoting.sol\":1579:1600  proposals[proposalId] */\n      0xff\n      and\n      0xff\n      and\n      dup2\n      mstore\n      0x20\n      add\n      swap1\n      dup2\n      mstore\n      0x20\n      add\n      0x00\n      keccak256\n        /* \"015-Gas Saver Voting/GasEfficientVoting.sol\":1579:1606  proposals[proposalId].owner */\n      0x02\n      add\n      0x00\n      swap1\n      sload\n      swap1\n      0x0100\n      exp\n      swap1\n      div\n      0xffffffffffffffffffffffffffffffffffffffff\n      and\n        /* \"015-Gas Saver Voting/GasEfficientVoting.sol\":1579:1620  proposals[proposalId].owner == address(0) */\n      0xffffffffffffffffffffffffffffffffffffffff\n      and\n      sub\n        /* \"015-Gas Saver Voting/GasEfficientVoting.sol\":1575:1650  if (proposals[proposalId].owner == address(0)) revert Voting__NoProposals() */\n      tag_50\n      jumpi\n        /* \"015-Gas Saver Voting/GasEfficientVoting.sol\":1629:1650  Voting__NoProposals() */\n      mload(0x40)\n      0x83e5d900000000000000000000000000000000000000000000000000000000\n      dup2\n      mstore\n      0x04\n      add\n      mload(0x40)\n      dup1\n      swap2\n      sub\n      swap1\n      revert\n        /* \"015-Gas Saver Voting/GasEfficientVoting.sol\":1575:1650  if (proposals[proposalId].owner == address(0)) revert Voting__NoProposals() */\n    tag_50:\n        /* \"015-Gas Saver Voting/GasEfficientVoting.sol\":1686:1695  proposals */\n      0x01\n        /* \"015-Gas Saver Voting/GasEfficientVoting.sol\":1686:1707  proposals[proposalId] */\n      0x00\n        /* \"015-Gas Saver Voting/GasEfficientVoting.sol\":1696:1706  proposalId */\n      dup4\n        /* \"015-Gas Saver Voting/GasEfficientVoting.sol\":1686:1707  proposals[proposalId] */\n      0xff\n      and\n      0xff\n      and\n      dup2\n      mstore\n      0x20\n      add\n      swap1\n      dup2\n      mstore\n      0x20\n      add\n      0x00\n      keccak256\n        /* \"015-Gas Saver Voting/GasEfficientVoting.sol\":1686:1715  proposals[proposalId].endTime */\n      0x01\n      add\n      0x08\n      swap1\n      sload\n      swap1\n      0x0100\n      exp\n      swap1\n      div\n      0xffffffff\n      and\n        /* \"015-Gas Saver Voting/GasEfficientVoting.sol\":1668:1715  block.timestamp < proposals[proposalId].endTime */\n      0xffffffff\n      and\n        /* \"015-Gas Saver Voting/GasEfficientVoting.sol\":1668:1683  block.timestamp */\n      timestamp\n        /* \"015-Gas Saver Voting/GasEfficientVoting.sol\":1668:1715  block.timestamp < proposals[proposalId].endTime */\n      lt\n        /* \"015-Gas Saver Voting/GasEfficientVoting.sol\":1660:1735  require(block.timestamp < proposals[proposalId].endTime, \"Proposal ended.\") */\n      tag_51\n      jumpi\n      mload(0x40)\n      0x08c379a000000000000000000000000000000000000000000000000000000000\n      dup2\n      mstore\n      0x04\n      add\n      tag_52\n      swap1\n      tag_53\n      jump\t// in\n    tag_52:\n      mload(0x40)\n      dup1\n      swap2\n      sub\n      swap1\n      revert\n    tag_51:\n        /* \"015-Gas Saver Voting/GasEfficientVoting.sol\":1786:1790  true */\n      0x01\n        /* \"015-Gas Saver Voting/GasEfficientVoting.sol\":1749:1790  proposals[proposalId].votingEnded == true */\n      iszero\n      iszero\n        /* \"015-Gas Saver Voting/GasEfficientVoting.sol\":1749:1758  proposals */\n      0x01\n        /* \"015-Gas Saver Voting/GasEfficientVoting.sol\":1749:1770  proposals[proposalId] */\n      0x00\n        /* \"015-Gas Saver Voting/GasEfficientVoting.sol\":1759:1769  proposalId */\n      dup5\n        /* \"015-Gas Saver Voting/GasEfficientVoting.sol\":1749:1770  proposals[proposalId] */\n      0xff\n      and\n      0xff\n      and\n      dup2\n      mstore\n      0x20\n      add\n      swap1\n      dup2\n      mstore\n      0x20\n      add\n      0x00\n      keccak256\n        /* \"015-Gas Saver Voting/GasEfficientVoting.sol\":1749:1782  proposals[proposalId].votingEnded */\n      0x01\n      add\n      0x0c\n      swap1\n      sload\n      swap1\n      0x0100\n      exp\n      swap1\n      div\n      0xff\n      and\n        /* \"015-Gas Saver Voting/GasEfficientVoting.sol\":1749:1790  proposals[proposalId].votingEnded == true */\n      iszero\n      iszero\n      sub\n        /* \"015-Gas Saver Voting/GasEfficientVoting.sol\":1745:1825  if (proposals[proposalId].votingEnded == true) revert Voting__ProposalExecuted() */\n      tag_54\n      jumpi\n        /* \"015-Gas Saver Voting/GasEfficientVoting.sol\":1799:1825  Voting__ProposalExecuted() */\n      mload(0x40)\n      0xbd57690600000000000000000000000000000000000000000000000000000000\n      dup2\n      mstore\n      0x04\n      add\n      mload(0x40)\n      dup1\n      swap2\n      sub\n      swap1\n      revert\n        /* \"015-Gas Saver Voting/GasEfficientVoting.sol\":1745:1825  if (proposals[proposalId].votingEnded == true) revert Voting__ProposalExecuted() */\n    tag_54:\n        /* \"015-Gas Saver Voting/GasEfficientVoting.sol\":1870:1880  msg.sender */\n      caller\n        /* \"015-Gas Saver Voting/GasEfficientVoting.sol\":1839:1880  proposals[proposalId].owner == msg.sender */\n      0xffffffffffffffffffffffffffffffffffffffff\n      and\n        /* \"015-Gas Saver Voting/GasEfficientVoting.sol\":1839:1848  proposals */\n      0x01\n        /* \"015-Gas Saver Voting/GasEfficientVoting.sol\":1839:1860  proposals[proposalId] */\n      0x00\n        /* \"015-Gas Saver Voting/GasEfficientVoting.sol\":1849:1859  proposalId */\n      dup5\n        /* \"015-Gas Saver Voting/GasEfficientVoting.sol\":1839:1860  proposals[proposalId] */\n      0xff\n      and\n      0xff\n      and\n      dup2\n      mstore\n      0x20\n      add\n      swap1\n      dup2\n      mstore\n      0x20\n      add\n      0x00\n      keccak256\n        /* \"015-Gas Saver Voting/GasEfficientVoting.sol\":1839:1866  proposals[proposalId].owner */\n      0x02\n      add\n      0x00\n      swap1\n      sload\n      swap1\n      0x0100\n      exp\n      swap1\n      div\n      0xffffffffffffffffffffffffffffffffffffffff\n      and\n        /* \"015-Gas Saver Voting/GasEfficientVoting.sol\":1839:1880  proposals[proposalId].owner == msg.sender */\n      0xffffffffffffffffffffffffffffffffffffffff\n      and\n      sub\n        /* \"015-Gas Saver Voting/GasEfficientVoting.sol\":1835:1914  if (proposals[proposalId].owner == msg.sender) revert Voting__OwnerCannotVote() */\n      tag_55\n      jumpi\n        /* \"015-Gas Saver Voting/GasEfficientVoting.sol\":1889:1914  Voting__OwnerCannotVote() */\n      mload(0x40)\n      0x450f84c300000000000000000000000000000000000000000000000000000000\n      dup2\n      mstore\n      0x04\n      add\n      mload(0x40)\n      dup1\n      swap2\n      sub\n      swap1\n      revert\n        /* \"015-Gas Saver Voting/GasEfficientVoting.sol\":1835:1914  if (proposals[proposalId].owner == msg.sender) revert Voting__OwnerCannotVote() */\n    tag_55:\n        /* \"015-Gas Saver Voting/GasEfficientVoting.sol\":1941:1942  0 */\n      0x00\n        /* \"015-Gas Saver Voting/GasEfficientVoting.sol\":1928:1938  proposalId */\n      dup3\n        /* \"015-Gas Saver Voting/GasEfficientVoting.sol\":1928:1942  proposalId < 0 */\n      0xff\n      and\n      lt\n        /* \"015-Gas Saver Voting/GasEfficientVoting.sol\":1928:1962  proposalId < 0 && proposalId > 256 */\n      dup1\n      iszero\n      tag_56\n      jumpi\n      pop\n        /* \"015-Gas Saver Voting/GasEfficientVoting.sol\":1959:1962  256 */\n      0x0100\n        /* \"015-Gas Saver Voting/GasEfficientVoting.sol\":1946:1956  proposalId */\n      dup3\n        /* \"015-Gas Saver Voting/GasEfficientVoting.sol\":1946:1962  proposalId > 256 */\n      0xff\n      and\n      gt\n        /* \"015-Gas Saver Voting/GasEfficientVoting.sol\":1928:1962  proposalId < 0 && proposalId > 256 */\n    tag_56:\n        /* \"015-Gas Saver Voting/GasEfficientVoting.sol\":1924:2022  if (proposalId < 0 && proposalId > 256) revert Voting__LimitProposals(\"Proposal IDs from 1 - 255\") */\n      iszero\n      tag_57\n      jumpi\n        /* \"015-Gas Saver Voting/GasEfficientVoting.sol\":1971:2022  Voting__LimitProposals(\"Proposal IDs from 1 - 255\") */\n      mload(0x40)\n      0xa4628d8100000000000000000000000000000000000000000000000000000000\n      dup2\n      mstore\n      0x04\n      add\n      tag_58\n      swap1\n      tag_59\n      jump\t// in\n    tag_58:\n      mload(0x40)\n      dup1\n      swap2\n      sub\n      swap1\n      revert\n        /* \"015-Gas Saver Voting/GasEfficientVoting.sol\":1924:2022  if (proposalId < 0 && proposalId > 256) revert Voting__LimitProposals(\"Proposal IDs from 1 - 255\") */\n    tag_57:\n        /* \"015-Gas Saver Voting/GasEfficientVoting.sol\":2115:2136  uint256 userSetBitInd */\n      0x00\n        /* \"015-Gas Saver Voting/GasEfficientVoting.sol\":2144:2154  proposalId */\n      dup3\n        /* \"015-Gas Saver Voting/GasEfficientVoting.sol\":2139:2154  1 << proposalId */\n      0xff\n      and\n        /* \"015-Gas Saver Voting/GasEfficientVoting.sol\":2139:2140  1 */\n      0x01\n        /* \"015-Gas Saver Voting/GasEfficientVoting.sol\":2139:2154  1 << proposalId */\n      swap1\n      shl\n        /* \"015-Gas Saver Voting/GasEfficientVoting.sol\":2115:2154  uint256 userSetBitInd = 1 << proposalId */\n      swap1\n      pop\n        /* \"015-Gas Saver Voting/GasEfficientVoting.sol\":2192:2205  userSetBitInd */\n      dup1\n        /* \"015-Gas Saver Voting/GasEfficientVoting.sol\":2164:2176  voteRegistry */\n      0x02\n        /* \"015-Gas Saver Voting/GasEfficientVoting.sol\":2164:2188  voteRegistry[msg.sender] */\n      0x00\n        /* \"015-Gas Saver Voting/GasEfficientVoting.sol\":2177:2187  msg.sender */\n      caller\n        /* \"015-Gas Saver Voting/GasEfficientVoting.sol\":2164:2188  voteRegistry[msg.sender] */\n      0xffffffffffffffffffffffffffffffffffffffff\n      and\n      0xffffffffffffffffffffffffffffffffffffffff\n      and\n      dup2\n      mstore\n      0x20\n      add\n      swap1\n      dup2\n      mstore\n      0x20\n      add\n      0x00\n      keccak256\n      0x00\n        /* \"015-Gas Saver Voting/GasEfficientVoting.sol\":2164:2205  voteRegistry[msg.sender] |= userSetBitInd */\n      dup3\n      dup3\n      sload\n      or\n      swap3\n      pop\n      pop\n      dup2\n      swap1\n      sstore\n      pop\n        /* \"015-Gas Saver Voting/GasEfficientVoting.sol\":2239:2249  proposalId */\n      dup3\n        /* \"015-Gas Saver Voting/GasEfficientVoting.sol\":2221:2250  Voted(msg.sender, proposalId) */\n      0xff\n      and\n        /* \"015-Gas Saver Voting/GasEfficientVoting.sol\":2227:2237  msg.sender */\n      caller\n        /* \"015-Gas Saver Voting/GasEfficientVoting.sol\":2221:2250  Voted(msg.sender, proposalId) */\n      0xffffffffffffffffffffffffffffffffffffffff\n      and\n      0x14075e33dffdc00c1fcaf75d0f86d667170be57fb566b12b41b499e5fa53b125\n      mload(0x40)\n      mload(0x40)\n      dup1\n      swap2\n      sub\n      swap1\n      log3\n        /* \"015-Gas Saver Voting/GasEfficientVoting.sol\":2261:2279  uint256 userBitVal */\n      0x00\n        /* \"015-Gas Saver Voting/GasEfficientVoting.sol\":2282:2294  voteRegistry */\n      0x02\n        /* \"015-Gas Saver Voting/GasEfficientVoting.sol\":2282:2306  voteRegistry[msg.sender] */\n      0x00\n        /* \"015-Gas Saver Voting/GasEfficientVoting.sol\":2295:2305  msg.sender */\n      caller\n        /* \"015-Gas Saver Voting/GasEfficientVoting.sol\":2282:2306  voteRegistry[msg.sender] */\n      0xffffffffffffffffffffffffffffffffffffffff\n      and\n      0xffffffffffffffffffffffffffffffffffffffff\n      and\n      dup2\n      mstore\n      0x20\n      add\n      swap1\n      dup2\n      mstore\n      0x20\n      add\n      0x00\n      keccak256\n      sload\n        /* \"015-Gas Saver Voting/GasEfficientVoting.sol\":2261:2306  uint256 userBitVal = voteRegistry[msg.sender] */\n      swap1\n      pop\n        /* \"015-Gas Saver Voting/GasEfficientVoting.sol\":2316:2335  uint256 setBitCount */\n      0x00\n        /* \"015-Gas Saver Voting/GasEfficientVoting.sol\":2338:2339  0 */\n      0x00\n        /* \"015-Gas Saver Voting/GasEfficientVoting.sol\":2316:2339  uint256 setBitCount = 0 */\n      swap1\n      pop\n        /* \"015-Gas Saver Voting/GasEfficientVoting.sol\":2349:2450  while (userBitVal>0) {... */\n    tag_60:\n        /* \"015-Gas Saver Voting/GasEfficientVoting.sol\":2367:2368  0 */\n      0x00\n        /* \"015-Gas Saver Voting/GasEfficientVoting.sol\":2356:2366  userBitVal */\n      dup3\n        /* \"015-Gas Saver Voting/GasEfficientVoting.sol\":2356:2368  userBitVal>0 */\n      gt\n        /* \"015-Gas Saver Voting/GasEfficientVoting.sol\":2349:2450  while (userBitVal>0) {... */\n      iszero\n      tag_61\n      jumpi\n        /* \"015-Gas Saver Voting/GasEfficientVoting.sol\":2410:2411  1 */\n      0x01\n        /* \"015-Gas Saver Voting/GasEfficientVoting.sol\":2399:2409  userBitVal */\n      dup3\n        /* \"015-Gas Saver Voting/GasEfficientVoting.sol\":2399:2411  userBitVal-1 */\n      tag_62\n      swap2\n      swap1\n      tag_63\n      jump\t// in\n    tag_62:\n        /* \"015-Gas Saver Voting/GasEfficientVoting.sol\":2384:2412  userBitVal &= (userBitVal-1) */\n      dup3\n      and\n      swap2\n      pop\n        /* \"015-Gas Saver Voting/GasEfficientVoting.sol\":2426:2439  setBitCount++ */\n      dup1\n      dup1\n      tag_64\n      swap1\n      tag_65\n      jump\t// in\n    tag_64:\n      swap2\n      pop\n      pop\n        /* \"015-Gas Saver Voting/GasEfficientVoting.sol\":2349:2450  while (userBitVal>0) {... */\n      jump(tag_60)\n    tag_61:\n        /* \"015-Gas Saver Voting/GasEfficientVoting.sol\":2467:2478  setBitCount */\n      dup1\n        /* \"015-Gas Saver Voting/GasEfficientVoting.sol\":2460:2478  return setBitCount */\n      swap4\n      pop\n      pop\n      pop\n      pop\n        /* \"015-Gas Saver Voting/GasEfficientVoting.sol\":1501:2485  function voteProposal(uint8 proposalId) public returns(uint256){... */\n      swap2\n      swap1\n      pop\n      jump\t// out\n        /* \"015-Gas Saver Voting/GasEfficientVoting.sol\":563:607  mapping (uint8 => Proposal) public proposals */\n    tag_25:\n      mstore(0x20, 0x01)\n      dup1\n      0x00\n      mstore\n      keccak256(0x00, 0x40)\n      0x00\n      swap2\n      pop\n      swap1\n      pop\n      dup1\n      0x00\n      add\n      sload\n      swap1\n      dup1\n      0x01\n      add\n      0x00\n      swap1\n      sload\n      swap1\n      0x0100\n      exp\n      swap1\n      div\n      0xffffffff\n      and\n      swap1\n      dup1\n      0x01\n      add\n      0x04\n      swap1\n      sload\n      swap1\n      0x0100\n      exp\n      swap1\n      div\n      0xffffffff\n      and\n      swap1\n      dup1\n      0x01\n      add\n      0x08\n      swap1\n      sload\n      swap1\n      0x0100\n      exp\n      swap1\n      div\n      0xffffffff\n      and\n      swap1\n      dup1\n      0x01\n      add\n      0x0c\n      swap1\n      sload\n      swap1\n      0x0100\n      exp\n      swap1\n      div\n      0xff\n      and\n      swap1\n      dup1\n      0x02\n      add\n      0x00\n      swap1\n      sload\n      swap1\n      0x0100\n      exp\n      swap1\n      div\n      0xffffffffffffffffffffffffffffffffffffffff\n      and\n      swap1\n      pop\n      dup7\n      jump\t// out\n        /* \"015-Gas Saver Voting/GasEfficientVoting.sol\":2491:3019  function executeProposal(uint8 proposalId) public {... */\n    tag_30:\n        /* \"015-Gas Saver Voting/GasEfficientVoting.sol\":2594:2595  0 */\n      0x00\n        /* \"015-Gas Saver Voting/GasEfficientVoting.sol\":2555:2596  proposals[proposalId].owner == address(0) */\n      0xffffffffffffffffffffffffffffffffffffffff\n      and\n        /* \"015-Gas Saver Voting/GasEfficientVoting.sol\":2555:2564  proposals */\n      0x01\n        /* \"015-Gas Saver Voting/GasEfficientVoting.sol\":2555:2576  proposals[proposalId] */\n      0x00\n        /* \"015-Gas Saver Voting/GasEfficientVoting.sol\":2565:2575  proposalId */\n      dup4\n        /* \"015-Gas Saver Voting/GasEfficientVoting.sol\":2555:2576  proposals[proposalId] */\n      0xff\n      and\n      0xff\n      and\n      dup2\n      mstore\n      0x20\n      add\n      swap1\n      dup2\n      mstore\n      0x20\n      add\n      0x00\n      keccak256\n        /* \"015-Gas Saver Voting/GasEfficientVoting.sol\":2555:2582  proposals[proposalId].owner */\n      0x02\n      add\n      0x00\n      swap1\n      sload\n      swap1\n      0x0100\n      exp\n      swap1\n      div\n      0xffffffffffffffffffffffffffffffffffffffff\n      and\n        /* \"015-Gas Saver Voting/GasEfficientVoting.sol\":2555:2596  proposals[proposalId].owner == address(0) */\n      0xffffffffffffffffffffffffffffffffffffffff\n      and\n      sub\n        /* \"015-Gas Saver Voting/GasEfficientVoting.sol\":2551:2626  if (proposals[proposalId].owner == address(0)) revert Voting__NoProposals() */\n      tag_67\n      jumpi\n        /* \"015-Gas Saver Voting/GasEfficientVoting.sol\":2605:2626  Voting__NoProposals() */\n      mload(0x40)\n      0x83e5d900000000000000000000000000000000000000000000000000000000\n      dup2\n      mstore\n      0x04\n      add\n      mload(0x40)\n      dup1\n      swap2\n      sub\n      swap1\n      revert\n        /* \"015-Gas Saver Voting/GasEfficientVoting.sol\":2551:2626  if (proposals[proposalId].owner == address(0)) revert Voting__NoProposals() */\n    tag_67:\n        /* \"015-Gas Saver Voting/GasEfficientVoting.sol\":2662:2671  proposals */\n      0x01\n        /* \"015-Gas Saver Voting/GasEfficientVoting.sol\":2662:2683  proposals[proposalId] */\n      0x00\n        /* \"015-Gas Saver Voting/GasEfficientVoting.sol\":2672:2682  proposalId */\n      dup3\n        /* \"015-Gas Saver Voting/GasEfficientVoting.sol\":2662:2683  proposals[proposalId] */\n      0xff\n      and\n      0xff\n      and\n      dup2\n      mstore\n      0x20\n      add\n      swap1\n      dup2\n      mstore\n      0x20\n      add\n      0x00\n      keccak256\n        /* \"015-Gas Saver Voting/GasEfficientVoting.sol\":2662:2691  proposals[proposalId].endTime */\n      0x01\n      add\n      0x08\n      swap1\n      sload\n      swap1\n      0x0100\n      exp\n      swap1\n      div\n      0xffffffff\n      and\n        /* \"015-Gas Saver Voting/GasEfficientVoting.sol\":2644:2691  block.timestamp < proposals[proposalId].endTime */\n      0xffffffff\n      and\n        /* \"015-Gas Saver Voting/GasEfficientVoting.sol\":2644:2659  block.timestamp */\n      timestamp\n        /* \"015-Gas Saver Voting/GasEfficientVoting.sol\":2644:2691  block.timestamp < proposals[proposalId].endTime */\n      lt\n        /* \"015-Gas Saver Voting/GasEfficientVoting.sol\":2636:2711  require(block.timestamp < proposals[proposalId].endTime, \"Proposal ended.\") */\n      tag_68\n      jumpi\n      mload(0x40)\n      0x08c379a000000000000000000000000000000000000000000000000000000000\n      dup2\n      mstore\n      0x04\n      add\n      tag_69\n      swap1\n      tag_53\n      jump\t// in\n    tag_69:\n      mload(0x40)\n      dup1\n      swap2\n      sub\n      swap1\n      revert\n    tag_68:\n        /* \"015-Gas Saver Voting/GasEfficientVoting.sol\":2762:2766  true */\n      0x01\n        /* \"015-Gas Saver Voting/GasEfficientVoting.sol\":2725:2766  proposals[proposalId].votingEnded == true */\n      iszero\n      iszero\n        /* \"015-Gas Saver Voting/GasEfficientVoting.sol\":2725:2734  proposals */\n      0x01\n        /* \"015-Gas Saver Voting/GasEfficientVoting.sol\":2725:2746  proposals[proposalId] */\n      0x00\n        /* \"015-Gas Saver Voting/GasEfficientVoting.sol\":2735:2745  proposalId */\n      dup4\n        /* \"015-Gas Saver Voting/GasEfficientVoting.sol\":2725:2746  proposals[proposalId] */\n      0xff\n      and\n      0xff\n      and\n      dup2\n      mstore\n      0x20\n      add\n      swap1\n      dup2\n      mstore\n      0x20\n      add\n      0x00\n      keccak256\n        /* \"015-Gas Saver Voting/GasEfficientVoting.sol\":2725:2758  proposals[proposalId].votingEnded */\n      0x01\n      add\n      0x0c\n      swap1\n      sload\n      swap1\n      0x0100\n      exp\n      swap1\n      div\n      0xff\n      and\n        /* \"015-Gas Saver Voting/GasEfficientVoting.sol\":2725:2766  proposals[proposalId].votingEnded == true */\n      iszero\n      iszero\n      sub\n        /* \"015-Gas Saver Voting/GasEfficientVoting.sol\":2721:2801  if (proposals[proposalId].votingEnded == true) revert Voting__ProposalExecuted() */\n      tag_70\n      jumpi\n        /* \"015-Gas Saver Voting/GasEfficientVoting.sol\":2775:2801  Voting__ProposalExecuted() */\n      mload(0x40)\n      0xbd57690600000000000000000000000000000000000000000000000000000000\n      dup2\n      mstore\n      0x04\n      add\n      mload(0x40)\n      dup1\n      swap2\n      sub\n      swap1\n      revert\n        /* \"015-Gas Saver Voting/GasEfficientVoting.sol\":2721:2801  if (proposals[proposalId].votingEnded == true) revert Voting__ProposalExecuted() */\n    tag_70:\n        /* \"015-Gas Saver Voting/GasEfficientVoting.sol\":2850:2860  msg.sender */\n      caller\n        /* \"015-Gas Saver Voting/GasEfficientVoting.sol\":2819:2860  proposals[proposalId].owner == msg.sender */\n      0xffffffffffffffffffffffffffffffffffffffff\n      and\n        /* \"015-Gas Saver Voting/GasEfficientVoting.sol\":2819:2828  proposals */\n      0x01\n        /* \"015-Gas Saver Voting/GasEfficientVoting.sol\":2819:2840  proposals[proposalId] */\n      0x00\n        /* \"015-Gas Saver Voting/GasEfficientVoting.sol\":2829:2839  proposalId */\n      dup4\n        /* \"015-Gas Saver Voting/GasEfficientVoting.sol\":2819:2840  proposals[proposalId] */\n      0xff\n      and\n      0xff\n      and\n      dup2\n      mstore\n      0x20\n      add\n      swap1\n      dup2\n      mstore\n      0x20\n      add\n      0x00\n      keccak256\n        /* \"015-Gas Saver Voting/GasEfficientVoting.sol\":2819:2846  proposals[proposalId].owner */\n      0x02\n      add\n      0x00\n      swap1\n      sload\n      swap1\n      0x0100\n      exp\n      swap1\n      div\n      0xffffffffffffffffffffffffffffffffffffffff\n      and\n        /* \"015-Gas Saver Voting/GasEfficientVoting.sol\":2819:2860  proposals[proposalId].owner == msg.sender */\n      0xffffffffffffffffffffffffffffffffffffffff\n      and\n      eq\n        /* \"015-Gas Saver Voting/GasEfficientVoting.sol\":2811:2901  require(proposals[proposalId].owner == msg.sender,\"Only owner can execute the proposals.\") */\n      tag_71\n      jumpi\n      mload(0x40)\n      0x08c379a000000000000000000000000000000000000000000000000000000000\n      dup2\n      mstore\n      0x04\n      add\n      tag_72\n      swap1\n      tag_73\n      jump\t// in\n    tag_72:\n      mload(0x40)\n      dup1\n      swap2\n      sub\n      swap1\n      revert\n    tag_71:\n        /* \"015-Gas Saver Voting/GasEfficientVoting.sol\":2948:2952  true */\n      0x01\n        /* \"015-Gas Saver Voting/GasEfficientVoting.sol\":2912:2921  proposals */\n      dup1\n        /* \"015-Gas Saver Voting/GasEfficientVoting.sol\":2912:2933  proposals[proposalId] */\n      0x00\n        /* \"015-Gas Saver Voting/GasEfficientVoting.sol\":2922:2932  proposalId */\n      dup4\n        /* \"015-Gas Saver Voting/GasEfficientVoting.sol\":2912:2933  proposals[proposalId] */\n      0xff\n      and\n      0xff\n      and\n      dup2\n      mstore\n      0x20\n      add\n      swap1\n      dup2\n      mstore\n      0x20\n      add\n      0x00\n      keccak256\n        /* \"015-Gas Saver Voting/GasEfficientVoting.sol\":2912:2945  proposals[proposalId].votingEnded */\n      0x01\n      add\n      0x0c\n        /* \"015-Gas Saver Voting/GasEfficientVoting.sol\":2912:2952  proposals[proposalId].votingEnded = true */\n      0x0100\n      exp\n      dup2\n      sload\n      dup2\n      0xff\n      mul\n      not\n      and\n      swap1\n      dup4\n      iszero\n      iszero\n      mul\n      or\n      swap1\n      sstore\n      pop\n        /* \"015-Gas Saver Voting/GasEfficientVoting.sol\":3001:3011  proposalId */\n      dup1\n        /* \"015-Gas Saver Voting/GasEfficientVoting.sol\":2972:3012  ProposalExecuted(msg.sender, proposalId) */\n      0xff\n      and\n        /* \"015-Gas Saver Voting/GasEfficientVoting.sol\":2989:2999  msg.sender */\n      caller\n        /* \"015-Gas Saver Voting/GasEfficientVoting.sol\":2972:3012  ProposalExecuted(msg.sender, proposalId) */\n      0xffffffffffffffffffffffffffffffffffffffff\n      and\n      0xd6a216b1702d96181c2e37c4816e0ec1ec7686a4601f35b1e31961dc3edd08a0\n      mload(0x40)\n      mload(0x40)\n      dup1\n      swap2\n      sub\n      swap1\n      log3\n        /* \"015-Gas Saver Voting/GasEfficientVoting.sol\":2491:3019  function executeProposal(uint8 proposalId) public {... */\n      pop\n      jump\t// out\n        /* \"015-Gas Saver Voting/GasEfficientVoting.sol\":3025:3659  function getProposal(uint8 proposalId) public view returns(... */\n    tag_33:\n        /* \"015-Gas Saver Voting/GasEfficientVoting.sol\":3093:3105  bytes32 name */\n      0x00\n        /* \"015-Gas Saver Voting/GasEfficientVoting.sol\":3115:3131  uint32 voteCount */\n      0x00\n        /* \"015-Gas Saver Voting/GasEfficientVoting.sol\":3141:3157  uint32 startTime */\n      0x00\n        /* \"015-Gas Saver Voting/GasEfficientVoting.sol\":3167:3181  uint32 endTime */\n      0x00\n        /* \"015-Gas Saver Voting/GasEfficientVoting.sol\":3191:3204  bool executed */\n      0x00\n        /* \"015-Gas Saver Voting/GasEfficientVoting.sol\":3214:3225  bool active */\n      0x00\n        /* \"015-Gas Saver Voting/GasEfficientVoting.sol\":3285:3286  0 */\n      0x00\n        /* \"015-Gas Saver Voting/GasEfficientVoting.sol\":3246:3287  proposals[proposalId].owner == address(0) */\n      0xffffffffffffffffffffffffffffffffffffffff\n      and\n        /* \"015-Gas Saver Voting/GasEfficientVoting.sol\":3246:3255  proposals */\n      0x01\n        /* \"015-Gas Saver Voting/GasEfficientVoting.sol\":3246:3267  proposals[proposalId] */\n      0x00\n        /* \"015-Gas Saver Voting/GasEfficientVoting.sol\":3256:3266  proposalId */\n      dup10\n        /* \"015-Gas Saver Voting/GasEfficientVoting.sol\":3246:3267  proposals[proposalId] */\n      0xff\n      and\n      0xff\n      and\n      dup2\n      mstore\n      0x20\n      add\n      swap1\n      dup2\n      mstore\n      0x20\n      add\n      0x00\n      keccak256\n        /* \"015-Gas Saver Voting/GasEfficientVoting.sol\":3246:3273  proposals[proposalId].owner */\n      0x02\n      add\n      0x00\n      swap1\n      sload\n      swap1\n      0x0100\n      exp\n      swap1\n      div\n      0xffffffffffffffffffffffffffffffffffffffff\n      and\n        /* \"015-Gas Saver Voting/GasEfficientVoting.sol\":3246:3287  proposals[proposalId].owner == address(0) */\n      0xffffffffffffffffffffffffffffffffffffffff\n      and\n      sub\n        /* \"015-Gas Saver Voting/GasEfficientVoting.sol\":3242:3317  if (proposals[proposalId].owner == address(0)) revert Voting__NoProposals() */\n      tag_75\n      jumpi\n        /* \"015-Gas Saver Voting/GasEfficientVoting.sol\":3296:3317  Voting__NoProposals() */\n      mload(0x40)\n      0x83e5d900000000000000000000000000000000000000000000000000000000\n      dup2\n      mstore\n      0x04\n      add\n      mload(0x40)\n      dup1\n      swap2\n      sub\n      swap1\n      revert\n        /* \"015-Gas Saver Voting/GasEfficientVoting.sol\":3242:3317  if (proposals[proposalId].owner == address(0)) revert Voting__NoProposals() */\n    tag_75:\n        /* \"015-Gas Saver Voting/GasEfficientVoting.sol\":3328:3353  Proposal storage proposal */\n      0x00\n        /* \"015-Gas Saver Voting/GasEfficientVoting.sol\":3356:3365  proposals */\n      0x01\n        /* \"015-Gas Saver Voting/GasEfficientVoting.sol\":3356:3377  proposals[proposalId] */\n      0x00\n        /* \"015-Gas Saver Voting/GasEfficientVoting.sol\":3366:3376  proposalId */\n      dup10\n        /* \"015-Gas Saver Voting/GasEfficientVoting.sol\":3356:3377  proposals[proposalId] */\n      0xff\n      and\n      0xff\n      and\n      dup2\n      mstore\n      0x20\n      add\n      swap1\n      dup2\n      mstore\n      0x20\n      add\n      0x00\n      keccak256\n        /* \"015-Gas Saver Voting/GasEfficientVoting.sol\":3328:3377  Proposal storage proposal = proposals[proposalId] */\n      swap1\n      pop\n        /* \"015-Gas Saver Voting/GasEfficientVoting.sol\":3408:3416  proposal */\n      dup1\n        /* \"015-Gas Saver Voting/GasEfficientVoting.sol\":3408:3421  proposal.name */\n      0x00\n      add\n      sload\n        /* \"015-Gas Saver Voting/GasEfficientVoting.sol\":3435:3443  proposal */\n      dup2\n        /* \"015-Gas Saver Voting/GasEfficientVoting.sol\":3435:3454  proposal.voteCounts */\n      0x01\n      add\n      0x00\n      swap1\n      sload\n      swap1\n      0x0100\n      exp\n      swap1\n      div\n      0xffffffff\n      and\n        /* \"015-Gas Saver Voting/GasEfficientVoting.sol\":3468:3476  proposal */\n      dup3\n        /* \"015-Gas Saver Voting/GasEfficientVoting.sol\":3468:3486  proposal.startTime */\n      0x01\n      add\n      0x04\n      swap1\n      sload\n      swap1\n      0x0100\n      exp\n      swap1\n      div\n      0xffffffff\n      and\n        /* \"015-Gas Saver Voting/GasEfficientVoting.sol\":3500:3508  proposal */\n      dup4\n        /* \"015-Gas Saver Voting/GasEfficientVoting.sol\":3500:3516  proposal.endTime */\n      0x01\n      add\n      0x08\n      swap1\n      sload\n      swap1\n      0x0100\n      exp\n      swap1\n      div\n      0xffffffff\n      and\n        /* \"015-Gas Saver Voting/GasEfficientVoting.sol\":3530:3538  proposal */\n      dup5\n        /* \"015-Gas Saver Voting/GasEfficientVoting.sol\":3530:3550  proposal.votingEnded */\n      0x01\n      add\n      0x0c\n      swap1\n      sload\n      swap1\n      0x0100\n      exp\n      swap1\n      div\n      0xff\n      and\n        /* \"015-Gas Saver Voting/GasEfficientVoting.sol\":3584:3592  proposal */\n      dup6\n        /* \"015-Gas Saver Voting/GasEfficientVoting.sol\":3584:3602  proposal.startTime */\n      0x01\n      add\n      0x04\n      swap1\n      sload\n      swap1\n      0x0100\n      exp\n      swap1\n      div\n      0xffffffff\n      and\n        /* \"015-Gas Saver Voting/GasEfficientVoting.sol\":3565:3602  block.timestamp >= proposal.startTime */\n      0xffffffff\n      and\n        /* \"015-Gas Saver Voting/GasEfficientVoting.sol\":3565:3580  block.timestamp */\n      timestamp\n        /* \"015-Gas Saver Voting/GasEfficientVoting.sol\":3565:3602  block.timestamp >= proposal.startTime */\n      lt\n      iszero\n        /* \"015-Gas Saver Voting/GasEfficientVoting.sol\":3565:3641  block.timestamp >= proposal.startTime && block.timestamp <= proposal.endTime */\n      dup1\n      iszero\n      tag_76\n      jumpi\n      pop\n        /* \"015-Gas Saver Voting/GasEfficientVoting.sol\":3625:3633  proposal */\n      dup6\n        /* \"015-Gas Saver Voting/GasEfficientVoting.sol\":3625:3641  proposal.endTime */\n      0x01\n      add\n      0x08\n      swap1\n      sload\n      swap1\n      0x0100\n      exp\n      swap1\n      div\n      0xffffffff\n      and\n        /* \"015-Gas Saver Voting/GasEfficientVoting.sol\":3606:3641  block.timestamp <= proposal.endTime */\n      0xffffffff\n      and\n        /* \"015-Gas Saver Voting/GasEfficientVoting.sol\":3606:3621  block.timestamp */\n      timestamp\n        /* \"015-Gas Saver Voting/GasEfficientVoting.sol\":3606:3641  block.timestamp <= proposal.endTime */\n      gt\n      iszero\n        /* \"015-Gas Saver Voting/GasEfficientVoting.sol\":3565:3641  block.timestamp >= proposal.startTime && block.timestamp <= proposal.endTime */\n    tag_76:\n        /* \"015-Gas Saver Voting/GasEfficientVoting.sol\":3387:3652  return (... */\n      swap7\n      pop\n      swap7\n      pop\n      swap7\n      pop\n      swap7\n      pop\n      swap7\n      pop\n      swap7\n      pop\n      pop\n        /* \"015-Gas Saver Voting/GasEfficientVoting.sol\":3025:3659  function getProposal(uint8 proposalId) public view returns(... */\n      swap2\n      swap4\n      swap6\n      pop\n      swap2\n      swap4\n      swap6\n      jump\t// out\n        /* \"#utility.yul\":7:93   */\n    tag_77:\n        /* \"#utility.yul\":42:49   */\n      0x00\n        /* \"#utility.yul\":82:86   */\n      0xff\n        /* \"#utility.yul\":75:80   */\n      dup3\n        /* \"#utility.yul\":71:87   */\n      and\n        /* \"#utility.yul\":60:87   */\n      swap1\n      pop\n        /* \"#utility.yul\":7:93   */\n      swap2\n      swap1\n      pop\n      jump\t// out\n        /* \"#utility.yul\":99:211   */\n    tag_78:\n        /* \"#utility.yul\":182:204   */\n      tag_124\n        /* \"#utility.yul\":198:203   */\n      dup2\n        /* \"#utility.yul\":182:204   */\n      tag_77\n      jump\t// in\n    tag_124:\n        /* \"#utility.yul\":177:180   */\n      dup3\n        /* \"#utility.yul\":170:205   */\n      mstore\n        /* \"#utility.yul\":99:211   */\n      pop\n      pop\n      jump\t// out\n        /* \"#utility.yul\":217:431   */\n    tag_12:\n        /* \"#utility.yul\":306:310   */\n      0x00\n        /* \"#utility.yul\":344:346   */\n      0x20\n        /* \"#utility.yul\":333:342   */\n      dup3\n        /* \"#utility.yul\":329:347   */\n      add\n        /* \"#utility.yul\":321:347   */\n      swap1\n      pop\n        /* \"#utility.yul\":357:424   */\n      tag_126\n        /* \"#utility.yul\":421:422   */\n      0x00\n        /* \"#utility.yul\":410:419   */\n      dup4\n        /* \"#utility.yul\":406:423   */\n      add\n        /* \"#utility.yul\":397:403   */\n      dup5\n        /* \"#utility.yul\":357:424   */\n      tag_78\n      jump\t// in\n    tag_126:\n        /* \"#utility.yul\":217:431   */\n      swap3\n      swap2\n      pop\n      pop\n      jump\t// out\n        /* \"#utility.yul\":437:512   */\n    tag_79:\n        /* \"#utility.yul\":470:476   */\n      0x00\n        /* \"#utility.yul\":503:505   */\n      0x40\n        /* \"#utility.yul\":497:506   */\n      mload\n        /* \"#utility.yul\":487:506   */\n      swap1\n      pop\n        /* \"#utility.yul\":437:512   */\n      swap1\n      jump\t// out\n        /* \"#utility.yul\":518:635   */\n    tag_80:\n        /* \"#utility.yul\":627:628   */\n      0x00\n        /* \"#utility.yul\":624:625   */\n      0x00\n        /* \"#utility.yul\":617:629   */\n      revert\n        /* \"#utility.yul\":641:758   */\n    tag_81:\n        /* \"#utility.yul\":750:751   */\n      0x00\n        /* \"#utility.yul\":747:748   */\n      0x00\n        /* \"#utility.yul\":740:752   */\n      revert\n        /* \"#utility.yul\":764:881   */\n    tag_82:\n        /* \"#utility.yul\":873:874   */\n      0x00\n        /* \"#utility.yul\":870:871   */\n      0x00\n        /* \"#utility.yul\":863:875   */\n      revert\n        /* \"#utility.yul\":887:1004   */\n    tag_83:\n        /* \"#utility.yul\":996:997   */\n      0x00\n        /* \"#utility.yul\":993:994   */\n      0x00\n        /* \"#utility.yul\":986:998   */\n      revert\n        /* \"#utility.yul\":1010:1112   */\n    tag_84:\n        /* \"#utility.yul\":1051:1057   */\n      0x00\n        /* \"#utility.yul\":1102:1104   */\n      0x1f\n        /* \"#utility.yul\":1098:1105   */\n      not\n        /* \"#utility.yul\":1093:1095   */\n      0x1f\n        /* \"#utility.yul\":1086:1091   */\n      dup4\n        /* \"#utility.yul\":1082:1096   */\n      add\n        /* \"#utility.yul\":1078:1106   */\n      and\n        /* \"#utility.yul\":1068:1106   */\n      swap1\n      pop\n        /* \"#utility.yul\":1010:1112   */\n      swap2\n      swap1\n      pop\n      jump\t// out\n        /* \"#utility.yul\":1118:1298   */\n    tag_85:\n        /* \"#utility.yul\":1166:1243   */\n      0x4e487b7100000000000000000000000000000000000000000000000000000000\n        /* \"#utility.yul\":1163:1164   */\n      0x00\n        /* \"#utility.yul\":1156:1244   */\n      mstore\n        /* \"#utility.yul\":1263:1267   */\n      0x41\n        /* \"#utility.yul\":1260:1261   */\n      0x04\n        /* \"#utility.yul\":1253:1268   */\n      mstore\n        /* \"#utility.yul\":1287:1291   */\n      0x24\n        /* \"#utility.yul\":1284:1285   */\n      0x00\n        /* \"#utility.yul\":1277:1292   */\n      revert\n        /* \"#utility.yul\":1304:1585   */\n    tag_86:\n        /* \"#utility.yul\":1387:1414   */\n      tag_135\n        /* \"#utility.yul\":1409:1413   */\n      dup3\n        /* \"#utility.yul\":1387:1414   */\n      tag_84\n      jump\t// in\n    tag_135:\n        /* \"#utility.yul\":1379:1385   */\n      dup2\n        /* \"#utility.yul\":1375:1415   */\n      add\n        /* \"#utility.yul\":1517:1523   */\n      dup2\n        /* \"#utility.yul\":1505:1515   */\n      dup2\n        /* \"#utility.yul\":1502:1524   */\n      lt\n        /* \"#utility.yul\":1481:1499   */\n      0xffffffffffffffff\n        /* \"#utility.yul\":1469:1479   */\n      dup3\n        /* \"#utility.yul\":1466:1500   */\n      gt\n        /* \"#utility.yul\":1463:1525   */\n      or\n        /* \"#utility.yul\":1460:1548   */\n      iszero\n      tag_136\n      jumpi\n        /* \"#utility.yul\":1528:1546   */\n      tag_137\n      tag_85\n      jump\t// in\n    tag_137:\n        /* \"#utility.yul\":1460:1548   */\n    tag_136:\n        /* \"#utility.yul\":1568:1578   */\n      dup1\n        /* \"#utility.yul\":1564:1566   */\n      0x40\n        /* \"#utility.yul\":1557:1579   */\n      mstore\n        /* \"#utility.yul\":1347:1585   */\n      pop\n        /* \"#utility.yul\":1304:1585   */\n      pop\n      pop\n      jump\t// out\n        /* \"#utility.yul\":1591:1720   */\n    tag_87:\n        /* \"#utility.yul\":1625:1631   */\n      0x00\n        /* \"#utility.yul\":1652:1672   */\n      tag_139\n      tag_79\n      jump\t// in\n    tag_139:\n        /* \"#utility.yul\":1642:1672   */\n      swap1\n      pop\n        /* \"#utility.yul\":1681:1714   */\n      tag_140\n        /* \"#utility.yul\":1709:1713   */\n      dup3\n        /* \"#utility.yul\":1701:1707   */\n      dup3\n        /* \"#utility.yul\":1681:1714   */\n      tag_86\n      jump\t// in\n    tag_140:\n        /* \"#utility.yul\":1591:1720   */\n      swap2\n      swap1\n      pop\n      jump\t// out\n        /* \"#utility.yul\":1726:2034   */\n    tag_88:\n        /* \"#utility.yul\":1788:1792   */\n      0x00\n        /* \"#utility.yul\":1878:1896   */\n      0xffffffffffffffff\n        /* \"#utility.yul\":1870:1876   */\n      dup3\n        /* \"#utility.yul\":1867:1897   */\n      gt\n        /* \"#utility.yul\":1864:1920   */\n      iszero\n      tag_142\n      jumpi\n        /* \"#utility.yul\":1900:1918   */\n      tag_143\n      tag_85\n      jump\t// in\n    tag_143:\n        /* \"#utility.yul\":1864:1920   */\n    tag_142:\n        /* \"#utility.yul\":1938:1967   */\n      tag_144\n        /* \"#utility.yul\":1960:1966   */\n      dup3\n        /* \"#utility.yul\":1938:1967   */\n      tag_84\n      jump\t// in\n    tag_144:\n        /* \"#utility.yul\":1930:1967   */\n      swap1\n      pop\n        /* \"#utility.yul\":2022:2026   */\n      0x20\n        /* \"#utility.yul\":2016:2020   */\n      dup2\n        /* \"#utility.yul\":2012:2027   */\n      add\n        /* \"#utility.yul\":2004:2027   */\n      swap1\n      pop\n        /* \"#utility.yul\":1726:2034   */\n      swap2\n      swap1\n      pop\n      jump\t// out\n        /* \"#utility.yul\":2040:2188   */\n    tag_89:\n        /* \"#utility.yul\":2138:2144   */\n      dup3\n        /* \"#utility.yul\":2133:2136   */\n      dup2\n        /* \"#utility.yul\":2128:2131   */\n      dup4\n        /* \"#utility.yul\":2115:2145   */\n      calldatacopy\n        /* \"#utility.yul\":2179:2180   */\n      0x00\n        /* \"#utility.yul\":2170:2176   */\n      dup4\n        /* \"#utility.yul\":2165:2168   */\n      dup4\n        /* \"#utility.yul\":2161:2177   */\n      add\n        /* \"#utility.yul\":2154:2181   */\n      mstore\n        /* \"#utility.yul\":2040:2188   */\n      pop\n      pop\n      pop\n      jump\t// out\n        /* \"#utility.yul\":2194:2619   */\n    tag_90:\n        /* \"#utility.yul\":2272:2277   */\n      0x00\n        /* \"#utility.yul\":2297:2363   */\n      tag_147\n        /* \"#utility.yul\":2313:2362   */\n      tag_148\n        /* \"#utility.yul\":2355:2361   */\n      dup5\n        /* \"#utility.yul\":2313:2362   */\n      tag_88\n      jump\t// in\n    tag_148:\n        /* \"#utility.yul\":2297:2363   */\n      tag_87\n      jump\t// in\n    tag_147:\n        /* \"#utility.yul\":2288:2363   */\n      swap1\n      pop\n        /* \"#utility.yul\":2386:2392   */\n      dup3\n        /* \"#utility.yul\":2379:2384   */\n      dup2\n        /* \"#utility.yul\":2372:2393   */\n      mstore\n        /* \"#utility.yul\":2424:2428   */\n      0x20\n        /* \"#utility.yul\":2417:2422   */\n      dup2\n        /* \"#utility.yul\":2413:2429   */\n      add\n        /* \"#utility.yul\":2462:2465   */\n      dup5\n        /* \"#utility.yul\":2453:2459   */\n      dup5\n        /* \"#utility.yul\":2448:2451   */\n      dup5\n        /* \"#utility.yul\":2444:2460   */\n      add\n        /* \"#utility.yul\":2441:2466   */\n      gt\n        /* \"#utility.yul\":2438:2550   */\n      iszero\n      tag_149\n      jumpi\n        /* \"#utility.yul\":2469:2548   */\n      tag_150\n      tag_83\n      jump\t// in\n    tag_150:\n        /* \"#utility.yul\":2438:2550   */\n    tag_149:\n        /* \"#utility.yul\":2559:2613   */\n      tag_151\n        /* \"#utility.yul\":2606:2612   */\n      dup5\n        /* \"#utility.yul\":2601:2604   */\n      dup3\n        /* \"#utility.yul\":2596:2599   */\n      dup6\n        /* \"#utility.yul\":2559:2613   */\n      tag_89\n      jump\t// in\n    tag_151:\n        /* \"#utility.yul\":2278:2619   */\n      pop\n        /* \"#utility.yul\":2194:2619   */\n      swap4\n      swap3\n      pop\n      pop\n      pop\n      jump\t// out\n        /* \"#utility.yul\":2639:2979   */\n    tag_91:\n        /* \"#utility.yul\":2695:2700   */\n      0x00\n        /* \"#utility.yul\":2744:2747   */\n      dup3\n        /* \"#utility.yul\":2737:2741   */\n      0x1f\n        /* \"#utility.yul\":2729:2735   */\n      dup4\n        /* \"#utility.yul\":2725:2742   */\n      add\n        /* \"#utility.yul\":2721:2748   */\n      slt\n        /* \"#utility.yul\":2711:2833   */\n      tag_153\n      jumpi\n        /* \"#utility.yul\":2752:2831   */\n      tag_154\n      tag_82\n      jump\t// in\n    tag_154:\n        /* \"#utility.yul\":2711:2833   */\n    tag_153:\n        /* \"#utility.yul\":2869:2875   */\n      dup2\n        /* \"#utility.yul\":2856:2876   */\n      calldataload\n        /* \"#utility.yul\":2894:2973   */\n      tag_155\n        /* \"#utility.yul\":2969:2972   */\n      dup5\n        /* \"#utility.yul\":2961:2967   */\n      dup3\n        /* \"#utility.yul\":2954:2958   */\n      0x20\n        /* \"#utility.yul\":2946:2952   */\n      dup7\n        /* \"#utility.yul\":2942:2959   */\n      add\n        /* \"#utility.yul\":2894:2973   */\n      tag_90\n      jump\t// in\n    tag_155:\n        /* \"#utility.yul\":2885:2973   */\n      swap2\n      pop\n        /* \"#utility.yul\":2701:2979   */\n      pop\n        /* \"#utility.yul\":2639:2979   */\n      swap3\n      swap2\n      pop\n      pop\n      jump\t// out\n        /* \"#utility.yul\":2985:3078   */\n    tag_92:\n        /* \"#utility.yul\":3021:3028   */\n      0x00\n        /* \"#utility.yul\":3061:3071   */\n      0xffffffff\n        /* \"#utility.yul\":3054:3059   */\n      dup3\n        /* \"#utility.yul\":3050:3072   */\n      and\n        /* \"#utility.yul\":3039:3072   */\n      swap1\n      pop\n        /* \"#utility.yul\":2985:3078   */\n      swap2\n      swap1\n      pop\n      jump\t// out\n        /* \"#utility.yul\":3084:3204   */\n    tag_93:\n        /* \"#utility.yul\":3156:3179   */\n      tag_158\n        /* \"#utility.yul\":3173:3178   */\n      dup2\n        /* \"#utility.yul\":3156:3179   */\n      tag_92\n      jump\t// in\n    tag_158:\n        /* \"#utility.yul\":3149:3154   */\n      dup2\n        /* \"#utility.yul\":3146:3180   */\n      eq\n        /* \"#utility.yul\":3136:3198   */\n      tag_159\n      jumpi\n        /* \"#utility.yul\":3194:3195   */\n      0x00\n        /* \"#utility.yul\":3191:3192   */\n      0x00\n        /* \"#utility.yul\":3184:3196   */\n      revert\n        /* \"#utility.yul\":3136:3198   */\n    tag_159:\n        /* \"#utility.yul\":3084:3204   */\n      pop\n      jump\t// out\n        /* \"#utility.yul\":3210:3347   */\n    tag_94:\n        /* \"#utility.yul\":3255:3260   */\n      0x00\n        /* \"#utility.yul\":3293:3299   */\n      dup2\n        /* \"#utility.yul\":3280:3300   */\n      calldataload\n        /* \"#utility.yul\":3271:3300   */\n      swap1\n      pop\n        /* \"#utility.yul\":3309:3341   */\n      tag_161\n        /* \"#utility.yul\":3335:3340   */\n      dup2\n        /* \"#utility.yul\":3309:3341   */\n      tag_93\n      jump\t// in\n    tag_161:\n        /* \"#utility.yul\":3210:3347   */\n      swap3\n      swap2\n      pop\n      pop\n      jump\t// out\n        /* \"#utility.yul\":3353:4005   */\n    tag_15:\n        /* \"#utility.yul\":3430:3436   */\n      0x00\n        /* \"#utility.yul\":3438:3444   */\n      0x00\n        /* \"#utility.yul\":3487:3489   */\n      0x40\n        /* \"#utility.yul\":3475:3484   */\n      dup4\n        /* \"#utility.yul\":3466:3473   */\n      dup6\n        /* \"#utility.yul\":3462:3485   */\n      sub\n        /* \"#utility.yul\":3458:3490   */\n      slt\n        /* \"#utility.yul\":3455:3574   */\n      iszero\n      tag_163\n      jumpi\n        /* \"#utility.yul\":3493:3572   */\n      tag_164\n      tag_80\n      jump\t// in\n    tag_164:\n        /* \"#utility.yul\":3455:3574   */\n    tag_163:\n        /* \"#utility.yul\":3641:3642   */\n      0x00\n        /* \"#utility.yul\":3630:3639   */\n      dup4\n        /* \"#utility.yul\":3626:3643   */\n      add\n        /* \"#utility.yul\":3613:3644   */\n      calldataload\n        /* \"#utility.yul\":3671:3689   */\n      0xffffffffffffffff\n        /* \"#utility.yul\":3663:3669   */\n      dup2\n        /* \"#utility.yul\":3660:3690   */\n      gt\n        /* \"#utility.yul\":3657:3774   */\n      iszero\n      tag_165\n      jumpi\n        /* \"#utility.yul\":3693:3772   */\n      tag_166\n      tag_81\n      jump\t// in\n    tag_166:\n        /* \"#utility.yul\":3657:3774   */\n    tag_165:\n        /* \"#utility.yul\":3798:3861   */\n      tag_167\n        /* \"#utility.yul\":3853:3860   */\n      dup6\n        /* \"#utility.yul\":3844:3850   */\n      dup3\n        /* \"#utility.yul\":3833:3842   */\n      dup7\n        /* \"#utility.yul\":3829:3851   */\n      add\n        /* \"#utility.yul\":3798:3861   */\n      tag_91\n      jump\t// in\n    tag_167:\n        /* \"#utility.yul\":3788:3861   */\n      swap3\n      pop\n        /* \"#utility.yul\":3584:3871   */\n      pop\n        /* \"#utility.yul\":3910:3912   */\n      0x20\n        /* \"#utility.yul\":3936:3988   */\n      tag_168\n        /* \"#utility.yul\":3980:3987   */\n      dup6\n        /* \"#utility.yul\":3971:3977   */\n      dup3\n        /* \"#utility.yul\":3960:3969   */\n      dup7\n        /* \"#utility.yul\":3956:3978   */\n      add\n        /* \"#utility.yul\":3936:3988   */\n      tag_94\n      jump\t// in\n    tag_168:\n        /* \"#utility.yul\":3926:3988   */\n      swap2\n      pop\n        /* \"#utility.yul\":3881:3998   */\n      pop\n        /* \"#utility.yul\":3353:4005   */\n      swap3\n      pop\n      swap3\n      swap1\n      pop\n      jump\t// out\n        /* \"#utility.yul\":4011:4129   */\n    tag_95:\n        /* \"#utility.yul\":4082:4104   */\n      tag_170\n        /* \"#utility.yul\":4098:4103   */\n      dup2\n        /* \"#utility.yul\":4082:4104   */\n      tag_77\n      jump\t// in\n    tag_170:\n        /* \"#utility.yul\":4075:4080   */\n      dup2\n        /* \"#utility.yul\":4072:4105   */\n      eq\n        /* \"#utility.yul\":4062:4123   */\n      tag_171\n      jumpi\n        /* \"#utility.yul\":4119:4120   */\n      0x00\n        /* \"#utility.yul\":4116:4117   */\n      0x00\n        /* \"#utility.yul\":4109:4121   */\n      revert\n        /* \"#utility.yul\":4062:4123   */\n    tag_171:\n        /* \"#utility.yul\":4011:4129   */\n      pop\n      jump\t// out\n        /* \"#utility.yul\":4135:4270   */\n    tag_96:\n        /* \"#utility.yul\":4179:4184   */\n      0x00\n        /* \"#utility.yul\":4217:4223   */\n      dup2\n        /* \"#utility.yul\":4204:4224   */\n      calldataload\n        /* \"#utility.yul\":4195:4224   */\n      swap1\n      pop\n        /* \"#utility.yul\":4233:4264   */\n      tag_173\n        /* \"#utility.yul\":4258:4263   */\n      dup2\n        /* \"#utility.yul\":4233:4264   */\n      tag_95\n      jump\t// in\n    tag_173:\n        /* \"#utility.yul\":4135:4270   */\n      swap3\n      swap2\n      pop\n      pop\n      jump\t// out\n        /* \"#utility.yul\":4276:4601   */\n    tag_19:\n        /* \"#utility.yul\":4333:4339   */\n      0x00\n        /* \"#utility.yul\":4382:4384   */\n      0x20\n        /* \"#utility.yul\":4370:4379   */\n      dup3\n        /* \"#utility.yul\":4361:4368   */\n      dup5\n        /* \"#utility.yul\":4357:4380   */\n      sub\n        /* \"#utility.yul\":4353:4385   */\n      slt\n        /* \"#utility.yul\":4350:4469   */\n      iszero\n      tag_175\n      jumpi\n        /* \"#utility.yul\":4388:4467   */\n      tag_176\n      tag_80\n      jump\t// in\n    tag_176:\n        /* \"#utility.yul\":4350:4469   */\n    tag_175:\n        /* \"#utility.yul\":4508:4509   */\n      0x00\n        /* \"#utility.yul\":4533:4584   */\n      tag_177\n        /* \"#utility.yul\":4576:4583   */\n      dup5\n        /* \"#utility.yul\":4567:4573   */\n      dup3\n        /* \"#utility.yul\":4556:4565   */\n      dup6\n        /* \"#utility.yul\":4552:4574   */\n      add\n        /* \"#utility.yul\":4533:4584   */\n      tag_96\n      jump\t// in\n    tag_177:\n        /* \"#utility.yul\":4523:4584   */\n      swap2\n      pop\n        /* \"#utility.yul\":4479:4594   */\n      pop\n        /* \"#utility.yul\":4276:4601   */\n      swap3\n      swap2\n      pop\n      pop\n      jump\t// out\n        /* \"#utility.yul\":4607:4684   */\n    tag_97:\n        /* \"#utility.yul\":4644:4651   */\n      0x00\n        /* \"#utility.yul\":4673:4678   */\n      dup2\n        /* \"#utility.yul\":4662:4678   */\n      swap1\n      pop\n        /* \"#utility.yul\":4607:4684   */\n      swap2\n      swap1\n      pop\n      jump\t// out\n        /* \"#utility.yul\":4690:4808   */\n    tag_98:\n        /* \"#utility.yul\":4777:4801   */\n      tag_180\n        /* \"#utility.yul\":4795:4800   */\n      dup2\n        /* \"#utility.yul\":4777:4801   */\n      tag_97\n      jump\t// in\n    tag_180:\n        /* \"#utility.yul\":4772:4775   */\n      dup3\n        /* \"#utility.yul\":4765:4802   */\n      mstore\n        /* \"#utility.yul\":4690:4808   */\n      pop\n      pop\n      jump\t// out\n        /* \"#utility.yul\":4814:5036   */\n    tag_22:\n        /* \"#utility.yul\":4907:4911   */\n      0x00\n        /* \"#utility.yul\":4945:4947   */\n      0x20\n        /* \"#utility.yul\":4934:4943   */\n      dup3\n        /* \"#utility.yul\":4930:4948   */\n      add\n        /* \"#utility.yul\":4922:4948   */\n      swap1\n      pop\n        /* \"#utility.yul\":4958:5029   */\n      tag_182\n        /* \"#utility.yul\":5026:5027   */\n      0x00\n        /* \"#utility.yul\":5015:5024   */\n      dup4\n        /* \"#utility.yul\":5011:5028   */\n      add\n        /* \"#utility.yul\":5002:5008   */\n      dup5\n        /* \"#utility.yul\":4958:5029   */\n      tag_98\n      jump\t// in\n    tag_182:\n        /* \"#utility.yul\":4814:5036   */\n      swap3\n      swap2\n      pop\n      pop\n      jump\t// out\n        /* \"#utility.yul\":5042:5119   */\n    tag_99:\n        /* \"#utility.yul\":5079:5086   */\n      0x00\n        /* \"#utility.yul\":5108:5113   */\n      dup2\n        /* \"#utility.yul\":5097:5113   */\n      swap1\n      pop\n        /* \"#utility.yul\":5042:5119   */\n      swap2\n      swap1\n      pop\n      jump\t// out\n        /* \"#utility.yul\":5125:5243   */\n    tag_100:\n        /* \"#utility.yul\":5212:5236   */\n      tag_185\n        /* \"#utility.yul\":5230:5235   */\n      dup2\n        /* \"#utility.yul\":5212:5236   */\n      tag_99\n      jump\t// in\n    tag_185:\n        /* \"#utility.yul\":5207:5210   */\n      dup3\n        /* \"#utility.yul\":5200:5237   */\n      mstore\n        /* \"#utility.yul\":5125:5243   */\n      pop\n      pop\n      jump\t// out\n        /* \"#utility.yul\":5249:5364   */\n    tag_101:\n        /* \"#utility.yul\":5334:5357   */\n      tag_187\n        /* \"#utility.yul\":5351:5356   */\n      dup2\n        /* \"#utility.yul\":5334:5357   */\n      tag_92\n      jump\t// in\n    tag_187:\n        /* \"#utility.yul\":5329:5332   */\n      dup3\n        /* \"#utility.yul\":5322:5358   */\n      mstore\n        /* \"#utility.yul\":5249:5364   */\n      pop\n      pop\n      jump\t// out\n        /* \"#utility.yul\":5370:5460   */\n    tag_102:\n        /* \"#utility.yul\":5404:5411   */\n      0x00\n        /* \"#utility.yul\":5447:5452   */\n      dup2\n        /* \"#utility.yul\":5440:5453   */\n      iszero\n        /* \"#utility.yul\":5433:5454   */\n      iszero\n        /* \"#utility.yul\":5422:5454   */\n      swap1\n      pop\n        /* \"#utility.yul\":5370:5460   */\n      swap2\n      swap1\n      pop\n      jump\t// out\n        /* \"#utility.yul\":5466:5575   */\n    tag_103:\n        /* \"#utility.yul\":5547:5568   */\n      tag_190\n        /* \"#utility.yul\":5562:5567   */\n      dup2\n        /* \"#utility.yul\":5547:5568   */\n      tag_102\n      jump\t// in\n    tag_190:\n        /* \"#utility.yul\":5542:5545   */\n      dup3\n        /* \"#utility.yul\":5535:5569   */\n      mstore\n        /* \"#utility.yul\":5466:5575   */\n      pop\n      pop\n      jump\t// out\n        /* \"#utility.yul\":5581:5707   */\n    tag_104:\n        /* \"#utility.yul\":5618:5625   */\n      0x00\n        /* \"#utility.yul\":5658:5700   */\n      0xffffffffffffffffffffffffffffffffffffffff\n        /* \"#utility.yul\":5651:5656   */\n      dup3\n        /* \"#utility.yul\":5647:5701   */\n      and\n        /* \"#utility.yul\":5636:5701   */\n      swap1\n      pop\n        /* \"#utility.yul\":5581:5707   */\n      swap2\n      swap1\n      pop\n      jump\t// out\n        /* \"#utility.yul\":5713:5809   */\n    tag_105:\n        /* \"#utility.yul\":5750:5757   */\n      0x00\n        /* \"#utility.yul\":5779:5803   */\n      tag_193\n        /* \"#utility.yul\":5797:5802   */\n      dup3\n        /* \"#utility.yul\":5779:5803   */\n      tag_104\n      jump\t// in\n    tag_193:\n        /* \"#utility.yul\":5768:5803   */\n      swap1\n      pop\n        /* \"#utility.yul\":5713:5809   */\n      swap2\n      swap1\n      pop\n      jump\t// out\n        /* \"#utility.yul\":5815:5933   */\n    tag_106:\n        /* \"#utility.yul\":5902:5926   */\n      tag_195\n        /* \"#utility.yul\":5920:5925   */\n      dup2\n        /* \"#utility.yul\":5902:5926   */\n      tag_105\n      jump\t// in\n    tag_195:\n        /* \"#utility.yul\":5897:5900   */\n      dup3\n        /* \"#utility.yul\":5890:5927   */\n      mstore\n        /* \"#utility.yul\":5815:5933   */\n      pop\n      pop\n      jump\t// out\n        /* \"#utility.yul\":5939:6690   */\n    tag_27:\n        /* \"#utility.yul\":6160:6164   */\n      0x00\n        /* \"#utility.yul\":6198:6201   */\n      0xc0\n        /* \"#utility.yul\":6187:6196   */\n      dup3\n        /* \"#utility.yul\":6183:6202   */\n      add\n        /* \"#utility.yul\":6175:6202   */\n      swap1\n      pop\n        /* \"#utility.yul\":6212:6283   */\n      tag_197\n        /* \"#utility.yul\":6280:6281   */\n      0x00\n        /* \"#utility.yul\":6269:6278   */\n      dup4\n        /* \"#utility.yul\":6265:6282   */\n      add\n        /* \"#utility.yul\":6256:6262   */\n      dup10\n        /* \"#utility.yul\":6212:6283   */\n      tag_100\n      jump\t// in\n    tag_197:\n        /* \"#utility.yul\":6293:6363   */\n      tag_198\n        /* \"#utility.yul\":6359:6361   */\n      0x20\n        /* \"#utility.yul\":6348:6357   */\n      dup4\n        /* \"#utility.yul\":6344:6362   */\n      add\n        /* \"#utility.yul\":6335:6341   */\n      dup9\n        /* \"#utility.yul\":6293:6363   */\n      tag_101\n      jump\t// in\n    tag_198:\n        /* \"#utility.yul\":6373:6443   */\n      tag_199\n        /* \"#utility.yul\":6439:6441   */\n      0x40\n        /* \"#utility.yul\":6428:6437   */\n      dup4\n        /* \"#utility.yul\":6424:6442   */\n      add\n        /* \"#utility.yul\":6415:6421   */\n      dup8\n        /* \"#utility.yul\":6373:6443   */\n      tag_101\n      jump\t// in\n    tag_199:\n        /* \"#utility.yul\":6453:6523   */\n      tag_200\n        /* \"#utility.yul\":6519:6521   */\n      0x60\n        /* \"#utility.yul\":6508:6517   */\n      dup4\n        /* \"#utility.yul\":6504:6522   */\n      add\n        /* \"#utility.yul\":6495:6501   */\n      dup7\n        /* \"#utility.yul\":6453:6523   */\n      tag_101\n      jump\t// in\n    tag_200:\n        /* \"#utility.yul\":6533:6600   */\n      tag_201\n        /* \"#utility.yul\":6595:6598   */\n      0x80\n        /* \"#utility.yul\":6584:6593   */\n      dup4\n        /* \"#utility.yul\":6580:6599   */\n      add\n        /* \"#utility.yul\":6571:6577   */\n      dup6\n        /* \"#utility.yul\":6533:6600   */\n      tag_103\n      jump\t// in\n    tag_201:\n        /* \"#utility.yul\":6610:6683   */\n      tag_202\n        /* \"#utility.yul\":6678:6681   */\n      0xa0\n        /* \"#utility.yul\":6667:6676   */\n      dup4\n        /* \"#utility.yul\":6663:6682   */\n      add\n        /* \"#utility.yul\":6654:6660   */\n      dup5\n        /* \"#utility.yul\":6610:6683   */\n      tag_106\n      jump\t// in\n    tag_202:\n        /* \"#utility.yul\":5939:6690   */\n      swap8\n      swap7\n      pop\n      pop\n      pop\n      pop\n      pop\n      pop\n      pop\n      jump\t// out\n        /* \"#utility.yul\":6696:7435   */\n    tag_35:\n        /* \"#utility.yul\":6911:6915   */\n      0x00\n        /* \"#utility.yul\":6949:6952   */\n      0xc0\n        /* \"#utility.yul\":6938:6947   */\n      dup3\n        /* \"#utility.yul\":6934:6953   */\n      add\n        /* \"#utility.yul\":6926:6953   */\n      swap1\n      pop\n        /* \"#utility.yul\":6963:7034   */\n      tag_204\n        /* \"#utility.yul\":7031:7032   */\n      0x00\n        /* \"#utility.yul\":7020:7029   */\n      dup4\n        /* \"#utility.yul\":7016:7033   */\n      add\n        /* \"#utility.yul\":7007:7013   */\n      dup10\n        /* \"#utility.yul\":6963:7034   */\n      tag_100\n      jump\t// in\n    tag_204:\n        /* \"#utility.yul\":7044:7114   */\n      tag_205\n        /* \"#utility.yul\":7110:7112   */\n      0x20\n        /* \"#utility.yul\":7099:7108   */\n      dup4\n        /* \"#utility.yul\":7095:7113   */\n      add\n        /* \"#utility.yul\":7086:7092   */\n      dup9\n        /* \"#utility.yul\":7044:7114   */\n      tag_101\n      jump\t// in\n    tag_205:\n        /* \"#utility.yul\":7124:7194   */\n      tag_206\n        /* \"#utility.yul\":7190:7192   */\n      0x40\n        /* \"#utility.yul\":7179:7188   */\n      dup4\n        /* \"#utility.yul\":7175:7193   */\n      add\n        /* \"#utility.yul\":7166:7172   */\n      dup8\n        /* \"#utility.yul\":7124:7194   */\n      tag_101\n      jump\t// in\n    tag_206:\n        /* \"#utility.yul\":7204:7274   */\n      tag_207\n        /* \"#utility.yul\":7270:7272   */\n      0x60\n        /* \"#utility.yul\":7259:7268   */\n      dup4\n        /* \"#utility.yul\":7255:7273   */\n      add\n        /* \"#utility.yul\":7246:7252   */\n      dup7\n        /* \"#utility.yul\":7204:7274   */\n      tag_101\n      jump\t// in\n    tag_207:\n        /* \"#utility.yul\":7284:7351   */\n      tag_208\n        /* \"#utility.yul\":7346:7349   */\n      0x80\n        /* \"#utility.yul\":7335:7344   */\n      dup4\n        /* \"#utility.yul\":7331:7350   */\n      add\n        /* \"#utility.yul\":7322:7328   */\n      dup6\n        /* \"#utility.yul\":7284:7351   */\n      tag_103\n      jump\t// in\n    tag_208:\n        /* \"#utility.yul\":7361:7428   */\n      tag_209\n        /* \"#utility.yul\":7423:7426   */\n      0xa0\n        /* \"#utility.yul\":7412:7421   */\n      dup4\n        /* \"#utility.yul\":7408:7427   */\n      add\n        /* \"#utility.yul\":7399:7405   */\n      dup5\n        /* \"#utility.yul\":7361:7428   */\n      tag_103\n      jump\t// in\n    tag_209:\n        /* \"#utility.yul\":6696:7435   */\n      swap8\n      swap7\n      pop\n      pop\n      pop\n      pop\n      pop\n      pop\n      pop\n      jump\t// out\n        /* \"#utility.yul\":7441:7610   */\n    tag_107:\n        /* \"#utility.yul\":7525:7536   */\n      0x00\n        /* \"#utility.yul\":7559:7565   */\n      dup3\n        /* \"#utility.yul\":7554:7557   */\n      dup3\n        /* \"#utility.yul\":7547:7566   */\n      mstore\n        /* \"#utility.yul\":7599:7603   */\n      0x20\n        /* \"#utility.yul\":7594:7597   */\n      dup3\n        /* \"#utility.yul\":7590:7604   */\n      add\n        /* \"#utility.yul\":7575:7604   */\n      swap1\n      pop\n        /* \"#utility.yul\":7441:7610   */\n      swap3\n      swap2\n      pop\n      pop\n      jump\t// out\n        /* \"#utility.yul\":7616:7842   */\n    tag_108:\n        /* \"#utility.yul\":7756:7790   */\n      0x4475726174696f6e2073686f756c642062652061746c65617374203630302073\n        /* \"#utility.yul\":7752:7753   */\n      0x00\n        /* \"#utility.yul\":7744:7750   */\n      dup3\n        /* \"#utility.yul\":7740:7754   */\n      add\n        /* \"#utility.yul\":7733:7791   */\n      mstore\n        /* \"#utility.yul\":7825:7834   */\n      0x65636f6e64732e00000000000000000000000000000000000000000000000000\n        /* \"#utility.yul\":7820:7822   */\n      0x20\n        /* \"#utility.yul\":7812:7818   */\n      dup3\n        /* \"#utility.yul\":7808:7823   */\n      add\n        /* \"#utility.yul\":7801:7835   */\n      mstore\n        /* \"#utility.yul\":7616:7842   */\n      pop\n      jump\t// out\n        /* \"#utility.yul\":7848:8214   */\n    tag_109:\n        /* \"#utility.yul\":7990:7993   */\n      0x00\n        /* \"#utility.yul\":8011:8078   */\n      tag_213\n        /* \"#utility.yul\":8075:8077   */\n      0x27\n        /* \"#utility.yul\":8070:8073   */\n      dup4\n        /* \"#utility.yul\":8011:8078   */\n      tag_107\n      jump\t// in\n    tag_213:\n        /* \"#utility.yul\":8004:8078   */\n      swap2\n      pop\n        /* \"#utility.yul\":8087:8180   */\n      tag_214\n        /* \"#utility.yul\":8176:8179   */\n      dup3\n        /* \"#utility.yul\":8087:8180   */\n      tag_108\n      jump\t// in\n    tag_214:\n        /* \"#utility.yul\":8205:8207   */\n      0x40\n        /* \"#utility.yul\":8200:8203   */\n      dup3\n        /* \"#utility.yul\":8196:8208   */\n      add\n        /* \"#utility.yul\":8189:8208   */\n      swap1\n      pop\n        /* \"#utility.yul\":7848:8214   */\n      swap2\n      swap1\n      pop\n      jump\t// out\n        /* \"#utility.yul\":8220:8639   */\n    tag_39:\n        /* \"#utility.yul\":8386:8390   */\n      0x00\n        /* \"#utility.yul\":8424:8426   */\n      0x20\n        /* \"#utility.yul\":8413:8422   */\n      dup3\n        /* \"#utility.yul\":8409:8427   */\n      add\n        /* \"#utility.yul\":8401:8427   */\n      swap1\n      pop\n        /* \"#utility.yul\":8473:8482   */\n      dup2\n        /* \"#utility.yul\":8467:8471   */\n      dup2\n        /* \"#utility.yul\":8463:8483   */\n      sub\n        /* \"#utility.yul\":8459:8460   */\n      0x00\n        /* \"#utility.yul\":8448:8457   */\n      dup4\n        /* \"#utility.yul\":8444:8461   */\n      add\n        /* \"#utility.yul\":8437:8484   */\n      mstore\n        /* \"#utility.yul\":8501:8632   */\n      tag_216\n        /* \"#utility.yul\":8627:8631   */\n      dup2\n        /* \"#utility.yul\":8501:8632   */\n      tag_109\n      jump\t// in\n    tag_216:\n        /* \"#utility.yul\":8493:8632   */\n      swap1\n      pop\n        /* \"#utility.yul\":8220:8639   */\n      swap2\n      swap1\n      pop\n      jump\t// out\n        /* \"#utility.yul\":8645:8743   */\n    tag_110:\n        /* \"#utility.yul\":8696:8702   */\n      0x00\n        /* \"#utility.yul\":8730:8735   */\n      dup2\n        /* \"#utility.yul\":8724:8736   */\n      mload\n        /* \"#utility.yul\":8714:8736   */\n      swap1\n      pop\n        /* \"#utility.yul\":8645:8743   */\n      swap2\n      swap1\n      pop\n      jump\t// out\n        /* \"#utility.yul\":8749:8865   */\n    tag_111:\n        /* \"#utility.yul\":8800:8804   */\n      0x00\n        /* \"#utility.yul\":8823:8826   */\n      dup2\n        /* \"#utility.yul\":8815:8826   */\n      swap1\n      pop\n        /* \"#utility.yul\":8853:8857   */\n      0x20\n        /* \"#utility.yul\":8848:8851   */\n      dup3\n        /* \"#utility.yul\":8844:8858   */\n      add\n        /* \"#utility.yul\":8836:8858   */\n      swap1\n      pop\n        /* \"#utility.yul\":8749:8865   */\n      swap2\n      swap1\n      pop\n      jump\t// out\n        /* \"#utility.yul\":8871:9025   */\n    tag_112:\n        /* \"#utility.yul\":8914:8925   */\n      0x00\n        /* \"#utility.yul\":8950:8979   */\n      tag_220\n        /* \"#utility.yul\":8974:8977   */\n      dup3\n        /* \"#utility.yul\":8968:8978   */\n      mload\n        /* \"#utility.yul\":8950:8979   */\n      tag_99\n      jump\t// in\n    tag_220:\n        /* \"#utility.yul\":9013:9018   */\n      dup1\n        /* \"#utility.yul\":8989:9018   */\n      swap2\n      pop\n        /* \"#utility.yul\":8926:9025   */\n      pop\n        /* \"#utility.yul\":8871:9025   */\n      swap2\n      swap1\n      pop\n      jump\t// out\n        /* \"#utility.yul\":9031:9138   */\n    tag_113:\n        /* \"#utility.yul\":9075:9083   */\n      0x00\n        /* \"#utility.yul\":9125:9130   */\n      dup3\n        /* \"#utility.yul\":9119:9123   */\n      dup3\n        /* \"#utility.yul\":9115:9131   */\n      shl\n        /* \"#utility.yul\":9094:9131   */\n      swap1\n      pop\n        /* \"#utility.yul\":9031:9138   */\n      swap3\n      swap2\n      pop\n      pop\n      jump\t// out\n        /* \"#utility.yul\":9144:9738   */\n    tag_41:\n        /* \"#utility.yul\":9228:9233   */\n      0x00\n        /* \"#utility.yul\":9259:9297   */\n      tag_223\n        /* \"#utility.yul\":9291:9296   */\n      dup3\n        /* \"#utility.yul\":9259:9297   */\n      tag_110\n      jump\t// in\n    tag_223:\n        /* \"#utility.yul\":9322:9327   */\n      dup3\n        /* \"#utility.yul\":9349:9389   */\n      tag_224\n        /* \"#utility.yul\":9383:9388   */\n      dup5\n        /* \"#utility.yul\":9349:9389   */\n      tag_111\n      jump\t// in\n    tag_224:\n        /* \"#utility.yul\":9337:9389   */\n      swap1\n      pop\n        /* \"#utility.yul\":9408:9443   */\n      tag_225\n        /* \"#utility.yul\":9434:9442   */\n      dup2\n        /* \"#utility.yul\":9408:9443   */\n      tag_112\n      jump\t// in\n    tag_225:\n        /* \"#utility.yul\":9399:9443   */\n      swap3\n      pop\n        /* \"#utility.yul\":9467:9469   */\n      0x20\n        /* \"#utility.yul\":9459:9465   */\n      dup3\n        /* \"#utility.yul\":9456:9470   */\n      lt\n        /* \"#utility.yul\":9453:9731   */\n      iszero\n      tag_226\n      jumpi\n        /* \"#utility.yul\":9538:9707   */\n      tag_227\n        /* \"#utility.yul\":9623:9689   */\n      0xffffffffffffffffffffffffffffffffffffffffffffffffffffffffffffffff\n        /* \"#utility.yul\":9593:9599   */\n      dup4\n        /* \"#utility.yul\":9589:9591   */\n      0x20\n        /* \"#utility.yul\":9585:9600   */\n      sub\n        /* \"#utility.yul\":9582:9583   */\n      0x08\n        /* \"#utility.yul\":9578:9601   */\n      mul\n        /* \"#utility.yul\":9538:9707   */\n      tag_113\n      jump\t// in\n    tag_227:\n        /* \"#utility.yul\":9515:9520   */\n      dup4\n        /* \"#utility.yul\":9494:9721   */\n      and\n        /* \"#utility.yul\":9485:9721   */\n      swap3\n      pop\n        /* \"#utility.yul\":9453:9731   */\n    tag_226:\n        /* \"#utility.yul\":9234:9738   */\n      pop\n      pop\n        /* \"#utility.yul\":9144:9738   */\n      swap2\n      swap1\n      pop\n      jump\t// out\n        /* \"#utility.yul\":9744:9924   */\n    tag_114:\n        /* \"#utility.yul\":9792:9869   */\n      0x4e487b7100000000000000000000000000000000000000000000000000000000\n        /* \"#utility.yul\":9789:9790   */\n      0x00\n        /* \"#utility.yul\":9782:9870   */\n      mstore\n        /* \"#utility.yul\":9889:9893   */\n      0x11\n        /* \"#utility.yul\":9886:9887   */\n      0x04\n        /* \"#utility.yul\":9879:9894   */\n      mstore\n        /* \"#utility.yul\":9913:9917   */\n      0x24\n        /* \"#utility.yul\":9910:9911   */\n      0x00\n        /* \"#utility.yul\":9903:9918   */\n      revert\n        /* \"#utility.yul\":9930:10127   */\n    tag_43:\n        /* \"#utility.yul\":9969:9972   */\n      0x00\n        /* \"#utility.yul\":9988:10007   */\n      tag_230\n        /* \"#utility.yul\":10005:10006   */\n      dup3\n        /* \"#utility.yul\":9988:10007   */\n      tag_92\n      jump\t// in\n    tag_230:\n        /* \"#utility.yul\":9983:10007   */\n      swap2\n      pop\n        /* \"#utility.yul\":10021:10040   */\n      tag_231\n        /* \"#utility.yul\":10038:10039   */\n      dup4\n        /* \"#utility.yul\":10021:10040   */\n      tag_92\n      jump\t// in\n    tag_231:\n        /* \"#utility.yul\":10016:10040   */\n      swap3\n      pop\n        /* \"#utility.yul\":10063:10064   */\n      dup3\n        /* \"#utility.yul\":10060:10061   */\n      dup3\n        /* \"#utility.yul\":10056:10065   */\n      add\n        /* \"#utility.yul\":10049:10065   */\n      swap1\n      pop\n        /* \"#utility.yul\":10086:10096   */\n      0xffffffff\n        /* \"#utility.yul\":10081:10084   */\n      dup2\n        /* \"#utility.yul\":10078:10097   */\n      gt\n        /* \"#utility.yul\":10075:10120   */\n      iszero\n      tag_232\n      jumpi\n        /* \"#utility.yul\":10100:10118   */\n      tag_233\n      tag_114\n      jump\t// in\n    tag_233:\n        /* \"#utility.yul\":10075:10120   */\n    tag_232:\n        /* \"#utility.yul\":9930:10127   */\n      swap3\n      swap2\n      pop\n      pop\n      jump\t// out\n        /* \"#utility.yul\":10133:10355   */\n    tag_46:\n        /* \"#utility.yul\":10226:10230   */\n      0x00\n        /* \"#utility.yul\":10264:10266   */\n      0x20\n        /* \"#utility.yul\":10253:10262   */\n      dup3\n        /* \"#utility.yul\":10249:10267   */\n      add\n        /* \"#utility.yul\":10241:10267   */\n      swap1\n      pop\n        /* \"#utility.yul\":10277:10348   */\n      tag_235\n        /* \"#utility.yul\":10345:10346   */\n      0x00\n        /* \"#utility.yul\":10334:10343   */\n      dup4\n        /* \"#utility.yul\":10330:10347   */\n      add\n        /* \"#utility.yul\":10321:10327   */\n      dup5\n        /* \"#utility.yul\":10277:10348   */\n      tag_100\n      jump\t// in\n    tag_235:\n        /* \"#utility.yul\":10133:10355   */\n      swap3\n      swap2\n      pop\n      pop\n      jump\t// out\n        /* \"#utility.yul\":10361:10528   */\n    tag_48:\n        /* \"#utility.yul\":10398:10401   */\n      0x00\n        /* \"#utility.yul\":10421:10443   */\n      tag_237\n        /* \"#utility.yul\":10437:10442   */\n      dup3\n        /* \"#utility.yul\":10421:10443   */\n      tag_77\n      jump\t// in\n    tag_237:\n        /* \"#utility.yul\":10412:10443   */\n      swap2\n      pop\n        /* \"#utility.yul\":10465:10469   */\n      0xff\n        /* \"#utility.yul\":10458:10463   */\n      dup3\n        /* \"#utility.yul\":10455:10470   */\n      sub\n        /* \"#utility.yul\":10452:10493   */\n      tag_238\n      jumpi\n        /* \"#utility.yul\":10473:10491   */\n      tag_239\n      tag_114\n      jump\t// in\n    tag_239:\n        /* \"#utility.yul\":10452:10493   */\n    tag_238:\n        /* \"#utility.yul\":10520:10521   */\n      0x01\n        /* \"#utility.yul\":10513:10518   */\n      dup3\n        /* \"#utility.yul\":10509:10522   */\n      add\n        /* \"#utility.yul\":10502:10522   */\n      swap1\n      pop\n        /* \"#utility.yul\":10361:10528   */\n      swap2\n      swap1\n      pop\n      jump\t// out\n        /* \"#utility.yul\":10534:10699   */\n    tag_115:\n        /* \"#utility.yul\":10674:10691   */\n      0x50726f706f73616c20656e6465642e0000000000000000000000000000000000\n        /* \"#utility.yul\":10670:10671   */\n      0x00\n        /* \"#utility.yul\":10662:10668   */\n      dup3\n        /* \"#utility.yul\":10658:10672   */\n      add\n        /* \"#utility.yul\":10651:10692   */\n      mstore\n        /* \"#utility.yul\":10534:10699   */\n      pop\n      jump\t// out\n        /* \"#utility.yul\":10705:11071   */\n    tag_116:\n        /* \"#utility.yul\":10847:10850   */\n      0x00\n        /* \"#utility.yul\":10868:10935   */\n      tag_242\n        /* \"#utility.yul\":10932:10934   */\n      0x0f\n        /* \"#utility.yul\":10927:10930   */\n      dup4\n        /* \"#utility.yul\":10868:10935   */\n      tag_107\n      jump\t// in\n    tag_242:\n        /* \"#utility.yul\":10861:10935   */\n      swap2\n      pop\n        /* \"#utility.yul\":10944:11037   */\n      tag_243\n        /* \"#utility.yul\":11033:11036   */\n      dup3\n        /* \"#utility.yul\":10944:11037   */\n      tag_115\n      jump\t// in\n    tag_243:\n        /* \"#utility.yul\":11062:11064   */\n      0x20\n        /* \"#utility.yul\":11057:11060   */\n      dup3\n        /* \"#utility.yul\":11053:11065   */\n      add\n        /* \"#utility.yul\":11046:11065   */\n      swap1\n      pop\n        /* \"#utility.yul\":10705:11071   */\n      swap2\n      swap1\n      pop\n      jump\t// out\n        /* \"#utility.yul\":11077:11496   */\n    tag_53:\n        /* \"#utility.yul\":11243:11247   */\n      0x00\n        /* \"#utility.yul\":11281:11283   */\n      0x20\n        /* \"#utility.yul\":11270:11279   */\n      dup3\n        /* \"#utility.yul\":11266:11284   */\n      add\n        /* \"#utility.yul\":11258:11284   */\n      swap1\n      pop\n        /* \"#utility.yul\":11330:11339   */\n      dup2\n        /* \"#utility.yul\":11324:11328   */\n      dup2\n        /* \"#utility.yul\":11320:11340   */\n      sub\n        /* \"#utility.yul\":11316:11317   */\n      0x00\n        /* \"#utility.yul\":11305:11314   */\n      dup4\n        /* \"#utility.yul\":11301:11318   */\n      add\n        /* \"#utility.yul\":11294:11341   */\n      mstore\n        /* \"#utility.yul\":11358:11489   */\n      tag_245\n        /* \"#utility.yul\":11484:11488   */\n      dup2\n        /* \"#utility.yul\":11358:11489   */\n      tag_116\n      jump\t// in\n    tag_245:\n        /* \"#utility.yul\":11350:11489   */\n      swap1\n      pop\n        /* \"#utility.yul\":11077:11496   */\n      swap2\n      swap1\n      pop\n      jump\t// out\n        /* \"#utility.yul\":11502:11677   */\n    tag_117:\n        /* \"#utility.yul\":11642:11669   */\n      0x50726f706f73616c204944732066726f6d2031202d2032353500000000000000\n        /* \"#utility.yul\":11638:11639   */\n      0x00\n        /* \"#utility.yul\":11630:11636   */\n      dup3\n        /* \"#utility.yul\":11626:11640   */\n      add\n        /* \"#utility.yul\":11619:11670   */\n      mstore\n        /* \"#utility.yul\":11502:11677   */\n      pop\n      jump\t// out\n        /* \"#utility.yul\":11683:12049   */\n    tag_118:\n        /* \"#utility.yul\":11825:11828   */\n      0x00\n        /* \"#utility.yul\":11846:11913   */\n      tag_248\n        /* \"#utility.yul\":11910:11912   */\n      0x19\n        /* \"#utility.yul\":11905:11908   */\n      dup4\n        /* \"#utility.yul\":11846:11913   */\n      tag_107\n      jump\t// in\n    tag_248:\n        /* \"#utility.yul\":11839:11913   */\n      swap2\n      pop\n        /* \"#utility.yul\":11922:12015   */\n      tag_249\n        /* \"#utility.yul\":12011:12014   */\n      dup3\n        /* \"#utility.yul\":11922:12015   */\n      tag_117\n      jump\t// in\n    tag_249:\n        /* \"#utility.yul\":12040:12042   */\n      0x20\n        /* \"#utility.yul\":12035:12038   */\n      dup3\n        /* \"#utility.yul\":12031:12043   */\n      add\n        /* \"#utility.yul\":12024:12043   */\n      swap1\n      pop\n        /* \"#utility.yul\":11683:12049   */\n      swap2\n      swap1\n      pop\n      jump\t// out\n        /* \"#utility.yul\":12055:12474   */\n    tag_59:\n        /* \"#utility.yul\":12221:12225   */\n      0x00\n        /* \"#utility.yul\":12259:12261   */\n      0x20\n        /* \"#utility.yul\":12248:12257   */\n      dup3\n        /* \"#utility.yul\":12244:12262   */\n      add\n        /* \"#utility.yul\":12236:12262   */\n      swap1\n      pop\n        /* \"#utility.yul\":12308:12317   */\n      dup2\n        /* \"#utility.yul\":12302:12306   */\n      dup2\n        /* \"#utility.yul\":12298:12318   */\n      sub\n        /* \"#utility.yul\":12294:12295   */\n      0x00\n        /* \"#utility.yul\":12283:12292   */\n      dup4\n        /* \"#utility.yul\":12279:12296   */\n      add\n        /* \"#utility.yul\":12272:12319   */\n      mstore\n        /* \"#utility.yul\":12336:12467   */\n      tag_251\n        /* \"#utility.yul\":12462:12466   */\n      dup2\n        /* \"#utility.yul\":12336:12467   */\n      tag_118\n      jump\t// in\n    tag_251:\n        /* \"#utility.yul\":12328:12467   */\n      swap1\n      pop\n        /* \"#utility.yul\":12055:12474   */\n      swap2\n      swap1\n      pop\n      jump\t// out\n        /* \"#utility.yul\":12480:12674   */\n    tag_63:\n        /* \"#utility.yul\":12520:12524   */\n      0x00\n        /* \"#utility.yul\":12540:12560   */\n      tag_253\n        /* \"#utility.yul\":12558:12559   */\n      dup3\n        /* \"#utility.yul\":12540:12560   */\n      tag_97\n      jump\t// in\n    tag_253:\n        /* \"#utility.yul\":12535:12560   */\n      swap2\n      pop\n        /* \"#utility.yul\":12574:12594   */\n      tag_254\n        /* \"#utility.yul\":12592:12593   */\n      dup4\n        /* \"#utility.yul\":12574:12594   */\n      tag_97\n      jump\t// in\n    tag_254:\n        /* \"#utility.yul\":12569:12594   */\n      swap3\n      pop\n        /* \"#utility.yul\":12618:12619   */\n      dup3\n        /* \"#utility.yul\":12615:12616   */\n      dup3\n        /* \"#utility.yul\":12611:12620   */\n      sub\n        /* \"#utility.yul\":12603:12620   */\n      swap1\n      pop\n        /* \"#utility.yul\":12642:12643   */\n      dup2\n        /* \"#utility.yul\":12636:12640   */\n      dup2\n        /* \"#utility.yul\":12633:12644   */\n      gt\n        /* \"#utility.yul\":12630:12667   */\n      iszero\n      tag_255\n      jumpi\n        /* \"#utility.yul\":12647:12665   */\n      tag_256\n      tag_114\n      jump\t// in\n    tag_256:\n        /* \"#utility.yul\":12630:12667   */\n    tag_255:\n        /* \"#utility.yul\":12480:12674   */\n      swap3\n      swap2\n      pop\n      pop\n      jump\t// out\n        /* \"#utility.yul\":12680:12913   */\n    tag_65:\n        /* \"#utility.yul\":12719:12722   */\n      0x00\n        /* \"#utility.yul\":12742:12766   */\n      tag_258\n        /* \"#utility.yul\":12760:12765   */\n      dup3\n        /* \"#utility.yul\":12742:12766   */\n      tag_97\n      jump\t// in\n    tag_258:\n        /* \"#utility.yul\":12733:12766   */\n      swap2\n      pop\n        /* \"#utility.yul\":12788:12854   */\n      0xffffffffffffffffffffffffffffffffffffffffffffffffffffffffffffffff\n        /* \"#utility.yul\":12781:12786   */\n      dup3\n        /* \"#utility.yul\":12778:12855   */\n      sub\n        /* \"#utility.yul\":12775:12878   */\n      tag_259\n      jumpi\n        /* \"#utility.yul\":12858:12876   */\n      tag_260\n      tag_114\n      jump\t// in\n    tag_260:\n        /* \"#utility.yul\":12775:12878   */\n    tag_259:\n        /* \"#utility.yul\":12905:12906   */\n      0x01\n        /* \"#utility.yul\":12898:12903   */\n      dup3\n        /* \"#utility.yul\":12894:12907   */\n      add\n        /* \"#utility.yul\":12887:12907   */\n      swap1\n      pop\n        /* \"#utility.yul\":12680:12913   */\n      swap2\n      swap1\n      pop\n      jump\t// out\n        /* \"#utility.yul\":12919:13143   */\n    tag_119:\n        /* \"#utility.yul\":13059:13093   */\n      0x4f6e6c79206f776e65722063616e2065786563757465207468652070726f706f\n        /* \"#utility.yul\":13055:13056   */\n      0x00\n        /* \"#utility.yul\":13047:13053   */\n      dup3\n        /* \"#utility.yul\":13043:13057   */\n      add\n        /* \"#utility.yul\":13036:13094   */\n      mstore\n        /* \"#utility.yul\":13128:13135   */\n      0x73616c732e000000000000000000000000000000000000000000000000000000\n        /* \"#utility.yul\":13123:13125   */\n      0x20\n        /* \"#utility.yul\":13115:13121   */\n      dup3\n        /* \"#utility.yul\":13111:13126   */\n      add\n        /* \"#utility.yul\":13104:13136   */\n      mstore\n        /* \"#utility.yul\":12919:13143   */\n      pop\n      jump\t// out\n        /* \"#utility.yul\":13149:13515   */\n    tag_120:\n        /* \"#utility.yul\":13291:13294   */\n      0x00\n        /* \"#utility.yul\":13312:13379   */\n      tag_263\n        /* \"#utility.yul\":13376:13378   */\n      0x25\n        /* \"#utility.yul\":13371:13374   */\n      dup4\n        /* \"#utility.yul\":13312:13379   */\n      tag_107\n      jump\t// in\n    tag_263:\n        /* \"#utility.yul\":13305:13379   */\n      swap2\n      pop\n        /* \"#utility.yul\":13388:13481   */\n      tag_264\n        /* \"#utility.yul\":13477:13480   */\n      dup3\n        /* \"#utility.yul\":13388:13481   */\n      tag_119\n      jump\t// in\n    tag_264:\n        /* \"#utility.yul\":13506:13508   */\n      0x40\n        /* \"#utility.yul\":13501:13504   */\n      dup3\n        /* \"#utility.yul\":13497:13509   */\n      add\n        /* \"#utility.yul\":13490:13509   */\n      swap1\n      pop\n        /* \"#utility.yul\":13149:13515   */\n      swap2\n      swap1\n      pop\n      jump\t// out\n        /* \"#utility.yul\":13521:13940   */\n    tag_73:\n        /* \"#utility.yul\":13687:13691   */\n      0x00\n        /* \"#utility.yul\":13725:13727   */\n      0x20\n        /* \"#utility.yul\":13714:13723   */\n      dup3\n        /* \"#utility.yul\":13710:13728   */\n      add\n        /* \"#utility.yul\":13702:13728   */\n      swap1\n      pop\n        /* \"#utility.yul\":13774:13783   */\n      dup2\n        /* \"#utility.yul\":13768:13772   */\n      dup2\n        /* \"#utility.yul\":13764:13784   */\n      sub\n        /* \"#utility.yul\":13760:13761   */\n      0x00\n        /* \"#utility.yul\":13749:13758   */\n      dup4\n        /* \"#utility.yul\":13745:13762   */\n      add\n        /* \"#utility.yul\":13738:13785   */\n      mstore\n        /* \"#utility.yul\":13802:13933   */\n      tag_266\n        /* \"#utility.yul\":13928:13932   */\n      dup2\n        /* \"#utility.yul\":13802:13933   */\n      tag_120\n      jump\t// in\n    tag_266:\n        /* \"#utility.yul\":13794:13933   */\n      swap1\n      pop\n        /* \"#utility.yul\":13521:13940   */\n      swap2\n      swap1\n      pop\n      jump\t// out\n\n    auxdata: 0xa2646970667358221220dba187cbde2ee31e8267631067c8b97061335cae45972d9af9ebed1a6b18fbc964736f6c634300081f0033\n}\n",
				"bytecode": {
					"linkReferences": {},
					"object": "608060405260015f5f6101000a81548160ff021916908360ff1602179055503480156028575f5ffd5b50611393806100365f395ff3fe608060405234801561000f575f5ffd5b5060043610610060575f3560e01c80634a91da4814610064578063655a61e51461008257806381cadf5e1461009e57806384acf0f5146100ce578063b62f72f314610103578063dac001fe1461011f575b5f5ffd5b61006c610154565b6040516100799190610be6565b60405180910390f35b61009c60048036038101906100979190610d85565b610165565b005b6100b860048036038101906100b39190610e09565b6103b4565b6040516100c59190610e4c565b60405180910390f35b6100e860048036038101906100e39190610e09565b610736565b6040516100fa96959493929190610ee5565b60405180910390f35b61011d60048036038101906101189190610e09565b6107c9565b005b61013960048036038101906101349190610e09565b610a60565b60405161014b96959493929190610f44565b60405180910390f35b5f5f9054906101000a900460ff1681565b6102588163ffffffff1610156101b0576040517f08c379a00000000000000000000000000000000000000000000000000000000081526004016101a790611023565b60405180910390fd5b5f6040518060c00160405280846101c69061107a565b81526020015f63ffffffff1681526020014263ffffffff16815260200183426101ef919061110d565b63ffffffff1681526020015f151581526020013373ffffffffffffffffffffffffffffffffffffffff1681525090508060015f5f5f9054906101000a900460ff1660ff1660ff1681526020019081526020015f205f820151815f01556020820151816001015f6101000a81548163ffffffff021916908363ffffffff16021790555060408201518160010160046101000a81548163ffffffff021916908363ffffffff16021790555060608201518160010160086101000a81548163ffffffff021916908363ffffffff160217905550608082015181600101600c6101000a81548160ff02191690831515021790555060a0820151816002015f6101000a81548173ffffffffffffffffffffffffffffffffffffffff021916908373ffffffffffffffffffffffffffffffffffffffff1602179055509050505f5f9054906101000a900460ff1660ff167ff8911b31a70033943dccd9f54bb08abe3a63e53e41971ac6f7857ffe1bb52834846103649061107a565b6040516103719190611144565b60405180910390a25f5f81819054906101000a900460ff16809291906103969061115d565b91906101000a81548160ff021916908360ff16021790555050505050565b5f5f73ffffffffffffffffffffffffffffffffffffffff1660015f8460ff1660ff1681526020019081526020015f206002015f9054906101000a900473ffffffffffffffffffffffffffffffffffffffff1673ffffffffffffffffffffffffffffffffffffffff1603610452576040517e83e5d900000000000000000000000000000000000000000000000000000000815260040160405180910390fd5b60015f8360ff1660ff1681526020019081526020015f2060010160089054906101000a900463ffffffff1663ffffffff1642106104c4576040517f08c379a00000000000000000000000000000000000000000000000000000000081526004016104bb906111cf565b60405180910390fd5b6001151560015f8460ff1660ff1681526020019081526020015f20600101600c9054906101000a900460ff16151503610529576040517fbd57690600000000000000000000000000000000000000000000000000000000815260040160405180910390fd5b3373ffffffffffffffffffffffffffffffffffffffff1660015f8460ff1660ff1681526020019081526020015f206002015f9054906101000a900473ffffffffffffffffffffffffffffffffffffffff1673ffffffffffffffffffffffffffffffffffffffff16036105c7576040517f450f84c300000000000000000000000000000000000000000000000000000000815260040160405180910390fd5b5f8260ff161080156105dd57506101008260ff16115b1561061d576040517fa4628d8100000000000000000000000000000000000000000000000000000000815260040161061490611237565b60405180910390fd5b5f8260ff166001901b90508060025f3373ffffffffffffffffffffffffffffffffffffffff1673ffffffffffffffffffffffffffffffffffffffff1681526020019081526020015f205f82825417925050819055508260ff163373ffffffffffffffffffffffffffffffffffffffff167f14075e33dffdc00c1fcaf75d0f86d667170be57fb566b12b41b499e5fa53b12560405160405180910390a35f60025f3373ffffffffffffffffffffffffffffffffffffffff1673ffffffffffffffffffffffffffffffffffffffff1681526020019081526020015f205490505f5f90505b5f82111561072b576001826107149190611255565b82169150808061072390611288565b9150506106ff565b809350505050919050565b6001602052805f5260405f205f91509050805f015490806001015f9054906101000a900463ffffffff16908060010160049054906101000a900463ffffffff16908060010160089054906101000a900463ffffffff169080600101600c9054906101000a900460ff1690806002015f9054906101000a900473ffffffffffffffffffffffffffffffffffffffff16905086565b5f73ffffffffffffffffffffffffffffffffffffffff1660015f8360ff1660ff1681526020019081526020015f206002015f9054906101000a900473ffffffffffffffffffffffffffffffffffffffff1673ffffffffffffffffffffffffffffffffffffffff1603610866576040517e83e5d900000000000000000000000000000000000000000000000000000000815260040160405180910390fd5b60015f8260ff1660ff1681526020019081526020015f2060010160089054906101000a900463ffffffff1663ffffffff1642106108d8576040517f08c379a00000000000000000000000000000000000000000000000000000000081526004016108cf906111cf565b60405180910390fd5b6001151560015f8360ff1660ff1681526020019081526020015f20600101600c9054906101000a900460ff1615150361093d576040517fbd57690600000000000000000000000000000000000000000000000000000000815260040160405180910390fd5b3373ffffffffffffffffffffffffffffffffffffffff1660015f8360ff1660ff1681526020019081526020015f206002015f9054906101000a900473ffffffffffffffffffffffffffffffffffffffff1673ffffffffffffffffffffffffffffffffffffffff16146109e4576040517f08c379a00000000000000000000000000000000000000000000000000000000081526004016109db9061133f565b60405180910390fd5b6001805f8360ff1660ff1681526020019081526020015f20600101600c6101000a81548160ff0219169083151502179055508060ff163373ffffffffffffffffffffffffffffffffffffffff167fd6a216b1702d96181c2e37c4816e0ec1ec7686a4601f35b1e31961dc3edd08a060405160405180910390a350565b5f5f5f5f5f5f5f73ffffffffffffffffffffffffffffffffffffffff1660015f8960ff1660ff1681526020019081526020015f206002015f9054906101000a900473ffffffffffffffffffffffffffffffffffffffff1673ffffffffffffffffffffffffffffffffffffffff1603610b03576040517e83e5d900000000000000000000000000000000000000000000000000000000815260040160405180910390fd5b5f60015f8960ff1660ff1681526020019081526020015f209050805f0154816001015f9054906101000a900463ffffffff168260010160049054906101000a900463ffffffff168360010160089054906101000a900463ffffffff1684600101600c9054906101000a900460ff168560010160049054906101000a900463ffffffff1663ffffffff164210158015610bb557508560010160089054906101000a900463ffffffff1663ffffffff164211155b9650965096509650965096505091939550919395565b5f60ff82169050919050565b610be081610bcb565b82525050565b5f602082019050610bf95f830184610bd7565b92915050565b5f604051905090565b5f5ffd5b5f5ffd5b5f5ffd5b5f5ffd5b5f601f19601f8301169050919050565b7f4e487b71000000000000000000000000000000000000000000000000000000005f52604160045260245ffd5b610c5e82610c18565b810181811067ffffffffffffffff82111715610c7d57610c7c610c28565b5b80604052505050565b5f610c8f610bff565b9050610c9b8282610c55565b919050565b5f67ffffffffffffffff821115610cba57610cb9610c28565b5b610cc382610c18565b9050602081019050919050565b828183375f83830152505050565b5f610cf0610ceb84610ca0565b610c86565b905082815260208101848484011115610d0c57610d0b610c14565b5b610d17848285610cd0565b509392505050565b5f82601f830112610d3357610d32610c10565b5b8135610d43848260208601610cde565b91505092915050565b5f63ffffffff82169050919050565b610d6481610d4c565b8114610d6e575f5ffd5b50565b5f81359050610d7f81610d5b565b92915050565b5f5f60408385031215610d9b57610d9a610c08565b5b5f83013567ffffffffffffffff811115610db857610db7610c0c565b5b610dc485828601610d1f565b9250506020610dd585828601610d71565b9150509250929050565b610de881610bcb565b8114610df2575f5ffd5b50565b5f81359050610e0381610ddf565b92915050565b5f60208284031215610e1e57610e1d610c08565b5b5f610e2b84828501610df5565b91505092915050565b5f819050919050565b610e4681610e34565b82525050565b5f602082019050610e5f5f830184610e3d565b92915050565b5f819050919050565b610e7781610e65565b82525050565b610e8681610d4c565b82525050565b5f8115159050919050565b610ea081610e8c565b82525050565b5f73ffffffffffffffffffffffffffffffffffffffff82169050919050565b5f610ecf82610ea6565b9050919050565b610edf81610ec5565b82525050565b5f60c082019050610ef85f830189610e6e565b610f056020830188610e7d565b610f126040830187610e7d565b610f1f6060830186610e7d565b610f2c6080830185610e97565b610f3960a0830184610ed6565b979650505050505050565b5f60c082019050610f575f830189610e6e565b610f646020830188610e7d565b610f716040830187610e7d565b610f7e6060830186610e7d565b610f8b6080830185610e97565b610f9860a0830184610e97565b979650505050505050565b5f82825260208201905092915050565b7f4475726174696f6e2073686f756c642062652061746c656173742036303020735f8201527f65636f6e64732e00000000000000000000000000000000000000000000000000602082015250565b5f61100d602783610fa3565b915061101882610fb3565b604082019050919050565b5f6020820190508181035f83015261103a81611001565b9050919050565b5f81519050919050565b5f819050602082019050919050565b5f6110658251610e65565b80915050919050565b5f82821b905092915050565b5f61108482611041565b8261108e8461104b565b90506110998161105a565b925060208210156110d9576110d47fffffffffffffffffffffffffffffffffffffffffffffffffffffffffffffffff8360200360080261106e565b831692505b5050919050565b7f4e487b71000000000000000000000000000000000000000000000000000000005f52601160045260245ffd5b5f61111782610d4c565b915061112283610d4c565b9250828201905063ffffffff81111561113e5761113d6110e0565b5b92915050565b5f6020820190506111575f830184610e6e565b92915050565b5f61116782610bcb565b915060ff820361117a576111796110e0565b5b600182019050919050565b7f50726f706f73616c20656e6465642e00000000000000000000000000000000005f82015250565b5f6111b9600f83610fa3565b91506111c482611185565b602082019050919050565b5f6020820190508181035f8301526111e6816111ad565b9050919050565b7f50726f706f73616c204944732066726f6d2031202d20323535000000000000005f82015250565b5f611221601983610fa3565b915061122c826111ed565b602082019050919050565b5f6020820190508181035f83015261124e81611215565b9050919050565b5f61125f82610e34565b915061126a83610e34565b9250828203905081811115611282576112816110e0565b5b92915050565b5f61129282610e34565b91507fffffffffffffffffffffffffffffffffffffffffffffffffffffffffffffffff82036112c4576112c36110e0565b5b600182019050919050565b7f4f6e6c79206f776e65722063616e2065786563757465207468652070726f706f5f8201527f73616c732e000000000000000000000000000000000000000000000000000000602082015250565b5f611329602583610fa3565b9150611334826112cf565b604082019050919050565b5f6020820190508181035f8301526113568161131d565b905091905056fea2646970667358221220dba187cbde2ee31e8267631067c8b97061335cae45972d9af9ebed1a6b18fbc964736f6c634300081f0033",
					"opcodes": "PUSH1 0x80 PUSH1 0x40 MSTORE PUSH1 0x1 PUSH0 PUSH0 PUSH2 0x100 EXP DUP2 SLOAD DUP2 PUSH1 0xFF MUL NOT AND SWAP1 DUP4 PUSH1 0xFF AND MUL OR SWAP1 SSTORE POP CALLVALUE DUP1 ISZERO PUSH1 0x28 JUMPI PUSH0 PUSH0 REVERT JUMPDEST POP PUSH2 0x1393 DUP1 PUSH2 0x36 PUSH0 CODECOPY PUSH0 RETURN INVALID PUSH1 0x80 PUSH1 0x40 MSTORE CALLVALUE DUP1 ISZERO PUSH2 0xF JUMPI PUSH0 PUSH0 REVERT JUMPDEST POP PUSH1 0x4 CALLDATASIZE LT PUSH2 0x60 JUMPI PUSH0 CALLDATALOAD PUSH1 0xE0 SHR DUP1 PUSH4 0x4A91DA48 EQ PUSH2 0x64 JUMPI DUP1 PUSH4 0x655A61E5 EQ PUSH2 0x82 JUMPI DUP1 PUSH4 0x81CADF5E EQ PUSH2 0x9E JUMPI DUP1 PUSH4 0x84ACF0F5 EQ PUSH2 0xCE JUMPI DUP1 PUSH4 0xB62F72F3 EQ PUSH2 0x103 JUMPI DUP1 PUSH4 0xDAC001FE EQ PUSH2 0x11F JUMPI JUMPDEST PUSH0 PUSH0 REVERT JUMPDEST PUSH2 0x6C PUSH2 0x154 JUMP JUMPDEST PUSH1 0x40 MLOAD PUSH2 0x79 SWAP2 SWAP1 PUSH2 0xBE6 JUMP JUMPDEST PUSH1 0x40 MLOAD DUP1 SWAP2 SUB SWAP1 RETURN JUMPDEST PUSH2 0x9C PUSH1 0x4 DUP1 CALLDATASIZE SUB DUP2 ADD SWAP1 PUSH2 0x97 SWAP2 SWAP1 PUSH2 0xD85 JUMP JUMPDEST PUSH2 0x165 JUMP JUMPDEST STOP JUMPDEST PUSH2 0xB8 PUSH1 0x4 DUP1 CALLDATASIZE SUB DUP2 ADD SWAP1 PUSH2 0xB3 SWAP2 SWAP1 PUSH2 0xE09 JUMP JUMPDEST PUSH2 0x3B4 JUMP JUMPDEST PUSH1 0x40 MLOAD PUSH2 0xC5 SWAP2 SWAP1 PUSH2 0xE4C JUMP JUMPDEST PUSH1 0x40 MLOAD DUP1 SWAP2 SUB SWAP1 RETURN JUMPDEST PUSH2 0xE8 PUSH1 0x4 DUP1 CALLDATASIZE SUB DUP2 ADD SWAP1 PUSH2 0xE3 SWAP2 SWAP1 PUSH2 0xE09 JUMP JUMPDEST PUSH2 0x736 JUMP JUMPDEST PUSH1 0x40 MLOAD PUSH2 0xFA SWAP7 SWAP6 SWAP5 SWAP4 SWAP3 SWAP2 SWAP1 PUSH2 0xEE5 JUMP JUMPDEST PUSH1 0x40 MLOAD DUP1 SWAP2 SUB SWAP1 RETURN JUMPDEST PUSH2 0x11D PUSH1 0x4 DUP1 CALLDATASIZE SUB DUP2 ADD SWAP1 PUSH2 0x118 SWAP2 SWAP1 PUSH2 0xE09 JUMP JUMPDEST PUSH2 0x7C9 JUMP JUMPDEST STOP JUMPDEST PUSH2 0x139 PUSH1 0x4 DUP1 CALLDATASIZE SUB DUP2 ADD SWAP1 PUSH2 0x134 SWAP2 SWAP1 PUSH2 0xE09 JUMP JUMPDEST PUSH2 0xA60 JUMP JUMPDEST PUSH1 0x40 MLOAD PUSH2 0x14B SWAP7 SWAP6 SWAP5 SWAP4 SWAP3 SWAP2 SWAP1 PUSH2 0xF44 JUMP JUMPDEST PUSH1 0x40 MLOAD DUP1 SWAP2 SUB SWAP1 RETURN JUMPDEST PUSH0 PUSH0 SWAP1 SLOAD SWAP1 PUSH2 0x100 EXP SWAP1 DIV PUSH1 0xFF AND DUP2 JUMP JUMPDEST PUSH2 0x258 DUP2 PUSH4 0xFFFFFFFF AND LT ISZERO PUSH2 0x1B0 JUMPI PUSH1 0x40 MLOAD PUSH32 0x8C379A000000000000000000000000000000000000000000000000000000000 DUP2 MSTORE PUSH1 0x4 ADD PUSH2 0x1A7 SWAP1 PUSH2 0x1023 JUMP JUMPDEST PUSH1 0x40 MLOAD DUP1 SWAP2 SUB SWAP1 REVERT JUMPDEST PUSH0 PUSH1 0x40 MLOAD DUP1 PUSH1 0xC0 ADD PUSH1 0x40 MSTORE DUP1 DUP5 PUSH2 0x1C6 SWAP1 PUSH2 0x107A JUMP JUMPDEST DUP2 MSTORE PUSH1 0x20 ADD PUSH0 PUSH4 0xFFFFFFFF AND DUP2 MSTORE PUSH1 0x20 ADD TIMESTAMP PUSH4 0xFFFFFFFF AND DUP2 MSTORE PUSH1 0x20 ADD DUP4 TIMESTAMP PUSH2 0x1EF SWAP2 SWAP1 PUSH2 0x110D JUMP JUMPDEST PUSH4 0xFFFFFFFF AND DUP2 MSTORE PUSH1 0x20 ADD PUSH0 ISZERO ISZERO DUP2 MSTORE PUSH1 0x20 ADD CALLER PUSH20 0xFFFFFFFFFFFFFFFFFFFFFFFFFFFFFFFFFFFFFFFF AND DUP2 MSTORE POP SWAP1 POP DUP1 PUSH1 0x1 PUSH0 PUSH0 PUSH0 SWAP1 SLOAD SWAP1 PUSH2 0x100 EXP SWAP1 DIV PUSH1 0xFF AND PUSH1 0xFF AND PUSH1 0xFF AND DUP2 MSTORE PUSH1 0x20 ADD SWAP1 DUP2 MSTORE PUSH1 0x20 ADD PUSH0 KECCAK256 PUSH0 DUP3 ADD MLOAD DUP2 PUSH0 ADD SSTORE PUSH1 0x20 DUP3 ADD MLOAD DUP2 PUSH1 0x1 ADD PUSH0 PUSH2 0x100 EXP DUP2 SLOAD DUP2 PUSH4 0xFFFFFFFF MUL NOT AND SWAP1 DUP4 PUSH4 0xFFFFFFFF AND MUL OR SWAP1 SSTORE POP PUSH1 0x40 DUP3 ADD MLOAD DUP2 PUSH1 0x1 ADD PUSH1 0x4 PUSH2 0x100 EXP DUP2 SLOAD DUP2 PUSH4 0xFFFFFFFF MUL NOT AND SWAP1 DUP4 PUSH4 0xFFFFFFFF AND MUL OR SWAP1 SSTORE POP PUSH1 0x60 DUP3 ADD MLOAD DUP2 PUSH1 0x1 ADD PUSH1 0x8 PUSH2 0x100 EXP DUP2 SLOAD DUP2 PUSH4 0xFFFFFFFF MUL NOT AND SWAP1 DUP4 PUSH4 0xFFFFFFFF AND MUL OR SWAP1 SSTORE POP PUSH1 0x80 DUP3 ADD MLOAD DUP2 PUSH1 0x1 ADD PUSH1 0xC PUSH2 0x100 EXP DUP2 SLOAD DUP2 PUSH1 0xFF MUL NOT AND SWAP1 DUP4 ISZERO ISZERO MUL OR SWAP1 SSTORE POP PUSH1 0xA0 DUP3 ADD MLOAD DUP2 PUSH1 0x2 ADD PUSH0 PUSH2 0x100 EXP DUP2 SLOAD DUP2 PUSH20 0xFFFFFFFFFFFFFFFFFFFFFFFFFFFFFFFFFFFFFFFF MUL NOT AND SWAP1 DUP4 PUSH20 0xFFFFFFFFFFFFFFFFFFFFFFFFFFFFFFFFFFFFFFFF AND MUL OR SWAP1 SSTORE POP SWAP1 POP POP PUSH0 PUSH0 SWAP1 SLOAD SWAP1 PUSH2 0x100 EXP SWAP1 DIV PUSH1 0xFF AND PUSH1 0xFF AND PUSH32 0xF8911B31A70033943DCCD9F54BB08ABE3A63E53E41971AC6F7857FFE1BB52834 DUP5 PUSH2 0x364 SWAP1 PUSH2 0x107A JUMP JUMPDEST PUSH1 0x40 MLOAD PUSH2 0x371 SWAP2 SWAP1 PUSH2 0x1144 JUMP JUMPDEST PUSH1 0x40 MLOAD DUP1 SWAP2 SUB SWAP1 LOG2 PUSH0 PUSH0 DUP2 DUP2 SWAP1 SLOAD SWAP1 PUSH2 0x100 EXP SWAP1 DIV PUSH1 0xFF AND DUP1 SWAP3 SWAP2 SWAP1 PUSH2 0x396 SWAP1 PUSH2 0x115D JUMP JUMPDEST SWAP2 SWAP1 PUSH2 0x100 EXP DUP2 SLOAD DUP2 PUSH1 0xFF MUL NOT AND SWAP1 DUP4 PUSH1 0xFF AND MUL OR SWAP1 SSTORE POP POP POP POP POP JUMP JUMPDEST PUSH0 PUSH0 PUSH20 0xFFFFFFFFFFFFFFFFFFFFFFFFFFFFFFFFFFFFFFFF AND PUSH1 0x1 PUSH0 DUP5 PUSH1 0xFF AND PUSH1 0xFF AND DUP2 MSTORE PUSH1 0x20 ADD SWAP1 DUP2 MSTORE PUSH1 0x20 ADD PUSH0 KECCAK256 PUSH1 0x2 ADD PUSH0 SWAP1 SLOAD SWAP1 PUSH2 0x100 EXP SWAP1 DIV PUSH20 0xFFFFFFFFFFFFFFFFFFFFFFFFFFFFFFFFFFFFFFFF AND PUSH20 0xFFFFFFFFFFFFFFFFFFFFFFFFFFFFFFFFFFFFFFFF AND SUB PUSH2 0x452 JUMPI PUSH1 0x40 MLOAD PUSH31 0x83E5D900000000000000000000000000000000000000000000000000000000 DUP2 MSTORE PUSH1 0x4 ADD PUSH1 0x40 MLOAD DUP1 SWAP2 SUB SWAP1 REVERT JUMPDEST PUSH1 0x1 PUSH0 DUP4 PUSH1 0xFF AND PUSH1 0xFF AND DUP2 MSTORE PUSH1 0x20 ADD SWAP1 DUP2 MSTORE PUSH1 0x20 ADD PUSH0 KECCAK256 PUSH1 0x1 ADD PUSH1 0x8 SWAP1 SLOAD SWAP1 PUSH2 0x100 EXP SWAP1 DIV PUSH4 0xFFFFFFFF AND PUSH4 0xFFFFFFFF AND TIMESTAMP LT PUSH2 0x4C4 JUMPI PUSH1 0x40 MLOAD PUSH32 0x8C379A000000000000000000000000000000000000000000000000000000000 DUP2 MSTORE PUSH1 0x4 ADD PUSH2 0x4BB SWAP1 PUSH2 0x11CF JUMP JUMPDEST PUSH1 0x40 MLOAD DUP1 SWAP2 SUB SWAP1 REVERT JUMPDEST PUSH1 0x1 ISZERO ISZERO PUSH1 0x1 PUSH0 DUP5 PUSH1 0xFF AND PUSH1 0xFF AND DUP2 MSTORE PUSH1 0x20 ADD SWAP1 DUP2 MSTORE PUSH1 0x20 ADD PUSH0 KECCAK256 PUSH1 0x1 ADD PUSH1 0xC SWAP1 SLOAD SWAP1 PUSH2 0x100 EXP SWAP1 DIV PUSH1 0xFF AND ISZERO ISZERO SUB PUSH2 0x529 JUMPI PUSH1 0x40 MLOAD PUSH32 0xBD57690600000000000000000000000000000000000000000000000000000000 DUP2 MSTORE PUSH1 0x4 ADD PUSH1 0x40 MLOAD DUP1 SWAP2 SUB SWAP1 REVERT JUMPDEST CALLER PUSH20 0xFFFFFFFFFFFFFFFFFFFFFFFFFFFFFFFFFFFFFFFF AND PUSH1 0x1 PUSH0 DUP5 PUSH1 0xFF AND PUSH1 0xFF AND DUP2 MSTORE PUSH1 0x20 ADD SWAP1 DUP2 MSTORE PUSH1 0x20 ADD PUSH0 KECCAK256 PUSH1 0x2 ADD PUSH0 SWAP1 SLOAD SWAP1 PUSH2 0x100 EXP SWAP1 DIV PUSH20 0xFFFFFFFFFFFFFFFFFFFFFFFFFFFFFFFFFFFFFFFF AND PUSH20 0xFFFFFFFFFFFFFFFFFFFFFFFFFFFFFFFFFFFFFFFF AND SUB PUSH2 0x5C7 JUMPI PUSH1 0x40 MLOAD PUSH32 0x450F84C300000000000000000000000000000000000000000000000000000000 DUP2 MSTORE PUSH1 0x4 ADD PUSH1 0x40 MLOAD DUP1 SWAP2 SUB SWAP1 REVERT JUMPDEST PUSH0 DUP3 PUSH1 0xFF AND LT DUP1 ISZERO PUSH2 0x5DD JUMPI POP PUSH2 0x100 DUP3 PUSH1 0xFF AND GT JUMPDEST ISZERO PUSH2 0x61D JUMPI PUSH1 0x40 MLOAD PUSH32 0xA4628D8100000000000000000000000000000000000000000000000000000000 DUP2 MSTORE PUSH1 0x4 ADD PUSH2 0x614 SWAP1 PUSH2 0x1237 JUMP JUMPDEST PUSH1 0x40 MLOAD DUP1 SWAP2 SUB SWAP1 REVERT JUMPDEST PUSH0 DUP3 PUSH1 0xFF AND PUSH1 0x1 SWAP1 SHL SWAP1 POP DUP1 PUSH1 0x2 PUSH0 CALLER PUSH20 0xFFFFFFFFFFFFFFFFFFFFFFFFFFFFFFFFFFFFFFFF AND PUSH20 0xFFFFFFFFFFFFFFFFFFFFFFFFFFFFFFFFFFFFFFFF AND DUP2 MSTORE PUSH1 0x20 ADD SWAP1 DUP2 MSTORE PUSH1 0x20 ADD PUSH0 KECCAK256 PUSH0 DUP3 DUP3 SLOAD OR SWAP3 POP POP DUP2 SWAP1 SSTORE POP DUP3 PUSH1 0xFF AND CALLER PUSH20 0xFFFFFFFFFFFFFFFFFFFFFFFFFFFFFFFFFFFFFFFF AND PUSH32 0x14075E33DFFDC00C1FCAF75D0F86D667170BE57FB566B12B41B499E5FA53B125 PUSH1 0x40 MLOAD PUSH1 0x40 MLOAD DUP1 SWAP2 SUB SWAP1 LOG3 PUSH0 PUSH1 0x2 PUSH0 CALLER PUSH20 0xFFFFFFFFFFFFFFFFFFFFFFFFFFFFFFFFFFFFFFFF AND PUSH20 0xFFFFFFFFFFFFFFFFFFFFFFFFFFFFFFFFFFFFFFFF AND DUP2 MSTORE PUSH1 0x20 ADD SWAP1 DUP2 MSTORE PUSH1 0x20 ADD PUSH0 KECCAK256 SLOAD SWAP1 POP PUSH0 PUSH0 SWAP1 POP JUMPDEST PUSH0 DUP3 GT ISZERO PUSH2 0x72B JUMPI PUSH1 0x1 DUP3 PUSH2 0x714 SWAP2 SWAP1 PUSH2 0x1255 JUMP JUMPDEST DUP3 AND SWAP2 POP DUP1 DUP1 PUSH2 0x723 SWAP1 PUSH2 0x1288 JUMP JUMPDEST SWAP2 POP POP PUSH2 0x6FF JUMP JUMPDEST DUP1 SWAP4 POP POP POP POP SWAP2 SWAP1 POP JUMP JUMPDEST PUSH1 0x1 PUSH1 0x20 MSTORE DUP1 PUSH0 MSTORE PUSH1 0x40 PUSH0 KECCAK256 PUSH0 SWAP2 POP SWAP1 POP DUP1 PUSH0 ADD SLOAD SWAP1 DUP1 PUSH1 0x1 ADD PUSH0 SWAP1 SLOAD SWAP1 PUSH2 0x100 EXP SWAP1 DIV PUSH4 0xFFFFFFFF AND SWAP1 DUP1 PUSH1 0x1 ADD PUSH1 0x4 SWAP1 SLOAD SWAP1 PUSH2 0x100 EXP SWAP1 DIV PUSH4 0xFFFFFFFF AND SWAP1 DUP1 PUSH1 0x1 ADD PUSH1 0x8 SWAP1 SLOAD SWAP1 PUSH2 0x100 EXP SWAP1 DIV PUSH4 0xFFFFFFFF AND SWAP1 DUP1 PUSH1 0x1 ADD PUSH1 0xC SWAP1 SLOAD SWAP1 PUSH2 0x100 EXP SWAP1 DIV PUSH1 0xFF AND SWAP1 DUP1 PUSH1 0x2 ADD PUSH0 SWAP1 SLOAD SWAP1 PUSH2 0x100 EXP SWAP1 DIV PUSH20 0xFFFFFFFFFFFFFFFFFFFFFFFFFFFFFFFFFFFFFFFF AND SWAP1 POP DUP7 JUMP JUMPDEST PUSH0 PUSH20 0xFFFFFFFFFFFFFFFFFFFFFFFFFFFFFFFFFFFFFFFF AND PUSH1 0x1 PUSH0 DUP4 PUSH1 0xFF AND PUSH1 0xFF AND DUP2 MSTORE PUSH1 0x20 ADD SWAP1 DUP2 MSTORE PUSH1 0x20 ADD PUSH0 KECCAK256 PUSH1 0x2 ADD PUSH0 SWAP1 SLOAD SWAP1 PUSH2 0x100 EXP SWAP1 DIV PUSH20 0xFFFFFFFFFFFFFFFFFFFFFFFFFFFFFFFFFFFFFFFF AND PUSH20 0xFFFFFFFFFFFFFFFFFFFFFFFFFFFFFFFFFFFFFFFF AND SUB PUSH2 0x866 JUMPI PUSH1 0x40 MLOAD PUSH31 0x83E5D900000000000000000000000000000000000000000000000000000000 DUP2 MSTORE PUSH1 0x4 ADD PUSH1 0x40 MLOAD DUP1 SWAP2 SUB SWAP1 REVERT JUMPDEST PUSH1 0x1 PUSH0 DUP3 PUSH1 0xFF AND PUSH1 0xFF AND DUP2 MSTORE PUSH1 0x20 ADD SWAP1 DUP2 MSTORE PUSH1 0x20 ADD PUSH0 KECCAK256 PUSH1 0x1 ADD PUSH1 0x8 SWAP1 SLOAD SWAP1 PUSH2 0x100 EXP SWAP1 DIV PUSH4 0xFFFFFFFF AND PUSH4 0xFFFFFFFF AND TIMESTAMP LT PUSH2 0x8D8 JUMPI PUSH1 0x40 MLOAD PUSH32 0x8C379A000000000000000000000000000000000000000000000000000000000 DUP2 MSTORE PUSH1 0x4 ADD PUSH2 0x8CF SWAP1 PUSH2 0x11CF JUMP JUMPDEST PUSH1 0x40 MLOAD DUP1 SWAP2 SUB SWAP1 REVERT JUMPDEST PUSH1 0x1 ISZERO ISZERO PUSH1 0x1 PUSH0 DUP4 PUSH1 0xFF AND PUSH1 0xFF AND DUP2 MSTORE PUSH1 0x20 ADD SWAP1 DUP2 MSTORE PUSH1 0x20 ADD PUSH0 KECCAK256 PUSH1 0x1 ADD PUSH1 0xC SWAP1 SLOAD SWAP1 PUSH2 0x100 EXP SWAP1 DIV PUSH1 0xFF AND ISZERO ISZERO SUB PUSH2 0x93D JUMPI PUSH1 0x40 MLOAD PUSH32 0xBD57690600000000000000000000000000000000000000000000000000000000 DUP2 MSTORE PUSH1 0x4 ADD PUSH1 0x40 MLOAD DUP1 SWAP2 SUB SWAP1 REVERT JUMPDEST CALLER PUSH20 0xFFFFFFFFFFFFFFFFFFFFFFFFFFFFFFFFFFFFFFFF AND PUSH1 0x1 PUSH0 DUP4 PUSH1 0xFF AND PUSH1 0xFF AND DUP2 MSTORE PUSH1 0x20 ADD SWAP1 DUP2 MSTORE PUSH1 0x20 ADD PUSH0 KECCAK256 PUSH1 0x2 ADD PUSH0 SWAP1 SLOAD SWAP1 PUSH2 0x100 EXP SWAP1 DIV PUSH20 0xFFFFFFFFFFFFFFFFFFFFFFFFFFFFFFFFFFFFFFFF AND PUSH20 0xFFFFFFFFFFFFFFFFFFFFFFFFFFFFFFFFFFFFFFFF AND EQ PUSH2 0x9E4 JUMPI PUSH1 0x40 MLOAD PUSH32 0x8C379A000000000000000000000000000000000000000000000000000000000 DUP2 MSTORE PUSH1 0x4 ADD PUSH2 0x9DB SWAP1 PUSH2 0x133F JUMP JUMPDEST PUSH1 0x40 MLOAD DUP1 SWAP2 SUB SWAP1 REVERT JUMPDEST PUSH1 0x1 DUP1 PUSH0 DUP4 PUSH1 0xFF AND PUSH1 0xFF AND DUP2 MSTORE PUSH1 0x20 ADD SWAP1 DUP2 MSTORE PUSH1 0x20 ADD PUSH0 KECCAK256 PUSH1 0x1 ADD PUSH1 0xC PUSH2 0x100 EXP DUP2 SLOAD DUP2 PUSH1 0xFF MUL NOT AND SWAP1 DUP4 ISZERO ISZERO MUL OR SWAP1 SSTORE POP DUP1 PUSH1 0xFF AND CALLER PUSH20 0xFFFFFFFFFFFFFFFFFFFFFFFFFFFFFFFFFFFFFFFF AND PUSH32 0xD6A216B1702D96181C2E37C4816E0EC1EC7686A4601F35B1E31961DC3EDD08A0 PUSH1 0x40 MLOAD PUSH1 0x40 MLOAD DUP1 SWAP2 SUB SWAP1 LOG3 POP JUMP JUMPDEST PUSH0 PUSH0 PUSH0 PUSH0 PUSH0 PUSH0 PUSH0 PUSH20 0xFFFFFFFFFFFFFFFFFFFFFFFFFFFFFFFFFFFFFFFF AND PUSH1 0x1 PUSH0 DUP10 PUSH1 0xFF AND PUSH1 0xFF AND DUP2 MSTORE PUSH1 0x20 ADD SWAP1 DUP2 MSTORE PUSH1 0x20 ADD PUSH0 KECCAK256 PUSH1 0x2 ADD PUSH0 SWAP1 SLOAD SWAP1 PUSH2 0x100 EXP SWAP1 DIV PUSH20 0xFFFFFFFFFFFFFFFFFFFFFFFFFFFFFFFFFFFFFFFF AND PUSH20 0xFFFFFFFFFFFFFFFFFFFFFFFFFFFFFFFFFFFFFFFF AND SUB PUSH2 0xB03 JUMPI PUSH1 0x40 MLOAD PUSH31 0x83E5D900000000000000000000000000000000000000000000000000000000 DUP2 MSTORE PUSH1 0x4 ADD PUSH1 0x40 MLOAD DUP1 SWAP2 SUB SWAP1 REVERT JUMPDEST PUSH0 PUSH1 0x1 PUSH0 DUP10 PUSH1 0xFF AND PUSH1 0xFF AND DUP2 MSTORE PUSH1 0x20 ADD SWAP1 DUP2 MSTORE PUSH1 0x20 ADD PUSH0 KECCAK256 SWAP1 POP DUP1 PUSH0 ADD SLOAD DUP2 PUSH1 0x1 ADD PUSH0 SWAP1 SLOAD SWAP1 PUSH2 0x100 EXP SWAP1 DIV PUSH4 0xFFFFFFFF AND DUP3 PUSH1 0x1 ADD PUSH1 0x4 SWAP1 SLOAD SWAP1 PUSH2 0x100 EXP SWAP1 DIV PUSH4 0xFFFFFFFF AND DUP4 PUSH1 0x1 ADD PUSH1 0x8 SWAP1 SLOAD SWAP1 PUSH2 0x100 EXP SWAP1 DIV PUSH4 0xFFFFFFFF AND DUP5 PUSH1 0x1 ADD PUSH1 0xC SWAP1 SLOAD SWAP1 PUSH2 0x100 EXP SWAP1 DIV PUSH1 0xFF AND DUP6 PUSH1 0x1 ADD PUSH1 0x4 SWAP1 SLOAD SWAP1 PUSH2 0x100 EXP SWAP1 DIV PUSH4 0xFFFFFFFF AND PUSH4 0xFFFFFFFF AND TIMESTAMP LT ISZERO DUP1 ISZERO PUSH2 0xBB5 JUMPI POP DUP6 PUSH1 0x1 ADD PUSH1 0x8 SWAP1 SLOAD SWAP1 PUSH2 0x100 EXP SWAP1 DIV PUSH4 0xFFFFFFFF AND PUSH4 0xFFFFFFFF AND TIMESTAMP GT ISZERO JUMPDEST SWAP7 POP SWAP7 POP SWAP7 POP SWAP7 POP SWAP7 POP SWAP7 POP POP SWAP2 SWAP4 SWAP6 POP SWAP2 SWAP4 SWAP6 JUMP JUMPDEST PUSH0 PUSH1 0xFF DUP3 AND SWAP1 POP SWAP2 SWAP1 POP JUMP JUMPDEST PUSH2 0xBE0 DUP2 PUSH2 0xBCB JUMP JUMPDEST DUP3 MSTORE POP POP JUMP JUMPDEST PUSH0 PUSH1 0x20 DUP3 ADD SWAP1 POP PUSH2 0xBF9 PUSH0 DUP4 ADD DUP5 PUSH2 0xBD7 JUMP JUMPDEST SWAP3 SWAP2 POP POP JUMP JUMPDEST PUSH0 PUSH1 0x40 MLOAD SWAP1 POP SWAP1 JUMP JUMPDEST PUSH0 PUSH0 REVERT JUMPDEST PUSH0 PUSH0 REVERT JUMPDEST PUSH0 PUSH0 REVERT JUMPDEST PUSH0 PUSH0 REVERT JUMPDEST PUSH0 PUSH1 0x1F NOT PUSH1 0x1F DUP4 ADD AND SWAP1 POP SWAP2 SWAP1 POP JUMP JUMPDEST PUSH32 0x4E487B7100000000000000000000000000000000000000000000000000000000 PUSH0 MSTORE PUSH1 0x41 PUSH1 0x4 MSTORE PUSH1 0x24 PUSH0 REVERT JUMPDEST PUSH2 0xC5E DUP3 PUSH2 0xC18 JUMP JUMPDEST DUP2 ADD DUP2 DUP2 LT PUSH8 0xFFFFFFFFFFFFFFFF DUP3 GT OR ISZERO PUSH2 0xC7D JUMPI PUSH2 0xC7C PUSH2 0xC28 JUMP JUMPDEST JUMPDEST DUP1 PUSH1 0x40 MSTORE POP POP POP JUMP JUMPDEST PUSH0 PUSH2 0xC8F PUSH2 0xBFF JUMP JUMPDEST SWAP1 POP PUSH2 0xC9B DUP3 DUP3 PUSH2 0xC55 JUMP JUMPDEST SWAP2 SWAP1 POP JUMP JUMPDEST PUSH0 PUSH8 0xFFFFFFFFFFFFFFFF DUP3 GT ISZERO PUSH2 0xCBA JUMPI PUSH2 0xCB9 PUSH2 0xC28 JUMP JUMPDEST JUMPDEST PUSH2 0xCC3 DUP3 PUSH2 0xC18 JUMP JUMPDEST SWAP1 POP PUSH1 0x20 DUP2 ADD SWAP1 POP SWAP2 SWAP1 POP JUMP JUMPDEST DUP3 DUP2 DUP4 CALLDATACOPY PUSH0 DUP4 DUP4 ADD MSTORE POP POP POP JUMP JUMPDEST PUSH0 PUSH2 0xCF0 PUSH2 0xCEB DUP5 PUSH2 0xCA0 JUMP JUMPDEST PUSH2 0xC86 JUMP JUMPDEST SWAP1 POP DUP3 DUP2 MSTORE PUSH1 0x20 DUP2 ADD DUP5 DUP5 DUP5 ADD GT ISZERO PUSH2 0xD0C JUMPI PUSH2 0xD0B PUSH2 0xC14 JUMP JUMPDEST JUMPDEST PUSH2 0xD17 DUP5 DUP3 DUP6 PUSH2 0xCD0 JUMP JUMPDEST POP SWAP4 SWAP3 POP POP POP JUMP JUMPDEST PUSH0 DUP3 PUSH1 0x1F DUP4 ADD SLT PUSH2 0xD33 JUMPI PUSH2 0xD32 PUSH2 0xC10 JUMP JUMPDEST JUMPDEST DUP2 CALLDATALOAD PUSH2 0xD43 DUP5 DUP3 PUSH1 0x20 DUP7 ADD PUSH2 0xCDE JUMP JUMPDEST SWAP2 POP POP SWAP3 SWAP2 POP POP JUMP JUMPDEST PUSH0 PUSH4 0xFFFFFFFF DUP3 AND SWAP1 POP SWAP2 SWAP1 POP JUMP JUMPDEST PUSH2 0xD64 DUP2 PUSH2 0xD4C JUMP JUMPDEST DUP2 EQ PUSH2 0xD6E JUMPI PUSH0 PUSH0 REVERT JUMPDEST POP JUMP JUMPDEST PUSH0 DUP2 CALLDATALOAD SWAP1 POP PUSH2 0xD7F DUP2 PUSH2 0xD5B JUMP JUMPDEST SWAP3 SWAP2 POP POP JUMP JUMPDEST PUSH0 PUSH0 PUSH1 0x40 DUP4 DUP6 SUB SLT ISZERO PUSH2 0xD9B JUMPI PUSH2 0xD9A PUSH2 0xC08 JUMP JUMPDEST JUMPDEST PUSH0 DUP4 ADD CALLDATALOAD PUSH8 0xFFFFFFFFFFFFFFFF DUP2 GT ISZERO PUSH2 0xDB8 JUMPI PUSH2 0xDB7 PUSH2 0xC0C JUMP JUMPDEST JUMPDEST PUSH2 0xDC4 DUP6 DUP3 DUP7 ADD PUSH2 0xD1F JUMP JUMPDEST SWAP3 POP POP PUSH1 0x20 PUSH2 0xDD5 DUP6 DUP3 DUP7 ADD PUSH2 0xD71 JUMP JUMPDEST SWAP2 POP POP SWAP3 POP SWAP3 SWAP1 POP JUMP JUMPDEST PUSH2 0xDE8 DUP2 PUSH2 0xBCB JUMP JUMPDEST DUP2 EQ PUSH2 0xDF2 JUMPI PUSH0 PUSH0 REVERT JUMPDEST POP JUMP JUMPDEST PUSH0 DUP2 CALLDATALOAD SWAP1 POP PUSH2 0xE03 DUP2 PUSH2 0xDDF JUMP JUMPDEST SWAP3 SWAP2 POP POP JUMP JUMPDEST PUSH0 PUSH1 0x20 DUP3 DUP5 SUB SLT ISZERO PUSH2 0xE1E JUMPI PUSH2 0xE1D PUSH2 0xC08 JUMP JUMPDEST JUMPDEST PUSH0 PUSH2 0xE2B DUP5 DUP3 DUP6 ADD PUSH2 0xDF5 JUMP JUMPDEST SWAP2 POP POP SWAP3 SWAP2 POP POP JUMP JUMPDEST PUSH0 DUP2 SWAP1 POP SWAP2 SWAP1 POP JUMP JUMPDEST PUSH2 0xE46 DUP2 PUSH2 0xE34 JUMP JUMPDEST DUP3 MSTORE POP POP JUMP JUMPDEST PUSH0 PUSH1 0x20 DUP3 ADD SWAP1 POP PUSH2 0xE5F PUSH0 DUP4 ADD DUP5 PUSH2 0xE3D JUMP JUMPDEST SWAP3 SWAP2 POP POP JUMP JUMPDEST PUSH0 DUP2 SWAP1 POP SWAP2 SWAP1 POP JUMP JUMPDEST PUSH2 0xE77 DUP2 PUSH2 0xE65 JUMP JUMPDEST DUP3 MSTORE POP POP JUMP JUMPDEST PUSH2 0xE86 DUP2 PUSH2 0xD4C JUMP JUMPDEST DUP3 MSTORE POP POP JUMP JUMPDEST PUSH0 DUP2 ISZERO ISZERO SWAP1 POP SWAP2 SWAP1 POP JUMP JUMPDEST PUSH2 0xEA0 DUP2 PUSH2 0xE8C JUMP JUMPDEST DUP3 MSTORE POP POP JUMP JUMPDEST PUSH0 PUSH20 0xFFFFFFFFFFFFFFFFFFFFFFFFFFFFFFFFFFFFFFFF DUP3 AND SWAP1 POP SWAP2 SWAP1 POP JUMP JUMPDEST PUSH0 PUSH2 0xECF DUP3 PUSH2 0xEA6 JUMP JUMPDEST SWAP1 POP SWAP2 SWAP1 POP JUMP JUMPDEST PUSH2 0xEDF DUP2 PUSH2 0xEC5 JUMP JUMPDEST DUP3 MSTORE POP POP JUMP JUMPDEST PUSH0 PUSH1 0xC0 DUP3 ADD SWAP1 POP PUSH2 0xEF8 PUSH0 DUP4 ADD DUP10 PUSH2 0xE6E JUMP JUMPDEST PUSH2 0xF05 PUSH1 0x20 DUP4 ADD DUP9 PUSH2 0xE7D JUMP JUMPDEST PUSH2 0xF12 PUSH1 0x40 DUP4 ADD DUP8 PUSH2 0xE7D JUMP JUMPDEST PUSH2 0xF1F PUSH1 0x60 DUP4 ADD DUP7 PUSH2 0xE7D JUMP JUMPDEST PUSH2 0xF2C PUSH1 0x80 DUP4 ADD DUP6 PUSH2 0xE97 JUMP JUMPDEST PUSH2 0xF39 PUSH1 0xA0 DUP4 ADD DUP5 PUSH2 0xED6 JUMP JUMPDEST SWAP8 SWAP7 POP POP POP POP POP POP POP JUMP JUMPDEST PUSH0 PUSH1 0xC0 DUP3 ADD SWAP1 POP PUSH2 0xF57 PUSH0 DUP4 ADD DUP10 PUSH2 0xE6E JUMP JUMPDEST PUSH2 0xF64 PUSH1 0x20 DUP4 ADD DUP9 PUSH2 0xE7D JUMP JUMPDEST PUSH2 0xF71 PUSH1 0x40 DUP4 ADD DUP8 PUSH2 0xE7D JUMP JUMPDEST PUSH2 0xF7E PUSH1 0x60 DUP4 ADD DUP7 PUSH2 0xE7D JUMP JUMPDEST PUSH2 0xF8B PUSH1 0x80 DUP4 ADD DUP6 PUSH2 0xE97 JUMP JUMPDEST PUSH2 0xF98 PUSH1 0xA0 DUP4 ADD DUP5 PUSH2 0xE97 JUMP JUMPDEST SWAP8 SWAP7 POP POP POP POP POP POP POP JUMP JUMPDEST PUSH0 DUP3 DUP3 MSTORE PUSH1 0x20 DUP3 ADD SWAP1 POP SWAP3 SWAP2 POP POP JUMP JUMPDEST PUSH32 0x4475726174696F6E2073686F756C642062652061746C65617374203630302073 PUSH0 DUP3 ADD MSTORE PUSH32 0x65636F6E64732E00000000000000000000000000000000000000000000000000 PUSH1 0x20 DUP3 ADD MSTORE POP JUMP JUMPDEST PUSH0 PUSH2 0x100D PUSH1 0x27 DUP4 PUSH2 0xFA3 JUMP JUMPDEST SWAP2 POP PUSH2 0x1018 DUP3 PUSH2 0xFB3 JUMP JUMPDEST PUSH1 0x40 DUP3 ADD SWAP1 POP SWAP2 SWAP1 POP JUMP JUMPDEST PUSH0 PUSH1 0x20 DUP3 ADD SWAP1 POP DUP2 DUP2 SUB PUSH0 DUP4 ADD MSTORE PUSH2 0x103A DUP2 PUSH2 0x1001 JUMP JUMPDEST SWAP1 POP SWAP2 SWAP1 POP JUMP JUMPDEST PUSH0 DUP2 MLOAD SWAP1 POP SWAP2 SWAP1 POP JUMP JUMPDEST PUSH0 DUP2 SWAP1 POP PUSH1 0x20 DUP3 ADD SWAP1 POP SWAP2 SWAP1 POP JUMP JUMPDEST PUSH0 PUSH2 0x1065 DUP3 MLOAD PUSH2 0xE65 JUMP JUMPDEST DUP1 SWAP2 POP POP SWAP2 SWAP1 POP JUMP JUMPDEST PUSH0 DUP3 DUP3 SHL SWAP1 POP SWAP3 SWAP2 POP POP JUMP JUMPDEST PUSH0 PUSH2 0x1084 DUP3 PUSH2 0x1041 JUMP JUMPDEST DUP3 PUSH2 0x108E DUP5 PUSH2 0x104B JUMP JUMPDEST SWAP1 POP PUSH2 0x1099 DUP2 PUSH2 0x105A JUMP JUMPDEST SWAP3 POP PUSH1 0x20 DUP3 LT ISZERO PUSH2 0x10D9 JUMPI PUSH2 0x10D4 PUSH32 0xFFFFFFFFFFFFFFFFFFFFFFFFFFFFFFFFFFFFFFFFFFFFFFFFFFFFFFFFFFFFFFFF DUP4 PUSH1 0x20 SUB PUSH1 0x8 MUL PUSH2 0x106E JUMP JUMPDEST DUP4 AND SWAP3 POP JUMPDEST POP POP SWAP2 SWAP1 POP JUMP JUMPDEST PUSH32 0x4E487B7100000000000000000000000000000000000000000000000000000000 PUSH0 MSTORE PUSH1 0x11 PUSH1 0x4 MSTORE PUSH1 0x24 PUSH0 REVERT JUMPDEST PUSH0 PUSH2 0x1117 DUP3 PUSH2 0xD4C JUMP JUMPDEST SWAP2 POP PUSH2 0x1122 DUP4 PUSH2 0xD4C JUMP JUMPDEST SWAP3 POP DUP3 DUP3 ADD SWAP1 POP PUSH4 0xFFFFFFFF DUP2 GT ISZERO PUSH2 0x113E JUMPI PUSH2 0x113D PUSH2 0x10E0 JUMP JUMPDEST JUMPDEST SWAP3 SWAP2 POP POP JUMP JUMPDEST PUSH0 PUSH1 0x20 DUP3 ADD SWAP1 POP PUSH2 0x1157 PUSH0 DUP4 ADD DUP5 PUSH2 0xE6E JUMP JUMPDEST SWAP3 SWAP2 POP POP JUMP JUMPDEST PUSH0 PUSH2 0x1167 DUP3 PUSH2 0xBCB JUMP JUMPDEST SWAP2 POP PUSH1 0xFF DUP3 SUB PUSH2 0x117A JUMPI PUSH2 0x1179 PUSH2 0x10E0 JUMP JUMPDEST JUMPDEST PUSH1 0x1 DUP3 ADD SWAP1 POP SWAP2 SWAP1 POP JUMP JUMPDEST PUSH32 0x50726F706F73616C20656E6465642E0000000000000000000000000000000000 PUSH0 DUP3 ADD MSTORE POP JUMP JUMPDEST PUSH0 PUSH2 0x11B9 PUSH1 0xF DUP4 PUSH2 0xFA3 JUMP JUMPDEST SWAP2 POP PUSH2 0x11C4 DUP3 PUSH2 0x1185 JUMP JUMPDEST PUSH1 0x20 DUP3 ADD SWAP1 POP SWAP2 SWAP1 POP JUMP JUMPDEST PUSH0 PUSH1 0x20 DUP3 ADD SWAP1 POP DUP2 DUP2 SUB PUSH0 DUP4 ADD MSTORE PUSH2 0x11E6 DUP2 PUSH2 0x11AD JUMP JUMPDEST SWAP1 POP SWAP2 SWAP1 POP JUMP JUMPDEST PUSH32 0x50726F706F73616C204944732066726F6D2031202D2032353500000000000000 PUSH0 DUP3 ADD MSTORE POP JUMP JUMPDEST PUSH0 PUSH2 0x1221 PUSH1 0x19 DUP4 PUSH2 0xFA3 JUMP JUMPDEST SWAP2 POP PUSH2 0x122C DUP3 PUSH2 0x11ED JUMP JUMPDEST PUSH1 0x20 DUP3 ADD SWAP1 POP SWAP2 SWAP1 POP JUMP JUMPDEST PUSH0 PUSH1 0x20 DUP3 ADD SWAP1 POP DUP2 DUP2 SUB PUSH0 DUP4 ADD MSTORE PUSH2 0x124E DUP2 PUSH2 0x1215 JUMP JUMPDEST SWAP1 POP SWAP2 SWAP1 POP JUMP JUMPDEST PUSH0 PUSH2 0x125F DUP3 PUSH2 0xE34 JUMP JUMPDEST SWAP2 POP PUSH2 0x126A DUP4 PUSH2 0xE34 JUMP JUMPDEST SWAP3 POP DUP3 DUP3 SUB SWAP1 POP DUP2 DUP2 GT ISZERO PUSH2 0x1282 JUMPI PUSH2 0x1281 PUSH2 0x10E0 JUMP JUMPDEST JUMPDEST SWAP3 SWAP2 POP POP JUMP JUMPDEST PUSH0 PUSH2 0x1292 DUP3 PUSH2 0xE34 JUMP JUMPDEST SWAP2 POP PUSH32 0xFFFFFFFFFFFFFFFFFFFFFFFFFFFFFFFFFFFFFFFFFFFFFFFFFFFFFFFFFFFFFFFF DUP3 SUB PUSH2 0x12C4 JUMPI PUSH2 0x12C3 PUSH2 0x10E0 JUMP JUMPDEST JUMPDEST PUSH1 0x1 DUP3 ADD SWAP1 POP SWAP2 SWAP1 POP JUMP JUMPDEST PUSH32 0x4F6E6C79206F776E65722063616E2065786563757465207468652070726F706F PUSH0 DUP3 ADD MSTORE PUSH32 0x73616C732E000000000000000000000000000000000000000000000000000000 PUSH1 0x20 DUP3 ADD MSTORE POP JUMP JUMPDEST PUSH0 PUSH2 0x1329 PUSH1 0x25 DUP4 PUSH2 0xFA3 JUMP JUMPDEST SWAP2 POP PUSH2 0x1334 DUP3 PUSH2 0x12CF JUMP JUMPDEST PUSH1 0x40 DUP3 ADD SWAP1 POP SWAP2 SWAP1 POP JUMP JUMPDEST PUSH0 PUSH1 0x20 DUP3 ADD SWAP1 POP DUP2 DUP2 SUB PUSH0 DUP4 ADD MSTORE PUSH2 0x1356 DUP2 PUSH2 0x131D JUMP JUMPDEST SWAP1 POP SWAP2 SWAP1 POP JUMP INVALID LOG2 PUSH5 0x6970667358 0x22 SLT KECCAK256 0xDB LOG1 DUP8 0xCB 0xDE 0x2E CALLF 0x1E82 PUSH8 0x631067C8B9706133 TLOAD 0xAE GASLIMIT SWAP8 0x2D SWAP11 EXTDELEGATECALL 0xEB 0xED BYTE PUSH12 0x18FBC964736F6C634300081F STOP CALLER "
				},
				"gasEstimates": {
					"creation": {
						"codeDepositCost": "1002200",
						"executionCost": "25304",
						"totalCost": "1027504"
					},
					"external": {
						"createProposal(string,uint32)": "infinite",
						"executeProposal(uint8)": "35577",
						"getProposal(uint8)": "infinite",
						"proposalCounts()": "2443",
						"proposals(uint8)": "infinite",
						"voteProposal(uint8)": "infinite"
					}
				},
				"methodIdentifiers": {
					"createProposal(string,uint32)": "655a61e5",
					"executeProposal(uint8)": "b62f72f3",
					"getProposal(uint8)": "dac001fe",
					"proposalCounts()": "4a91da48",
					"proposals(uint8)": "84acf0f5",
					"voteProposal(uint8)": "81cadf5e"
				}
			},
			"storageLayout": {
				"storage": [
					{
						"astId": 27,
						"contract": "015-Gas Saver Voting/GasEfficientVoting.sol:GasEfficientVoting",
						"label": "proposalCounts",
						"offset": 0,
						"slot": "0",
						"type": "t_uint8"
					},
					{
						"astId": 32,
						"contract": "015-Gas Saver Voting/GasEfficientVoting.sol:GasEfficientVoting",
						"label": "proposals",
						"offset": 0,
						"slot": "1",
						"type": "t_mapping(t_uint8,t_struct(Proposal)14_storage)"
					},
					{
						"astId": 36,
						"contract": "015-Gas Saver Voting/GasEfficientVoting.sol:GasEfficientVoting",
						"label": "voteRegistry",
						"offset": 0,
						"slot": "2",
						"type": "t_mapping(t_address,t_uint256)"
					}
				],
				"types": {
					"t_address": {
						"encoding": "inplace",
						"label": "address",
						"numberOfBytes": "20"
					},
					"t_bool": {
						"encoding": "inplace",
						"label": "bool",
						"numberOfBytes": "1"
					},
					"t_bytes32": {
						"encoding": "inplace",
						"label": "bytes32",
						"numberOfBytes": "32"
					},
					"t_mapping(t_address,t_uint256)": {
						"encoding": "mapping",
						"key": "t_address",
						"label": "mapping(address => uint256)",
						"numberOfBytes": "32",
						"value": "t_uint256"
					},
					"t_mapping(t_uint8,t_struct(Proposal)14_storage)": {
						"encoding": "mapping",
						"key": "t_uint8",
						"label": "mapping(uint8 => struct Proposal)",
						"numberOfBytes": "32",
						"value": "t_struct(Proposal)14_storage"
					},
					"t_struct(Proposal)14_storage": {
						"encoding": "inplace",
						"label": "struct Proposal",
						"members": [
							{
								"astId": 3,
								"contract": "015-Gas Saver Voting/GasEfficientVoting.sol:GasEfficientVoting",
								"label": "name",
								"offset": 0,
								"slot": "0",
								"type": "t_bytes32"
							},
							{
								"astId": 5,
								"contract": "015-Gas Saver Voting/GasEfficientVoting.sol:GasEfficientVoting",
								"label": "voteCounts",
								"offset": 0,
								"slot": "1",
								"type": "t_uint32"
							},
							{
								"astId": 7,
								"contract": "015-Gas Saver Voting/GasEfficientVoting.sol:GasEfficientVoting",
								"label": "startTime",
								"offset": 4,
								"slot": "1",
								"type": "t_uint32"
							},
							{
								"astId": 9,
								"contract": "015-Gas Saver Voting/GasEfficientVoting.sol:GasEfficientVoting",
								"label": "endTime",
								"offset": 8,
								"slot": "1",
								"type": "t_uint32"
							},
							{
								"astId": 11,
								"contract": "015-Gas Saver Voting/GasEfficientVoting.sol:GasEfficientVoting",
								"label": "votingEnded",
								"offset": 12,
								"slot": "1",
								"type": "t_bool"
							},
							{
								"astId": 13,
								"contract": "015-Gas Saver Voting/GasEfficientVoting.sol:GasEfficientVoting",
								"label": "owner",
								"offset": 0,
								"slot": "2",
								"type": "t_address"
							}
						],
						"numberOfBytes": "96"
					},
					"t_uint256": {
						"encoding": "inplace",
						"label": "uint256",
						"numberOfBytes": "32"
					},
					"t_uint32": {
						"encoding": "inplace",
						"label": "uint32",
						"numberOfBytes": "4"
					},
					"t_uint8": {
						"encoding": "inplace",
						"label": "uint8",
						"numberOfBytes": "1"
					}
				}
			},
			"userdoc": {
				"kind": "user",
				"methods": {},
				"version": 1
			}
		}
	}
}