{
	"015-Gas Saver Voting/Voting.sol": {
		"Voting": {
			"abi": [
				{
					"inputs": [
						{
							"internalType": "string",
							"name": "name",
							"type": "string"
						},
						{
							"internalType": "uint256",
							"name": "durationInSec",
							"type": "uint256"
						}
					],
					"name": "createProposal",
					"outputs": [],
					"stateMutability": "nonpayable",
					"type": "function"
				},
				{
					"inputs": [
						{
							"internalType": "uint256",
							"name": "proposalIndex",
							"type": "uint256"
						}
					],
					"name": "executeProposal",
					"outputs": [],
					"stateMutability": "nonpayable",
					"type": "function"
				},
				{
					"inputs": [
						{
							"internalType": "uint256",
							"name": "proposalIndex",
							"type": "uint256"
						}
					],
					"name": "makeVote",
					"outputs": [],
					"stateMutability": "nonpayable",
					"type": "function"
				},
				{
					"inputs": [
						{
							"internalType": "uint256",
							"name": "",
							"type": "uint256"
						}
					],
					"name": "proposals",
					"outputs": [
						{
							"internalType": "string",
							"name": "name",
							"type": "string"
						},
						{
							"internalType": "uint256",
							"name": "counts",
							"type": "uint256"
						},
						{
							"internalType": "uint256",
							"name": "startTime",
							"type": "uint256"
						},
						{
							"internalType": "uint256",
							"name": "endTime",
							"type": "uint256"
						},
						{
							"internalType": "bool",
							"name": "ended",
							"type": "bool"
						}
					],
					"stateMutability": "view",
					"type": "function"
				}
			],
			"devdoc": {
				"kind": "dev",
				"methods": {},
				"version": 1
			},
			"evm": {
				"assembly": "    /* \"015-Gas Saver Voting/Voting.sol\":621:1810  contract Voting {... */\n  mstore(0x40, 0x80)\n  callvalue\n  dup1\n  iszero\n  tag_1\n  jumpi\n  revert(0x00, 0x00)\ntag_1:\n  pop\n  dataSize(sub_0)\n  dup1\n  dataOffset(sub_0)\n  0x00\n  codecopy\n  0x00\n  return\nstop\n\nsub_0: assembly {\n        /* \"015-Gas Saver Voting/Voting.sol\":621:1810  contract Voting {... */\n      mstore(0x40, 0x80)\n      callvalue\n      dup1\n      iszero\n      tag_1\n      jumpi\n      revert(0x00, 0x00)\n    tag_1:\n      pop\n      jumpi(tag_2, lt(calldatasize, 0x04))\n      shr(0xe0, calldataload(0x00))\n      dup1\n      0x013cf08b\n      eq\n      tag_3\n      jumpi\n      dup1\n      0x0d61b519\n      eq\n      tag_4\n      jumpi\n      dup1\n      0x35facf78\n      eq\n      tag_5\n      jumpi\n      dup1\n      0x3eaf7591\n      eq\n      tag_6\n      jumpi\n    tag_2:\n      revert(0x00, 0x00)\n        /* \"015-Gas Saver Voting/Voting.sol\":644:671  Proposal[] public proposals */\n    tag_3:\n      tag_7\n      0x04\n      dup1\n      calldatasize\n      sub\n      dup2\n      add\n      swap1\n      tag_8\n      swap2\n      swap1\n      tag_9\n      jump\t// in\n    tag_8:\n      tag_10\n      jump\t// in\n    tag_7:\n      mload(0x40)\n      tag_11\n      swap6\n      swap5\n      swap4\n      swap3\n      swap2\n      swap1\n      tag_12\n      jump\t// in\n    tag_11:\n      mload(0x40)\n      dup1\n      swap2\n      sub\n      swap1\n      return\n        /* \"015-Gas Saver Voting/Voting.sol\":1483:1808  function executeProposal(uint256 proposalIndex) public {... */\n    tag_4:\n      tag_13\n      0x04\n      dup1\n      calldatasize\n      sub\n      dup2\n      add\n      swap1\n      tag_14\n      swap2\n      swap1\n      tag_9\n      jump\t// in\n    tag_14:\n      tag_15\n      jump\t// in\n    tag_13:\n      stop\n        /* \"015-Gas Saver Voting/Voting.sol\":744:1106  function createProposal(... */\n    tag_5:\n      tag_16\n      0x04\n      dup1\n      calldatasize\n      sub\n      dup2\n      add\n      swap1\n      tag_17\n      swap2\n      swap1\n      tag_18\n      jump\t// in\n    tag_17:\n      tag_19\n      jump\t// in\n    tag_16:\n      stop\n        /* \"015-Gas Saver Voting/Voting.sol\":1112:1477  function makeVote(uint256 proposalIndex) public {... */\n    tag_6:\n      tag_20\n      0x04\n      dup1\n      calldatasize\n      sub\n      dup2\n      add\n      swap1\n      tag_21\n      swap2\n      swap1\n      tag_9\n      jump\t// in\n    tag_21:\n      tag_22\n      jump\t// in\n    tag_20:\n      stop\n        /* \"015-Gas Saver Voting/Voting.sol\":644:671  Proposal[] public proposals */\n    tag_10:\n      0x00\n      dup2\n      dup2\n      sload\n      dup2\n      lt\n      tag_23\n      jumpi\n      0x00\n      dup1\n      revert\n    tag_23:\n      swap1\n      0x00\n      mstore\n      keccak256(0x00, 0x20)\n      swap1\n      0x05\n      mul\n      add\n      0x00\n      swap2\n      pop\n      swap1\n      pop\n      dup1\n      0x00\n      add\n      dup1\n      sload\n      tag_25\n      swap1\n      tag_26\n      jump\t// in\n    tag_25:\n      dup1\n      0x1f\n      add\n      0x20\n      dup1\n      swap2\n      div\n      mul\n      0x20\n      add\n      mload(0x40)\n      swap1\n      dup2\n      add\n      0x40\n      mstore\n      dup1\n      swap3\n      swap2\n      swap1\n      dup2\n      dup2\n      mstore\n      0x20\n      add\n      dup3\n      dup1\n      sload\n      tag_27\n      swap1\n      tag_26\n      jump\t// in\n    tag_27:\n      dup1\n      iszero\n      tag_28\n      jumpi\n      dup1\n      0x1f\n      lt\n      tag_29\n      jumpi\n      0x0100\n      dup1\n      dup4\n      sload\n      div\n      mul\n      dup4\n      mstore\n      swap2\n      0x20\n      add\n      swap2\n      jump(tag_28)\n    tag_29:\n      dup3\n      add\n      swap2\n      swap1\n      0x00\n      mstore\n      keccak256(0x00, 0x20)\n      swap1\n    tag_30:\n      dup2\n      sload\n      dup2\n      mstore\n      swap1\n      0x01\n      add\n      swap1\n      0x20\n      add\n      dup1\n      dup4\n      gt\n      tag_30\n      jumpi\n      dup3\n      swap1\n      sub\n      0x1f\n      and\n      dup3\n      add\n      swap2\n    tag_28:\n      pop\n      pop\n      pop\n      pop\n      pop\n      swap1\n      dup1\n      0x01\n      add\n      sload\n      swap1\n      dup1\n      0x02\n      add\n      sload\n      swap1\n      dup1\n      0x03\n      add\n      sload\n      swap1\n      dup1\n      0x04\n      add\n      0x00\n      swap1\n      sload\n      swap1\n      0x0100\n      exp\n      swap1\n      div\n      0xff\n      and\n      swap1\n      pop\n      dup6\n      jump\t// out\n        /* \"015-Gas Saver Voting/Voting.sol\":1483:1808  function executeProposal(uint256 proposalIndex) public {... */\n    tag_15:\n        /* \"015-Gas Saver Voting/Voting.sol\":1592:1593  0 */\n      0x00\n        /* \"015-Gas Saver Voting/Voting.sol\":1556:1565  proposals */\n      0x00\n        /* \"015-Gas Saver Voting/Voting.sol\":1566:1579  proposalIndex */\n      dup3\n        /* \"015-Gas Saver Voting/Voting.sol\":1556:1580  proposals[proposalIndex] */\n      dup2\n      sload\n      dup2\n      lt\n      tag_32\n      jumpi\n      tag_33\n      tag_34\n      jump\t// in\n    tag_33:\n    tag_32:\n      swap1\n      0x00\n      mstore\n      keccak256(0x00, 0x20)\n      swap1\n      0x05\n      mul\n      add\n        /* \"015-Gas Saver Voting/Voting.sol\":1556:1590  proposals[proposalIndex].startTime */\n      0x02\n      add\n      sload\n        /* \"015-Gas Saver Voting/Voting.sol\":1556:1593  proposals[proposalIndex].startTime==0 */\n      eq\n        /* \"015-Gas Saver Voting/Voting.sol\":1548:1621  require(proposals[proposalIndex].startTime==0, \"Proposal doesn't exists\") */\n      tag_36\n      jumpi\n      mload(0x40)\n      0x08c379a000000000000000000000000000000000000000000000000000000000\n      dup2\n      mstore\n      0x04\n      add\n      tag_37\n      swap1\n      tag_38\n      jump\t// in\n    tag_37:\n      mload(0x40)\n      dup1\n      swap2\n      sub\n      swap1\n      revert\n    tag_36:\n        /* \"015-Gas Saver Voting/Voting.sol\":1639:1648  proposals */\n      0x00\n        /* \"015-Gas Saver Voting/Voting.sol\":1649:1662  proposalIndex */\n      dup2\n        /* \"015-Gas Saver Voting/Voting.sol\":1639:1663  proposals[proposalIndex] */\n      dup2\n      sload\n      dup2\n      lt\n      tag_39\n      jumpi\n      tag_40\n      tag_34\n      jump\t// in\n    tag_40:\n    tag_39:\n      swap1\n      0x00\n      mstore\n      keccak256(0x00, 0x20)\n      swap1\n      0x05\n      mul\n      add\n        /* \"015-Gas Saver Voting/Voting.sol\":1639:1669  proposals[proposalIndex].ended */\n      0x04\n      add\n      0x00\n      swap1\n      sload\n      swap1\n      0x0100\n      exp\n      swap1\n      div\n      0xff\n      and\n        /* \"015-Gas Saver Voting/Voting.sol\":1639:1723  proposals[proposalIndex].ended || block.timestamp > proposals[proposalIndex].endTime */\n      dup1\n      tag_42\n      jumpi\n      pop\n        /* \"015-Gas Saver Voting/Voting.sol\":1691:1700  proposals */\n      0x00\n        /* \"015-Gas Saver Voting/Voting.sol\":1701:1714  proposalIndex */\n      dup2\n        /* \"015-Gas Saver Voting/Voting.sol\":1691:1715  proposals[proposalIndex] */\n      dup2\n      sload\n      dup2\n      lt\n      tag_43\n      jumpi\n      tag_44\n      tag_34\n      jump\t// in\n    tag_44:\n    tag_43:\n      swap1\n      0x00\n      mstore\n      keccak256(0x00, 0x20)\n      swap1\n      0x05\n      mul\n      add\n        /* \"015-Gas Saver Voting/Voting.sol\":1691:1723  proposals[proposalIndex].endTime */\n      0x03\n      add\n      sload\n        /* \"015-Gas Saver Voting/Voting.sol\":1673:1688  block.timestamp */\n      timestamp\n        /* \"015-Gas Saver Voting/Voting.sol\":1673:1723  block.timestamp > proposals[proposalIndex].endTime */\n      gt\n        /* \"015-Gas Saver Voting/Voting.sol\":1639:1723  proposals[proposalIndex].ended || block.timestamp > proposals[proposalIndex].endTime */\n    tag_42:\n        /* \"015-Gas Saver Voting/Voting.sol\":1631:1751  require(proposals[proposalIndex].ended || block.timestamp > proposals[proposalIndex].endTime, \"Proposal already ended!\") */\n      tag_46\n      jumpi\n      mload(0x40)\n      0x08c379a000000000000000000000000000000000000000000000000000000000\n      dup2\n      mstore\n      0x04\n      add\n      tag_47\n      swap1\n      tag_48\n      jump\t// in\n    tag_47:\n      mload(0x40)\n      dup1\n      swap2\n      sub\n      swap1\n      revert\n    tag_46:\n        /* \"015-Gas Saver Voting/Voting.sol\":1794:1798  true */\n      0x01\n        /* \"015-Gas Saver Voting/Voting.sol\":1761:1770  proposals */\n      0x00\n        /* \"015-Gas Saver Voting/Voting.sol\":1771:1784  proposalIndex */\n      dup3\n        /* \"015-Gas Saver Voting/Voting.sol\":1761:1785  proposals[proposalIndex] */\n      dup2\n      sload\n      dup2\n      lt\n      tag_49\n      jumpi\n      tag_50\n      tag_34\n      jump\t// in\n    tag_50:\n    tag_49:\n      swap1\n      0x00\n      mstore\n      keccak256(0x00, 0x20)\n      swap1\n      0x05\n      mul\n      add\n        /* \"015-Gas Saver Voting/Voting.sol\":1761:1791  proposals[proposalIndex].ended */\n      0x04\n      add\n      0x00\n        /* \"015-Gas Saver Voting/Voting.sol\":1761:1798  proposals[proposalIndex].ended = true */\n      0x0100\n      exp\n      dup2\n      sload\n      dup2\n      0xff\n      mul\n      not\n      and\n      swap1\n      dup4\n      iszero\n      iszero\n      mul\n      or\n      swap1\n      sstore\n      pop\n        /* \"015-Gas Saver Voting/Voting.sol\":1483:1808  function executeProposal(uint256 proposalIndex) public {... */\n      pop\n      jump\t// out\n        /* \"015-Gas Saver Voting/Voting.sol\":744:1106  function createProposal(... */\n    tag_19:\n        /* \"015-Gas Saver Voting/Voting.sol\":850:874  Proposal memory proposal */\n      0x00\n        /* \"015-Gas Saver Voting/Voting.sol\":877:1065  Proposal({... */\n      mload(0x40)\n      dup1\n      0xa0\n      add\n      0x40\n      mstore\n      dup1\n        /* \"015-Gas Saver Voting/Voting.sol\":906:910  name */\n      dup5\n        /* \"015-Gas Saver Voting/Voting.sol\":877:1065  Proposal({... */\n      dup2\n      mstore\n      0x20\n      add\n        /* \"015-Gas Saver Voting/Voting.sol\":933:934  0 */\n      0x00\n        /* \"015-Gas Saver Voting/Voting.sol\":877:1065  Proposal({... */\n      dup2\n      mstore\n      0x20\n      add\n        /* \"015-Gas Saver Voting/Voting.sol\":959:974  block.timestamp */\n      timestamp\n        /* \"015-Gas Saver Voting/Voting.sol\":877:1065  Proposal({... */\n      dup2\n      mstore\n      0x20\n      add\n        /* \"015-Gas Saver Voting/Voting.sol\":1015:1028  durationInSec */\n      dup4\n        /* \"015-Gas Saver Voting/Voting.sol\":997:1012  block.timestamp */\n      timestamp\n        /* \"015-Gas Saver Voting/Voting.sol\":997:1028  block.timestamp + durationInSec */\n      tag_53\n      swap2\n      swap1\n      tag_54\n      jump\t// in\n    tag_53:\n        /* \"015-Gas Saver Voting/Voting.sol\":877:1065  Proposal({... */\n      dup2\n      mstore\n      0x20\n      add\n        /* \"015-Gas Saver Voting/Voting.sol\":1049:1054  false */\n      0x00\n        /* \"015-Gas Saver Voting/Voting.sol\":877:1065  Proposal({... */\n      iszero\n      iszero\n      dup2\n      mstore\n      pop\n        /* \"015-Gas Saver Voting/Voting.sol\":850:1065  Proposal memory proposal = Proposal({... */\n      swap1\n      pop\n        /* \"015-Gas Saver Voting/Voting.sol\":1075:1084  proposals */\n      0x00\n        /* \"015-Gas Saver Voting/Voting.sol\":1090:1098  proposal */\n      dup2\n        /* \"015-Gas Saver Voting/Voting.sol\":1075:1099  proposals.push(proposal) */\n      swap1\n      dup1\n      0x01\n      dup2\n      sload\n      add\n      dup1\n      dup3\n      sstore\n      dup1\n      swap2\n      pop\n      pop\n      0x01\n      swap1\n      sub\n      swap1\n      0x00\n      mstore\n      keccak256(0x00, 0x20)\n      swap1\n      0x05\n      mul\n      add\n      0x00\n      swap1\n      swap2\n      swap1\n      swap2\n      swap1\n      swap2\n      pop\n      0x00\n      dup3\n      add\n      mload\n      dup2\n      0x00\n      add\n      swap1\n      dup2\n      tag_56\n      swap2\n      swap1\n      tag_57\n      jump\t// in\n    tag_56:\n      pop\n      0x20\n      dup3\n      add\n      mload\n      dup2\n      0x01\n      add\n      sstore\n      0x40\n      dup3\n      add\n      mload\n      dup2\n      0x02\n      add\n      sstore\n      0x60\n      dup3\n      add\n      mload\n      dup2\n      0x03\n      add\n      sstore\n      0x80\n      dup3\n      add\n      mload\n      dup2\n      0x04\n      add\n      exp(0x0100, 0x00)\n      dup2\n      sload\n      dup2\n      0xff\n      mul\n      not\n      and\n      swap1\n      dup4\n      iszero\n      iszero\n      mul\n      or\n      swap1\n      sstore\n      pop\n      pop\n      pop\n        /* \"015-Gas Saver Voting/Voting.sol\":840:1106  {... */\n      pop\n        /* \"015-Gas Saver Voting/Voting.sol\":744:1106  function createProposal(... */\n      pop\n      pop\n      jump\t// out\n        /* \"015-Gas Saver Voting/Voting.sol\":1112:1477  function makeVote(uint256 proposalIndex) public {... */\n    tag_22:\n        /* \"015-Gas Saver Voting/Voting.sol\":1215:1216  0 */\n      0x00\n        /* \"015-Gas Saver Voting/Voting.sol\":1179:1188  proposals */\n      0x00\n        /* \"015-Gas Saver Voting/Voting.sol\":1189:1202  proposalIndex */\n      dup3\n        /* \"015-Gas Saver Voting/Voting.sol\":1179:1203  proposals[proposalIndex] */\n      dup2\n      sload\n      dup2\n      lt\n      tag_59\n      jumpi\n      tag_60\n      tag_34\n      jump\t// in\n    tag_60:\n    tag_59:\n      swap1\n      0x00\n      mstore\n      keccak256(0x00, 0x20)\n      swap1\n      0x05\n      mul\n      add\n        /* \"015-Gas Saver Voting/Voting.sol\":1179:1213  proposals[proposalIndex].startTime */\n      0x02\n      add\n      sload\n        /* \"015-Gas Saver Voting/Voting.sol\":1179:1216  proposals[proposalIndex].startTime==0 */\n      eq\n        /* \"015-Gas Saver Voting/Voting.sol\":1171:1244  require(proposals[proposalIndex].startTime==0, \"Proposal doesn't exists\") */\n      tag_62\n      jumpi\n      mload(0x40)\n      0x08c379a000000000000000000000000000000000000000000000000000000000\n      dup2\n      mstore\n      0x04\n      add\n      tag_63\n      swap1\n      tag_38\n      jump\t// in\n    tag_63:\n      mload(0x40)\n      dup1\n      swap2\n      sub\n      swap1\n      revert\n    tag_62:\n        /* \"015-Gas Saver Voting/Voting.sol\":1262:1271  proposals */\n      0x00\n        /* \"015-Gas Saver Voting/Voting.sol\":1272:1285  proposalIndex */\n      dup2\n        /* \"015-Gas Saver Voting/Voting.sol\":1262:1286  proposals[proposalIndex] */\n      dup2\n      sload\n      dup2\n      lt\n      tag_64\n      jumpi\n      tag_65\n      tag_34\n      jump\t// in\n    tag_65:\n    tag_64:\n      swap1\n      0x00\n      mstore\n      keccak256(0x00, 0x20)\n      swap1\n      0x05\n      mul\n      add\n        /* \"015-Gas Saver Voting/Voting.sol\":1262:1292  proposals[proposalIndex].ended */\n      0x04\n      add\n      0x00\n      swap1\n      sload\n      swap1\n      0x0100\n      exp\n      swap1\n      div\n      0xff\n      and\n        /* \"015-Gas Saver Voting/Voting.sol\":1262:1346  proposals[proposalIndex].ended || block.timestamp > proposals[proposalIndex].endTime */\n      dup1\n      tag_67\n      jumpi\n      pop\n        /* \"015-Gas Saver Voting/Voting.sol\":1314:1323  proposals */\n      0x00\n        /* \"015-Gas Saver Voting/Voting.sol\":1324:1337  proposalIndex */\n      dup2\n        /* \"015-Gas Saver Voting/Voting.sol\":1314:1338  proposals[proposalIndex] */\n      dup2\n      sload\n      dup2\n      lt\n      tag_68\n      jumpi\n      tag_69\n      tag_34\n      jump\t// in\n    tag_69:\n    tag_68:\n      swap1\n      0x00\n      mstore\n      keccak256(0x00, 0x20)\n      swap1\n      0x05\n      mul\n      add\n        /* \"015-Gas Saver Voting/Voting.sol\":1314:1346  proposals[proposalIndex].endTime */\n      0x03\n      add\n      sload\n        /* \"015-Gas Saver Voting/Voting.sol\":1296:1311  block.timestamp */\n      timestamp\n        /* \"015-Gas Saver Voting/Voting.sol\":1296:1346  block.timestamp > proposals[proposalIndex].endTime */\n      gt\n        /* \"015-Gas Saver Voting/Voting.sol\":1262:1346  proposals[proposalIndex].ended || block.timestamp > proposals[proposalIndex].endTime */\n    tag_67:\n        /* \"015-Gas Saver Voting/Voting.sol\":1254:1374  require(proposals[proposalIndex].ended || block.timestamp > proposals[proposalIndex].endTime, \"Proposal already ended!\") */\n      tag_71\n      jumpi\n      mload(0x40)\n      0x08c379a000000000000000000000000000000000000000000000000000000000\n      dup2\n      mstore\n      0x04\n      add\n      tag_72\n      swap1\n      tag_48\n      jump\t// in\n    tag_72:\n      mload(0x40)\n      dup1\n      swap2\n      sub\n      swap1\n      revert\n    tag_71:\n        /* \"015-Gas Saver Voting/Voting.sol\":1423:1427  true */\n      0x01\n        /* \"015-Gas Saver Voting/Voting.sol\":1384:1393  usersVote */\n      dup1\n        /* \"015-Gas Saver Voting/Voting.sol\":1384:1405  usersVote[msg.sender] */\n      0x00\n        /* \"015-Gas Saver Voting/Voting.sol\":1394:1404  msg.sender */\n      caller\n        /* \"015-Gas Saver Voting/Voting.sol\":1384:1405  usersVote[msg.sender] */\n      0xffffffffffffffffffffffffffffffffffffffff\n      and\n      0xffffffffffffffffffffffffffffffffffffffff\n      and\n      dup2\n      mstore\n      0x20\n      add\n      swap1\n      dup2\n      mstore\n      0x20\n      add\n      0x00\n      keccak256\n        /* \"015-Gas Saver Voting/Voting.sol\":1384:1420  usersVote[msg.sender][proposalIndex] */\n      0x00\n        /* \"015-Gas Saver Voting/Voting.sol\":1406:1419  proposalIndex */\n      dup4\n        /* \"015-Gas Saver Voting/Voting.sol\":1384:1420  usersVote[msg.sender][proposalIndex] */\n      dup2\n      mstore\n      0x20\n      add\n      swap1\n      dup2\n      mstore\n      0x20\n      add\n      0x00\n      keccak256\n      0x00\n        /* \"015-Gas Saver Voting/Voting.sol\":1384:1427  usersVote[msg.sender][proposalIndex] = true */\n      0x0100\n      exp\n      dup2\n      sload\n      dup2\n      0xff\n      mul\n      not\n      and\n      swap1\n      dup4\n      iszero\n      iszero\n      mul\n      or\n      swap1\n      sstore\n      pop\n        /* \"015-Gas Saver Voting/Voting.sol\":1437:1446  proposals */\n      0x00\n        /* \"015-Gas Saver Voting/Voting.sol\":1447:1460  proposalIndex */\n      dup2\n        /* \"015-Gas Saver Voting/Voting.sol\":1437:1461  proposals[proposalIndex] */\n      dup2\n      sload\n      dup2\n      lt\n      tag_73\n      jumpi\n      tag_74\n      tag_34\n      jump\t// in\n    tag_74:\n    tag_73:\n      swap1\n      0x00\n      mstore\n      keccak256(0x00, 0x20)\n      swap1\n      0x05\n      mul\n      add\n        /* \"015-Gas Saver Voting/Voting.sol\":1437:1468  proposals[proposalIndex].counts */\n      0x01\n      add\n      0x00\n        /* \"015-Gas Saver Voting/Voting.sol\":1437:1470  proposals[proposalIndex].counts++ */\n      dup2\n      sload\n      dup1\n      swap3\n      swap2\n      swap1\n      tag_76\n      swap1\n      tag_77\n      jump\t// in\n    tag_76:\n      swap2\n      swap1\n      pop\n      sstore\n      pop\n        /* \"015-Gas Saver Voting/Voting.sol\":1112:1477  function makeVote(uint256 proposalIndex) public {... */\n      pop\n      jump\t// out\n        /* \"#utility.yul\":7:82   */\n    tag_78:\n        /* \"#utility.yul\":40:46   */\n      0x00\n        /* \"#utility.yul\":73:75   */\n      0x40\n        /* \"#utility.yul\":67:76   */\n      mload\n        /* \"#utility.yul\":57:76   */\n      swap1\n      pop\n        /* \"#utility.yul\":7:82   */\n      swap1\n      jump\t// out\n        /* \"#utility.yul\":88:205   */\n    tag_79:\n        /* \"#utility.yul\":197:198   */\n      0x00\n        /* \"#utility.yul\":194:195   */\n      0x00\n        /* \"#utility.yul\":187:199   */\n      revert\n        /* \"#utility.yul\":211:328   */\n    tag_80:\n        /* \"#utility.yul\":320:321   */\n      0x00\n        /* \"#utility.yul\":317:318   */\n      0x00\n        /* \"#utility.yul\":310:322   */\n      revert\n        /* \"#utility.yul\":334:411   */\n    tag_81:\n        /* \"#utility.yul\":371:378   */\n      0x00\n        /* \"#utility.yul\":400:405   */\n      dup2\n        /* \"#utility.yul\":389:405   */\n      swap1\n      pop\n        /* \"#utility.yul\":334:411   */\n      swap2\n      swap1\n      pop\n      jump\t// out\n        /* \"#utility.yul\":417:539   */\n    tag_82:\n        /* \"#utility.yul\":490:514   */\n      tag_128\n        /* \"#utility.yul\":508:513   */\n      dup2\n        /* \"#utility.yul\":490:514   */\n      tag_81\n      jump\t// in\n    tag_128:\n        /* \"#utility.yul\":483:488   */\n      dup2\n        /* \"#utility.yul\":480:515   */\n      eq\n        /* \"#utility.yul\":470:533   */\n      tag_129\n      jumpi\n        /* \"#utility.yul\":529:530   */\n      0x00\n        /* \"#utility.yul\":526:527   */\n      0x00\n        /* \"#utility.yul\":519:531   */\n      revert\n        /* \"#utility.yul\":470:533   */\n    tag_129:\n        /* \"#utility.yul\":417:539   */\n      pop\n      jump\t// out\n        /* \"#utility.yul\":545:684   */\n    tag_83:\n        /* \"#utility.yul\":591:596   */\n      0x00\n        /* \"#utility.yul\":629:635   */\n      dup2\n        /* \"#utility.yul\":616:636   */\n      calldataload\n        /* \"#utility.yul\":607:636   */\n      swap1\n      pop\n        /* \"#utility.yul\":645:678   */\n      tag_131\n        /* \"#utility.yul\":672:677   */\n      dup2\n        /* \"#utility.yul\":645:678   */\n      tag_82\n      jump\t// in\n    tag_131:\n        /* \"#utility.yul\":545:684   */\n      swap3\n      swap2\n      pop\n      pop\n      jump\t// out\n        /* \"#utility.yul\":690:1019   */\n    tag_9:\n        /* \"#utility.yul\":749:755   */\n      0x00\n        /* \"#utility.yul\":798:800   */\n      0x20\n        /* \"#utility.yul\":786:795   */\n      dup3\n        /* \"#utility.yul\":777:784   */\n      dup5\n        /* \"#utility.yul\":773:796   */\n      sub\n        /* \"#utility.yul\":769:801   */\n      slt\n        /* \"#utility.yul\":766:885   */\n      iszero\n      tag_133\n      jumpi\n        /* \"#utility.yul\":804:883   */\n      tag_134\n      tag_79\n      jump\t// in\n    tag_134:\n        /* \"#utility.yul\":766:885   */\n    tag_133:\n        /* \"#utility.yul\":924:925   */\n      0x00\n        /* \"#utility.yul\":949:1002   */\n      tag_135\n        /* \"#utility.yul\":994:1001   */\n      dup5\n        /* \"#utility.yul\":985:991   */\n      dup3\n        /* \"#utility.yul\":974:983   */\n      dup6\n        /* \"#utility.yul\":970:992   */\n      add\n        /* \"#utility.yul\":949:1002   */\n      tag_83\n      jump\t// in\n    tag_135:\n        /* \"#utility.yul\":939:1002   */\n      swap2\n      pop\n        /* \"#utility.yul\":895:1012   */\n      pop\n        /* \"#utility.yul\":690:1019   */\n      swap3\n      swap2\n      pop\n      pop\n      jump\t// out\n        /* \"#utility.yul\":1025:1124   */\n    tag_84:\n        /* \"#utility.yul\":1077:1083   */\n      0x00\n        /* \"#utility.yul\":1111:1116   */\n      dup2\n        /* \"#utility.yul\":1105:1117   */\n      mload\n        /* \"#utility.yul\":1095:1117   */\n      swap1\n      pop\n        /* \"#utility.yul\":1025:1124   */\n      swap2\n      swap1\n      pop\n      jump\t// out\n        /* \"#utility.yul\":1130:1299   */\n    tag_85:\n        /* \"#utility.yul\":1214:1225   */\n      0x00\n        /* \"#utility.yul\":1248:1254   */\n      dup3\n        /* \"#utility.yul\":1243:1246   */\n      dup3\n        /* \"#utility.yul\":1236:1255   */\n      mstore\n        /* \"#utility.yul\":1288:1292   */\n      0x20\n        /* \"#utility.yul\":1283:1286   */\n      dup3\n        /* \"#utility.yul\":1279:1293   */\n      add\n        /* \"#utility.yul\":1264:1293   */\n      swap1\n      pop\n        /* \"#utility.yul\":1130:1299   */\n      swap3\n      swap2\n      pop\n      pop\n      jump\t// out\n        /* \"#utility.yul\":1305:1444   */\n    tag_86:\n        /* \"#utility.yul\":1394:1400   */\n      dup3\n        /* \"#utility.yul\":1389:1392   */\n      dup2\n        /* \"#utility.yul\":1384:1387   */\n      dup4\n        /* \"#utility.yul\":1378:1401   */\n      mcopy\n        /* \"#utility.yul\":1435:1436   */\n      0x00\n        /* \"#utility.yul\":1426:1432   */\n      dup4\n        /* \"#utility.yul\":1421:1424   */\n      dup4\n        /* \"#utility.yul\":1417:1433   */\n      add\n        /* \"#utility.yul\":1410:1437   */\n      mstore\n        /* \"#utility.yul\":1305:1444   */\n      pop\n      pop\n      pop\n      jump\t// out\n        /* \"#utility.yul\":1450:1552   */\n    tag_87:\n        /* \"#utility.yul\":1491:1497   */\n      0x00\n        /* \"#utility.yul\":1542:1544   */\n      0x1f\n        /* \"#utility.yul\":1538:1545   */\n      not\n        /* \"#utility.yul\":1533:1535   */\n      0x1f\n        /* \"#utility.yul\":1526:1531   */\n      dup4\n        /* \"#utility.yul\":1522:1536   */\n      add\n        /* \"#utility.yul\":1518:1546   */\n      and\n        /* \"#utility.yul\":1508:1546   */\n      swap1\n      pop\n        /* \"#utility.yul\":1450:1552   */\n      swap2\n      swap1\n      pop\n      jump\t// out\n        /* \"#utility.yul\":1558:1935   */\n    tag_88:\n        /* \"#utility.yul\":1646:1649   */\n      0x00\n        /* \"#utility.yul\":1674:1713   */\n      tag_141\n        /* \"#utility.yul\":1707:1712   */\n      dup3\n        /* \"#utility.yul\":1674:1713   */\n      tag_84\n      jump\t// in\n    tag_141:\n        /* \"#utility.yul\":1729:1800   */\n      tag_142\n        /* \"#utility.yul\":1793:1799   */\n      dup2\n        /* \"#utility.yul\":1788:1791   */\n      dup6\n        /* \"#utility.yul\":1729:1800   */\n      tag_85\n      jump\t// in\n    tag_142:\n        /* \"#utility.yul\":1722:1800   */\n      swap4\n      pop\n        /* \"#utility.yul\":1809:1874   */\n      tag_143\n        /* \"#utility.yul\":1867:1873   */\n      dup2\n        /* \"#utility.yul\":1862:1865   */\n      dup6\n        /* \"#utility.yul\":1855:1859   */\n      0x20\n        /* \"#utility.yul\":1848:1853   */\n      dup7\n        /* \"#utility.yul\":1844:1860   */\n      add\n        /* \"#utility.yul\":1809:1874   */\n      tag_86\n      jump\t// in\n    tag_143:\n        /* \"#utility.yul\":1899:1928   */\n      tag_144\n        /* \"#utility.yul\":1921:1927   */\n      dup2\n        /* \"#utility.yul\":1899:1928   */\n      tag_87\n      jump\t// in\n    tag_144:\n        /* \"#utility.yul\":1894:1897   */\n      dup5\n        /* \"#utility.yul\":1890:1929   */\n      add\n        /* \"#utility.yul\":1883:1929   */\n      swap2\n      pop\n        /* \"#utility.yul\":1650:1935   */\n      pop\n        /* \"#utility.yul\":1558:1935   */\n      swap3\n      swap2\n      pop\n      pop\n      jump\t// out\n        /* \"#utility.yul\":1941:2059   */\n    tag_89:\n        /* \"#utility.yul\":2028:2052   */\n      tag_146\n        /* \"#utility.yul\":2046:2051   */\n      dup2\n        /* \"#utility.yul\":2028:2052   */\n      tag_81\n      jump\t// in\n    tag_146:\n        /* \"#utility.yul\":2023:2026   */\n      dup3\n        /* \"#utility.yul\":2016:2053   */\n      mstore\n        /* \"#utility.yul\":1941:2059   */\n      pop\n      pop\n      jump\t// out\n        /* \"#utility.yul\":2065:2155   */\n    tag_90:\n        /* \"#utility.yul\":2099:2106   */\n      0x00\n        /* \"#utility.yul\":2142:2147   */\n      dup2\n        /* \"#utility.yul\":2135:2148   */\n      iszero\n        /* \"#utility.yul\":2128:2149   */\n      iszero\n        /* \"#utility.yul\":2117:2149   */\n      swap1\n      pop\n        /* \"#utility.yul\":2065:2155   */\n      swap2\n      swap1\n      pop\n      jump\t// out\n        /* \"#utility.yul\":2161:2270   */\n    tag_91:\n        /* \"#utility.yul\":2242:2263   */\n      tag_149\n        /* \"#utility.yul\":2257:2262   */\n      dup2\n        /* \"#utility.yul\":2242:2263   */\n      tag_90\n      jump\t// in\n    tag_149:\n        /* \"#utility.yul\":2237:2240   */\n      dup3\n        /* \"#utility.yul\":2230:2264   */\n      mstore\n        /* \"#utility.yul\":2161:2270   */\n      pop\n      pop\n      jump\t// out\n        /* \"#utility.yul\":2276:3019   */\n    tag_12:\n        /* \"#utility.yul\":2495:2499   */\n      0x00\n        /* \"#utility.yul\":2533:2536   */\n      0xa0\n        /* \"#utility.yul\":2522:2531   */\n      dup3\n        /* \"#utility.yul\":2518:2537   */\n      add\n        /* \"#utility.yul\":2510:2537   */\n      swap1\n      pop\n        /* \"#utility.yul\":2583:2592   */\n      dup2\n        /* \"#utility.yul\":2577:2581   */\n      dup2\n        /* \"#utility.yul\":2573:2593   */\n      sub\n        /* \"#utility.yul\":2569:2570   */\n      0x00\n        /* \"#utility.yul\":2558:2567   */\n      dup4\n        /* \"#utility.yul\":2554:2571   */\n      add\n        /* \"#utility.yul\":2547:2594   */\n      mstore\n        /* \"#utility.yul\":2611:2689   */\n      tag_151\n        /* \"#utility.yul\":2684:2688   */\n      dup2\n        /* \"#utility.yul\":2675:2681   */\n      dup9\n        /* \"#utility.yul\":2611:2689   */\n      tag_88\n      jump\t// in\n    tag_151:\n        /* \"#utility.yul\":2603:2689   */\n      swap1\n      pop\n        /* \"#utility.yul\":2699:2771   */\n      tag_152\n        /* \"#utility.yul\":2767:2769   */\n      0x20\n        /* \"#utility.yul\":2756:2765   */\n      dup4\n        /* \"#utility.yul\":2752:2770   */\n      add\n        /* \"#utility.yul\":2743:2749   */\n      dup8\n        /* \"#utility.yul\":2699:2771   */\n      tag_89\n      jump\t// in\n    tag_152:\n        /* \"#utility.yul\":2781:2853   */\n      tag_153\n        /* \"#utility.yul\":2849:2851   */\n      0x40\n        /* \"#utility.yul\":2838:2847   */\n      dup4\n        /* \"#utility.yul\":2834:2852   */\n      add\n        /* \"#utility.yul\":2825:2831   */\n      dup7\n        /* \"#utility.yul\":2781:2853   */\n      tag_89\n      jump\t// in\n    tag_153:\n        /* \"#utility.yul\":2863:2935   */\n      tag_154\n        /* \"#utility.yul\":2931:2933   */\n      0x60\n        /* \"#utility.yul\":2920:2929   */\n      dup4\n        /* \"#utility.yul\":2916:2934   */\n      add\n        /* \"#utility.yul\":2907:2913   */\n      dup6\n        /* \"#utility.yul\":2863:2935   */\n      tag_89\n      jump\t// in\n    tag_154:\n        /* \"#utility.yul\":2945:3012   */\n      tag_155\n        /* \"#utility.yul\":3007:3010   */\n      0x80\n        /* \"#utility.yul\":2996:3005   */\n      dup4\n        /* \"#utility.yul\":2992:3011   */\n      add\n        /* \"#utility.yul\":2983:2989   */\n      dup5\n        /* \"#utility.yul\":2945:3012   */\n      tag_91\n      jump\t// in\n    tag_155:\n        /* \"#utility.yul\":2276:3019   */\n      swap7\n      swap6\n      pop\n      pop\n      pop\n      pop\n      pop\n      pop\n      jump\t// out\n        /* \"#utility.yul\":3025:3142   */\n    tag_92:\n        /* \"#utility.yul\":3134:3135   */\n      0x00\n        /* \"#utility.yul\":3131:3132   */\n      0x00\n        /* \"#utility.yul\":3124:3136   */\n      revert\n        /* \"#utility.yul\":3148:3265   */\n    tag_93:\n        /* \"#utility.yul\":3257:3258   */\n      0x00\n        /* \"#utility.yul\":3254:3255   */\n      0x00\n        /* \"#utility.yul\":3247:3259   */\n      revert\n        /* \"#utility.yul\":3271:3451   */\n    tag_94:\n        /* \"#utility.yul\":3319:3396   */\n      0x4e487b7100000000000000000000000000000000000000000000000000000000\n        /* \"#utility.yul\":3316:3317   */\n      0x00\n        /* \"#utility.yul\":3309:3397   */\n      mstore\n        /* \"#utility.yul\":3416:3420   */\n      0x41\n        /* \"#utility.yul\":3413:3414   */\n      0x04\n        /* \"#utility.yul\":3406:3421   */\n      mstore\n        /* \"#utility.yul\":3440:3444   */\n      0x24\n        /* \"#utility.yul\":3437:3438   */\n      0x00\n        /* \"#utility.yul\":3430:3445   */\n      revert\n        /* \"#utility.yul\":3457:3738   */\n    tag_95:\n        /* \"#utility.yul\":3540:3567   */\n      tag_160\n        /* \"#utility.yul\":3562:3566   */\n      dup3\n        /* \"#utility.yul\":3540:3567   */\n      tag_87\n      jump\t// in\n    tag_160:\n        /* \"#utility.yul\":3532:3538   */\n      dup2\n        /* \"#utility.yul\":3528:3568   */\n      add\n        /* \"#utility.yul\":3670:3676   */\n      dup2\n        /* \"#utility.yul\":3658:3668   */\n      dup2\n        /* \"#utility.yul\":3655:3677   */\n      lt\n        /* \"#utility.yul\":3634:3652   */\n      0xffffffffffffffff\n        /* \"#utility.yul\":3622:3632   */\n      dup3\n        /* \"#utility.yul\":3619:3653   */\n      gt\n        /* \"#utility.yul\":3616:3678   */\n      or\n        /* \"#utility.yul\":3613:3701   */\n      iszero\n      tag_161\n      jumpi\n        /* \"#utility.yul\":3681:3699   */\n      tag_162\n      tag_94\n      jump\t// in\n    tag_162:\n        /* \"#utility.yul\":3613:3701   */\n    tag_161:\n        /* \"#utility.yul\":3721:3731   */\n      dup1\n        /* \"#utility.yul\":3717:3719   */\n      0x40\n        /* \"#utility.yul\":3710:3732   */\n      mstore\n        /* \"#utility.yul\":3500:3738   */\n      pop\n        /* \"#utility.yul\":3457:3738   */\n      pop\n      pop\n      jump\t// out\n        /* \"#utility.yul\":3744:3873   */\n    tag_96:\n        /* \"#utility.yul\":3778:3784   */\n      0x00\n        /* \"#utility.yul\":3805:3825   */\n      tag_164\n      tag_78\n      jump\t// in\n    tag_164:\n        /* \"#utility.yul\":3795:3825   */\n      swap1\n      pop\n        /* \"#utility.yul\":3834:3867   */\n      tag_165\n        /* \"#utility.yul\":3862:3866   */\n      dup3\n        /* \"#utility.yul\":3854:3860   */\n      dup3\n        /* \"#utility.yul\":3834:3867   */\n      tag_95\n      jump\t// in\n    tag_165:\n        /* \"#utility.yul\":3744:3873   */\n      swap2\n      swap1\n      pop\n      jump\t// out\n        /* \"#utility.yul\":3879:4187   */\n    tag_97:\n        /* \"#utility.yul\":3941:3945   */\n      0x00\n        /* \"#utility.yul\":4031:4049   */\n      0xffffffffffffffff\n        /* \"#utility.yul\":4023:4029   */\n      dup3\n        /* \"#utility.yul\":4020:4050   */\n      gt\n        /* \"#utility.yul\":4017:4073   */\n      iszero\n      tag_167\n      jumpi\n        /* \"#utility.yul\":4053:4071   */\n      tag_168\n      tag_94\n      jump\t// in\n    tag_168:\n        /* \"#utility.yul\":4017:4073   */\n    tag_167:\n        /* \"#utility.yul\":4091:4120   */\n      tag_169\n        /* \"#utility.yul\":4113:4119   */\n      dup3\n        /* \"#utility.yul\":4091:4120   */\n      tag_87\n      jump\t// in\n    tag_169:\n        /* \"#utility.yul\":4083:4120   */\n      swap1\n      pop\n        /* \"#utility.yul\":4175:4179   */\n      0x20\n        /* \"#utility.yul\":4169:4173   */\n      dup2\n        /* \"#utility.yul\":4165:4180   */\n      add\n        /* \"#utility.yul\":4157:4180   */\n      swap1\n      pop\n        /* \"#utility.yul\":3879:4187   */\n      swap2\n      swap1\n      pop\n      jump\t// out\n        /* \"#utility.yul\":4193:4341   */\n    tag_98:\n        /* \"#utility.yul\":4291:4297   */\n      dup3\n        /* \"#utility.yul\":4286:4289   */\n      dup2\n        /* \"#utility.yul\":4281:4284   */\n      dup4\n        /* \"#utility.yul\":4268:4298   */\n      calldatacopy\n        /* \"#utility.yul\":4332:4333   */\n      0x00\n        /* \"#utility.yul\":4323:4329   */\n      dup4\n        /* \"#utility.yul\":4318:4321   */\n      dup4\n        /* \"#utility.yul\":4314:4330   */\n      add\n        /* \"#utility.yul\":4307:4334   */\n      mstore\n        /* \"#utility.yul\":4193:4341   */\n      pop\n      pop\n      pop\n      jump\t// out\n        /* \"#utility.yul\":4347:4772   */\n    tag_99:\n        /* \"#utility.yul\":4425:4430   */\n      0x00\n        /* \"#utility.yul\":4450:4516   */\n      tag_172\n        /* \"#utility.yul\":4466:4515   */\n      tag_173\n        /* \"#utility.yul\":4508:4514   */\n      dup5\n        /* \"#utility.yul\":4466:4515   */\n      tag_97\n      jump\t// in\n    tag_173:\n        /* \"#utility.yul\":4450:4516   */\n      tag_96\n      jump\t// in\n    tag_172:\n        /* \"#utility.yul\":4441:4516   */\n      swap1\n      pop\n        /* \"#utility.yul\":4539:4545   */\n      dup3\n        /* \"#utility.yul\":4532:4537   */\n      dup2\n        /* \"#utility.yul\":4525:4546   */\n      mstore\n        /* \"#utility.yul\":4577:4581   */\n      0x20\n        /* \"#utility.yul\":4570:4575   */\n      dup2\n        /* \"#utility.yul\":4566:4582   */\n      add\n        /* \"#utility.yul\":4615:4618   */\n      dup5\n        /* \"#utility.yul\":4606:4612   */\n      dup5\n        /* \"#utility.yul\":4601:4604   */\n      dup5\n        /* \"#utility.yul\":4597:4613   */\n      add\n        /* \"#utility.yul\":4594:4619   */\n      gt\n        /* \"#utility.yul\":4591:4703   */\n      iszero\n      tag_174\n      jumpi\n        /* \"#utility.yul\":4622:4701   */\n      tag_175\n      tag_93\n      jump\t// in\n    tag_175:\n        /* \"#utility.yul\":4591:4703   */\n    tag_174:\n        /* \"#utility.yul\":4712:4766   */\n      tag_176\n        /* \"#utility.yul\":4759:4765   */\n      dup5\n        /* \"#utility.yul\":4754:4757   */\n      dup3\n        /* \"#utility.yul\":4749:4752   */\n      dup6\n        /* \"#utility.yul\":4712:4766   */\n      tag_98\n      jump\t// in\n    tag_176:\n        /* \"#utility.yul\":4431:4772   */\n      pop\n        /* \"#utility.yul\":4347:4772   */\n      swap4\n      swap3\n      pop\n      pop\n      pop\n      jump\t// out\n        /* \"#utility.yul\":4792:5132   */\n    tag_100:\n        /* \"#utility.yul\":4848:4853   */\n      0x00\n        /* \"#utility.yul\":4897:4900   */\n      dup3\n        /* \"#utility.yul\":4890:4894   */\n      0x1f\n        /* \"#utility.yul\":4882:4888   */\n      dup4\n        /* \"#utility.yul\":4878:4895   */\n      add\n        /* \"#utility.yul\":4874:4901   */\n      slt\n        /* \"#utility.yul\":4864:4986   */\n      tag_178\n      jumpi\n        /* \"#utility.yul\":4905:4984   */\n      tag_179\n      tag_92\n      jump\t// in\n    tag_179:\n        /* \"#utility.yul\":4864:4986   */\n    tag_178:\n        /* \"#utility.yul\":5022:5028   */\n      dup2\n        /* \"#utility.yul\":5009:5029   */\n      calldataload\n        /* \"#utility.yul\":5047:5126   */\n      tag_180\n        /* \"#utility.yul\":5122:5125   */\n      dup5\n        /* \"#utility.yul\":5114:5120   */\n      dup3\n        /* \"#utility.yul\":5107:5111   */\n      0x20\n        /* \"#utility.yul\":5099:5105   */\n      dup7\n        /* \"#utility.yul\":5095:5112   */\n      add\n        /* \"#utility.yul\":5047:5126   */\n      tag_99\n      jump\t// in\n    tag_180:\n        /* \"#utility.yul\":5038:5126   */\n      swap2\n      pop\n        /* \"#utility.yul\":4854:5132   */\n      pop\n        /* \"#utility.yul\":4792:5132   */\n      swap3\n      swap2\n      pop\n      pop\n      jump\t// out\n        /* \"#utility.yul\":5138:5792   */\n    tag_18:\n        /* \"#utility.yul\":5216:5222   */\n      0x00\n        /* \"#utility.yul\":5224:5230   */\n      0x00\n        /* \"#utility.yul\":5273:5275   */\n      0x40\n        /* \"#utility.yul\":5261:5270   */\n      dup4\n        /* \"#utility.yul\":5252:5259   */\n      dup6\n        /* \"#utility.yul\":5248:5271   */\n      sub\n        /* \"#utility.yul\":5244:5276   */\n      slt\n        /* \"#utility.yul\":5241:5360   */\n      iszero\n      tag_182\n      jumpi\n        /* \"#utility.yul\":5279:5358   */\n      tag_183\n      tag_79\n      jump\t// in\n    tag_183:\n        /* \"#utility.yul\":5241:5360   */\n    tag_182:\n        /* \"#utility.yul\":5427:5428   */\n      0x00\n        /* \"#utility.yul\":5416:5425   */\n      dup4\n        /* \"#utility.yul\":5412:5429   */\n      add\n        /* \"#utility.yul\":5399:5430   */\n      calldataload\n        /* \"#utility.yul\":5457:5475   */\n      0xffffffffffffffff\n        /* \"#utility.yul\":5449:5455   */\n      dup2\n        /* \"#utility.yul\":5446:5476   */\n      gt\n        /* \"#utility.yul\":5443:5560   */\n      iszero\n      tag_184\n      jumpi\n        /* \"#utility.yul\":5479:5558   */\n      tag_185\n      tag_80\n      jump\t// in\n    tag_185:\n        /* \"#utility.yul\":5443:5560   */\n    tag_184:\n        /* \"#utility.yul\":5584:5647   */\n      tag_186\n        /* \"#utility.yul\":5639:5646   */\n      dup6\n        /* \"#utility.yul\":5630:5636   */\n      dup3\n        /* \"#utility.yul\":5619:5628   */\n      dup7\n        /* \"#utility.yul\":5615:5637   */\n      add\n        /* \"#utility.yul\":5584:5647   */\n      tag_100\n      jump\t// in\n    tag_186:\n        /* \"#utility.yul\":5574:5647   */\n      swap3\n      pop\n        /* \"#utility.yul\":5370:5657   */\n      pop\n        /* \"#utility.yul\":5696:5698   */\n      0x20\n        /* \"#utility.yul\":5722:5775   */\n      tag_187\n        /* \"#utility.yul\":5767:5774   */\n      dup6\n        /* \"#utility.yul\":5758:5764   */\n      dup3\n        /* \"#utility.yul\":5747:5756   */\n      dup7\n        /* \"#utility.yul\":5743:5765   */\n      add\n        /* \"#utility.yul\":5722:5775   */\n      tag_83\n      jump\t// in\n    tag_187:\n        /* \"#utility.yul\":5712:5775   */\n      swap2\n      pop\n        /* \"#utility.yul\":5667:5785   */\n      pop\n        /* \"#utility.yul\":5138:5792   */\n      swap3\n      pop\n      swap3\n      swap1\n      pop\n      jump\t// out\n        /* \"#utility.yul\":5798:5978   */\n    tag_101:\n        /* \"#utility.yul\":5846:5923   */\n      0x4e487b7100000000000000000000000000000000000000000000000000000000\n        /* \"#utility.yul\":5843:5844   */\n      0x00\n        /* \"#utility.yul\":5836:5924   */\n      mstore\n        /* \"#utility.yul\":5943:5947   */\n      0x22\n        /* \"#utility.yul\":5940:5941   */\n      0x04\n        /* \"#utility.yul\":5933:5948   */\n      mstore\n        /* \"#utility.yul\":5967:5971   */\n      0x24\n        /* \"#utility.yul\":5964:5965   */\n      0x00\n        /* \"#utility.yul\":5957:5972   */\n      revert\n        /* \"#utility.yul\":5984:6304   */\n    tag_26:\n        /* \"#utility.yul\":6028:6034   */\n      0x00\n        /* \"#utility.yul\":6065:6066   */\n      0x02\n        /* \"#utility.yul\":6059:6063   */\n      dup3\n        /* \"#utility.yul\":6055:6067   */\n      div\n        /* \"#utility.yul\":6045:6067   */\n      swap1\n      pop\n        /* \"#utility.yul\":6112:6113   */\n      0x01\n        /* \"#utility.yul\":6106:6110   */\n      dup3\n        /* \"#utility.yul\":6102:6114   */\n      and\n        /* \"#utility.yul\":6133:6151   */\n      dup1\n        /* \"#utility.yul\":6123:6204   */\n      tag_190\n      jumpi\n        /* \"#utility.yul\":6189:6193   */\n      0x7f\n        /* \"#utility.yul\":6181:6187   */\n      dup3\n        /* \"#utility.yul\":6177:6194   */\n      and\n        /* \"#utility.yul\":6167:6194   */\n      swap2\n      pop\n        /* \"#utility.yul\":6123:6204   */\n    tag_190:\n        /* \"#utility.yul\":6251:6253   */\n      0x20\n        /* \"#utility.yul\":6243:6249   */\n      dup3\n        /* \"#utility.yul\":6240:6254   */\n      lt\n        /* \"#utility.yul\":6220:6238   */\n      dup2\n        /* \"#utility.yul\":6217:6255   */\n      sub\n        /* \"#utility.yul\":6214:6298   */\n      tag_191\n      jumpi\n        /* \"#utility.yul\":6270:6288   */\n      tag_192\n      tag_101\n      jump\t// in\n    tag_192:\n        /* \"#utility.yul\":6214:6298   */\n    tag_191:\n        /* \"#utility.yul\":6035:6304   */\n      pop\n        /* \"#utility.yul\":5984:6304   */\n      swap2\n      swap1\n      pop\n      jump\t// out\n        /* \"#utility.yul\":6310:6490   */\n    tag_34:\n        /* \"#utility.yul\":6358:6435   */\n      0x4e487b7100000000000000000000000000000000000000000000000000000000\n        /* \"#utility.yul\":6355:6356   */\n      0x00\n        /* \"#utility.yul\":6348:6436   */\n      mstore\n        /* \"#utility.yul\":6455:6459   */\n      0x32\n        /* \"#utility.yul\":6452:6453   */\n      0x04\n        /* \"#utility.yul\":6445:6460   */\n      mstore\n        /* \"#utility.yul\":6479:6483   */\n      0x24\n        /* \"#utility.yul\":6476:6477   */\n      0x00\n        /* \"#utility.yul\":6469:6484   */\n      revert\n        /* \"#utility.yul\":6496:6669   */\n    tag_102:\n        /* \"#utility.yul\":6636:6661   */\n      0x50726f706f73616c20646f65736e277420657869737473000000000000000000\n        /* \"#utility.yul\":6632:6633   */\n      0x00\n        /* \"#utility.yul\":6624:6630   */\n      dup3\n        /* \"#utility.yul\":6620:6634   */\n      add\n        /* \"#utility.yul\":6613:6662   */\n      mstore\n        /* \"#utility.yul\":6496:6669   */\n      pop\n      jump\t// out\n        /* \"#utility.yul\":6675:7041   */\n    tag_103:\n        /* \"#utility.yul\":6817:6820   */\n      0x00\n        /* \"#utility.yul\":6838:6905   */\n      tag_196\n        /* \"#utility.yul\":6902:6904   */\n      0x17\n        /* \"#utility.yul\":6897:6900   */\n      dup4\n        /* \"#utility.yul\":6838:6905   */\n      tag_85\n      jump\t// in\n    tag_196:\n        /* \"#utility.yul\":6831:6905   */\n      swap2\n      pop\n        /* \"#utility.yul\":6914:7007   */\n      tag_197\n        /* \"#utility.yul\":7003:7006   */\n      dup3\n        /* \"#utility.yul\":6914:7007   */\n      tag_102\n      jump\t// in\n    tag_197:\n        /* \"#utility.yul\":7032:7034   */\n      0x20\n        /* \"#utility.yul\":7027:7030   */\n      dup3\n        /* \"#utility.yul\":7023:7035   */\n      add\n        /* \"#utility.yul\":7016:7035   */\n      swap1\n      pop\n        /* \"#utility.yul\":6675:7041   */\n      swap2\n      swap1\n      pop\n      jump\t// out\n        /* \"#utility.yul\":7047:7466   */\n    tag_38:\n        /* \"#utility.yul\":7213:7217   */\n      0x00\n        /* \"#utility.yul\":7251:7253   */\n      0x20\n        /* \"#utility.yul\":7240:7249   */\n      dup3\n        /* \"#utility.yul\":7236:7254   */\n      add\n        /* \"#utility.yul\":7228:7254   */\n      swap1\n      pop\n        /* \"#utility.yul\":7300:7309   */\n      dup2\n        /* \"#utility.yul\":7294:7298   */\n      dup2\n        /* \"#utility.yul\":7290:7310   */\n      sub\n        /* \"#utility.yul\":7286:7287   */\n      0x00\n        /* \"#utility.yul\":7275:7284   */\n      dup4\n        /* \"#utility.yul\":7271:7288   */\n      add\n        /* \"#utility.yul\":7264:7311   */\n      mstore\n        /* \"#utility.yul\":7328:7459   */\n      tag_199\n        /* \"#utility.yul\":7454:7458   */\n      dup2\n        /* \"#utility.yul\":7328:7459   */\n      tag_103\n      jump\t// in\n    tag_199:\n        /* \"#utility.yul\":7320:7459   */\n      swap1\n      pop\n        /* \"#utility.yul\":7047:7466   */\n      swap2\n      swap1\n      pop\n      jump\t// out\n        /* \"#utility.yul\":7472:7645   */\n    tag_104:\n        /* \"#utility.yul\":7612:7637   */\n      0x50726f706f73616c20616c726561647920656e64656421000000000000000000\n        /* \"#utility.yul\":7608:7609   */\n      0x00\n        /* \"#utility.yul\":7600:7606   */\n      dup3\n        /* \"#utility.yul\":7596:7610   */\n      add\n        /* \"#utility.yul\":7589:7638   */\n      mstore\n        /* \"#utility.yul\":7472:7645   */\n      pop\n      jump\t// out\n        /* \"#utility.yul\":7651:8017   */\n    tag_105:\n        /* \"#utility.yul\":7793:7796   */\n      0x00\n        /* \"#utility.yul\":7814:7881   */\n      tag_202\n        /* \"#utility.yul\":7878:7880   */\n      0x17\n        /* \"#utility.yul\":7873:7876   */\n      dup4\n        /* \"#utility.yul\":7814:7881   */\n      tag_85\n      jump\t// in\n    tag_202:\n        /* \"#utility.yul\":7807:7881   */\n      swap2\n      pop\n        /* \"#utility.yul\":7890:7983   */\n      tag_203\n        /* \"#utility.yul\":7979:7982   */\n      dup3\n        /* \"#utility.yul\":7890:7983   */\n      tag_104\n      jump\t// in\n    tag_203:\n        /* \"#utility.yul\":8008:8010   */\n      0x20\n        /* \"#utility.yul\":8003:8006   */\n      dup3\n        /* \"#utility.yul\":7999:8011   */\n      add\n        /* \"#utility.yul\":7992:8011   */\n      swap1\n      pop\n        /* \"#utility.yul\":7651:8017   */\n      swap2\n      swap1\n      pop\n      jump\t// out\n        /* \"#utility.yul\":8023:8442   */\n    tag_48:\n        /* \"#utility.yul\":8189:8193   */\n      0x00\n        /* \"#utility.yul\":8227:8229   */\n      0x20\n        /* \"#utility.yul\":8216:8225   */\n      dup3\n        /* \"#utility.yul\":8212:8230   */\n      add\n        /* \"#utility.yul\":8204:8230   */\n      swap1\n      pop\n        /* \"#utility.yul\":8276:8285   */\n      dup2\n        /* \"#utility.yul\":8270:8274   */\n      dup2\n        /* \"#utility.yul\":8266:8286   */\n      sub\n        /* \"#utility.yul\":8262:8263   */\n      0x00\n        /* \"#utility.yul\":8251:8260   */\n      dup4\n        /* \"#utility.yul\":8247:8264   */\n      add\n        /* \"#utility.yul\":8240:8287   */\n      mstore\n        /* \"#utility.yul\":8304:8435   */\n      tag_205\n        /* \"#utility.yul\":8430:8434   */\n      dup2\n        /* \"#utility.yul\":8304:8435   */\n      tag_105\n      jump\t// in\n    tag_205:\n        /* \"#utility.yul\":8296:8435   */\n      swap1\n      pop\n        /* \"#utility.yul\":8023:8442   */\n      swap2\n      swap1\n      pop\n      jump\t// out\n        /* \"#utility.yul\":8448:8628   */\n    tag_106:\n        /* \"#utility.yul\":8496:8573   */\n      0x4e487b7100000000000000000000000000000000000000000000000000000000\n        /* \"#utility.yul\":8493:8494   */\n      0x00\n        /* \"#utility.yul\":8486:8574   */\n      mstore\n        /* \"#utility.yul\":8593:8597   */\n      0x11\n        /* \"#utility.yul\":8590:8591   */\n      0x04\n        /* \"#utility.yul\":8583:8598   */\n      mstore\n        /* \"#utility.yul\":8617:8621   */\n      0x24\n        /* \"#utility.yul\":8614:8615   */\n      0x00\n        /* \"#utility.yul\":8607:8622   */\n      revert\n        /* \"#utility.yul\":8634:8825   */\n    tag_54:\n        /* \"#utility.yul\":8674:8677   */\n      0x00\n        /* \"#utility.yul\":8693:8713   */\n      tag_208\n        /* \"#utility.yul\":8711:8712   */\n      dup3\n        /* \"#utility.yul\":8693:8713   */\n      tag_81\n      jump\t// in\n    tag_208:\n        /* \"#utility.yul\":8688:8713   */\n      swap2\n      pop\n        /* \"#utility.yul\":8727:8747   */\n      tag_209\n        /* \"#utility.yul\":8745:8746   */\n      dup4\n        /* \"#utility.yul\":8727:8747   */\n      tag_81\n      jump\t// in\n    tag_209:\n        /* \"#utility.yul\":8722:8747   */\n      swap3\n      pop\n        /* \"#utility.yul\":8770:8771   */\n      dup3\n        /* \"#utility.yul\":8767:8768   */\n      dup3\n        /* \"#utility.yul\":8763:8772   */\n      add\n        /* \"#utility.yul\":8756:8772   */\n      swap1\n      pop\n        /* \"#utility.yul\":8791:8794   */\n      dup1\n        /* \"#utility.yul\":8788:8789   */\n      dup3\n        /* \"#utility.yul\":8785:8795   */\n      gt\n        /* \"#utility.yul\":8782:8818   */\n      iszero\n      tag_210\n      jumpi\n        /* \"#utility.yul\":8798:8816   */\n      tag_211\n      tag_106\n      jump\t// in\n    tag_211:\n        /* \"#utility.yul\":8782:8818   */\n    tag_210:\n        /* \"#utility.yul\":8634:8825   */\n      swap3\n      swap2\n      pop\n      pop\n      jump\t// out\n        /* \"#utility.yul\":8831:8972   */\n    tag_107:\n        /* \"#utility.yul\":8880:8884   */\n      0x00\n        /* \"#utility.yul\":8903:8906   */\n      dup2\n        /* \"#utility.yul\":8895:8906   */\n      swap1\n      pop\n        /* \"#utility.yul\":8926:8929   */\n      dup2\n        /* \"#utility.yul\":8923:8924   */\n      0x00\n        /* \"#utility.yul\":8916:8930   */\n      mstore\n        /* \"#utility.yul\":8960:8964   */\n      0x20\n        /* \"#utility.yul\":8957:8958   */\n      0x00\n        /* \"#utility.yul\":8947:8965   */\n      keccak256\n        /* \"#utility.yul\":8939:8965   */\n      swap1\n      pop\n        /* \"#utility.yul\":8831:8972   */\n      swap2\n      swap1\n      pop\n      jump\t// out\n        /* \"#utility.yul\":8978:9071   */\n    tag_108:\n        /* \"#utility.yul\":9015:9021   */\n      0x00\n        /* \"#utility.yul\":9062:9064   */\n      0x20\n        /* \"#utility.yul\":9057:9059   */\n      0x1f\n        /* \"#utility.yul\":9050:9055   */\n      dup4\n        /* \"#utility.yul\":9046:9060   */\n      add\n        /* \"#utility.yul\":9042:9065   */\n      div\n        /* \"#utility.yul\":9032:9065   */\n      swap1\n      pop\n        /* \"#utility.yul\":8978:9071   */\n      swap2\n      swap1\n      pop\n      jump\t// out\n        /* \"#utility.yul\":9077:9184   */\n    tag_109:\n        /* \"#utility.yul\":9121:9129   */\n      0x00\n        /* \"#utility.yul\":9171:9176   */\n      dup3\n        /* \"#utility.yul\":9165:9169   */\n      dup3\n        /* \"#utility.yul\":9161:9177   */\n      shl\n        /* \"#utility.yul\":9140:9177   */\n      swap1\n      pop\n        /* \"#utility.yul\":9077:9184   */\n      swap3\n      swap2\n      pop\n      pop\n      jump\t// out\n        /* \"#utility.yul\":9190:9583   */\n    tag_110:\n        /* \"#utility.yul\":9259:9265   */\n      0x00\n        /* \"#utility.yul\":9309:9310   */\n      0x08\n        /* \"#utility.yul\":9297:9307   */\n      dup4\n        /* \"#utility.yul\":9293:9311   */\n      mul\n        /* \"#utility.yul\":9332:9429   */\n      tag_216\n        /* \"#utility.yul\":9362:9428   */\n      0xffffffffffffffffffffffffffffffffffffffffffffffffffffffffffffffff\n        /* \"#utility.yul\":9351:9360   */\n      dup3\n        /* \"#utility.yul\":9332:9429   */\n      tag_109\n      jump\t// in\n    tag_216:\n        /* \"#utility.yul\":9450:9489   */\n      tag_217\n        /* \"#utility.yul\":9480:9488   */\n      dup7\n        /* \"#utility.yul\":9469:9478   */\n      dup4\n        /* \"#utility.yul\":9450:9489   */\n      tag_109\n      jump\t// in\n    tag_217:\n        /* \"#utility.yul\":9438:9489   */\n      swap6\n      pop\n        /* \"#utility.yul\":9522:9526   */\n      dup1\n        /* \"#utility.yul\":9518:9527   */\n      not\n        /* \"#utility.yul\":9511:9516   */\n      dup5\n        /* \"#utility.yul\":9507:9528   */\n      and\n        /* \"#utility.yul\":9498:9528   */\n      swap4\n      pop\n        /* \"#utility.yul\":9571:9575   */\n      dup1\n        /* \"#utility.yul\":9561:9569   */\n      dup7\n        /* \"#utility.yul\":9557:9576   */\n      and\n        /* \"#utility.yul\":9550:9555   */\n      dup5\n        /* \"#utility.yul\":9547:9577   */\n      or\n        /* \"#utility.yul\":9537:9577   */\n      swap3\n      pop\n        /* \"#utility.yul\":9266:9583   */\n      pop\n      pop\n        /* \"#utility.yul\":9190:9583   */\n      swap4\n      swap3\n      pop\n      pop\n      pop\n      jump\t// out\n        /* \"#utility.yul\":9589:9649   */\n    tag_111:\n        /* \"#utility.yul\":9617:9620   */\n      0x00\n        /* \"#utility.yul\":9638:9643   */\n      dup2\n        /* \"#utility.yul\":9631:9643   */\n      swap1\n      pop\n        /* \"#utility.yul\":9589:9649   */\n      swap2\n      swap1\n      pop\n      jump\t// out\n        /* \"#utility.yul\":9655:9797   */\n    tag_112:\n        /* \"#utility.yul\":9705:9714   */\n      0x00\n        /* \"#utility.yul\":9738:9791   */\n      tag_220\n        /* \"#utility.yul\":9756:9790   */\n      tag_221\n        /* \"#utility.yul\":9765:9789   */\n      tag_222\n        /* \"#utility.yul\":9783:9788   */\n      dup5\n        /* \"#utility.yul\":9765:9789   */\n      tag_81\n      jump\t// in\n    tag_222:\n        /* \"#utility.yul\":9756:9790   */\n      tag_111\n      jump\t// in\n    tag_221:\n        /* \"#utility.yul\":9738:9791   */\n      tag_81\n      jump\t// in\n    tag_220:\n        /* \"#utility.yul\":9725:9791   */\n      swap1\n      pop\n        /* \"#utility.yul\":9655:9797   */\n      swap2\n      swap1\n      pop\n      jump\t// out\n        /* \"#utility.yul\":9803:9878   */\n    tag_113:\n        /* \"#utility.yul\":9846:9849   */\n      0x00\n        /* \"#utility.yul\":9867:9872   */\n      dup2\n        /* \"#utility.yul\":9860:9872   */\n      swap1\n      pop\n        /* \"#utility.yul\":9803:9878   */\n      swap2\n      swap1\n      pop\n      jump\t// out\n        /* \"#utility.yul\":9884:10153   */\n    tag_114:\n        /* \"#utility.yul\":9994:10033   */\n      tag_225\n        /* \"#utility.yul\":10025:10032   */\n      dup4\n        /* \"#utility.yul\":9994:10033   */\n      tag_112\n      jump\t// in\n    tag_225:\n        /* \"#utility.yul\":10055:10146   */\n      tag_226\n        /* \"#utility.yul\":10104:10145   */\n      tag_227\n        /* \"#utility.yul\":10128:10144   */\n      dup3\n        /* \"#utility.yul\":10104:10145   */\n      tag_113\n      jump\t// in\n    tag_227:\n        /* \"#utility.yul\":10096:10102   */\n      dup5\n        /* \"#utility.yul\":10089:10093   */\n      dup5\n        /* \"#utility.yul\":10083:10094   */\n      sload\n        /* \"#utility.yul\":10055:10146   */\n      tag_110\n      jump\t// in\n    tag_226:\n        /* \"#utility.yul\":10049:10053   */\n      dup3\n        /* \"#utility.yul\":10042:10147   */\n      sstore\n        /* \"#utility.yul\":9960:10153   */\n      pop\n        /* \"#utility.yul\":9884:10153   */\n      pop\n      pop\n      pop\n      jump\t// out\n        /* \"#utility.yul\":10159:10232   */\n    tag_115:\n        /* \"#utility.yul\":10204:10207   */\n      0x00\n        /* \"#utility.yul\":10225:10226   */\n      0x00\n        /* \"#utility.yul\":10218:10226   */\n      swap1\n      pop\n        /* \"#utility.yul\":10159:10232   */\n      swap1\n      jump\t// out\n        /* \"#utility.yul\":10238:10427   */\n    tag_116:\n        /* \"#utility.yul\":10315:10347   */\n      tag_230\n      tag_115\n      jump\t// in\n    tag_230:\n        /* \"#utility.yul\":10356:10421   */\n      tag_231\n        /* \"#utility.yul\":10414:10420   */\n      dup2\n        /* \"#utility.yul\":10406:10412   */\n      dup5\n        /* \"#utility.yul\":10400:10404   */\n      dup5\n        /* \"#utility.yul\":10356:10421   */\n      tag_114\n      jump\t// in\n    tag_231:\n        /* \"#utility.yul\":10291:10427   */\n      pop\n        /* \"#utility.yul\":10238:10427   */\n      pop\n      pop\n      jump\t// out\n        /* \"#utility.yul\":10433:10619   */\n    tag_117:\n        /* \"#utility.yul\":10493:10613   */\n    tag_233:\n        /* \"#utility.yul\":10510:10513   */\n      dup2\n        /* \"#utility.yul\":10503:10508   */\n      dup2\n        /* \"#utility.yul\":10500:10514   */\n      lt\n        /* \"#utility.yul\":10493:10613   */\n      iszero\n      tag_235\n      jumpi\n        /* \"#utility.yul\":10564:10603   */\n      tag_236\n        /* \"#utility.yul\":10601:10602   */\n      0x00\n        /* \"#utility.yul\":10594:10599   */\n      dup3\n        /* \"#utility.yul\":10564:10603   */\n      tag_116\n      jump\t// in\n    tag_236:\n        /* \"#utility.yul\":10537:10538   */\n      0x01\n        /* \"#utility.yul\":10530:10535   */\n      dup2\n        /* \"#utility.yul\":10526:10539   */\n      add\n        /* \"#utility.yul\":10517:10539   */\n      swap1\n      pop\n        /* \"#utility.yul\":10493:10613   */\n      jump(tag_233)\n    tag_235:\n        /* \"#utility.yul\":10433:10619   */\n      pop\n      pop\n      jump\t// out\n        /* \"#utility.yul\":10625:11168   */\n    tag_118:\n        /* \"#utility.yul\":10726:10728   */\n      0x1f\n        /* \"#utility.yul\":10721:10724   */\n      dup3\n        /* \"#utility.yul\":10718:10729   */\n      gt\n        /* \"#utility.yul\":10715:11161   */\n      iszero\n      tag_238\n      jumpi\n        /* \"#utility.yul\":10760:10798   */\n      tag_239\n        /* \"#utility.yul\":10792:10797   */\n      dup2\n        /* \"#utility.yul\":10760:10798   */\n      tag_107\n      jump\t// in\n    tag_239:\n        /* \"#utility.yul\":10844:10873   */\n      tag_240\n        /* \"#utility.yul\":10862:10872   */\n      dup5\n        /* \"#utility.yul\":10844:10873   */\n      tag_108\n      jump\t// in\n    tag_240:\n        /* \"#utility.yul\":10834:10842   */\n      dup2\n        /* \"#utility.yul\":10830:10874   */\n      add\n        /* \"#utility.yul\":11027:11029   */\n      0x20\n        /* \"#utility.yul\":11015:11025   */\n      dup6\n        /* \"#utility.yul\":11012:11030   */\n      lt\n        /* \"#utility.yul\":11009:11058   */\n      iszero\n      tag_241\n      jumpi\n        /* \"#utility.yul\":11048:11056   */\n      dup2\n        /* \"#utility.yul\":11033:11056   */\n      swap1\n      pop\n        /* \"#utility.yul\":11009:11058   */\n    tag_241:\n        /* \"#utility.yul\":11071:11151   */\n      tag_242\n        /* \"#utility.yul\":11127:11149   */\n      tag_243\n        /* \"#utility.yul\":11145:11148   */\n      dup6\n        /* \"#utility.yul\":11127:11149   */\n      tag_108\n      jump\t// in\n    tag_243:\n        /* \"#utility.yul\":11117:11125   */\n      dup4\n        /* \"#utility.yul\":11113:11150   */\n      add\n        /* \"#utility.yul\":11100:11111   */\n      dup3\n        /* \"#utility.yul\":11071:11151   */\n      tag_117\n      jump\t// in\n    tag_242:\n        /* \"#utility.yul\":10730:11161   */\n      pop\n      pop\n        /* \"#utility.yul\":10715:11161   */\n    tag_238:\n        /* \"#utility.yul\":10625:11168   */\n      pop\n      pop\n      pop\n      jump\t// out\n        /* \"#utility.yul\":11174:11291   */\n    tag_119:\n        /* \"#utility.yul\":11228:11236   */\n      0x00\n        /* \"#utility.yul\":11278:11283   */\n      dup3\n        /* \"#utility.yul\":11272:11276   */\n      dup3\n        /* \"#utility.yul\":11268:11284   */\n      shr\n        /* \"#utility.yul\":11247:11284   */\n      swap1\n      pop\n        /* \"#utility.yul\":11174:11291   */\n      swap3\n      swap2\n      pop\n      pop\n      jump\t// out\n        /* \"#utility.yul\":11297:11466   */\n    tag_120:\n        /* \"#utility.yul\":11341:11347   */\n      0x00\n        /* \"#utility.yul\":11374:11425   */\n      tag_246\n        /* \"#utility.yul\":11422:11423   */\n      0x00\n        /* \"#utility.yul\":11418:11424   */\n      not\n        /* \"#utility.yul\":11410:11415   */\n      dup5\n        /* \"#utility.yul\":11407:11408   */\n      0x08\n        /* \"#utility.yul\":11403:11416   */\n      mul\n        /* \"#utility.yul\":11374:11425   */\n      tag_119\n      jump\t// in\n    tag_246:\n        /* \"#utility.yul\":11370:11426   */\n      not\n        /* \"#utility.yul\":11455:11459   */\n      dup1\n        /* \"#utility.yul\":11449:11453   */\n      dup4\n        /* \"#utility.yul\":11445:11460   */\n      and\n        /* \"#utility.yul\":11435:11460   */\n      swap2\n      pop\n        /* \"#utility.yul\":11348:11466   */\n      pop\n        /* \"#utility.yul\":11297:11466   */\n      swap3\n      swap2\n      pop\n      pop\n      jump\t// out\n        /* \"#utility.yul\":11471:11766   */\n    tag_121:\n        /* \"#utility.yul\":11547:11551   */\n      0x00\n        /* \"#utility.yul\":11693:11722   */\n      tag_248\n        /* \"#utility.yul\":11718:11721   */\n      dup4\n        /* \"#utility.yul\":11712:11716   */\n      dup4\n        /* \"#utility.yul\":11693:11722   */\n      tag_120\n      jump\t// in\n    tag_248:\n        /* \"#utility.yul\":11685:11722   */\n      swap2\n      pop\n        /* \"#utility.yul\":11755:11758   */\n      dup3\n        /* \"#utility.yul\":11752:11753   */\n      0x02\n        /* \"#utility.yul\":11748:11759   */\n      mul\n        /* \"#utility.yul\":11742:11746   */\n      dup3\n        /* \"#utility.yul\":11739:11760   */\n      or\n        /* \"#utility.yul\":11731:11760   */\n      swap1\n      pop\n        /* \"#utility.yul\":11471:11766   */\n      swap3\n      swap2\n      pop\n      pop\n      jump\t// out\n        /* \"#utility.yul\":11771:13166   */\n    tag_57:\n        /* \"#utility.yul\":11888:11925   */\n      tag_250\n        /* \"#utility.yul\":11921:11924   */\n      dup3\n        /* \"#utility.yul\":11888:11925   */\n      tag_84\n      jump\t// in\n    tag_250:\n        /* \"#utility.yul\":11990:12008   */\n      0xffffffffffffffff\n        /* \"#utility.yul\":11982:11988   */\n      dup2\n        /* \"#utility.yul\":11979:12009   */\n      gt\n        /* \"#utility.yul\":11976:12032   */\n      iszero\n      tag_251\n      jumpi\n        /* \"#utility.yul\":12012:12030   */\n      tag_252\n      tag_94\n      jump\t// in\n    tag_252:\n        /* \"#utility.yul\":11976:12032   */\n    tag_251:\n        /* \"#utility.yul\":12056:12094   */\n      tag_253\n        /* \"#utility.yul\":12088:12092   */\n      dup3\n        /* \"#utility.yul\":12082:12093   */\n      sload\n        /* \"#utility.yul\":12056:12094   */\n      tag_26\n      jump\t// in\n    tag_253:\n        /* \"#utility.yul\":12141:12208   */\n      tag_254\n        /* \"#utility.yul\":12201:12207   */\n      dup3\n        /* \"#utility.yul\":12193:12199   */\n      dup3\n        /* \"#utility.yul\":12187:12191   */\n      dup6\n        /* \"#utility.yul\":12141:12208   */\n      tag_118\n      jump\t// in\n    tag_254:\n        /* \"#utility.yul\":12235:12236   */\n      0x00\n        /* \"#utility.yul\":12259:12263   */\n      0x20\n        /* \"#utility.yul\":12246:12263   */\n      swap1\n      pop\n        /* \"#utility.yul\":12291:12293   */\n      0x1f\n        /* \"#utility.yul\":12283:12289   */\n      dup4\n        /* \"#utility.yul\":12280:12294   */\n      gt\n        /* \"#utility.yul\":12308:12309   */\n      0x01\n        /* \"#utility.yul\":12303:12921   */\n      dup2\n      eq\n      tag_256\n      jumpi\n        /* \"#utility.yul\":12965:12966   */\n      0x00\n        /* \"#utility.yul\":12982:12988   */\n      dup5\n        /* \"#utility.yul\":12979:13056   */\n      iszero\n      tag_257\n      jumpi\n        /* \"#utility.yul\":13031:13040   */\n      dup3\n        /* \"#utility.yul\":13026:13029   */\n      dup8\n        /* \"#utility.yul\":13022:13041   */\n      add\n        /* \"#utility.yul\":13016:13042   */\n      mload\n        /* \"#utility.yul\":13007:13042   */\n      swap1\n      pop\n        /* \"#utility.yul\":12979:13056   */\n    tag_257:\n        /* \"#utility.yul\":13082:13149   */\n      tag_258\n        /* \"#utility.yul\":13142:13148   */\n      dup6\n        /* \"#utility.yul\":13135:13140   */\n      dup3\n        /* \"#utility.yul\":13082:13149   */\n      tag_121\n      jump\t// in\n    tag_258:\n        /* \"#utility.yul\":13076:13080   */\n      dup7\n        /* \"#utility.yul\":13069:13150   */\n      sstore\n        /* \"#utility.yul\":12938:13160   */\n      pop\n        /* \"#utility.yul\":12273:13160   */\n      jump(tag_255)\n        /* \"#utility.yul\":12303:12921   */\n    tag_256:\n        /* \"#utility.yul\":12355:12359   */\n      0x1f\n        /* \"#utility.yul\":12351:12360   */\n      not\n        /* \"#utility.yul\":12343:12349   */\n      dup5\n        /* \"#utility.yul\":12339:12361   */\n      and\n        /* \"#utility.yul\":12389:12426   */\n      tag_259\n        /* \"#utility.yul\":12421:12425   */\n      dup7\n        /* \"#utility.yul\":12389:12426   */\n      tag_107\n      jump\t// in\n    tag_259:\n        /* \"#utility.yul\":12448:12449   */\n      0x00\n        /* \"#utility.yul\":12462:12670   */\n    tag_260:\n        /* \"#utility.yul\":12476:12483   */\n      dup3\n        /* \"#utility.yul\":12473:12474   */\n      dup2\n        /* \"#utility.yul\":12470:12484   */\n      lt\n        /* \"#utility.yul\":12462:12670   */\n      iszero\n      tag_262\n      jumpi\n        /* \"#utility.yul\":12555:12564   */\n      dup5\n        /* \"#utility.yul\":12550:12553   */\n      dup10\n        /* \"#utility.yul\":12546:12565   */\n      add\n        /* \"#utility.yul\":12540:12566   */\n      mload\n        /* \"#utility.yul\":12532:12538   */\n      dup3\n        /* \"#utility.yul\":12525:12567   */\n      sstore\n        /* \"#utility.yul\":12606:12607   */\n      0x01\n        /* \"#utility.yul\":12598:12604   */\n      dup3\n        /* \"#utility.yul\":12594:12608   */\n      add\n        /* \"#utility.yul\":12584:12608   */\n      swap2\n      pop\n        /* \"#utility.yul\":12653:12655   */\n      0x20\n        /* \"#utility.yul\":12642:12651   */\n      dup6\n        /* \"#utility.yul\":12638:12656   */\n      add\n        /* \"#utility.yul\":12625:12656   */\n      swap5\n      pop\n        /* \"#utility.yul\":12499:12503   */\n      0x20\n        /* \"#utility.yul\":12496:12497   */\n      dup2\n        /* \"#utility.yul\":12492:12504   */\n      add\n        /* \"#utility.yul\":12487:12504   */\n      swap1\n      pop\n        /* \"#utility.yul\":12462:12670   */\n      jump(tag_260)\n    tag_262:\n        /* \"#utility.yul\":12698:12704   */\n      dup7\n        /* \"#utility.yul\":12689:12696   */\n      dup4\n        /* \"#utility.yul\":12686:12705   */\n      lt\n        /* \"#utility.yul\":12683:12862   */\n      iszero\n      tag_263\n      jumpi\n        /* \"#utility.yul\":12756:12765   */\n      dup5\n        /* \"#utility.yul\":12751:12754   */\n      dup10\n        /* \"#utility.yul\":12747:12766   */\n      add\n        /* \"#utility.yul\":12741:12767   */\n      mload\n        /* \"#utility.yul\":12799:12847   */\n      tag_264\n        /* \"#utility.yul\":12841:12845   */\n      0x1f\n        /* \"#utility.yul\":12833:12839   */\n      dup10\n        /* \"#utility.yul\":12829:12846   */\n      and\n        /* \"#utility.yul\":12818:12827   */\n      dup3\n        /* \"#utility.yul\":12799:12847   */\n      tag_120\n      jump\t// in\n    tag_264:\n        /* \"#utility.yul\":12791:12797   */\n      dup4\n        /* \"#utility.yul\":12784:12848   */\n      sstore\n        /* \"#utility.yul\":12706:12862   */\n      pop\n        /* \"#utility.yul\":12683:12862   */\n    tag_263:\n        /* \"#utility.yul\":12908:12909   */\n      0x01\n        /* \"#utility.yul\":12904:12905   */\n      0x02\n        /* \"#utility.yul\":12896:12902   */\n      dup9\n        /* \"#utility.yul\":12892:12906   */\n      mul\n        /* \"#utility.yul\":12888:12910   */\n      add\n        /* \"#utility.yul\":12882:12886   */\n      dup9\n        /* \"#utility.yul\":12875:12911   */\n      sstore\n        /* \"#utility.yul\":12310:12921   */\n      pop\n      pop\n      pop\n        /* \"#utility.yul\":12273:13160   */\n    tag_255:\n      pop\n        /* \"#utility.yul\":11863:13166   */\n      pop\n      pop\n      pop\n        /* \"#utility.yul\":11771:13166   */\n      pop\n      pop\n      jump\t// out\n        /* \"#utility.yul\":13172:13405   */\n    tag_77:\n        /* \"#utility.yul\":13211:13214   */\n      0x00\n        /* \"#utility.yul\":13234:13258   */\n      tag_266\n        /* \"#utility.yul\":13252:13257   */\n      dup3\n        /* \"#utility.yul\":13234:13258   */\n      tag_81\n      jump\t// in\n    tag_266:\n        /* \"#utility.yul\":13225:13258   */\n      swap2\n      pop\n        /* \"#utility.yul\":13280:13346   */\n      0xffffffffffffffffffffffffffffffffffffffffffffffffffffffffffffffff\n        /* \"#utility.yul\":13273:13278   */\n      dup3\n        /* \"#utility.yul\":13270:13347   */\n      sub\n        /* \"#utility.yul\":13267:13370   */\n      tag_267\n      jumpi\n        /* \"#utility.yul\":13350:13368   */\n      tag_268\n      tag_106\n      jump\t// in\n    tag_268:\n        /* \"#utility.yul\":13267:13370   */\n    tag_267:\n        /* \"#utility.yul\":13397:13398   */\n      0x01\n        /* \"#utility.yul\":13390:13395   */\n      dup3\n        /* \"#utility.yul\":13386:13399   */\n      add\n        /* \"#utility.yul\":13379:13399   */\n      swap1\n      pop\n        /* \"#utility.yul\":13172:13405   */\n      swap2\n      swap1\n      pop\n      jump\t// out\n\n    auxdata: 0xa26469706673582212200d34f1935ac27ba7877abe947440448df04fee9eb4f0f3f710e615560f95a10e64736f6c634300081f0033\n}\n",
				"bytecode": {
					"linkReferences": {},
					"object": "6080604052348015600e575f5ffd5b50610cc18061001c5f395ff3fe608060405234801561000f575f5ffd5b506004361061004a575f3560e01c8063013cf08b1461004e5780630d61b5191461008257806335facf781461009e5780633eaf7591146100ba575b5f5ffd5b61006860048036038101906100639190610579565b6100d6565b60405161007995949392919061063d565b60405180910390f35b61009c60048036038101906100979190610579565b6101a8565b005b6100b860048036038101906100b391906107c1565b6102e3565b005b6100d460048036038101906100cf9190610579565b61039a565b005b5f81815481106100e4575f80fd5b905f5260205f2090600502015f91509050805f01805461010390610848565b80601f016020809104026020016040519081016040528092919081815260200182805461012f90610848565b801561017a5780601f106101515761010080835404028352916020019161017a565b820191905f5260205f20905b81548152906001019060200180831161015d57829003601f168201915b505050505090806001015490806002015490806003015490806004015f9054906101000a900460ff16905085565b5f5f82815481106101bc576101bb610878565b5b905f5260205f209060050201600201541461020c576040517f08c379a0000000000000000000000000000000000000000000000000000000008152600401610203906108ef565b60405180910390fd5b5f818154811061021f5761021e610878565b5b905f5260205f2090600502016004015f9054906101000a900460ff168061026757505f818154811061025457610253610878565b5b905f5260205f2090600502016003015442115b6102a6576040517f08c379a000000000000000000000000000000000000000000000000000000000815260040161029d90610957565b60405180910390fd5b60015f82815481106102bb576102ba610878565b5b905f5260205f2090600502016004015f6101000a81548160ff02191690831515021790555050565b5f6040518060a001604052808481526020015f8152602001428152602001834261030d91906109a2565b81526020015f151581525090505f81908060018154018082558091505060019003905f5260205f2090600502015f909190919091505f820151815f0190816103559190610b75565b506020820151816001015560408201518160020155606082015181600301556080820151816004015f6101000a81548160ff0219169083151502179055505050505050565b5f5f82815481106103ae576103ad610878565b5b905f5260205f20906005020160020154146103fe576040517f08c379a00000000000000000000000000000000000000000000000000000000081526004016103f5906108ef565b60405180910390fd5b5f818154811061041157610410610878565b5b905f5260205f2090600502016004015f9054906101000a900460ff168061045957505f818154811061044657610445610878565b5b905f5260205f2090600502016003015442115b610498576040517f08c379a000000000000000000000000000000000000000000000000000000000815260040161048f90610957565b60405180910390fd5b6001805f3373ffffffffffffffffffffffffffffffffffffffff1673ffffffffffffffffffffffffffffffffffffffff1681526020019081526020015f205f8381526020019081526020015f205f6101000a81548160ff0219169083151502179055505f818154811061050e5761050d610878565b5b905f5260205f2090600502016001015f81548092919061052d90610c44565b919050555050565b5f604051905090565b5f5ffd5b5f5ffd5b5f819050919050565b61055881610546565b8114610562575f5ffd5b50565b5f813590506105738161054f565b92915050565b5f6020828403121561058e5761058d61053e565b5b5f61059b84828501610565565b91505092915050565b5f81519050919050565b5f82825260208201905092915050565b8281835e5f83830152505050565b5f601f19601f8301169050919050565b5f6105e6826105a4565b6105f081856105ae565b93506106008185602086016105be565b610609816105cc565b840191505092915050565b61061d81610546565b82525050565b5f8115159050919050565b61063781610623565b82525050565b5f60a0820190508181035f83015261065581886105dc565b90506106646020830187610614565b6106716040830186610614565b61067e6060830185610614565b61068b608083018461062e565b9695505050505050565b5f5ffd5b5f5ffd5b7f4e487b71000000000000000000000000000000000000000000000000000000005f52604160045260245ffd5b6106d3826105cc565b810181811067ffffffffffffffff821117156106f2576106f161069d565b5b80604052505050565b5f610704610535565b905061071082826106ca565b919050565b5f67ffffffffffffffff82111561072f5761072e61069d565b5b610738826105cc565b9050602081019050919050565b828183375f83830152505050565b5f61076561076084610715565b6106fb565b90508281526020810184848401111561078157610780610699565b5b61078c848285610745565b509392505050565b5f82601f8301126107a8576107a7610695565b5b81356107b8848260208601610753565b91505092915050565b5f5f604083850312156107d7576107d661053e565b5b5f83013567ffffffffffffffff8111156107f4576107f3610542565b5b61080085828601610794565b925050602061081185828601610565565b9150509250929050565b7f4e487b71000000000000000000000000000000000000000000000000000000005f52602260045260245ffd5b5f600282049050600182168061085f57607f821691505b6020821081036108725761087161081b565b5b50919050565b7f4e487b71000000000000000000000000000000000000000000000000000000005f52603260045260245ffd5b7f50726f706f73616c20646f65736e2774206578697374730000000000000000005f82015250565b5f6108d96017836105ae565b91506108e4826108a5565b602082019050919050565b5f6020820190508181035f830152610906816108cd565b9050919050565b7f50726f706f73616c20616c726561647920656e646564210000000000000000005f82015250565b5f6109416017836105ae565b915061094c8261090d565b602082019050919050565b5f6020820190508181035f83015261096e81610935565b9050919050565b7f4e487b71000000000000000000000000000000000000000000000000000000005f52601160045260245ffd5b5f6109ac82610546565b91506109b783610546565b92508282019050808211156109cf576109ce610975565b5b92915050565b5f819050815f5260205f209050919050565b5f6020601f8301049050919050565b5f82821b905092915050565b5f60088302610a317fffffffffffffffffffffffffffffffffffffffffffffffffffffffffffffffff826109f6565b610a3b86836109f6565b95508019841693508086168417925050509392505050565b5f819050919050565b5f610a76610a71610a6c84610546565b610a53565b610546565b9050919050565b5f819050919050565b610a8f83610a5c565b610aa3610a9b82610a7d565b848454610a02565b825550505050565b5f5f905090565b610aba610aab565b610ac5818484610a86565b505050565b5b81811015610ae857610add5f82610ab2565b600181019050610acb565b5050565b601f821115610b2d57610afe816109d5565b610b07846109e7565b81016020851015610b16578190505b610b2a610b22856109e7565b830182610aca565b50505b505050565b5f82821c905092915050565b5f610b4d5f1984600802610b32565b1980831691505092915050565b5f610b658383610b3e565b9150826002028217905092915050565b610b7e826105a4565b67ffffffffffffffff811115610b9757610b9661069d565b5b610ba18254610848565b610bac828285610aec565b5f60209050601f831160018114610bdd575f8415610bcb578287015190505b610bd58582610b5a565b865550610c3c565b601f198416610beb866109d5565b5f5b82811015610c1257848901518255600182019150602085019450602081019050610bed565b86831015610c2f5784890151610c2b601f891682610b3e565b8355505b6001600288020188555050505b505050505050565b5f610c4e82610546565b91507fffffffffffffffffffffffffffffffffffffffffffffffffffffffffffffffff8203610c8057610c7f610975565b5b60018201905091905056fea26469706673582212200d34f1935ac27ba7877abe947440448df04fee9eb4f0f3f710e615560f95a10e64736f6c634300081f0033",
					"opcodes": "PUSH1 0x80 PUSH1 0x40 MSTORE CALLVALUE DUP1 ISZERO PUSH1 0xE JUMPI PUSH0 PUSH0 REVERT JUMPDEST POP PUSH2 0xCC1 DUP1 PUSH2 0x1C PUSH0 CODECOPY PUSH0 RETURN INVALID PUSH1 0x80 PUSH1 0x40 MSTORE CALLVALUE DUP1 ISZERO PUSH2 0xF JUMPI PUSH0 PUSH0 REVERT JUMPDEST POP PUSH1 0x4 CALLDATASIZE LT PUSH2 0x4A JUMPI PUSH0 CALLDATALOAD PUSH1 0xE0 SHR DUP1 PUSH4 0x13CF08B EQ PUSH2 0x4E JUMPI DUP1 PUSH4 0xD61B519 EQ PUSH2 0x82 JUMPI DUP1 PUSH4 0x35FACF78 EQ PUSH2 0x9E JUMPI DUP1 PUSH4 0x3EAF7591 EQ PUSH2 0xBA JUMPI JUMPDEST PUSH0 PUSH0 REVERT JUMPDEST PUSH2 0x68 PUSH1 0x4 DUP1 CALLDATASIZE SUB DUP2 ADD SWAP1 PUSH2 0x63 SWAP2 SWAP1 PUSH2 0x579 JUMP JUMPDEST PUSH2 0xD6 JUMP JUMPDEST PUSH1 0x40 MLOAD PUSH2 0x79 SWAP6 SWAP5 SWAP4 SWAP3 SWAP2 SWAP1 PUSH2 0x63D JUMP JUMPDEST PUSH1 0x40 MLOAD DUP1 SWAP2 SUB SWAP1 RETURN JUMPDEST PUSH2 0x9C PUSH1 0x4 DUP1 CALLDATASIZE SUB DUP2 ADD SWAP1 PUSH2 0x97 SWAP2 SWAP1 PUSH2 0x579 JUMP JUMPDEST PUSH2 0x1A8 JUMP JUMPDEST STOP JUMPDEST PUSH2 0xB8 PUSH1 0x4 DUP1 CALLDATASIZE SUB DUP2 ADD SWAP1 PUSH2 0xB3 SWAP2 SWAP1 PUSH2 0x7C1 JUMP JUMPDEST PUSH2 0x2E3 JUMP JUMPDEST STOP JUMPDEST PUSH2 0xD4 PUSH1 0x4 DUP1 CALLDATASIZE SUB DUP2 ADD SWAP1 PUSH2 0xCF SWAP2 SWAP1 PUSH2 0x579 JUMP JUMPDEST PUSH2 0x39A JUMP JUMPDEST STOP JUMPDEST PUSH0 DUP2 DUP2 SLOAD DUP2 LT PUSH2 0xE4 JUMPI PUSH0 DUP1 REVERT JUMPDEST SWAP1 PUSH0 MSTORE PUSH1 0x20 PUSH0 KECCAK256 SWAP1 PUSH1 0x5 MUL ADD PUSH0 SWAP2 POP SWAP1 POP DUP1 PUSH0 ADD DUP1 SLOAD PUSH2 0x103 SWAP1 PUSH2 0x848 JUMP JUMPDEST DUP1 PUSH1 0x1F ADD PUSH1 0x20 DUP1 SWAP2 DIV MUL PUSH1 0x20 ADD PUSH1 0x40 MLOAD SWAP1 DUP2 ADD PUSH1 0x40 MSTORE DUP1 SWAP3 SWAP2 SWAP1 DUP2 DUP2 MSTORE PUSH1 0x20 ADD DUP3 DUP1 SLOAD PUSH2 0x12F SWAP1 PUSH2 0x848 JUMP JUMPDEST DUP1 ISZERO PUSH2 0x17A JUMPI DUP1 PUSH1 0x1F LT PUSH2 0x151 JUMPI PUSH2 0x100 DUP1 DUP4 SLOAD DIV MUL DUP4 MSTORE SWAP2 PUSH1 0x20 ADD SWAP2 PUSH2 0x17A JUMP JUMPDEST DUP3 ADD SWAP2 SWAP1 PUSH0 MSTORE PUSH1 0x20 PUSH0 KECCAK256 SWAP1 JUMPDEST DUP2 SLOAD DUP2 MSTORE SWAP1 PUSH1 0x1 ADD SWAP1 PUSH1 0x20 ADD DUP1 DUP4 GT PUSH2 0x15D JUMPI DUP3 SWAP1 SUB PUSH1 0x1F AND DUP3 ADD SWAP2 JUMPDEST POP POP POP POP POP SWAP1 DUP1 PUSH1 0x1 ADD SLOAD SWAP1 DUP1 PUSH1 0x2 ADD SLOAD SWAP1 DUP1 PUSH1 0x3 ADD SLOAD SWAP1 DUP1 PUSH1 0x4 ADD PUSH0 SWAP1 SLOAD SWAP1 PUSH2 0x100 EXP SWAP1 DIV PUSH1 0xFF AND SWAP1 POP DUP6 JUMP JUMPDEST PUSH0 PUSH0 DUP3 DUP2 SLOAD DUP2 LT PUSH2 0x1BC JUMPI PUSH2 0x1BB PUSH2 0x878 JUMP JUMPDEST JUMPDEST SWAP1 PUSH0 MSTORE PUSH1 0x20 PUSH0 KECCAK256 SWAP1 PUSH1 0x5 MUL ADD PUSH1 0x2 ADD SLOAD EQ PUSH2 0x20C JUMPI PUSH1 0x40 MLOAD PUSH32 0x8C379A000000000000000000000000000000000000000000000000000000000 DUP2 MSTORE PUSH1 0x4 ADD PUSH2 0x203 SWAP1 PUSH2 0x8EF JUMP JUMPDEST PUSH1 0x40 MLOAD DUP1 SWAP2 SUB SWAP1 REVERT JUMPDEST PUSH0 DUP2 DUP2 SLOAD DUP2 LT PUSH2 0x21F JUMPI PUSH2 0x21E PUSH2 0x878 JUMP JUMPDEST JUMPDEST SWAP1 PUSH0 MSTORE PUSH1 0x20 PUSH0 KECCAK256 SWAP1 PUSH1 0x5 MUL ADD PUSH1 0x4 ADD PUSH0 SWAP1 SLOAD SWAP1 PUSH2 0x100 EXP SWAP1 DIV PUSH1 0xFF AND DUP1 PUSH2 0x267 JUMPI POP PUSH0 DUP2 DUP2 SLOAD DUP2 LT PUSH2 0x254 JUMPI PUSH2 0x253 PUSH2 0x878 JUMP JUMPDEST JUMPDEST SWAP1 PUSH0 MSTORE PUSH1 0x20 PUSH0 KECCAK256 SWAP1 PUSH1 0x5 MUL ADD PUSH1 0x3 ADD SLOAD TIMESTAMP GT JUMPDEST PUSH2 0x2A6 JUMPI PUSH1 0x40 MLOAD PUSH32 0x8C379A000000000000000000000000000000000000000000000000000000000 DUP2 MSTORE PUSH1 0x4 ADD PUSH2 0x29D SWAP1 PUSH2 0x957 JUMP JUMPDEST PUSH1 0x40 MLOAD DUP1 SWAP2 SUB SWAP1 REVERT JUMPDEST PUSH1 0x1 PUSH0 DUP3 DUP2 SLOAD DUP2 LT PUSH2 0x2BB JUMPI PUSH2 0x2BA PUSH2 0x878 JUMP JUMPDEST JUMPDEST SWAP1 PUSH0 MSTORE PUSH1 0x20 PUSH0 KECCAK256 SWAP1 PUSH1 0x5 MUL ADD PUSH1 0x4 ADD PUSH0 PUSH2 0x100 EXP DUP2 SLOAD DUP2 PUSH1 0xFF MUL NOT AND SWAP1 DUP4 ISZERO ISZERO MUL OR SWAP1 SSTORE POP POP JUMP JUMPDEST PUSH0 PUSH1 0x40 MLOAD DUP1 PUSH1 0xA0 ADD PUSH1 0x40 MSTORE DUP1 DUP5 DUP2 MSTORE PUSH1 0x20 ADD PUSH0 DUP2 MSTORE PUSH1 0x20 ADD TIMESTAMP DUP2 MSTORE PUSH1 0x20 ADD DUP4 TIMESTAMP PUSH2 0x30D SWAP2 SWAP1 PUSH2 0x9A2 JUMP JUMPDEST DUP2 MSTORE PUSH1 0x20 ADD PUSH0 ISZERO ISZERO DUP2 MSTORE POP SWAP1 POP PUSH0 DUP2 SWAP1 DUP1 PUSH1 0x1 DUP2 SLOAD ADD DUP1 DUP3 SSTORE DUP1 SWAP2 POP POP PUSH1 0x1 SWAP1 SUB SWAP1 PUSH0 MSTORE PUSH1 0x20 PUSH0 KECCAK256 SWAP1 PUSH1 0x5 MUL ADD PUSH0 SWAP1 SWAP2 SWAP1 SWAP2 SWAP1 SWAP2 POP PUSH0 DUP3 ADD MLOAD DUP2 PUSH0 ADD SWAP1 DUP2 PUSH2 0x355 SWAP2 SWAP1 PUSH2 0xB75 JUMP JUMPDEST POP PUSH1 0x20 DUP3 ADD MLOAD DUP2 PUSH1 0x1 ADD SSTORE PUSH1 0x40 DUP3 ADD MLOAD DUP2 PUSH1 0x2 ADD SSTORE PUSH1 0x60 DUP3 ADD MLOAD DUP2 PUSH1 0x3 ADD SSTORE PUSH1 0x80 DUP3 ADD MLOAD DUP2 PUSH1 0x4 ADD PUSH0 PUSH2 0x100 EXP DUP2 SLOAD DUP2 PUSH1 0xFF MUL NOT AND SWAP1 DUP4 ISZERO ISZERO MUL OR SWAP1 SSTORE POP POP POP POP POP POP JUMP JUMPDEST PUSH0 PUSH0 DUP3 DUP2 SLOAD DUP2 LT PUSH2 0x3AE JUMPI PUSH2 0x3AD PUSH2 0x878 JUMP JUMPDEST JUMPDEST SWAP1 PUSH0 MSTORE PUSH1 0x20 PUSH0 KECCAK256 SWAP1 PUSH1 0x5 MUL ADD PUSH1 0x2 ADD SLOAD EQ PUSH2 0x3FE JUMPI PUSH1 0x40 MLOAD PUSH32 0x8C379A000000000000000000000000000000000000000000000000000000000 DUP2 MSTORE PUSH1 0x4 ADD PUSH2 0x3F5 SWAP1 PUSH2 0x8EF JUMP JUMPDEST PUSH1 0x40 MLOAD DUP1 SWAP2 SUB SWAP1 REVERT JUMPDEST PUSH0 DUP2 DUP2 SLOAD DUP2 LT PUSH2 0x411 JUMPI PUSH2 0x410 PUSH2 0x878 JUMP JUMPDEST JUMPDEST SWAP1 PUSH0 MSTORE PUSH1 0x20 PUSH0 KECCAK256 SWAP1 PUSH1 0x5 MUL ADD PUSH1 0x4 ADD PUSH0 SWAP1 SLOAD SWAP1 PUSH2 0x100 EXP SWAP1 DIV PUSH1 0xFF AND DUP1 PUSH2 0x459 JUMPI POP PUSH0 DUP2 DUP2 SLOAD DUP2 LT PUSH2 0x446 JUMPI PUSH2 0x445 PUSH2 0x878 JUMP JUMPDEST JUMPDEST SWAP1 PUSH0 MSTORE PUSH1 0x20 PUSH0 KECCAK256 SWAP1 PUSH1 0x5 MUL ADD PUSH1 0x3 ADD SLOAD TIMESTAMP GT JUMPDEST PUSH2 0x498 JUMPI PUSH1 0x40 MLOAD PUSH32 0x8C379A000000000000000000000000000000000000000000000000000000000 DUP2 MSTORE PUSH1 0x4 ADD PUSH2 0x48F SWAP1 PUSH2 0x957 JUMP JUMPDEST PUSH1 0x40 MLOAD DUP1 SWAP2 SUB SWAP1 REVERT JUMPDEST PUSH1 0x1 DUP1 PUSH0 CALLER PUSH20 0xFFFFFFFFFFFFFFFFFFFFFFFFFFFFFFFFFFFFFFFF AND PUSH20 0xFFFFFFFFFFFFFFFFFFFFFFFFFFFFFFFFFFFFFFFF AND DUP2 MSTORE PUSH1 0x20 ADD SWAP1 DUP2 MSTORE PUSH1 0x20 ADD PUSH0 KECCAK256 PUSH0 DUP4 DUP2 MSTORE PUSH1 0x20 ADD SWAP1 DUP2 MSTORE PUSH1 0x20 ADD PUSH0 KECCAK256 PUSH0 PUSH2 0x100 EXP DUP2 SLOAD DUP2 PUSH1 0xFF MUL NOT AND SWAP1 DUP4 ISZERO ISZERO MUL OR SWAP1 SSTORE POP PUSH0 DUP2 DUP2 SLOAD DUP2 LT PUSH2 0x50E JUMPI PUSH2 0x50D PUSH2 0x878 JUMP JUMPDEST JUMPDEST SWAP1 PUSH0 MSTORE PUSH1 0x20 PUSH0 KECCAK256 SWAP1 PUSH1 0x5 MUL ADD PUSH1 0x1 ADD PUSH0 DUP2 SLOAD DUP1 SWAP3 SWAP2 SWAP1 PUSH2 0x52D SWAP1 PUSH2 0xC44 JUMP JUMPDEST SWAP2 SWAP1 POP SSTORE POP POP JUMP JUMPDEST PUSH0 PUSH1 0x40 MLOAD SWAP1 POP SWAP1 JUMP JUMPDEST PUSH0 PUSH0 REVERT JUMPDEST PUSH0 PUSH0 REVERT JUMPDEST PUSH0 DUP2 SWAP1 POP SWAP2 SWAP1 POP JUMP JUMPDEST PUSH2 0x558 DUP2 PUSH2 0x546 JUMP JUMPDEST DUP2 EQ PUSH2 0x562 JUMPI PUSH0 PUSH0 REVERT JUMPDEST POP JUMP JUMPDEST PUSH0 DUP2 CALLDATALOAD SWAP1 POP PUSH2 0x573 DUP2 PUSH2 0x54F JUMP JUMPDEST SWAP3 SWAP2 POP POP JUMP JUMPDEST PUSH0 PUSH1 0x20 DUP3 DUP5 SUB SLT ISZERO PUSH2 0x58E JUMPI PUSH2 0x58D PUSH2 0x53E JUMP JUMPDEST JUMPDEST PUSH0 PUSH2 0x59B DUP5 DUP3 DUP6 ADD PUSH2 0x565 JUMP JUMPDEST SWAP2 POP POP SWAP3 SWAP2 POP POP JUMP JUMPDEST PUSH0 DUP2 MLOAD SWAP1 POP SWAP2 SWAP1 POP JUMP JUMPDEST PUSH0 DUP3 DUP3 MSTORE PUSH1 0x20 DUP3 ADD SWAP1 POP SWAP3 SWAP2 POP POP JUMP JUMPDEST DUP3 DUP2 DUP4 MCOPY PUSH0 DUP4 DUP4 ADD MSTORE POP POP POP JUMP JUMPDEST PUSH0 PUSH1 0x1F NOT PUSH1 0x1F DUP4 ADD AND SWAP1 POP SWAP2 SWAP1 POP JUMP JUMPDEST PUSH0 PUSH2 0x5E6 DUP3 PUSH2 0x5A4 JUMP JUMPDEST PUSH2 0x5F0 DUP2 DUP6 PUSH2 0x5AE JUMP JUMPDEST SWAP4 POP PUSH2 0x600 DUP2 DUP6 PUSH1 0x20 DUP7 ADD PUSH2 0x5BE JUMP JUMPDEST PUSH2 0x609 DUP2 PUSH2 0x5CC JUMP JUMPDEST DUP5 ADD SWAP2 POP POP SWAP3 SWAP2 POP POP JUMP JUMPDEST PUSH2 0x61D DUP2 PUSH2 0x546 JUMP JUMPDEST DUP3 MSTORE POP POP JUMP JUMPDEST PUSH0 DUP2 ISZERO ISZERO SWAP1 POP SWAP2 SWAP1 POP JUMP JUMPDEST PUSH2 0x637 DUP2 PUSH2 0x623 JUMP JUMPDEST DUP3 MSTORE POP POP JUMP JUMPDEST PUSH0 PUSH1 0xA0 DUP3 ADD SWAP1 POP DUP2 DUP2 SUB PUSH0 DUP4 ADD MSTORE PUSH2 0x655 DUP2 DUP9 PUSH2 0x5DC JUMP JUMPDEST SWAP1 POP PUSH2 0x664 PUSH1 0x20 DUP4 ADD DUP8 PUSH2 0x614 JUMP JUMPDEST PUSH2 0x671 PUSH1 0x40 DUP4 ADD DUP7 PUSH2 0x614 JUMP JUMPDEST PUSH2 0x67E PUSH1 0x60 DUP4 ADD DUP6 PUSH2 0x614 JUMP JUMPDEST PUSH2 0x68B PUSH1 0x80 DUP4 ADD DUP5 PUSH2 0x62E JUMP JUMPDEST SWAP7 SWAP6 POP POP POP POP POP POP JUMP JUMPDEST PUSH0 PUSH0 REVERT JUMPDEST PUSH0 PUSH0 REVERT JUMPDEST PUSH32 0x4E487B7100000000000000000000000000000000000000000000000000000000 PUSH0 MSTORE PUSH1 0x41 PUSH1 0x4 MSTORE PUSH1 0x24 PUSH0 REVERT JUMPDEST PUSH2 0x6D3 DUP3 PUSH2 0x5CC JUMP JUMPDEST DUP2 ADD DUP2 DUP2 LT PUSH8 0xFFFFFFFFFFFFFFFF DUP3 GT OR ISZERO PUSH2 0x6F2 JUMPI PUSH2 0x6F1 PUSH2 0x69D JUMP JUMPDEST JUMPDEST DUP1 PUSH1 0x40 MSTORE POP POP POP JUMP JUMPDEST PUSH0 PUSH2 0x704 PUSH2 0x535 JUMP JUMPDEST SWAP1 POP PUSH2 0x710 DUP3 DUP3 PUSH2 0x6CA JUMP JUMPDEST SWAP2 SWAP1 POP JUMP JUMPDEST PUSH0 PUSH8 0xFFFFFFFFFFFFFFFF DUP3 GT ISZERO PUSH2 0x72F JUMPI PUSH2 0x72E PUSH2 0x69D JUMP JUMPDEST JUMPDEST PUSH2 0x738 DUP3 PUSH2 0x5CC JUMP JUMPDEST SWAP1 POP PUSH1 0x20 DUP2 ADD SWAP1 POP SWAP2 SWAP1 POP JUMP JUMPDEST DUP3 DUP2 DUP4 CALLDATACOPY PUSH0 DUP4 DUP4 ADD MSTORE POP POP POP JUMP JUMPDEST PUSH0 PUSH2 0x765 PUSH2 0x760 DUP5 PUSH2 0x715 JUMP JUMPDEST PUSH2 0x6FB JUMP JUMPDEST SWAP1 POP DUP3 DUP2 MSTORE PUSH1 0x20 DUP2 ADD DUP5 DUP5 DUP5 ADD GT ISZERO PUSH2 0x781 JUMPI PUSH2 0x780 PUSH2 0x699 JUMP JUMPDEST JUMPDEST PUSH2 0x78C DUP5 DUP3 DUP6 PUSH2 0x745 JUMP JUMPDEST POP SWAP4 SWAP3 POP POP POP JUMP JUMPDEST PUSH0 DUP3 PUSH1 0x1F DUP4 ADD SLT PUSH2 0x7A8 JUMPI PUSH2 0x7A7 PUSH2 0x695 JUMP JUMPDEST JUMPDEST DUP2 CALLDATALOAD PUSH2 0x7B8 DUP5 DUP3 PUSH1 0x20 DUP7 ADD PUSH2 0x753 JUMP JUMPDEST SWAP2 POP POP SWAP3 SWAP2 POP POP JUMP JUMPDEST PUSH0 PUSH0 PUSH1 0x40 DUP4 DUP6 SUB SLT ISZERO PUSH2 0x7D7 JUMPI PUSH2 0x7D6 PUSH2 0x53E JUMP JUMPDEST JUMPDEST PUSH0 DUP4 ADD CALLDATALOAD PUSH8 0xFFFFFFFFFFFFFFFF DUP2 GT ISZERO PUSH2 0x7F4 JUMPI PUSH2 0x7F3 PUSH2 0x542 JUMP JUMPDEST JUMPDEST PUSH2 0x800 DUP6 DUP3 DUP7 ADD PUSH2 0x794 JUMP JUMPDEST SWAP3 POP POP PUSH1 0x20 PUSH2 0x811 DUP6 DUP3 DUP7 ADD PUSH2 0x565 JUMP JUMPDEST SWAP2 POP POP SWAP3 POP SWAP3 SWAP1 POP JUMP JUMPDEST PUSH32 0x4E487B7100000000000000000000000000000000000000000000000000000000 PUSH0 MSTORE PUSH1 0x22 PUSH1 0x4 MSTORE PUSH1 0x24 PUSH0 REVERT JUMPDEST PUSH0 PUSH1 0x2 DUP3 DIV SWAP1 POP PUSH1 0x1 DUP3 AND DUP1 PUSH2 0x85F JUMPI PUSH1 0x7F DUP3 AND SWAP2 POP JUMPDEST PUSH1 0x20 DUP3 LT DUP2 SUB PUSH2 0x872 JUMPI PUSH2 0x871 PUSH2 0x81B JUMP JUMPDEST JUMPDEST POP SWAP2 SWAP1 POP JUMP JUMPDEST PUSH32 0x4E487B7100000000000000000000000000000000000000000000000000000000 PUSH0 MSTORE PUSH1 0x32 PUSH1 0x4 MSTORE PUSH1 0x24 PUSH0 REVERT JUMPDEST PUSH32 0x50726F706F73616C20646F65736E277420657869737473000000000000000000 PUSH0 DUP3 ADD MSTORE POP JUMP JUMPDEST PUSH0 PUSH2 0x8D9 PUSH1 0x17 DUP4 PUSH2 0x5AE JUMP JUMPDEST SWAP2 POP PUSH2 0x8E4 DUP3 PUSH2 0x8A5 JUMP JUMPDEST PUSH1 0x20 DUP3 ADD SWAP1 POP SWAP2 SWAP1 POP JUMP JUMPDEST PUSH0 PUSH1 0x20 DUP3 ADD SWAP1 POP DUP2 DUP2 SUB PUSH0 DUP4 ADD MSTORE PUSH2 0x906 DUP2 PUSH2 0x8CD JUMP JUMPDEST SWAP1 POP SWAP2 SWAP1 POP JUMP JUMPDEST PUSH32 0x50726F706F73616C20616C726561647920656E64656421000000000000000000 PUSH0 DUP3 ADD MSTORE POP JUMP JUMPDEST PUSH0 PUSH2 0x941 PUSH1 0x17 DUP4 PUSH2 0x5AE JUMP JUMPDEST SWAP2 POP PUSH2 0x94C DUP3 PUSH2 0x90D JUMP JUMPDEST PUSH1 0x20 DUP3 ADD SWAP1 POP SWAP2 SWAP1 POP JUMP JUMPDEST PUSH0 PUSH1 0x20 DUP3 ADD SWAP1 POP DUP2 DUP2 SUB PUSH0 DUP4 ADD MSTORE PUSH2 0x96E DUP2 PUSH2 0x935 JUMP JUMPDEST SWAP1 POP SWAP2 SWAP1 POP JUMP JUMPDEST PUSH32 0x4E487B7100000000000000000000000000000000000000000000000000000000 PUSH0 MSTORE PUSH1 0x11 PUSH1 0x4 MSTORE PUSH1 0x24 PUSH0 REVERT JUMPDEST PUSH0 PUSH2 0x9AC DUP3 PUSH2 0x546 JUMP JUMPDEST SWAP2 POP PUSH2 0x9B7 DUP4 PUSH2 0x546 JUMP JUMPDEST SWAP3 POP DUP3 DUP3 ADD SWAP1 POP DUP1 DUP3 GT ISZERO PUSH2 0x9CF JUMPI PUSH2 0x9CE PUSH2 0x975 JUMP JUMPDEST JUMPDEST SWAP3 SWAP2 POP POP JUMP JUMPDEST PUSH0 DUP2 SWAP1 POP DUP2 PUSH0 MSTORE PUSH1 0x20 PUSH0 KECCAK256 SWAP1 POP SWAP2 SWAP1 POP JUMP JUMPDEST PUSH0 PUSH1 0x20 PUSH1 0x1F DUP4 ADD DIV SWAP1 POP SWAP2 SWAP1 POP JUMP JUMPDEST PUSH0 DUP3 DUP3 SHL SWAP1 POP SWAP3 SWAP2 POP POP JUMP JUMPDEST PUSH0 PUSH1 0x8 DUP4 MUL PUSH2 0xA31 PUSH32 0xFFFFFFFFFFFFFFFFFFFFFFFFFFFFFFFFFFFFFFFFFFFFFFFFFFFFFFFFFFFFFFFF DUP3 PUSH2 0x9F6 JUMP JUMPDEST PUSH2 0xA3B DUP7 DUP4 PUSH2 0x9F6 JUMP JUMPDEST SWAP6 POP DUP1 NOT DUP5 AND SWAP4 POP DUP1 DUP7 AND DUP5 OR SWAP3 POP POP POP SWAP4 SWAP3 POP POP POP JUMP JUMPDEST PUSH0 DUP2 SWAP1 POP SWAP2 SWAP1 POP JUMP JUMPDEST PUSH0 PUSH2 0xA76 PUSH2 0xA71 PUSH2 0xA6C DUP5 PUSH2 0x546 JUMP JUMPDEST PUSH2 0xA53 JUMP JUMPDEST PUSH2 0x546 JUMP JUMPDEST SWAP1 POP SWAP2 SWAP1 POP JUMP JUMPDEST PUSH0 DUP2 SWAP1 POP SWAP2 SWAP1 POP JUMP JUMPDEST PUSH2 0xA8F DUP4 PUSH2 0xA5C JUMP JUMPDEST PUSH2 0xAA3 PUSH2 0xA9B DUP3 PUSH2 0xA7D JUMP JUMPDEST DUP5 DUP5 SLOAD PUSH2 0xA02 JUMP JUMPDEST DUP3 SSTORE POP POP POP POP JUMP JUMPDEST PUSH0 PUSH0 SWAP1 POP SWAP1 JUMP JUMPDEST PUSH2 0xABA PUSH2 0xAAB JUMP JUMPDEST PUSH2 0xAC5 DUP2 DUP5 DUP5 PUSH2 0xA86 JUMP JUMPDEST POP POP POP JUMP JUMPDEST JUMPDEST DUP2 DUP2 LT ISZERO PUSH2 0xAE8 JUMPI PUSH2 0xADD PUSH0 DUP3 PUSH2 0xAB2 JUMP JUMPDEST PUSH1 0x1 DUP2 ADD SWAP1 POP PUSH2 0xACB JUMP JUMPDEST POP POP JUMP JUMPDEST PUSH1 0x1F DUP3 GT ISZERO PUSH2 0xB2D JUMPI PUSH2 0xAFE DUP2 PUSH2 0x9D5 JUMP JUMPDEST PUSH2 0xB07 DUP5 PUSH2 0x9E7 JUMP JUMPDEST DUP2 ADD PUSH1 0x20 DUP6 LT ISZERO PUSH2 0xB16 JUMPI DUP2 SWAP1 POP JUMPDEST PUSH2 0xB2A PUSH2 0xB22 DUP6 PUSH2 0x9E7 JUMP JUMPDEST DUP4 ADD DUP3 PUSH2 0xACA JUMP JUMPDEST POP POP JUMPDEST POP POP POP JUMP JUMPDEST PUSH0 DUP3 DUP3 SHR SWAP1 POP SWAP3 SWAP2 POP POP JUMP JUMPDEST PUSH0 PUSH2 0xB4D PUSH0 NOT DUP5 PUSH1 0x8 MUL PUSH2 0xB32 JUMP JUMPDEST NOT DUP1 DUP4 AND SWAP2 POP POP SWAP3 SWAP2 POP POP JUMP JUMPDEST PUSH0 PUSH2 0xB65 DUP4 DUP4 PUSH2 0xB3E JUMP JUMPDEST SWAP2 POP DUP3 PUSH1 0x2 MUL DUP3 OR SWAP1 POP SWAP3 SWAP2 POP POP JUMP JUMPDEST PUSH2 0xB7E DUP3 PUSH2 0x5A4 JUMP JUMPDEST PUSH8 0xFFFFFFFFFFFFFFFF DUP2 GT ISZERO PUSH2 0xB97 JUMPI PUSH2 0xB96 PUSH2 0x69D JUMP JUMPDEST JUMPDEST PUSH2 0xBA1 DUP3 SLOAD PUSH2 0x848 JUMP JUMPDEST PUSH2 0xBAC DUP3 DUP3 DUP6 PUSH2 0xAEC JUMP JUMPDEST PUSH0 PUSH1 0x20 SWAP1 POP PUSH1 0x1F DUP4 GT PUSH1 0x1 DUP2 EQ PUSH2 0xBDD JUMPI PUSH0 DUP5 ISZERO PUSH2 0xBCB JUMPI DUP3 DUP8 ADD MLOAD SWAP1 POP JUMPDEST PUSH2 0xBD5 DUP6 DUP3 PUSH2 0xB5A JUMP JUMPDEST DUP7 SSTORE POP PUSH2 0xC3C JUMP JUMPDEST PUSH1 0x1F NOT DUP5 AND PUSH2 0xBEB DUP7 PUSH2 0x9D5 JUMP JUMPDEST PUSH0 JUMPDEST DUP3 DUP2 LT ISZERO PUSH2 0xC12 JUMPI DUP5 DUP10 ADD MLOAD DUP3 SSTORE PUSH1 0x1 DUP3 ADD SWAP2 POP PUSH1 0x20 DUP6 ADD SWAP5 POP PUSH1 0x20 DUP2 ADD SWAP1 POP PUSH2 0xBED JUMP JUMPDEST DUP7 DUP4 LT ISZERO PUSH2 0xC2F JUMPI DUP5 DUP10 ADD MLOAD PUSH2 0xC2B PUSH1 0x1F DUP10 AND DUP3 PUSH2 0xB3E JUMP JUMPDEST DUP4 SSTORE POP JUMPDEST PUSH1 0x1 PUSH1 0x2 DUP9 MUL ADD DUP9 SSTORE POP POP POP JUMPDEST POP POP POP POP POP POP JUMP JUMPDEST PUSH0 PUSH2 0xC4E DUP3 PUSH2 0x546 JUMP JUMPDEST SWAP2 POP PUSH32 0xFFFFFFFFFFFFFFFFFFFFFFFFFFFFFFFFFFFFFFFFFFFFFFFFFFFFFFFFFFFFFFFF DUP3 SUB PUSH2 0xC80 JUMPI PUSH2 0xC7F PUSH2 0x975 JUMP JUMPDEST JUMPDEST PUSH1 0x1 DUP3 ADD SWAP1 POP SWAP2 SWAP1 POP JUMP INVALID LOG2 PUSH5 0x6970667358 0x22 SLT KECCAK256 0xD CALLVALUE CALL SWAP4 GAS 0xC2 PUSH28 0xA7877ABE947440448DF04FEE9EB4F0F3F710E615560F95A10E64736F PUSH13 0x634300081F0033000000000000 "
				},
				"gasEstimates": {
					"creation": {
						"codeDepositCost": "653000",
						"executionCost": "687",
						"totalCost": "653687"
					},
					"external": {
						"createProposal(string,uint256)": "infinite",
						"executeProposal(uint256)": "39844",
						"makeVote(uint256)": "infinite",
						"proposals(uint256)": "infinite"
					}
				},
				"methodIdentifiers": {
					"createProposal(string,uint256)": "35facf78",
					"executeProposal(uint256)": "0d61b519",
					"makeVote(uint256)": "3eaf7591",
					"proposals(uint256)": "013cf08b"
				}
			},
			"storageLayout": {
				"storage": [
					{
						"astId": 16,
						"contract": "015-Gas Saver Voting/Voting.sol:Voting",
						"label": "proposals",
						"offset": 0,
						"slot": "0",
						"type": "t_array(t_struct(Proposal)12_storage)dyn_storage"
					},
					{
						"astId": 22,
						"contract": "015-Gas Saver Voting/Voting.sol:Voting",
						"label": "usersVote",
						"offset": 0,
						"slot": "1",
						"type": "t_mapping(t_address,t_mapping(t_uint256,t_bool))"
					}
				],
				"types": {
					"t_address": {
						"encoding": "inplace",
						"label": "address",
						"numberOfBytes": "20"
					},
					"t_array(t_struct(Proposal)12_storage)dyn_storage": {
						"base": "t_struct(Proposal)12_storage",
						"encoding": "dynamic_array",
						"label": "struct Proposal[]",
						"numberOfBytes": "32"
					},
					"t_bool": {
						"encoding": "inplace",
						"label": "bool",
						"numberOfBytes": "1"
					},
					"t_mapping(t_address,t_mapping(t_uint256,t_bool))": {
						"encoding": "mapping",
						"key": "t_address",
						"label": "mapping(address => mapping(uint256 => bool))",
						"numberOfBytes": "32",
						"value": "t_mapping(t_uint256,t_bool)"
					},
					"t_mapping(t_uint256,t_bool)": {
						"encoding": "mapping",
						"key": "t_uint256",
						"label": "mapping(uint256 => bool)",
						"numberOfBytes": "32",
						"value": "t_bool"
					},
					"t_string_storage": {
						"encoding": "bytes",
						"label": "string",
						"numberOfBytes": "32"
					},
					"t_struct(Proposal)12_storage": {
						"encoding": "inplace",
						"label": "struct Proposal",
						"members": [
							{
								"astId": 3,
								"contract": "015-Gas Saver Voting/Voting.sol:Voting",
								"label": "name",
								"offset": 0,
								"slot": "0",
								"type": "t_string_storage"
							},
							{
								"astId": 5,
								"contract": "015-Gas Saver Voting/Voting.sol:Voting",
								"label": "counts",
								"offset": 0,
								"slot": "1",
								"type": "t_uint256"
							},
							{
								"astId": 7,
								"contract": "015-Gas Saver Voting/Voting.sol:Voting",
								"label": "startTime",
								"offset": 0,
								"slot": "2",
								"type": "t_uint256"
							},
							{
								"astId": 9,
								"contract": "015-Gas Saver Voting/Voting.sol:Voting",
								"label": "endTime",
								"offset": 0,
								"slot": "3",
								"type": "t_uint256"
							},
							{
								"astId": 11,
								"contract": "015-Gas Saver Voting/Voting.sol:Voting",
								"label": "ended",
								"offset": 0,
								"slot": "4",
								"type": "t_bool"
							}
						],
						"numberOfBytes": "160"
					},
					"t_uint256": {
						"encoding": "inplace",
						"label": "uint256",
						"numberOfBytes": "32"
					}
				}
			},
			"userdoc": {
				"kind": "user",
				"methods": {},
				"version": 1
			}
		}
	}
}