{
	"019-SignThis/EventEntry.sol": {
		"EventEntry": {
			"abi": [
				{
					"inputs": [
						{
							"internalType": "string",
							"name": "_eventName",
							"type": "string"
						},
						{
							"internalType": "uint256",
							"name": "_eventDate",
							"type": "uint256"
						},
						{
							"internalType": "uint256",
							"name": "_maxAttendees",
							"type": "uint256"
						}
					],
					"stateMutability": "nonpayable",
					"type": "constructor"
				},
				{
					"anonymous": false,
					"inputs": [
						{
							"indexed": false,
							"internalType": "address",
							"name": "attendee",
							"type": "address"
						},
						{
							"indexed": false,
							"internalType": "uint256",
							"name": "timestamp",
							"type": "uint256"
						}
					],
					"name": "AttendeeCheckedIn",
					"type": "event"
				},
				{
					"anonymous": false,
					"inputs": [
						{
							"indexed": false,
							"internalType": "string",
							"name": "name",
							"type": "string"
						},
						{
							"indexed": false,
							"internalType": "uint256",
							"name": "date",
							"type": "uint256"
						},
						{
							"indexed": false,
							"internalType": "uint256",
							"name": "maxAttendees",
							"type": "uint256"
						}
					],
					"name": "EventCreated",
					"type": "event"
				},
				{
					"anonymous": false,
					"inputs": [
						{
							"indexed": false,
							"internalType": "bool",
							"name": "isEventActive",
							"type": "bool"
						}
					],
					"name": "EventStatusChange",
					"type": "event"
				},
				{
					"inputs": [],
					"name": "attendeeCount",
					"outputs": [
						{
							"internalType": "uint256",
							"name": "",
							"type": "uint256"
						}
					],
					"stateMutability": "view",
					"type": "function"
				},
				{
					"inputs": [
						{
							"internalType": "bytes",
							"name": "_signature",
							"type": "bytes"
						}
					],
					"name": "checkIn",
					"outputs": [],
					"stateMutability": "nonpayable",
					"type": "function"
				},
				{
					"inputs": [],
					"name": "eventDate",
					"outputs": [
						{
							"internalType": "uint256",
							"name": "",
							"type": "uint256"
						}
					],
					"stateMutability": "view",
					"type": "function"
				},
				{
					"inputs": [],
					"name": "eventName",
					"outputs": [
						{
							"internalType": "string",
							"name": "",
							"type": "string"
						}
					],
					"stateMutability": "view",
					"type": "function"
				},
				{
					"inputs": [
						{
							"internalType": "bytes32",
							"name": "_messageHash",
							"type": "bytes32"
						}
					],
					"name": "getEthSignedMessageHash",
					"outputs": [
						{
							"internalType": "bytes32",
							"name": "",
							"type": "bytes32"
						}
					],
					"stateMutability": "pure",
					"type": "function"
				},
				{
					"inputs": [
						{
							"internalType": "address",
							"name": "_attendee",
							"type": "address"
						}
					],
					"name": "getMessageHash",
					"outputs": [
						{
							"internalType": "bytes32",
							"name": "",
							"type": "bytes32"
						}
					],
					"stateMutability": "view",
					"type": "function"
				},
				{
					"inputs": [
						{
							"internalType": "address",
							"name": "",
							"type": "address"
						}
					],
					"name": "hasAttended",
					"outputs": [
						{
							"internalType": "bool",
							"name": "",
							"type": "bool"
						}
					],
					"stateMutability": "view",
					"type": "function"
				},
				{
					"inputs": [],
					"name": "isEventActive",
					"outputs": [
						{
							"internalType": "bool",
							"name": "",
							"type": "bool"
						}
					],
					"stateMutability": "view",
					"type": "function"
				},
				{
					"inputs": [],
					"name": "maxAttendees",
					"outputs": [
						{
							"internalType": "uint256",
							"name": "",
							"type": "uint256"
						}
					],
					"stateMutability": "view",
					"type": "function"
				},
				{
					"inputs": [],
					"name": "organizer",
					"outputs": [
						{
							"internalType": "address",
							"name": "",
							"type": "address"
						}
					],
					"stateMutability": "view",
					"type": "function"
				},
				{
					"inputs": [
						{
							"internalType": "bytes32",
							"name": "_ethSignedMessageHash",
							"type": "bytes32"
						},
						{
							"internalType": "bytes",
							"name": "_signature",
							"type": "bytes"
						}
					],
					"name": "recoverSigner",
					"outputs": [
						{
							"internalType": "address",
							"name": "",
							"type": "address"
						}
					],
					"stateMutability": "pure",
					"type": "function"
				},
				{
					"inputs": [
						{
							"internalType": "bool",
							"name": "_isActive",
							"type": "bool"
						}
					],
					"name": "setEventStatus",
					"outputs": [],
					"stateMutability": "nonpayable",
					"type": "function"
				},
				{
					"inputs": [
						{
							"internalType": "address",
							"name": "_attendee",
							"type": "address"
						},
						{
							"internalType": "bytes",
							"name": "_signature",
							"type": "bytes"
						}
					],
					"name": "verifySignature",
					"outputs": [
						{
							"internalType": "bool",
							"name": "",
							"type": "bool"
						}
					],
					"stateMutability": "view",
					"type": "function"
				}
			],
			"devdoc": {
				"kind": "dev",
				"methods": {},
				"version": 1
			},
			"evm": {
				"assembly": "    /* \"019-SignThis/EventEntry.sol\":803:3683  contract EventEntry {... */\n  mstore(0x40, 0x80)\n    /* \"019-SignThis/EventEntry.sol\":1258:1574  constructor(string memory _eventName, uint256 _eventDate, uint256 _maxAttendees) {... */\n  callvalue\n  dup1\n  iszero\n  tag_1\n  jumpi\n  revert(0x00, 0x00)\ntag_1:\n  pop\n  mload(0x40)\n  sub(codesize, bytecodeSize)\n  dup1\n  bytecodeSize\n  dup4\n  codecopy\n  dup2\n  dup2\n  add\n  0x40\n  mstore\n  dup2\n  add\n  swap1\n  tag_2\n  swap2\n  swap1\n  tag_3\n  jump\t// in\ntag_2:\n    /* \"019-SignThis/EventEntry.sol\":1361:1371  _eventName */\n  dup3\n    /* \"019-SignThis/EventEntry.sol\":1349:1358  eventName */\n  0x00\n    /* \"019-SignThis/EventEntry.sol\":1349:1371  eventName = _eventName */\n  swap1\n  dup2\n  tag_6\n  swap2\n  swap1\n  tag_7\n  jump\t// in\ntag_6:\n  pop\n    /* \"019-SignThis/EventEntry.sol\":1393:1403  _eventDate */\n  dup2\n    /* \"019-SignThis/EventEntry.sol\":1381:1390  eventDate */\n  0x02\n    /* \"019-SignThis/EventEntry.sol\":1381:1403  eventDate = _eventDate */\n  dup2\n  swap1\n  sstore\n  pop\n    /* \"019-SignThis/EventEntry.sol\":1428:1441  _maxAttendees */\n  dup1\n    /* \"019-SignThis/EventEntry.sol\":1413:1425  maxAttendees */\n  0x03\n    /* \"019-SignThis/EventEntry.sol\":1413:1441  maxAttendees = _maxAttendees */\n  dup2\n  swap1\n  sstore\n  pop\n    /* \"019-SignThis/EventEntry.sol\":1463:1473  msg.sender */\n  caller\n    /* \"019-SignThis/EventEntry.sol\":1451:1460  organizer */\n  0x01\n  0x00\n    /* \"019-SignThis/EventEntry.sol\":1451:1473  organizer = msg.sender */\n  0x0100\n  exp\n  dup2\n  sload\n  dup2\n  0xffffffffffffffffffffffffffffffffffffffff\n  mul\n  not\n  and\n  swap1\n  dup4\n  0xffffffffffffffffffffffffffffffffffffffff\n  and\n  mul\n  or\n  swap1\n  sstore\n  pop\n    /* \"019-SignThis/EventEntry.sol\":1499:1503  true */\n  0x01\n    /* \"019-SignThis/EventEntry.sol\":1483:1496  isEventActive */\n  0x05\n  0x00\n    /* \"019-SignThis/EventEntry.sol\":1483:1503  isEventActive = true */\n  0x0100\n  exp\n  dup2\n  sload\n  dup2\n  0xff\n  mul\n  not\n  and\n  swap1\n  dup4\n  iszero\n  iszero\n  mul\n  or\n  swap1\n  sstore\n  pop\n    /* \"019-SignThis/EventEntry.sol\":1519:1567  EventCreated(eventName, eventDate, maxAttendees) */\n  0xef361a1e306446b9c7b03355ef7fbc9ea7cbdc417a1fd436d496c6d5523a48db\n    /* \"019-SignThis/EventEntry.sol\":1532:1541  eventName */\n  0x00\n    /* \"019-SignThis/EventEntry.sol\":1543:1552  eventDate */\n  sload(0x02)\n    /* \"019-SignThis/EventEntry.sol\":1554:1566  maxAttendees */\n  sload(0x03)\n    /* \"019-SignThis/EventEntry.sol\":1519:1567  EventCreated(eventName, eventDate, maxAttendees) */\n  mload(0x40)\n  tag_8\n  swap4\n  swap3\n  swap2\n  swap1\n  tag_9\n  jump\t// in\ntag_8:\n  mload(0x40)\n  dup1\n  swap2\n  sub\n  swap1\n  log1\n    /* \"019-SignThis/EventEntry.sol\":1258:1574  constructor(string memory _eventName, uint256 _eventDate, uint256 _maxAttendees) {... */\n  pop\n  pop\n  pop\n    /* \"019-SignThis/EventEntry.sol\":803:3683  contract EventEntry {... */\n  jump(tag_10)\n    /* \"#utility.yul\":7:82   */\ntag_11:\n    /* \"#utility.yul\":40:46   */\n  0x00\n    /* \"#utility.yul\":73:75   */\n  0x40\n    /* \"#utility.yul\":67:76   */\n  mload\n    /* \"#utility.yul\":57:76   */\n  swap1\n  pop\n    /* \"#utility.yul\":7:82   */\n  swap1\n  jump\t// out\n    /* \"#utility.yul\":88:205   */\ntag_12:\n    /* \"#utility.yul\":197:198   */\n  0x00\n    /* \"#utility.yul\":194:195   */\n  0x00\n    /* \"#utility.yul\":187:199   */\n  revert\n    /* \"#utility.yul\":211:328   */\ntag_13:\n    /* \"#utility.yul\":320:321   */\n  0x00\n    /* \"#utility.yul\":317:318   */\n  0x00\n    /* \"#utility.yul\":310:322   */\n  revert\n    /* \"#utility.yul\":334:451   */\ntag_14:\n    /* \"#utility.yul\":443:444   */\n  0x00\n    /* \"#utility.yul\":440:441   */\n  0x00\n    /* \"#utility.yul\":433:445   */\n  revert\n    /* \"#utility.yul\":457:574   */\ntag_15:\n    /* \"#utility.yul\":566:567   */\n  0x00\n    /* \"#utility.yul\":563:564   */\n  0x00\n    /* \"#utility.yul\":556:568   */\n  revert\n    /* \"#utility.yul\":580:682   */\ntag_16:\n    /* \"#utility.yul\":621:627   */\n  0x00\n    /* \"#utility.yul\":672:674   */\n  0x1f\n    /* \"#utility.yul\":668:675   */\n  not\n    /* \"#utility.yul\":663:665   */\n  0x1f\n    /* \"#utility.yul\":656:661   */\n  dup4\n    /* \"#utility.yul\":652:666   */\n  add\n    /* \"#utility.yul\":648:676   */\n  and\n    /* \"#utility.yul\":638:676   */\n  swap1\n  pop\n    /* \"#utility.yul\":580:682   */\n  swap2\n  swap1\n  pop\n  jump\t// out\n    /* \"#utility.yul\":688:868   */\ntag_17:\n    /* \"#utility.yul\":736:813   */\n  0x4e487b7100000000000000000000000000000000000000000000000000000000\n    /* \"#utility.yul\":733:734   */\n  0x00\n    /* \"#utility.yul\":726:814   */\n  mstore\n    /* \"#utility.yul\":833:837   */\n  0x41\n    /* \"#utility.yul\":830:831   */\n  0x04\n    /* \"#utility.yul\":823:838   */\n  mstore\n    /* \"#utility.yul\":857:861   */\n  0x24\n    /* \"#utility.yul\":854:855   */\n  0x00\n    /* \"#utility.yul\":847:862   */\n  revert\n    /* \"#utility.yul\":874:1155   */\ntag_18:\n    /* \"#utility.yul\":957:984   */\n  tag_57\n    /* \"#utility.yul\":979:983   */\n  dup3\n    /* \"#utility.yul\":957:984   */\n  tag_16\n  jump\t// in\ntag_57:\n    /* \"#utility.yul\":949:955   */\n  dup2\n    /* \"#utility.yul\":945:985   */\n  add\n    /* \"#utility.yul\":1087:1093   */\n  dup2\n    /* \"#utility.yul\":1075:1085   */\n  dup2\n    /* \"#utility.yul\":1072:1094   */\n  lt\n    /* \"#utility.yul\":1051:1069   */\n  0xffffffffffffffff\n    /* \"#utility.yul\":1039:1049   */\n  dup3\n    /* \"#utility.yul\":1036:1070   */\n  gt\n    /* \"#utility.yul\":1033:1095   */\n  or\n    /* \"#utility.yul\":1030:1118   */\n  iszero\n  tag_58\n  jumpi\n    /* \"#utility.yul\":1098:1116   */\n  tag_59\n  tag_17\n  jump\t// in\ntag_59:\n    /* \"#utility.yul\":1030:1118   */\ntag_58:\n    /* \"#utility.yul\":1138:1148   */\n  dup1\n    /* \"#utility.yul\":1134:1136   */\n  0x40\n    /* \"#utility.yul\":1127:1149   */\n  mstore\n    /* \"#utility.yul\":917:1155   */\n  pop\n    /* \"#utility.yul\":874:1155   */\n  pop\n  pop\n  jump\t// out\n    /* \"#utility.yul\":1161:1290   */\ntag_19:\n    /* \"#utility.yul\":1195:1201   */\n  0x00\n    /* \"#utility.yul\":1222:1242   */\n  tag_61\n  tag_11\n  jump\t// in\ntag_61:\n    /* \"#utility.yul\":1212:1242   */\n  swap1\n  pop\n    /* \"#utility.yul\":1251:1284   */\n  tag_62\n    /* \"#utility.yul\":1279:1283   */\n  dup3\n    /* \"#utility.yul\":1271:1277   */\n  dup3\n    /* \"#utility.yul\":1251:1284   */\n  tag_18\n  jump\t// in\ntag_62:\n    /* \"#utility.yul\":1161:1290   */\n  swap2\n  swap1\n  pop\n  jump\t// out\n    /* \"#utility.yul\":1296:1604   */\ntag_20:\n    /* \"#utility.yul\":1358:1362   */\n  0x00\n    /* \"#utility.yul\":1448:1466   */\n  0xffffffffffffffff\n    /* \"#utility.yul\":1440:1446   */\n  dup3\n    /* \"#utility.yul\":1437:1467   */\n  gt\n    /* \"#utility.yul\":1434:1490   */\n  iszero\n  tag_64\n  jumpi\n    /* \"#utility.yul\":1470:1488   */\n  tag_65\n  tag_17\n  jump\t// in\ntag_65:\n    /* \"#utility.yul\":1434:1490   */\ntag_64:\n    /* \"#utility.yul\":1508:1537   */\n  tag_66\n    /* \"#utility.yul\":1530:1536   */\n  dup3\n    /* \"#utility.yul\":1508:1537   */\n  tag_16\n  jump\t// in\ntag_66:\n    /* \"#utility.yul\":1500:1537   */\n  swap1\n  pop\n    /* \"#utility.yul\":1592:1596   */\n  0x20\n    /* \"#utility.yul\":1586:1590   */\n  dup2\n    /* \"#utility.yul\":1582:1597   */\n  add\n    /* \"#utility.yul\":1574:1597   */\n  swap1\n  pop\n    /* \"#utility.yul\":1296:1604   */\n  swap2\n  swap1\n  pop\n  jump\t// out\n    /* \"#utility.yul\":1610:1749   */\ntag_21:\n    /* \"#utility.yul\":1699:1705   */\n  dup3\n    /* \"#utility.yul\":1694:1697   */\n  dup2\n    /* \"#utility.yul\":1689:1692   */\n  dup4\n    /* \"#utility.yul\":1683:1706   */\n  mcopy\n    /* \"#utility.yul\":1740:1741   */\n  0x00\n    /* \"#utility.yul\":1731:1737   */\n  dup4\n    /* \"#utility.yul\":1726:1729   */\n  dup4\n    /* \"#utility.yul\":1722:1738   */\n  add\n    /* \"#utility.yul\":1715:1742   */\n  mstore\n    /* \"#utility.yul\":1610:1749   */\n  pop\n  pop\n  pop\n  jump\t// out\n    /* \"#utility.yul\":1755:2189   */\ntag_22:\n    /* \"#utility.yul\":1844:1849   */\n  0x00\n    /* \"#utility.yul\":1869:1935   */\n  tag_69\n    /* \"#utility.yul\":1885:1934   */\n  tag_70\n    /* \"#utility.yul\":1927:1933   */\n  dup5\n    /* \"#utility.yul\":1885:1934   */\n  tag_20\n  jump\t// in\ntag_70:\n    /* \"#utility.yul\":1869:1935   */\n  tag_19\n  jump\t// in\ntag_69:\n    /* \"#utility.yul\":1860:1935   */\n  swap1\n  pop\n    /* \"#utility.yul\":1958:1964   */\n  dup3\n    /* \"#utility.yul\":1951:1956   */\n  dup2\n    /* \"#utility.yul\":1944:1965   */\n  mstore\n    /* \"#utility.yul\":1996:2000   */\n  0x20\n    /* \"#utility.yul\":1989:1994   */\n  dup2\n    /* \"#utility.yul\":1985:2001   */\n  add\n    /* \"#utility.yul\":2034:2037   */\n  dup5\n    /* \"#utility.yul\":2025:2031   */\n  dup5\n    /* \"#utility.yul\":2020:2023   */\n  dup5\n    /* \"#utility.yul\":2016:2032   */\n  add\n    /* \"#utility.yul\":2013:2038   */\n  gt\n    /* \"#utility.yul\":2010:2122   */\n  iszero\n  tag_71\n  jumpi\n    /* \"#utility.yul\":2041:2120   */\n  tag_72\n  tag_15\n  jump\t// in\ntag_72:\n    /* \"#utility.yul\":2010:2122   */\ntag_71:\n    /* \"#utility.yul\":2131:2183   */\n  tag_73\n    /* \"#utility.yul\":2176:2182   */\n  dup5\n    /* \"#utility.yul\":2171:2174   */\n  dup3\n    /* \"#utility.yul\":2166:2169   */\n  dup6\n    /* \"#utility.yul\":2131:2183   */\n  tag_21\n  jump\t// in\ntag_73:\n    /* \"#utility.yul\":1850:2189   */\n  pop\n    /* \"#utility.yul\":1755:2189   */\n  swap4\n  swap3\n  pop\n  pop\n  pop\n  jump\t// out\n    /* \"#utility.yul\":2209:2564   */\ntag_23:\n    /* \"#utility.yul\":2276:2281   */\n  0x00\n    /* \"#utility.yul\":2325:2328   */\n  dup3\n    /* \"#utility.yul\":2318:2322   */\n  0x1f\n    /* \"#utility.yul\":2310:2316   */\n  dup4\n    /* \"#utility.yul\":2306:2323   */\n  add\n    /* \"#utility.yul\":2302:2329   */\n  slt\n    /* \"#utility.yul\":2292:2414   */\n  tag_75\n  jumpi\n    /* \"#utility.yul\":2333:2412   */\n  tag_76\n  tag_14\n  jump\t// in\ntag_76:\n    /* \"#utility.yul\":2292:2414   */\ntag_75:\n    /* \"#utility.yul\":2443:2449   */\n  dup2\n    /* \"#utility.yul\":2437:2450   */\n  mload\n    /* \"#utility.yul\":2468:2558   */\n  tag_77\n    /* \"#utility.yul\":2554:2557   */\n  dup5\n    /* \"#utility.yul\":2546:2552   */\n  dup3\n    /* \"#utility.yul\":2539:2543   */\n  0x20\n    /* \"#utility.yul\":2531:2537   */\n  dup7\n    /* \"#utility.yul\":2527:2544   */\n  add\n    /* \"#utility.yul\":2468:2558   */\n  tag_22\n  jump\t// in\ntag_77:\n    /* \"#utility.yul\":2459:2558   */\n  swap2\n  pop\n    /* \"#utility.yul\":2282:2564   */\n  pop\n    /* \"#utility.yul\":2209:2564   */\n  swap3\n  swap2\n  pop\n  pop\n  jump\t// out\n    /* \"#utility.yul\":2570:2647   */\ntag_24:\n    /* \"#utility.yul\":2607:2614   */\n  0x00\n    /* \"#utility.yul\":2636:2641   */\n  dup2\n    /* \"#utility.yul\":2625:2641   */\n  swap1\n  pop\n    /* \"#utility.yul\":2570:2647   */\n  swap2\n  swap1\n  pop\n  jump\t// out\n    /* \"#utility.yul\":2653:2775   */\ntag_25:\n    /* \"#utility.yul\":2726:2750   */\n  tag_80\n    /* \"#utility.yul\":2744:2749   */\n  dup2\n    /* \"#utility.yul\":2726:2750   */\n  tag_24\n  jump\t// in\ntag_80:\n    /* \"#utility.yul\":2719:2724   */\n  dup2\n    /* \"#utility.yul\":2716:2751   */\n  eq\n    /* \"#utility.yul\":2706:2769   */\n  tag_81\n  jumpi\n    /* \"#utility.yul\":2765:2766   */\n  0x00\n    /* \"#utility.yul\":2762:2763   */\n  0x00\n    /* \"#utility.yul\":2755:2767   */\n  revert\n    /* \"#utility.yul\":2706:2769   */\ntag_81:\n    /* \"#utility.yul\":2653:2775   */\n  pop\n  jump\t// out\n    /* \"#utility.yul\":2781:2924   */\ntag_26:\n    /* \"#utility.yul\":2838:2843   */\n  0x00\n    /* \"#utility.yul\":2869:2875   */\n  dup2\n    /* \"#utility.yul\":2863:2876   */\n  mload\n    /* \"#utility.yul\":2854:2876   */\n  swap1\n  pop\n    /* \"#utility.yul\":2885:2918   */\n  tag_83\n    /* \"#utility.yul\":2912:2917   */\n  dup2\n    /* \"#utility.yul\":2885:2918   */\n  tag_25\n  jump\t// in\ntag_83:\n    /* \"#utility.yul\":2781:2924   */\n  swap3\n  swap2\n  pop\n  pop\n  jump\t// out\n    /* \"#utility.yul\":2930:3766   */\ntag_3:\n    /* \"#utility.yul\":3028:3034   */\n  0x00\n    /* \"#utility.yul\":3036:3042   */\n  0x00\n    /* \"#utility.yul\":3044:3050   */\n  0x00\n    /* \"#utility.yul\":3093:3095   */\n  0x60\n    /* \"#utility.yul\":3081:3090   */\n  dup5\n    /* \"#utility.yul\":3072:3079   */\n  dup7\n    /* \"#utility.yul\":3068:3091   */\n  sub\n    /* \"#utility.yul\":3064:3096   */\n  slt\n    /* \"#utility.yul\":3061:3180   */\n  iszero\n  tag_85\n  jumpi\n    /* \"#utility.yul\":3099:3178   */\n  tag_86\n  tag_12\n  jump\t// in\ntag_86:\n    /* \"#utility.yul\":3061:3180   */\ntag_85:\n    /* \"#utility.yul\":3240:3241   */\n  0x00\n    /* \"#utility.yul\":3229:3238   */\n  dup5\n    /* \"#utility.yul\":3225:3242   */\n  add\n    /* \"#utility.yul\":3219:3243   */\n  mload\n    /* \"#utility.yul\":3270:3288   */\n  0xffffffffffffffff\n    /* \"#utility.yul\":3262:3268   */\n  dup2\n    /* \"#utility.yul\":3259:3289   */\n  gt\n    /* \"#utility.yul\":3256:3373   */\n  iszero\n  tag_87\n  jumpi\n    /* \"#utility.yul\":3292:3371   */\n  tag_88\n  tag_13\n  jump\t// in\ntag_88:\n    /* \"#utility.yul\":3256:3373   */\ntag_87:\n    /* \"#utility.yul\":3397:3471   */\n  tag_89\n    /* \"#utility.yul\":3463:3470   */\n  dup7\n    /* \"#utility.yul\":3454:3460   */\n  dup3\n    /* \"#utility.yul\":3443:3452   */\n  dup8\n    /* \"#utility.yul\":3439:3461   */\n  add\n    /* \"#utility.yul\":3397:3471   */\n  tag_23\n  jump\t// in\ntag_89:\n    /* \"#utility.yul\":3387:3471   */\n  swap4\n  pop\n    /* \"#utility.yul\":3190:3481   */\n  pop\n    /* \"#utility.yul\":3520:3522   */\n  0x20\n    /* \"#utility.yul\":3546:3610   */\n  tag_90\n    /* \"#utility.yul\":3602:3609   */\n  dup7\n    /* \"#utility.yul\":3593:3599   */\n  dup3\n    /* \"#utility.yul\":3582:3591   */\n  dup8\n    /* \"#utility.yul\":3578:3600   */\n  add\n    /* \"#utility.yul\":3546:3610   */\n  tag_26\n  jump\t// in\ntag_90:\n    /* \"#utility.yul\":3536:3610   */\n  swap3\n  pop\n    /* \"#utility.yul\":3491:3620   */\n  pop\n    /* \"#utility.yul\":3659:3661   */\n  0x40\n    /* \"#utility.yul\":3685:3749   */\n  tag_91\n    /* \"#utility.yul\":3741:3748   */\n  dup7\n    /* \"#utility.yul\":3732:3738   */\n  dup3\n    /* \"#utility.yul\":3721:3730   */\n  dup8\n    /* \"#utility.yul\":3717:3739   */\n  add\n    /* \"#utility.yul\":3685:3749   */\n  tag_26\n  jump\t// in\ntag_91:\n    /* \"#utility.yul\":3675:3749   */\n  swap2\n  pop\n    /* \"#utility.yul\":3630:3759   */\n  pop\n    /* \"#utility.yul\":2930:3766   */\n  swap3\n  pop\n  swap3\n  pop\n  swap3\n  jump\t// out\n    /* \"#utility.yul\":3772:3871   */\ntag_27:\n    /* \"#utility.yul\":3824:3830   */\n  0x00\n    /* \"#utility.yul\":3858:3863   */\n  dup2\n    /* \"#utility.yul\":3852:3864   */\n  mload\n    /* \"#utility.yul\":3842:3864   */\n  swap1\n  pop\n    /* \"#utility.yul\":3772:3871   */\n  swap2\n  swap1\n  pop\n  jump\t// out\n    /* \"#utility.yul\":3877:4057   */\ntag_28:\n    /* \"#utility.yul\":3925:4002   */\n  0x4e487b7100000000000000000000000000000000000000000000000000000000\n    /* \"#utility.yul\":3922:3923   */\n  0x00\n    /* \"#utility.yul\":3915:4003   */\n  mstore\n    /* \"#utility.yul\":4022:4026   */\n  0x22\n    /* \"#utility.yul\":4019:4020   */\n  0x04\n    /* \"#utility.yul\":4012:4027   */\n  mstore\n    /* \"#utility.yul\":4046:4050   */\n  0x24\n    /* \"#utility.yul\":4043:4044   */\n  0x00\n    /* \"#utility.yul\":4036:4051   */\n  revert\n    /* \"#utility.yul\":4063:4383   */\ntag_29:\n    /* \"#utility.yul\":4107:4113   */\n  0x00\n    /* \"#utility.yul\":4144:4145   */\n  0x02\n    /* \"#utility.yul\":4138:4142   */\n  dup3\n    /* \"#utility.yul\":4134:4146   */\n  div\n    /* \"#utility.yul\":4124:4146   */\n  swap1\n  pop\n    /* \"#utility.yul\":4191:4192   */\n  0x01\n    /* \"#utility.yul\":4185:4189   */\n  dup3\n    /* \"#utility.yul\":4181:4193   */\n  and\n    /* \"#utility.yul\":4212:4230   */\n  dup1\n    /* \"#utility.yul\":4202:4283   */\n  tag_95\n  jumpi\n    /* \"#utility.yul\":4268:4272   */\n  0x7f\n    /* \"#utility.yul\":4260:4266   */\n  dup3\n    /* \"#utility.yul\":4256:4273   */\n  and\n    /* \"#utility.yul\":4246:4273   */\n  swap2\n  pop\n    /* \"#utility.yul\":4202:4283   */\ntag_95:\n    /* \"#utility.yul\":4330:4332   */\n  0x20\n    /* \"#utility.yul\":4322:4328   */\n  dup3\n    /* \"#utility.yul\":4319:4333   */\n  lt\n    /* \"#utility.yul\":4299:4317   */\n  dup2\n    /* \"#utility.yul\":4296:4334   */\n  sub\n    /* \"#utility.yul\":4293:4377   */\n  tag_96\n  jumpi\n    /* \"#utility.yul\":4349:4367   */\n  tag_97\n  tag_28\n  jump\t// in\ntag_97:\n    /* \"#utility.yul\":4293:4377   */\ntag_96:\n    /* \"#utility.yul\":4114:4383   */\n  pop\n    /* \"#utility.yul\":4063:4383   */\n  swap2\n  swap1\n  pop\n  jump\t// out\n    /* \"#utility.yul\":4389:4530   */\ntag_30:\n    /* \"#utility.yul\":4438:4442   */\n  0x00\n    /* \"#utility.yul\":4461:4464   */\n  dup2\n    /* \"#utility.yul\":4453:4464   */\n  swap1\n  pop\n    /* \"#utility.yul\":4484:4487   */\n  dup2\n    /* \"#utility.yul\":4481:4482   */\n  0x00\n    /* \"#utility.yul\":4474:4488   */\n  mstore\n    /* \"#utility.yul\":4518:4522   */\n  0x20\n    /* \"#utility.yul\":4515:4516   */\n  0x00\n    /* \"#utility.yul\":4505:4523   */\n  keccak256\n    /* \"#utility.yul\":4497:4523   */\n  swap1\n  pop\n    /* \"#utility.yul\":4389:4530   */\n  swap2\n  swap1\n  pop\n  jump\t// out\n    /* \"#utility.yul\":4536:4629   */\ntag_31:\n    /* \"#utility.yul\":4573:4579   */\n  0x00\n    /* \"#utility.yul\":4620:4622   */\n  0x20\n    /* \"#utility.yul\":4615:4617   */\n  0x1f\n    /* \"#utility.yul\":4608:4613   */\n  dup4\n    /* \"#utility.yul\":4604:4618   */\n  add\n    /* \"#utility.yul\":4600:4623   */\n  div\n    /* \"#utility.yul\":4590:4623   */\n  swap1\n  pop\n    /* \"#utility.yul\":4536:4629   */\n  swap2\n  swap1\n  pop\n  jump\t// out\n    /* \"#utility.yul\":4635:4742   */\ntag_32:\n    /* \"#utility.yul\":4679:4687   */\n  0x00\n    /* \"#utility.yul\":4729:4734   */\n  dup3\n    /* \"#utility.yul\":4723:4727   */\n  dup3\n    /* \"#utility.yul\":4719:4735   */\n  shl\n    /* \"#utility.yul\":4698:4735   */\n  swap1\n  pop\n    /* \"#utility.yul\":4635:4742   */\n  swap3\n  swap2\n  pop\n  pop\n  jump\t// out\n    /* \"#utility.yul\":4748:5141   */\ntag_33:\n    /* \"#utility.yul\":4817:4823   */\n  0x00\n    /* \"#utility.yul\":4867:4868   */\n  0x08\n    /* \"#utility.yul\":4855:4865   */\n  dup4\n    /* \"#utility.yul\":4851:4869   */\n  mul\n    /* \"#utility.yul\":4890:4987   */\n  tag_102\n    /* \"#utility.yul\":4920:4986   */\n  0xffffffffffffffffffffffffffffffffffffffffffffffffffffffffffffffff\n    /* \"#utility.yul\":4909:4918   */\n  dup3\n    /* \"#utility.yul\":4890:4987   */\n  tag_32\n  jump\t// in\ntag_102:\n    /* \"#utility.yul\":5008:5047   */\n  tag_103\n    /* \"#utility.yul\":5038:5046   */\n  dup7\n    /* \"#utility.yul\":5027:5036   */\n  dup4\n    /* \"#utility.yul\":5008:5047   */\n  tag_32\n  jump\t// in\ntag_103:\n    /* \"#utility.yul\":4996:5047   */\n  swap6\n  pop\n    /* \"#utility.yul\":5080:5084   */\n  dup1\n    /* \"#utility.yul\":5076:5085   */\n  not\n    /* \"#utility.yul\":5069:5074   */\n  dup5\n    /* \"#utility.yul\":5065:5086   */\n  and\n    /* \"#utility.yul\":5056:5086   */\n  swap4\n  pop\n    /* \"#utility.yul\":5129:5133   */\n  dup1\n    /* \"#utility.yul\":5119:5127   */\n  dup7\n    /* \"#utility.yul\":5115:5134   */\n  and\n    /* \"#utility.yul\":5108:5113   */\n  dup5\n    /* \"#utility.yul\":5105:5135   */\n  or\n    /* \"#utility.yul\":5095:5135   */\n  swap3\n  pop\n    /* \"#utility.yul\":4824:5141   */\n  pop\n  pop\n    /* \"#utility.yul\":4748:5141   */\n  swap4\n  swap3\n  pop\n  pop\n  pop\n  jump\t// out\n    /* \"#utility.yul\":5147:5207   */\ntag_34:\n    /* \"#utility.yul\":5175:5178   */\n  0x00\n    /* \"#utility.yul\":5196:5201   */\n  dup2\n    /* \"#utility.yul\":5189:5201   */\n  swap1\n  pop\n    /* \"#utility.yul\":5147:5207   */\n  swap2\n  swap1\n  pop\n  jump\t// out\n    /* \"#utility.yul\":5213:5355   */\ntag_35:\n    /* \"#utility.yul\":5263:5272   */\n  0x00\n    /* \"#utility.yul\":5296:5349   */\n  tag_106\n    /* \"#utility.yul\":5314:5348   */\n  tag_107\n    /* \"#utility.yul\":5323:5347   */\n  tag_108\n    /* \"#utility.yul\":5341:5346   */\n  dup5\n    /* \"#utility.yul\":5323:5347   */\n  tag_24\n  jump\t// in\ntag_108:\n    /* \"#utility.yul\":5314:5348   */\n  tag_34\n  jump\t// in\ntag_107:\n    /* \"#utility.yul\":5296:5349   */\n  tag_24\n  jump\t// in\ntag_106:\n    /* \"#utility.yul\":5283:5349   */\n  swap1\n  pop\n    /* \"#utility.yul\":5213:5355   */\n  swap2\n  swap1\n  pop\n  jump\t// out\n    /* \"#utility.yul\":5361:5436   */\ntag_36:\n    /* \"#utility.yul\":5404:5407   */\n  0x00\n    /* \"#utility.yul\":5425:5430   */\n  dup2\n    /* \"#utility.yul\":5418:5430   */\n  swap1\n  pop\n    /* \"#utility.yul\":5361:5436   */\n  swap2\n  swap1\n  pop\n  jump\t// out\n    /* \"#utility.yul\":5442:5711   */\ntag_37:\n    /* \"#utility.yul\":5552:5591   */\n  tag_111\n    /* \"#utility.yul\":5583:5590   */\n  dup4\n    /* \"#utility.yul\":5552:5591   */\n  tag_35\n  jump\t// in\ntag_111:\n    /* \"#utility.yul\":5613:5704   */\n  tag_112\n    /* \"#utility.yul\":5662:5703   */\n  tag_113\n    /* \"#utility.yul\":5686:5702   */\n  dup3\n    /* \"#utility.yul\":5662:5703   */\n  tag_36\n  jump\t// in\ntag_113:\n    /* \"#utility.yul\":5654:5660   */\n  dup5\n    /* \"#utility.yul\":5647:5651   */\n  dup5\n    /* \"#utility.yul\":5641:5652   */\n  sload\n    /* \"#utility.yul\":5613:5704   */\n  tag_33\n  jump\t// in\ntag_112:\n    /* \"#utility.yul\":5607:5611   */\n  dup3\n    /* \"#utility.yul\":5600:5705   */\n  sstore\n    /* \"#utility.yul\":5518:5711   */\n  pop\n    /* \"#utility.yul\":5442:5711   */\n  pop\n  pop\n  pop\n  jump\t// out\n    /* \"#utility.yul\":5717:5790   */\ntag_38:\n    /* \"#utility.yul\":5762:5765   */\n  0x00\n    /* \"#utility.yul\":5783:5784   */\n  0x00\n    /* \"#utility.yul\":5776:5784   */\n  swap1\n  pop\n    /* \"#utility.yul\":5717:5790   */\n  swap1\n  jump\t// out\n    /* \"#utility.yul\":5796:5985   */\ntag_39:\n    /* \"#utility.yul\":5873:5905   */\n  tag_116\n  tag_38\n  jump\t// in\ntag_116:\n    /* \"#utility.yul\":5914:5979   */\n  tag_117\n    /* \"#utility.yul\":5972:5978   */\n  dup2\n    /* \"#utility.yul\":5964:5970   */\n  dup5\n    /* \"#utility.yul\":5958:5962   */\n  dup5\n    /* \"#utility.yul\":5914:5979   */\n  tag_37\n  jump\t// in\ntag_117:\n    /* \"#utility.yul\":5849:5985   */\n  pop\n    /* \"#utility.yul\":5796:5985   */\n  pop\n  pop\n  jump\t// out\n    /* \"#utility.yul\":5991:6205   */\ntag_40:\n    /* \"#utility.yul\":6076:6077   */\n  0x00\n    /* \"#utility.yul\":6061:6199   */\ntag_119:\n    /* \"#utility.yul\":6086:6095   */\n  dup3\n    /* \"#utility.yul\":6083:6084   */\n  dup2\n    /* \"#utility.yul\":6080:6096   */\n  lt\n    /* \"#utility.yul\":6061:6199   */\n  iszero\n  tag_121\n  jumpi\n    /* \"#utility.yul\":6138:6189   */\n  tag_122\n    /* \"#utility.yul\":6187:6188   */\n  0x00\n    /* \"#utility.yul\":6183:6184   */\n  dup3\n    /* \"#utility.yul\":6172:6181   */\n  dup5\n    /* \"#utility.yul\":6168:6185   */\n  add\n    /* \"#utility.yul\":6138:6189   */\n  tag_39\n  jump\t// in\ntag_122:\n    /* \"#utility.yul\":6111:6112   */\n  0x01\n    /* \"#utility.yul\":6108:6109   */\n  dup2\n    /* \"#utility.yul\":6104:6113   */\n  add\n    /* \"#utility.yul\":6099:6113   */\n  swap1\n  pop\n    /* \"#utility.yul\":6061:6199   */\n  jump(tag_119)\ntag_121:\n    /* \"#utility.yul\":6065:6079   */\n  pop\n    /* \"#utility.yul\":5991:6205   */\n  pop\n  pop\n  jump\t// out\n    /* \"#utility.yul\":6211:6957   */\ntag_41:\n    /* \"#utility.yul\":6312:6314   */\n  0x1f\n    /* \"#utility.yul\":6307:6310   */\n  dup3\n    /* \"#utility.yul\":6304:6315   */\n  gt\n    /* \"#utility.yul\":6301:6950   */\n  iszero\n  tag_124\n  jumpi\n    /* \"#utility.yul\":6341:6351   */\n  dup3\n    /* \"#utility.yul\":6336:6339   */\n  dup3\n    /* \"#utility.yul\":6333:6352   */\n  gt\n    /* \"#utility.yul\":6330:6940   */\n  iszero\n  tag_125\n  jumpi\n    /* \"#utility.yul\":6387:6425   */\n  tag_126\n    /* \"#utility.yul\":6419:6424   */\n  dup2\n    /* \"#utility.yul\":6387:6425   */\n  tag_30\n  jump\t// in\ntag_126:\n    /* \"#utility.yul\":6462:6484   */\n  tag_127\n    /* \"#utility.yul\":6480:6483   */\n  dup4\n    /* \"#utility.yul\":6462:6484   */\n  tag_31\n  jump\t// in\ntag_127:\n    /* \"#utility.yul\":6521:6550   */\n  tag_128\n    /* \"#utility.yul\":6539:6549   */\n  dup6\n    /* \"#utility.yul\":6521:6550   */\n  tag_31\n  jump\t// in\ntag_128:\n    /* \"#utility.yul\":6711:6713   */\n  0x20\n    /* \"#utility.yul\":6699:6709   */\n  dup7\n    /* \"#utility.yul\":6696:6714   */\n  lt\n    /* \"#utility.yul\":6693:6772   */\n  iszero\n  tag_129\n  jumpi\n    /* \"#utility.yul\":6753:6754   */\n  0x00\n    /* \"#utility.yul\":6737:6754   */\n  swap1\n  pop\n    /* \"#utility.yul\":6693:6772   */\ntag_129:\n    /* \"#utility.yul\":6822:6834   */\n  dup1\n    /* \"#utility.yul\":6812:6820   */\n  dup4\n    /* \"#utility.yul\":6808:6835   */\n  add\n    /* \"#utility.yul\":6852:6926   */\n  tag_130\n    /* \"#utility.yul\":6912:6924   */\n  dup3\n    /* \"#utility.yul\":6898:6910   */\n  dup5\n    /* \"#utility.yul\":6894:6925   */\n  sub\n    /* \"#utility.yul\":6881:6892   */\n  dup3\n    /* \"#utility.yul\":6852:6926   */\n  tag_40\n  jump\t// in\ntag_130:\n    /* \"#utility.yul\":6353:6940   */\n  pop\n  pop\n  pop\n  pop\n    /* \"#utility.yul\":6330:6940   */\ntag_125:\n    /* \"#utility.yul\":6301:6950   */\ntag_124:\n    /* \"#utility.yul\":6211:6957   */\n  pop\n  pop\n  pop\n  jump\t// out\n    /* \"#utility.yul\":6963:7080   */\ntag_42:\n    /* \"#utility.yul\":7017:7025   */\n  0x00\n    /* \"#utility.yul\":7067:7072   */\n  dup3\n    /* \"#utility.yul\":7061:7065   */\n  dup3\n    /* \"#utility.yul\":7057:7073   */\n  shr\n    /* \"#utility.yul\":7036:7073   */\n  swap1\n  pop\n    /* \"#utility.yul\":6963:7080   */\n  swap3\n  swap2\n  pop\n  pop\n  jump\t// out\n    /* \"#utility.yul\":7086:7255   */\ntag_43:\n    /* \"#utility.yul\":7130:7136   */\n  0x00\n    /* \"#utility.yul\":7163:7214   */\n  tag_133\n    /* \"#utility.yul\":7211:7212   */\n  0x00\n    /* \"#utility.yul\":7207:7213   */\n  not\n    /* \"#utility.yul\":7199:7204   */\n  dup5\n    /* \"#utility.yul\":7196:7197   */\n  0x08\n    /* \"#utility.yul\":7192:7205   */\n  mul\n    /* \"#utility.yul\":7163:7214   */\n  tag_42\n  jump\t// in\ntag_133:\n    /* \"#utility.yul\":7159:7215   */\n  not\n    /* \"#utility.yul\":7244:7248   */\n  dup1\n    /* \"#utility.yul\":7238:7242   */\n  dup4\n    /* \"#utility.yul\":7234:7249   */\n  and\n    /* \"#utility.yul\":7224:7249   */\n  swap2\n  pop\n    /* \"#utility.yul\":7137:7255   */\n  pop\n    /* \"#utility.yul\":7086:7255   */\n  swap3\n  swap2\n  pop\n  pop\n  jump\t// out\n    /* \"#utility.yul\":7260:7555   */\ntag_44:\n    /* \"#utility.yul\":7336:7340   */\n  0x00\n    /* \"#utility.yul\":7482:7511   */\n  tag_135\n    /* \"#utility.yul\":7507:7510   */\n  dup4\n    /* \"#utility.yul\":7501:7505   */\n  dup4\n    /* \"#utility.yul\":7482:7511   */\n  tag_43\n  jump\t// in\ntag_135:\n    /* \"#utility.yul\":7474:7511   */\n  swap2\n  pop\n    /* \"#utility.yul\":7544:7547   */\n  dup3\n    /* \"#utility.yul\":7541:7542   */\n  0x02\n    /* \"#utility.yul\":7537:7548   */\n  mul\n    /* \"#utility.yul\":7531:7535   */\n  dup3\n    /* \"#utility.yul\":7528:7549   */\n  or\n    /* \"#utility.yul\":7520:7549   */\n  swap1\n  pop\n    /* \"#utility.yul\":7260:7555   */\n  swap3\n  swap2\n  pop\n  pop\n  jump\t// out\n    /* \"#utility.yul\":7560:8955   */\ntag_7:\n    /* \"#utility.yul\":7677:7714   */\n  tag_137\n    /* \"#utility.yul\":7710:7713   */\n  dup3\n    /* \"#utility.yul\":7677:7714   */\n  tag_27\n  jump\t// in\ntag_137:\n    /* \"#utility.yul\":7779:7797   */\n  0xffffffffffffffff\n    /* \"#utility.yul\":7771:7777   */\n  dup2\n    /* \"#utility.yul\":7768:7798   */\n  gt\n    /* \"#utility.yul\":7765:7821   */\n  iszero\n  tag_138\n  jumpi\n    /* \"#utility.yul\":7801:7819   */\n  tag_139\n  tag_17\n  jump\t// in\ntag_139:\n    /* \"#utility.yul\":7765:7821   */\ntag_138:\n    /* \"#utility.yul\":7845:7883   */\n  tag_140\n    /* \"#utility.yul\":7877:7881   */\n  dup3\n    /* \"#utility.yul\":7871:7882   */\n  sload\n    /* \"#utility.yul\":7845:7883   */\n  tag_29\n  jump\t// in\ntag_140:\n    /* \"#utility.yul\":7930:7997   */\n  tag_141\n    /* \"#utility.yul\":7990:7996   */\n  dup3\n    /* \"#utility.yul\":7982:7988   */\n  dup3\n    /* \"#utility.yul\":7976:7980   */\n  dup6\n    /* \"#utility.yul\":7930:7997   */\n  tag_41\n  jump\t// in\ntag_141:\n    /* \"#utility.yul\":8024:8025   */\n  0x00\n    /* \"#utility.yul\":8048:8052   */\n  0x20\n    /* \"#utility.yul\":8035:8052   */\n  swap1\n  pop\n    /* \"#utility.yul\":8080:8082   */\n  0x1f\n    /* \"#utility.yul\":8072:8078   */\n  dup4\n    /* \"#utility.yul\":8069:8083   */\n  gt\n    /* \"#utility.yul\":8097:8098   */\n  0x01\n    /* \"#utility.yul\":8092:8710   */\n  dup2\n  eq\n  tag_143\n  jumpi\n    /* \"#utility.yul\":8754:8755   */\n  0x00\n    /* \"#utility.yul\":8771:8777   */\n  dup5\n    /* \"#utility.yul\":8768:8845   */\n  iszero\n  tag_144\n  jumpi\n    /* \"#utility.yul\":8820:8829   */\n  dup3\n    /* \"#utility.yul\":8815:8818   */\n  dup8\n    /* \"#utility.yul\":8811:8830   */\n  add\n    /* \"#utility.yul\":8805:8831   */\n  mload\n    /* \"#utility.yul\":8796:8831   */\n  swap1\n  pop\n    /* \"#utility.yul\":8768:8845   */\ntag_144:\n    /* \"#utility.yul\":8871:8938   */\n  tag_145\n    /* \"#utility.yul\":8931:8937   */\n  dup6\n    /* \"#utility.yul\":8924:8929   */\n  dup3\n    /* \"#utility.yul\":8871:8938   */\n  tag_44\n  jump\t// in\ntag_145:\n    /* \"#utility.yul\":8865:8869   */\n  dup7\n    /* \"#utility.yul\":8858:8939   */\n  sstore\n    /* \"#utility.yul\":8727:8949   */\n  pop\n    /* \"#utility.yul\":8062:8949   */\n  jump(tag_142)\n    /* \"#utility.yul\":8092:8710   */\ntag_143:\n    /* \"#utility.yul\":8144:8148   */\n  0x1f\n    /* \"#utility.yul\":8140:8149   */\n  not\n    /* \"#utility.yul\":8132:8138   */\n  dup5\n    /* \"#utility.yul\":8128:8150   */\n  and\n    /* \"#utility.yul\":8178:8215   */\n  tag_146\n    /* \"#utility.yul\":8210:8214   */\n  dup7\n    /* \"#utility.yul\":8178:8215   */\n  tag_30\n  jump\t// in\ntag_146:\n    /* \"#utility.yul\":8237:8238   */\n  0x00\n    /* \"#utility.yul\":8251:8459   */\ntag_147:\n    /* \"#utility.yul\":8265:8272   */\n  dup3\n    /* \"#utility.yul\":8262:8263   */\n  dup2\n    /* \"#utility.yul\":8259:8273   */\n  lt\n    /* \"#utility.yul\":8251:8459   */\n  iszero\n  tag_149\n  jumpi\n    /* \"#utility.yul\":8344:8353   */\n  dup5\n    /* \"#utility.yul\":8339:8342   */\n  dup10\n    /* \"#utility.yul\":8335:8354   */\n  add\n    /* \"#utility.yul\":8329:8355   */\n  mload\n    /* \"#utility.yul\":8321:8327   */\n  dup3\n    /* \"#utility.yul\":8314:8356   */\n  sstore\n    /* \"#utility.yul\":8395:8396   */\n  0x01\n    /* \"#utility.yul\":8387:8393   */\n  dup3\n    /* \"#utility.yul\":8383:8397   */\n  add\n    /* \"#utility.yul\":8373:8397   */\n  swap2\n  pop\n    /* \"#utility.yul\":8442:8444   */\n  0x20\n    /* \"#utility.yul\":8431:8440   */\n  dup6\n    /* \"#utility.yul\":8427:8445   */\n  add\n    /* \"#utility.yul\":8414:8445   */\n  swap5\n  pop\n    /* \"#utility.yul\":8288:8292   */\n  0x20\n    /* \"#utility.yul\":8285:8286   */\n  dup2\n    /* \"#utility.yul\":8281:8293   */\n  add\n    /* \"#utility.yul\":8276:8293   */\n  swap1\n  pop\n    /* \"#utility.yul\":8251:8459   */\n  jump(tag_147)\ntag_149:\n    /* \"#utility.yul\":8487:8493   */\n  dup7\n    /* \"#utility.yul\":8478:8485   */\n  dup4\n    /* \"#utility.yul\":8475:8494   */\n  lt\n    /* \"#utility.yul\":8472:8651   */\n  iszero\n  tag_150\n  jumpi\n    /* \"#utility.yul\":8545:8554   */\n  dup5\n    /* \"#utility.yul\":8540:8543   */\n  dup10\n    /* \"#utility.yul\":8536:8555   */\n  add\n    /* \"#utility.yul\":8530:8556   */\n  mload\n    /* \"#utility.yul\":8588:8636   */\n  tag_151\n    /* \"#utility.yul\":8630:8634   */\n  0x1f\n    /* \"#utility.yul\":8622:8628   */\n  dup10\n    /* \"#utility.yul\":8618:8635   */\n  and\n    /* \"#utility.yul\":8607:8616   */\n  dup3\n    /* \"#utility.yul\":8588:8636   */\n  tag_43\n  jump\t// in\ntag_151:\n    /* \"#utility.yul\":8580:8586   */\n  dup4\n    /* \"#utility.yul\":8573:8637   */\n  sstore\n    /* \"#utility.yul\":8495:8651   */\n  pop\n    /* \"#utility.yul\":8472:8651   */\ntag_150:\n    /* \"#utility.yul\":8697:8698   */\n  0x01\n    /* \"#utility.yul\":8693:8694   */\n  0x02\n    /* \"#utility.yul\":8685:8691   */\n  dup9\n    /* \"#utility.yul\":8681:8695   */\n  mul\n    /* \"#utility.yul\":8677:8699   */\n  add\n    /* \"#utility.yul\":8671:8675   */\n  dup9\n    /* \"#utility.yul\":8664:8700   */\n  sstore\n    /* \"#utility.yul\":8099:8710   */\n  pop\n  pop\n  pop\n    /* \"#utility.yul\":8062:8949   */\ntag_142:\n  pop\n    /* \"#utility.yul\":7652:8955   */\n  pop\n  pop\n  pop\n    /* \"#utility.yul\":7560:8955   */\n  pop\n  pop\n  jump\t// out\n    /* \"#utility.yul\":8961:9130   */\ntag_45:\n    /* \"#utility.yul\":9045:9056   */\n  0x00\n    /* \"#utility.yul\":9079:9085   */\n  dup3\n    /* \"#utility.yul\":9074:9077   */\n  dup3\n    /* \"#utility.yul\":9067:9086   */\n  mstore\n    /* \"#utility.yul\":9119:9123   */\n  0x20\n    /* \"#utility.yul\":9114:9117   */\n  dup3\n    /* \"#utility.yul\":9110:9124   */\n  add\n    /* \"#utility.yul\":9095:9124   */\n  swap1\n  pop\n    /* \"#utility.yul\":8961:9130   */\n  swap3\n  swap2\n  pop\n  pop\n  jump\t// out\n    /* \"#utility.yul\":9160:9991   */\ntag_46:\n    /* \"#utility.yul\":9245:9248   */\n  0x00\n    /* \"#utility.yul\":9282:9287   */\n  dup2\n    /* \"#utility.yul\":9276:9288   */\n  sload\n    /* \"#utility.yul\":9311:9347   */\n  tag_154\n    /* \"#utility.yul\":9337:9346   */\n  dup2\n    /* \"#utility.yul\":9311:9347   */\n  tag_29\n  jump\t// in\ntag_154:\n    /* \"#utility.yul\":9363:9434   */\n  tag_155\n    /* \"#utility.yul\":9427:9433   */\n  dup2\n    /* \"#utility.yul\":9422:9425   */\n  dup7\n    /* \"#utility.yul\":9363:9434   */\n  tag_45\n  jump\t// in\ntag_155:\n    /* \"#utility.yul\":9356:9434   */\n  swap5\n  pop\n    /* \"#utility.yul\":9465:9466   */\n  0x01\n    /* \"#utility.yul\":9454:9463   */\n  dup3\n    /* \"#utility.yul\":9450:9467   */\n  and\n    /* \"#utility.yul\":9481:9482   */\n  0x00\n    /* \"#utility.yul\":9476:9640   */\n  dup2\n  eq\n  tag_157\n  jumpi\n    /* \"#utility.yul\":9654:9655   */\n  0x01\n    /* \"#utility.yul\":9649:9985   */\n  dup2\n  eq\n  tag_158\n  jumpi\n    /* \"#utility.yul\":9443:9985   */\n  jump(tag_156)\n    /* \"#utility.yul\":9476:9640   */\ntag_157:\n    /* \"#utility.yul\":9560:9564   */\n  0xff\n    /* \"#utility.yul\":9556:9565   */\n  not\n    /* \"#utility.yul\":9545:9554   */\n  dup4\n    /* \"#utility.yul\":9541:9566   */\n  and\n    /* \"#utility.yul\":9536:9539   */\n  dup7\n    /* \"#utility.yul\":9529:9567   */\n  mstore\n    /* \"#utility.yul\":9620:9626   */\n  dup2\n    /* \"#utility.yul\":9613:9627   */\n  iszero\n    /* \"#utility.yul\":9606:9628   */\n  iszero\n    /* \"#utility.yul\":9600:9604   */\n  0x20\n    /* \"#utility.yul\":9596:9629   */\n  mul\n    /* \"#utility.yul\":9591:9594   */\n  dup7\n    /* \"#utility.yul\":9587:9630   */\n  add\n    /* \"#utility.yul\":9580:9630   */\n  swap4\n  pop\n    /* \"#utility.yul\":9476:9640   */\n  jump(tag_156)\n    /* \"#utility.yul\":9649:9985   */\ntag_158:\n    /* \"#utility.yul\":9716:9754   */\n  tag_159\n    /* \"#utility.yul\":9748:9753   */\n  dup6\n    /* \"#utility.yul\":9716:9754   */\n  tag_30\n  jump\t// in\ntag_159:\n    /* \"#utility.yul\":9776:9777   */\n  0x00\n    /* \"#utility.yul\":9790:9944   */\ntag_160:\n    /* \"#utility.yul\":9804:9810   */\n  dup4\n    /* \"#utility.yul\":9801:9802   */\n  dup2\n    /* \"#utility.yul\":9798:9811   */\n  lt\n    /* \"#utility.yul\":9790:9944   */\n  iszero\n  tag_162\n  jumpi\n    /* \"#utility.yul\":9878:9885   */\n  dup2\n    /* \"#utility.yul\":9872:9886   */\n  sload\n    /* \"#utility.yul\":9868:9869   */\n  dup2\n    /* \"#utility.yul\":9863:9866   */\n  dup10\n    /* \"#utility.yul\":9859:9870   */\n  add\n    /* \"#utility.yul\":9852:9887   */\n  mstore\n    /* \"#utility.yul\":9928:9929   */\n  0x01\n    /* \"#utility.yul\":9919:9926   */\n  dup3\n    /* \"#utility.yul\":9915:9930   */\n  add\n    /* \"#utility.yul\":9904:9930   */\n  swap2\n  pop\n    /* \"#utility.yul\":9826:9830   */\n  0x20\n    /* \"#utility.yul\":9823:9824   */\n  dup2\n    /* \"#utility.yul\":9819:9831   */\n  add\n    /* \"#utility.yul\":9814:9831   */\n  swap1\n  pop\n    /* \"#utility.yul\":9790:9944   */\n  jump(tag_160)\ntag_162:\n    /* \"#utility.yul\":9973:9974   */\n  dup1\n    /* \"#utility.yul\":9968:9971   */\n  dup9\n    /* \"#utility.yul\":9964:9975   */\n  add\n    /* \"#utility.yul\":9957:9975   */\n  swap6\n  pop\n    /* \"#utility.yul\":9656:9985   */\n  pop\n  pop\n    /* \"#utility.yul\":9443:9985   */\ntag_156:\n  pop\n    /* \"#utility.yul\":9249:9991   */\n  pop\n  pop\n    /* \"#utility.yul\":9160:9991   */\n  swap3\n  swap2\n  pop\n  pop\n  jump\t// out\n    /* \"#utility.yul\":9997:10115   */\ntag_47:\n    /* \"#utility.yul\":10084:10108   */\n  tag_164\n    /* \"#utility.yul\":10102:10107   */\n  dup2\n    /* \"#utility.yul\":10084:10108   */\n  tag_24\n  jump\t// in\ntag_164:\n    /* \"#utility.yul\":10079:10082   */\n  dup3\n    /* \"#utility.yul\":10072:10109   */\n  mstore\n    /* \"#utility.yul\":9997:10115   */\n  pop\n  pop\n  jump\t// out\n    /* \"#utility.yul\":10121:10648   */\ntag_9:\n    /* \"#utility.yul\":10287:10291   */\n  0x00\n    /* \"#utility.yul\":10325:10327   */\n  0x60\n    /* \"#utility.yul\":10314:10323   */\n  dup3\n    /* \"#utility.yul\":10310:10328   */\n  add\n    /* \"#utility.yul\":10302:10328   */\n  swap1\n  pop\n    /* \"#utility.yul\":10374:10383   */\n  dup2\n    /* \"#utility.yul\":10368:10372   */\n  dup2\n    /* \"#utility.yul\":10364:10384   */\n  sub\n    /* \"#utility.yul\":10360:10361   */\n  0x00\n    /* \"#utility.yul\":10349:10358   */\n  dup4\n    /* \"#utility.yul\":10345:10362   */\n  add\n    /* \"#utility.yul\":10338:10385   */\n  mstore\n    /* \"#utility.yul\":10402:10477   */\n  tag_166\n    /* \"#utility.yul\":10472:10476   */\n  dup2\n    /* \"#utility.yul\":10463:10469   */\n  dup7\n    /* \"#utility.yul\":10402:10477   */\n  tag_46\n  jump\t// in\ntag_166:\n    /* \"#utility.yul\":10394:10477   */\n  swap1\n  pop\n    /* \"#utility.yul\":10487:10559   */\n  tag_167\n    /* \"#utility.yul\":10555:10557   */\n  0x20\n    /* \"#utility.yul\":10544:10553   */\n  dup4\n    /* \"#utility.yul\":10540:10558   */\n  add\n    /* \"#utility.yul\":10531:10537   */\n  dup6\n    /* \"#utility.yul\":10487:10559   */\n  tag_47\n  jump\t// in\ntag_167:\n    /* \"#utility.yul\":10569:10641   */\n  tag_168\n    /* \"#utility.yul\":10637:10639   */\n  0x40\n    /* \"#utility.yul\":10626:10635   */\n  dup4\n    /* \"#utility.yul\":10622:10640   */\n  add\n    /* \"#utility.yul\":10613:10619   */\n  dup5\n    /* \"#utility.yul\":10569:10641   */\n  tag_47\n  jump\t// in\ntag_168:\n    /* \"#utility.yul\":10121:10648   */\n  swap5\n  swap4\n  pop\n  pop\n  pop\n  pop\n  jump\t// out\n    /* \"019-SignThis/EventEntry.sol\":803:3683  contract EventEntry {... */\ntag_10:\n  dataSize(sub_0)\n  dup1\n  dataOffset(sub_0)\n  0x00\n  codecopy\n  0x00\n  return\nstop\n\nsub_0: assembly {\n        /* \"019-SignThis/EventEntry.sol\":803:3683  contract EventEntry {... */\n      mstore(0x40, 0x80)\n      callvalue\n      dup1\n      iszero\n      tag_1\n      jumpi\n      revert(0x00, 0x00)\n    tag_1:\n      pop\n      jumpi(tag_2, lt(calldatasize, 0x04))\n      shr(0xe0, calldataload(0x00))\n      dup1\n      0x665983ec\n      gt\n      tag_16\n      jumpi\n      dup1\n      0xcc54bcf2\n      gt\n      tag_17\n      jumpi\n      dup1\n      0xcc54bcf2\n      eq\n      tag_12\n      jumpi\n      dup1\n      0xd866b0b6\n      eq\n      tag_13\n      jumpi\n      dup1\n      0xf1adda47\n      eq\n      tag_14\n      jumpi\n      dup1\n      0xfa540801\n      eq\n      tag_15\n      jumpi\n      jump(tag_2)\n    tag_17:\n      dup1\n      0x665983ec\n      eq\n      tag_9\n      jumpi\n      dup1\n      0x8043c9c0\n      eq\n      tag_10\n      jumpi\n      dup1\n      0x97aba7f9\n      eq\n      tag_11\n      jumpi\n      jump(tag_2)\n    tag_16:\n      dup1\n      0x1f5ac1b2\n      eq\n      tag_3\n      jumpi\n      dup1\n      0x258c1ef5\n      eq\n      tag_4\n      jumpi\n      dup1\n      0x304c44d1\n      eq\n      tag_5\n      jumpi\n      dup1\n      0x4bfbe5df\n      eq\n      tag_6\n      jumpi\n      dup1\n      0x5f3d7fa1\n      eq\n      tag_7\n      jumpi\n      dup1\n      0x61203265\n      eq\n      tag_8\n      jumpi\n    tag_2:\n      revert(0x00, 0x00)\n        /* \"019-SignThis/EventEntry.sol\":1852:2011  function getMessageHash(address _attendee) public view returns (bytes32) {... */\n    tag_3:\n      tag_18\n      0x04\n      dup1\n      calldatasize\n      sub\n      dup2\n      add\n      swap1\n      tag_19\n      swap2\n      swap1\n      tag_20\n      jump\t// in\n    tag_19:\n      tag_21\n      jump\t// in\n    tag_18:\n      mload(0x40)\n      tag_22\n      swap2\n      swap1\n      tag_23\n      jump\t// in\n    tag_22:\n      mload(0x40)\n      dup1\n      swap2\n      sub\n      swap1\n      return\n        /* \"019-SignThis/EventEntry.sol\":2209:2531  function verifySignature(address _attendee, bytes memory _signature) public view returns(bool) {... */\n    tag_4:\n      tag_24\n      0x04\n      dup1\n      calldatasize\n      sub\n      dup2\n      add\n      swap1\n      tag_25\n      swap2\n      swap1\n      tag_26\n      jump\t// in\n    tag_25:\n      tag_27\n      jump\t// in\n    tag_24:\n      mload(0x40)\n      tag_28\n      swap2\n      swap1\n      tag_29\n      jump\t// in\n    tag_28:\n      mload(0x40)\n      dup1\n      swap2\n      sub\n      swap1\n      return\n        /* \"019-SignThis/EventEntry.sol\":3132:3681  function checkIn(bytes memory _signature) external {... */\n    tag_5:\n      tag_30\n      0x04\n      dup1\n      calldatasize\n      sub\n      dup2\n      add\n      swap1\n      tag_31\n      swap2\n      swap1\n      tag_32\n      jump\t// in\n    tag_31:\n      tag_33\n      jump\t// in\n    tag_30:\n      stop\n        /* \"019-SignThis/EventEntry.sol\":889:913  uint256 public eventDate */\n    tag_6:\n      tag_34\n      tag_35\n      jump\t// in\n    tag_34:\n      mload(0x40)\n      tag_36\n      swap2\n      swap1\n      tag_37\n      jump\t// in\n    tag_36:\n      mload(0x40)\n      dup1\n      swap2\n      sub\n      swap1\n      return\n        /* \"019-SignThis/EventEntry.sol\":919:946  uint256 public maxAttendees */\n    tag_7:\n      tag_38\n      tag_39\n      jump\t// in\n    tag_38:\n      mload(0x40)\n      tag_40\n      swap2\n      swap1\n      tag_37\n      jump\t// in\n    tag_40:\n      mload(0x40)\n      dup1\n      swap2\n      sub\n      swap1\n      return\n        /* \"019-SignThis/EventEntry.sol\":859:883  address public organizer */\n    tag_8:\n      tag_41\n      tag_42\n      jump\t// in\n    tag_41:\n      mload(0x40)\n      tag_43\n      swap2\n      swap1\n      tag_44\n      jump\t// in\n    tag_43:\n      mload(0x40)\n      dup1\n      swap2\n      sub\n      swap1\n      return\n        /* \"019-SignThis/EventEntry.sol\":1698:1846  function setEventStatus(bool _isActive) external onlyOrganizer {... */\n    tag_9:\n      tag_45\n      0x04\n      dup1\n      calldatasize\n      sub\n      dup2\n      add\n      swap1\n      tag_46\n      swap2\n      swap1\n      tag_47\n      jump\t// in\n    tag_46:\n      tag_48\n      jump\t// in\n    tag_45:\n      stop\n        /* \"019-SignThis/EventEntry.sol\":830:853  string public eventName */\n    tag_10:\n      tag_49\n      tag_50\n      jump\t// in\n    tag_49:\n      mload(0x40)\n      tag_51\n      swap2\n      swap1\n      tag_52\n      jump\t// in\n    tag_51:\n      mload(0x40)\n      dup1\n      swap2\n      sub\n      swap1\n      return\n        /* \"019-SignThis/EventEntry.sol\":2537:3126  function recoverSigner(bytes32 _ethSignedMessageHash, bytes memory _signature) public pure returns(address) {... */\n    tag_11:\n      tag_53\n      0x04\n      dup1\n      calldatasize\n      sub\n      dup2\n      add\n      swap1\n      tag_54\n      swap2\n      swap1\n      tag_55\n      jump\t// in\n    tag_54:\n      tag_56\n      jump\t// in\n    tag_53:\n      mload(0x40)\n      tag_57\n      swap2\n      swap1\n      tag_44\n      jump\t// in\n    tag_57:\n      mload(0x40)\n      dup1\n      swap2\n      sub\n      swap1\n      return\n        /* \"019-SignThis/EventEntry.sol\":986:1011  bool public isEventActive */\n    tag_12:\n      tag_58\n      tag_59\n      jump\t// in\n    tag_58:\n      mload(0x40)\n      tag_60\n      swap2\n      swap1\n      tag_29\n      jump\t// in\n    tag_60:\n      mload(0x40)\n      dup1\n      swap2\n      sub\n      swap1\n      return\n        /* \"019-SignThis/EventEntry.sol\":1018:1062  mapping (address => bool) public hasAttended */\n    tag_13:\n      tag_61\n      0x04\n      dup1\n      calldatasize\n      sub\n      dup2\n      add\n      swap1\n      tag_62\n      swap2\n      swap1\n      tag_20\n      jump\t// in\n    tag_62:\n      tag_63\n      jump\t// in\n    tag_61:\n      mload(0x40)\n      tag_64\n      swap2\n      swap1\n      tag_29\n      jump\t// in\n    tag_64:\n      mload(0x40)\n      dup1\n      swap2\n      sub\n      swap1\n      return\n        /* \"019-SignThis/EventEntry.sol\":952:980  uint256 public attendeeCount */\n    tag_14:\n      tag_65\n      tag_66\n      jump\t// in\n    tag_65:\n      mload(0x40)\n      tag_67\n      swap2\n      swap1\n      tag_37\n      jump\t// in\n    tag_67:\n      mload(0x40)\n      dup1\n      swap2\n      sub\n      swap1\n      return\n        /* \"019-SignThis/EventEntry.sol\":2017:2203  function getEthSignedMessageHash(bytes32 _messageHash) public pure returns (bytes32) {... */\n    tag_15:\n      tag_68\n      0x04\n      dup1\n      calldatasize\n      sub\n      dup2\n      add\n      swap1\n      tag_69\n      swap2\n      swap1\n      tag_70\n      jump\t// in\n    tag_69:\n      tag_71\n      jump\t// in\n    tag_68:\n      mload(0x40)\n      tag_72\n      swap2\n      swap1\n      tag_23\n      jump\t// in\n    tag_72:\n      mload(0x40)\n      dup1\n      swap2\n      sub\n      swap1\n      return\n        /* \"019-SignThis/EventEntry.sol\":1852:2011  function getMessageHash(address _attendee) public view returns (bytes32) {... */\n    tag_21:\n        /* \"019-SignThis/EventEntry.sol\":1916:1923  bytes32 */\n      0x00\n        /* \"019-SignThis/EventEntry.sol\":1977:1981  this */\n      address\n        /* \"019-SignThis/EventEntry.sol\":1983:1992  eventName */\n      0x00\n        /* \"019-SignThis/EventEntry.sol\":1993:2002  _attendee */\n      dup4\n        /* \"019-SignThis/EventEntry.sol\":1952:2003  abi.encodePacked(address(this),eventName,_attendee) */\n      add(0x20, mload(0x40))\n      tag_74\n      swap4\n      swap3\n      swap2\n      swap1\n      tag_75\n      jump\t// in\n    tag_74:\n      mload(0x40)\n      0x20\n      dup2\n      dup4\n      sub\n      sub\n      dup2\n      mstore\n      swap1\n      0x40\n      mstore\n        /* \"019-SignThis/EventEntry.sol\":1942:2004  keccak256(abi.encodePacked(address(this),eventName,_attendee)) */\n      dup1\n      mload\n      swap1\n      0x20\n      add\n      keccak256\n        /* \"019-SignThis/EventEntry.sol\":1935:2004  return keccak256(abi.encodePacked(address(this),eventName,_attendee)) */\n      swap1\n      pop\n        /* \"019-SignThis/EventEntry.sol\":1852:2011  function getMessageHash(address _attendee) public view returns (bytes32) {... */\n      swap2\n      swap1\n      pop\n      jump\t// out\n        /* \"019-SignThis/EventEntry.sol\":2209:2531  function verifySignature(address _attendee, bytes memory _signature) public view returns(bool) {... */\n    tag_27:\n        /* \"019-SignThis/EventEntry.sol\":2298:2302  bool */\n      0x00\n        /* \"019-SignThis/EventEntry.sol\":2323:2342  bytes32 messageHash */\n      0x00\n        /* \"019-SignThis/EventEntry.sol\":2345:2370  getMessageHash(_attendee) */\n      tag_77\n        /* \"019-SignThis/EventEntry.sol\":2360:2369  _attendee */\n      dup5\n        /* \"019-SignThis/EventEntry.sol\":2345:2359  getMessageHash */\n      tag_21\n        /* \"019-SignThis/EventEntry.sol\":2345:2370  getMessageHash(_attendee) */\n      jump\t// in\n    tag_77:\n        /* \"019-SignThis/EventEntry.sol\":2323:2370  bytes32 messageHash = getMessageHash(_attendee) */\n      swap1\n      pop\n        /* \"019-SignThis/EventEntry.sol\":2380:2408  bytes32 ethSignedMessageHash */\n      0x00\n        /* \"019-SignThis/EventEntry.sol\":2411:2447  getEthSignedMessageHash(messageHash) */\n      tag_78\n        /* \"019-SignThis/EventEntry.sol\":2435:2446  messageHash */\n      dup3\n        /* \"019-SignThis/EventEntry.sol\":2411:2434  getEthSignedMessageHash */\n      tag_71\n        /* \"019-SignThis/EventEntry.sol\":2411:2447  getEthSignedMessageHash(messageHash) */\n      jump\t// in\n    tag_78:\n        /* \"019-SignThis/EventEntry.sol\":2380:2447  bytes32 ethSignedMessageHash = getEthSignedMessageHash(messageHash) */\n      swap1\n      pop\n        /* \"019-SignThis/EventEntry.sol\":2515:2524  organizer */\n      0x01\n      0x00\n      swap1\n      sload\n      swap1\n      0x0100\n      exp\n      swap1\n      div\n      0xffffffffffffffffffffffffffffffffffffffff\n      and\n        /* \"019-SignThis/EventEntry.sol\":2464:2524  recoverSigner(ethSignedMessageHash, _signature) == organizer */\n      0xffffffffffffffffffffffffffffffffffffffff\n      and\n        /* \"019-SignThis/EventEntry.sol\":2464:2511  recoverSigner(ethSignedMessageHash, _signature) */\n      tag_79\n        /* \"019-SignThis/EventEntry.sol\":2478:2498  ethSignedMessageHash */\n      dup3\n        /* \"019-SignThis/EventEntry.sol\":2500:2510  _signature */\n      dup7\n        /* \"019-SignThis/EventEntry.sol\":2464:2477  recoverSigner */\n      tag_56\n        /* \"019-SignThis/EventEntry.sol\":2464:2511  recoverSigner(ethSignedMessageHash, _signature) */\n      jump\t// in\n    tag_79:\n        /* \"019-SignThis/EventEntry.sol\":2464:2524  recoverSigner(ethSignedMessageHash, _signature) == organizer */\n      0xffffffffffffffffffffffffffffffffffffffff\n      and\n      eq\n        /* \"019-SignThis/EventEntry.sol\":2457:2524  return recoverSigner(ethSignedMessageHash, _signature) == organizer */\n      swap3\n      pop\n      pop\n      pop\n        /* \"019-SignThis/EventEntry.sol\":2209:2531  function verifySignature(address _attendee, bytes memory _signature) public view returns(bool) {... */\n      swap3\n      swap2\n      pop\n      pop\n      jump\t// out\n        /* \"019-SignThis/EventEntry.sol\":3132:3681  function checkIn(bytes memory _signature) external {... */\n    tag_33:\n        /* \"019-SignThis/EventEntry.sol\":3201:3214  isEventActive */\n      0x05\n      0x00\n      swap1\n      sload\n      swap1\n      0x0100\n      exp\n      swap1\n      div\n      0xff\n      and\n        /* \"019-SignThis/EventEntry.sol\":3193:3238  require(isEventActive, \"Event is not active\") */\n      tag_81\n      jumpi\n      mload(0x40)\n      0x08c379a000000000000000000000000000000000000000000000000000000000\n      dup2\n      mstore\n      0x04\n      add\n      tag_82\n      swap1\n      tag_83\n      jump\t// in\n    tag_82:\n      mload(0x40)\n      dup1\n      swap2\n      sub\n      swap1\n      revert\n    tag_81:\n        /* \"019-SignThis/EventEntry.sol\":3287:3293  1 days */\n      0x015180\n        /* \"019-SignThis/EventEntry.sol\":3275:3284  eventDate */\n      sload(0x02)\n        /* \"019-SignThis/EventEntry.sol\":3275:3293  eventDate + 1 days */\n      tag_84\n      swap2\n      swap1\n      tag_85\n      jump\t// in\n    tag_84:\n        /* \"019-SignThis/EventEntry.sol\":3256:3271  block.timestamp */\n      timestamp\n        /* \"019-SignThis/EventEntry.sol\":3256:3293  block.timestamp <= eventDate + 1 days */\n      gt\n      iszero\n        /* \"019-SignThis/EventEntry.sol\":3248:3313  require(block.timestamp <= eventDate + 1 days, \"Event has ended\") */\n      tag_86\n      jumpi\n      mload(0x40)\n      0x08c379a000000000000000000000000000000000000000000000000000000000\n      dup2\n      mstore\n      0x04\n      add\n      tag_87\n      swap1\n      tag_88\n      jump\t// in\n    tag_87:\n      mload(0x40)\n      dup1\n      swap2\n      sub\n      swap1\n      revert\n    tag_86:\n        /* \"019-SignThis/EventEntry.sol\":3332:3343  hasAttended */\n      0x06\n        /* \"019-SignThis/EventEntry.sol\":3332:3355  hasAttended[msg.sender] */\n      0x00\n        /* \"019-SignThis/EventEntry.sol\":3344:3354  msg.sender */\n      caller\n        /* \"019-SignThis/EventEntry.sol\":3332:3355  hasAttended[msg.sender] */\n      0xffffffffffffffffffffffffffffffffffffffff\n      and\n      0xffffffffffffffffffffffffffffffffffffffff\n      and\n      dup2\n      mstore\n      0x20\n      add\n      swap1\n      dup2\n      mstore\n      0x20\n      add\n      0x00\n      keccak256\n      0x00\n      swap1\n      sload\n      swap1\n      0x0100\n      exp\n      swap1\n      div\n      0xff\n      and\n        /* \"019-SignThis/EventEntry.sol\":3331:3355  !hasAttended[msg.sender] */\n      iszero\n        /* \"019-SignThis/EventEntry.sol\":3323:3391  require(!hasAttended[msg.sender], \"Attendee has already checked in\") */\n      tag_89\n      jumpi\n      mload(0x40)\n      0x08c379a000000000000000000000000000000000000000000000000000000000\n      dup2\n      mstore\n      0x04\n      add\n      tag_90\n      swap1\n      tag_91\n      jump\t// in\n    tag_90:\n      mload(0x40)\n      dup1\n      swap2\n      sub\n      swap1\n      revert\n    tag_89:\n        /* \"019-SignThis/EventEntry.sol\":3425:3437  maxAttendees */\n      sload(0x03)\n        /* \"019-SignThis/EventEntry.sol\":3409:3422  attendeeCount */\n      sload(0x04)\n        /* \"019-SignThis/EventEntry.sol\":3409:3437  attendeeCount < maxAttendees */\n      lt\n        /* \"019-SignThis/EventEntry.sol\":3401:3467  require(attendeeCount < maxAttendees, \"Maximum attendees reached\") */\n      tag_92\n      jumpi\n      mload(0x40)\n      0x08c379a000000000000000000000000000000000000000000000000000000000\n      dup2\n      mstore\n      0x04\n      add\n      tag_93\n      swap1\n      tag_94\n      jump\t// in\n    tag_93:\n      mload(0x40)\n      dup1\n      swap2\n      sub\n      swap1\n      revert\n    tag_92:\n        /* \"019-SignThis/EventEntry.sol\":3485:3524  verifySignature(msg.sender, _signature) */\n      tag_95\n        /* \"019-SignThis/EventEntry.sol\":3501:3511  msg.sender */\n      caller\n        /* \"019-SignThis/EventEntry.sol\":3513:3523  _signature */\n      dup3\n        /* \"019-SignThis/EventEntry.sol\":3485:3500  verifySignature */\n      tag_27\n        /* \"019-SignThis/EventEntry.sol\":3485:3524  verifySignature(msg.sender, _signature) */\n      jump\t// in\n    tag_95:\n        /* \"019-SignThis/EventEntry.sol\":3477:3546  require(verifySignature(msg.sender, _signature), \"Invalid signature\") */\n      tag_96\n      jumpi\n      mload(0x40)\n      0x08c379a000000000000000000000000000000000000000000000000000000000\n      dup2\n      mstore\n      0x04\n      add\n      tag_97\n      swap1\n      tag_98\n      jump\t// in\n    tag_97:\n      mload(0x40)\n      dup1\n      swap2\n      sub\n      swap1\n      revert\n    tag_96:\n        /* \"019-SignThis/EventEntry.sol\":3583:3587  true */\n      0x01\n        /* \"019-SignThis/EventEntry.sol\":3557:3568  hasAttended */\n      0x06\n        /* \"019-SignThis/EventEntry.sol\":3557:3580  hasAttended[msg.sender] */\n      0x00\n        /* \"019-SignThis/EventEntry.sol\":3569:3579  msg.sender */\n      caller\n        /* \"019-SignThis/EventEntry.sol\":3557:3580  hasAttended[msg.sender] */\n      0xffffffffffffffffffffffffffffffffffffffff\n      and\n      0xffffffffffffffffffffffffffffffffffffffff\n      and\n      dup2\n      mstore\n      0x20\n      add\n      swap1\n      dup2\n      mstore\n      0x20\n      add\n      0x00\n      keccak256\n      0x00\n        /* \"019-SignThis/EventEntry.sol\":3557:3587  hasAttended[msg.sender] = true */\n      0x0100\n      exp\n      dup2\n      sload\n      dup2\n      0xff\n      mul\n      not\n      and\n      swap1\n      dup4\n      iszero\n      iszero\n      mul\n      or\n      swap1\n      sstore\n      pop\n        /* \"019-SignThis/EventEntry.sol\":3597:3610  attendeeCount */\n      0x04\n      0x00\n        /* \"019-SignThis/EventEntry.sol\":3597:3612  attendeeCount++ */\n      dup2\n      sload\n      dup1\n      swap3\n      swap2\n      swap1\n      tag_99\n      swap1\n      tag_100\n      jump\t// in\n    tag_99:\n      swap2\n      swap1\n      pop\n      sstore\n      pop\n        /* \"019-SignThis/EventEntry.sol\":3628:3674  AttendeeCheckedIn(msg.sender, block.timestamp) */\n      0xc4b6af862e5edf86b47bbd28434015dfdddfc6ce20ea8f6146df2972b54db5d5\n        /* \"019-SignThis/EventEntry.sol\":3646:3656  msg.sender */\n      caller\n        /* \"019-SignThis/EventEntry.sol\":3658:3673  block.timestamp */\n      timestamp\n        /* \"019-SignThis/EventEntry.sol\":3628:3674  AttendeeCheckedIn(msg.sender, block.timestamp) */\n      mload(0x40)\n      tag_101\n      swap3\n      swap2\n      swap1\n      tag_102\n      jump\t// in\n    tag_101:\n      mload(0x40)\n      dup1\n      swap2\n      sub\n      swap1\n      log1\n        /* \"019-SignThis/EventEntry.sol\":3132:3681  function checkIn(bytes memory _signature) external {... */\n      pop\n      jump\t// out\n        /* \"019-SignThis/EventEntry.sol\":889:913  uint256 public eventDate */\n    tag_35:\n      sload(0x02)\n      dup2\n      jump\t// out\n        /* \"019-SignThis/EventEntry.sol\":919:946  uint256 public maxAttendees */\n    tag_39:\n      sload(0x03)\n      dup2\n      jump\t// out\n        /* \"019-SignThis/EventEntry.sol\":859:883  address public organizer */\n    tag_42:\n      0x01\n      0x00\n      swap1\n      sload\n      swap1\n      0x0100\n      exp\n      swap1\n      div\n      0xffffffffffffffffffffffffffffffffffffffff\n      and\n      dup2\n      jump\t// out\n        /* \"019-SignThis/EventEntry.sol\":1698:1846  function setEventStatus(bool _isActive) external onlyOrganizer {... */\n    tag_48:\n        /* \"019-SignThis/EventEntry.sol\":1636:1645  organizer */\n      0x01\n      0x00\n      swap1\n      sload\n      swap1\n      0x0100\n      exp\n      swap1\n      div\n      0xffffffffffffffffffffffffffffffffffffffff\n      and\n        /* \"019-SignThis/EventEntry.sol\":1624:1645  msg.sender==organizer */\n      0xffffffffffffffffffffffffffffffffffffffff\n      and\n        /* \"019-SignThis/EventEntry.sol\":1624:1634  msg.sender */\n      caller\n        /* \"019-SignThis/EventEntry.sol\":1624:1645  msg.sender==organizer */\n      0xffffffffffffffffffffffffffffffffffffffff\n      and\n      eq\n        /* \"019-SignThis/EventEntry.sol\":1616:1674  require(msg.sender==organizer,\"You are not the organizer\") */\n      tag_104\n      jumpi\n      mload(0x40)\n      0x08c379a000000000000000000000000000000000000000000000000000000000\n      dup2\n      mstore\n      0x04\n      add\n      tag_105\n      swap1\n      tag_106\n      jump\t// in\n    tag_105:\n      mload(0x40)\n      dup1\n      swap2\n      sub\n      swap1\n      revert\n    tag_104:\n        /* \"019-SignThis/EventEntry.sol\":1787:1796  _isActive */\n      dup1\n        /* \"019-SignThis/EventEntry.sol\":1771:1784  isEventActive */\n      0x05\n      0x00\n        /* \"019-SignThis/EventEntry.sol\":1771:1796  isEventActive = _isActive */\n      0x0100\n      exp\n      dup2\n      sload\n      dup2\n      0xff\n      mul\n      not\n      and\n      swap1\n      dup4\n      iszero\n      iszero\n      mul\n      or\n      swap1\n      sstore\n      pop\n        /* \"019-SignThis/EventEntry.sol\":1811:1839  EventStatusChange(_isActive) */\n      0xbf122f5eccf82e0d6594ae84d964d555bcaa29bbb1579dafb8ae5dbd3072b1b1\n        /* \"019-SignThis/EventEntry.sol\":1829:1838  _isActive */\n      dup2\n        /* \"019-SignThis/EventEntry.sol\":1811:1839  EventStatusChange(_isActive) */\n      mload(0x40)\n      tag_108\n      swap2\n      swap1\n      tag_29\n      jump\t// in\n    tag_108:\n      mload(0x40)\n      dup1\n      swap2\n      sub\n      swap1\n      log1\n        /* \"019-SignThis/EventEntry.sol\":1698:1846  function setEventStatus(bool _isActive) external onlyOrganizer {... */\n      pop\n      jump\t// out\n        /* \"019-SignThis/EventEntry.sol\":830:853  string public eventName */\n    tag_50:\n      0x00\n      dup1\n      sload\n      tag_109\n      swap1\n      tag_110\n      jump\t// in\n    tag_109:\n      dup1\n      0x1f\n      add\n      0x20\n      dup1\n      swap2\n      div\n      mul\n      0x20\n      add\n      mload(0x40)\n      swap1\n      dup2\n      add\n      0x40\n      mstore\n      dup1\n      swap3\n      swap2\n      swap1\n      dup2\n      dup2\n      mstore\n      0x20\n      add\n      dup3\n      dup1\n      sload\n      tag_111\n      swap1\n      tag_110\n      jump\t// in\n    tag_111:\n      dup1\n      iszero\n      tag_112\n      jumpi\n      dup1\n      0x1f\n      lt\n      tag_113\n      jumpi\n      0x0100\n      dup1\n      dup4\n      sload\n      div\n      mul\n      dup4\n      mstore\n      swap2\n      0x20\n      add\n      swap2\n      jump(tag_112)\n    tag_113:\n      dup3\n      add\n      swap2\n      swap1\n      0x00\n      mstore\n      keccak256(0x00, 0x20)\n      swap1\n    tag_114:\n      dup2\n      sload\n      dup2\n      mstore\n      swap1\n      0x01\n      add\n      swap1\n      0x20\n      add\n      dup1\n      dup4\n      gt\n      tag_114\n      jumpi\n      dup3\n      swap1\n      sub\n      0x1f\n      and\n      dup3\n      add\n      swap2\n    tag_112:\n      pop\n      pop\n      pop\n      pop\n      pop\n      dup2\n      jump\t// out\n        /* \"019-SignThis/EventEntry.sol\":2537:3126  function recoverSigner(bytes32 _ethSignedMessageHash, bytes memory _signature) public pure returns(address) {... */\n    tag_56:\n        /* \"019-SignThis/EventEntry.sol\":2636:2643  address */\n      0x00\n        /* \"019-SignThis/EventEntry.sol\":2683:2685  65 */\n      0x41\n        /* \"019-SignThis/EventEntry.sol\":2664:2674  _signature */\n      dup3\n        /* \"019-SignThis/EventEntry.sol\":2664:2681  _signature.length */\n      mload\n        /* \"019-SignThis/EventEntry.sol\":2664:2685  _signature.length==65 */\n      eq\n        /* \"019-SignThis/EventEntry.sol\":2656:2704  require(_signature.length==65, \"Invalid length\") */\n      tag_116\n      jumpi\n      mload(0x40)\n      0x08c379a000000000000000000000000000000000000000000000000000000000\n      dup2\n      mstore\n      0x04\n      add\n      tag_117\n      swap1\n      tag_118\n      jump\t// in\n    tag_117:\n      mload(0x40)\n      dup1\n      swap2\n      sub\n      swap1\n      revert\n    tag_116:\n        /* \"019-SignThis/EventEntry.sol\":2714:2723  bytes32 r */\n      0x00\n        /* \"019-SignThis/EventEntry.sol\":2733:2742  bytes32 s */\n      0x00\n        /* \"019-SignThis/EventEntry.sol\":2752:2759  uint8 v */\n      0x00\n        /* \"019-SignThis/EventEntry.sol\":2820:2822  32 */\n      0x20\n        /* \"019-SignThis/EventEntry.sol\":2808:2818  _signature */\n      dup6\n        /* \"019-SignThis/EventEntry.sol\":2804:2823  add(_signature, 32) */\n      add\n        /* \"019-SignThis/EventEntry.sol\":2798:2824  mload(add(_signature, 32)) */\n      mload\n        /* \"019-SignThis/EventEntry.sol\":2793:2824  r := mload(add(_signature, 32)) */\n      swap3\n      pop\n        /* \"019-SignThis/EventEntry.sol\":2864:2866  64 */\n      0x40\n        /* \"019-SignThis/EventEntry.sol\":2852:2862  _signature */\n      dup6\n        /* \"019-SignThis/EventEntry.sol\":2848:2867  add(_signature, 64) */\n      add\n        /* \"019-SignThis/EventEntry.sol\":2842:2868  mload(add(_signature, 64)) */\n      mload\n        /* \"019-SignThis/EventEntry.sol\":2837:2868  s := mload(add(_signature, 64)) */\n      swap2\n      pop\n        /* \"019-SignThis/EventEntry.sol\":2916:2918  96 */\n      0x60\n        /* \"019-SignThis/EventEntry.sol\":2904:2914  _signature */\n      dup6\n        /* \"019-SignThis/EventEntry.sol\":2900:2919  add(_signature, 96) */\n      add\n        /* \"019-SignThis/EventEntry.sol\":2894:2920  mload(add(_signature, 96)) */\n      mload\n        /* \"019-SignThis/EventEntry.sol\":2891:2892  0 */\n      0x00\n        /* \"019-SignThis/EventEntry.sol\":2886:2921  byte(0, mload(add(_signature, 96))) */\n      byte\n        /* \"019-SignThis/EventEntry.sol\":2881:2921  v := byte(0, mload(add(_signature, 96))) */\n      swap1\n      pop\n        /* \"019-SignThis/EventEntry.sol\":2957:2959  27 */\n      0x1b\n        /* \"019-SignThis/EventEntry.sol\":2953:2954  v */\n      dup2\n        /* \"019-SignThis/EventEntry.sol\":2953:2959  v < 27 */\n      0xff\n      and\n      lt\n        /* \"019-SignThis/EventEntry.sol\":2949:2993  if (v < 27) {... */\n      iszero\n      tag_119\n      jumpi\n        /* \"019-SignThis/EventEntry.sol\":2980:2982  27 */\n      0x1b\n        /* \"019-SignThis/EventEntry.sol\":2975:2982  v += 27 */\n      dup2\n      tag_120\n      swap2\n      swap1\n      tag_121\n      jump\t// in\n    tag_120:\n      swap1\n      pop\n        /* \"019-SignThis/EventEntry.sol\":2949:2993  if (v < 27) {... */\n    tag_119:\n        /* \"019-SignThis/EventEntry.sol\":3015:3017  27 */\n      0x1b\n        /* \"019-SignThis/EventEntry.sol\":3010:3011  v */\n      dup2\n        /* \"019-SignThis/EventEntry.sol\":3010:3017  v == 27 */\n      0xff\n      and\n      eq\n        /* \"019-SignThis/EventEntry.sol\":3010:3028  v == 27 || v == 28 */\n      dup1\n      tag_122\n      jumpi\n      pop\n        /* \"019-SignThis/EventEntry.sol\":3026:3028  28 */\n      0x1c\n        /* \"019-SignThis/EventEntry.sol\":3021:3022  v */\n      dup2\n        /* \"019-SignThis/EventEntry.sol\":3021:3028  v == 28 */\n      0xff\n      and\n      eq\n        /* \"019-SignThis/EventEntry.sol\":3010:3028  v == 27 || v == 28 */\n    tag_122:\n        /* \"019-SignThis/EventEntry.sol\":3002:3060  require(v == 27 || v == 28, \"Invalid signature 'v' value\") */\n      tag_123\n      jumpi\n      mload(0x40)\n      0x08c379a000000000000000000000000000000000000000000000000000000000\n      dup2\n      mstore\n      0x04\n      add\n      tag_124\n      swap1\n      tag_125\n      jump\t// in\n    tag_124:\n      mload(0x40)\n      dup1\n      swap2\n      sub\n      swap1\n      revert\n    tag_123:\n        /* \"019-SignThis/EventEntry.sol\":3078:3119  ecrecover(_ethSignedMessageHash, v, r, s) */\n      0x01\n        /* \"019-SignThis/EventEntry.sol\":3088:3109  _ethSignedMessageHash */\n      dup7\n        /* \"019-SignThis/EventEntry.sol\":3111:3112  v */\n      dup3\n        /* \"019-SignThis/EventEntry.sol\":3114:3115  r */\n      dup6\n        /* \"019-SignThis/EventEntry.sol\":3117:3118  s */\n      dup6\n        /* \"019-SignThis/EventEntry.sol\":3078:3119  ecrecover(_ethSignedMessageHash, v, r, s) */\n      mload(0x40)\n      0x00\n      dup2\n      mstore\n      0x20\n      add\n      0x40\n      mstore\n      mload(0x40)\n      tag_126\n      swap5\n      swap4\n      swap3\n      swap2\n      swap1\n      tag_127\n      jump\t// in\n    tag_126:\n      0x20\n      mload(0x40)\n      0x20\n      dup2\n      sub\n      swap1\n      dup1\n      dup5\n      sub\n      swap1\n      dup6\n      gas\n      staticcall\n      iszero\n      dup1\n      iszero\n      tag_129\n      jumpi\n      returndatacopy(0x00, 0x00, returndatasize)\n      revert(0x00, returndatasize)\n    tag_129:\n      pop\n      pop\n      pop\n      mload(sub(mload(0x40), 0x20))\n        /* \"019-SignThis/EventEntry.sol\":3071:3119  return ecrecover(_ethSignedMessageHash, v, r, s) */\n      swap4\n      pop\n      pop\n      pop\n      pop\n        /* \"019-SignThis/EventEntry.sol\":2537:3126  function recoverSigner(bytes32 _ethSignedMessageHash, bytes memory _signature) public pure returns(address) {... */\n      swap3\n      swap2\n      pop\n      pop\n      jump\t// out\n        /* \"019-SignThis/EventEntry.sol\":986:1011  bool public isEventActive */\n    tag_59:\n      0x05\n      0x00\n      swap1\n      sload\n      swap1\n      0x0100\n      exp\n      swap1\n      div\n      0xff\n      and\n      dup2\n      jump\t// out\n        /* \"019-SignThis/EventEntry.sol\":1018:1062  mapping (address => bool) public hasAttended */\n    tag_63:\n      mstore(0x20, 0x06)\n      dup1\n      0x00\n      mstore\n      keccak256(0x00, 0x40)\n      0x00\n      swap2\n      pop\n      sload\n      swap1\n      0x0100\n      exp\n      swap1\n      div\n      0xff\n      and\n      dup2\n      jump\t// out\n        /* \"019-SignThis/EventEntry.sol\":952:980  uint256 public attendeeCount */\n    tag_66:\n      sload(0x04)\n      dup2\n      jump\t// out\n        /* \"019-SignThis/EventEntry.sol\":2017:2203  function getEthSignedMessageHash(bytes32 _messageHash) public pure returns (bytes32) {... */\n    tag_71:\n        /* \"019-SignThis/EventEntry.sol\":2093:2100  bytes32 */\n      0x00\n        /* \"019-SignThis/EventEntry.sol\":2182:2194  _messageHash */\n      dup2\n        /* \"019-SignThis/EventEntry.sol\":2129:2195  abi.encodePacked(\"\\x19Ethereum Signed Message:\\n32\", _messageHash) */\n      add(0x20, mload(0x40))\n      tag_131\n      swap2\n      swap1\n      tag_132\n      jump\t// in\n    tag_131:\n      mload(0x40)\n      0x20\n      dup2\n      dup4\n      sub\n      sub\n      dup2\n      mstore\n      swap1\n      0x40\n      mstore\n        /* \"019-SignThis/EventEntry.sol\":2119:2196  keccak256(abi.encodePacked(\"\\x19Ethereum Signed Message:\\n32\", _messageHash)) */\n      dup1\n      mload\n      swap1\n      0x20\n      add\n      keccak256\n        /* \"019-SignThis/EventEntry.sol\":2112:2196  return keccak256(abi.encodePacked(\"\\x19Ethereum Signed Message:\\n32\", _messageHash)) */\n      swap1\n      pop\n        /* \"019-SignThis/EventEntry.sol\":2017:2203  function getEthSignedMessageHash(bytes32 _messageHash) public pure returns (bytes32) {... */\n      swap2\n      swap1\n      pop\n      jump\t// out\n        /* \"#utility.yul\":7:82   */\n    tag_133:\n        /* \"#utility.yul\":40:46   */\n      0x00\n        /* \"#utility.yul\":73:75   */\n      0x40\n        /* \"#utility.yul\":67:76   */\n      mload\n        /* \"#utility.yul\":57:76   */\n      swap1\n      pop\n        /* \"#utility.yul\":7:82   */\n      swap1\n      jump\t// out\n        /* \"#utility.yul\":88:205   */\n    tag_134:\n        /* \"#utility.yul\":197:198   */\n      0x00\n        /* \"#utility.yul\":194:195   */\n      0x00\n        /* \"#utility.yul\":187:199   */\n      revert\n        /* \"#utility.yul\":211:328   */\n    tag_135:\n        /* \"#utility.yul\":320:321   */\n      0x00\n        /* \"#utility.yul\":317:318   */\n      0x00\n        /* \"#utility.yul\":310:322   */\n      revert\n        /* \"#utility.yul\":334:460   */\n    tag_136:\n        /* \"#utility.yul\":371:378   */\n      0x00\n        /* \"#utility.yul\":411:453   */\n      0xffffffffffffffffffffffffffffffffffffffff\n        /* \"#utility.yul\":404:409   */\n      dup3\n        /* \"#utility.yul\":400:454   */\n      and\n        /* \"#utility.yul\":389:454   */\n      swap1\n      pop\n        /* \"#utility.yul\":334:460   */\n      swap2\n      swap1\n      pop\n      jump\t// out\n        /* \"#utility.yul\":466:562   */\n    tag_137:\n        /* \"#utility.yul\":503:510   */\n      0x00\n        /* \"#utility.yul\":532:556   */\n      tag_202\n        /* \"#utility.yul\":550:555   */\n      dup3\n        /* \"#utility.yul\":532:556   */\n      tag_136\n      jump\t// in\n    tag_202:\n        /* \"#utility.yul\":521:556   */\n      swap1\n      pop\n        /* \"#utility.yul\":466:562   */\n      swap2\n      swap1\n      pop\n      jump\t// out\n        /* \"#utility.yul\":568:690   */\n    tag_138:\n        /* \"#utility.yul\":641:665   */\n      tag_204\n        /* \"#utility.yul\":659:664   */\n      dup2\n        /* \"#utility.yul\":641:665   */\n      tag_137\n      jump\t// in\n    tag_204:\n        /* \"#utility.yul\":634:639   */\n      dup2\n        /* \"#utility.yul\":631:666   */\n      eq\n        /* \"#utility.yul\":621:684   */\n      tag_205\n      jumpi\n        /* \"#utility.yul\":680:681   */\n      0x00\n        /* \"#utility.yul\":677:678   */\n      0x00\n        /* \"#utility.yul\":670:682   */\n      revert\n        /* \"#utility.yul\":621:684   */\n    tag_205:\n        /* \"#utility.yul\":568:690   */\n      pop\n      jump\t// out\n        /* \"#utility.yul\":696:835   */\n    tag_139:\n        /* \"#utility.yul\":742:747   */\n      0x00\n        /* \"#utility.yul\":780:786   */\n      dup2\n        /* \"#utility.yul\":767:787   */\n      calldataload\n        /* \"#utility.yul\":758:787   */\n      swap1\n      pop\n        /* \"#utility.yul\":796:829   */\n      tag_207\n        /* \"#utility.yul\":823:828   */\n      dup2\n        /* \"#utility.yul\":796:829   */\n      tag_138\n      jump\t// in\n    tag_207:\n        /* \"#utility.yul\":696:835   */\n      swap3\n      swap2\n      pop\n      pop\n      jump\t// out\n        /* \"#utility.yul\":841:1170   */\n    tag_20:\n        /* \"#utility.yul\":900:906   */\n      0x00\n        /* \"#utility.yul\":949:951   */\n      0x20\n        /* \"#utility.yul\":937:946   */\n      dup3\n        /* \"#utility.yul\":928:935   */\n      dup5\n        /* \"#utility.yul\":924:947   */\n      sub\n        /* \"#utility.yul\":920:952   */\n      slt\n        /* \"#utility.yul\":917:1036   */\n      iszero\n      tag_209\n      jumpi\n        /* \"#utility.yul\":955:1034   */\n      tag_210\n      tag_134\n      jump\t// in\n    tag_210:\n        /* \"#utility.yul\":917:1036   */\n    tag_209:\n        /* \"#utility.yul\":1075:1076   */\n      0x00\n        /* \"#utility.yul\":1100:1153   */\n      tag_211\n        /* \"#utility.yul\":1145:1152   */\n      dup5\n        /* \"#utility.yul\":1136:1142   */\n      dup3\n        /* \"#utility.yul\":1125:1134   */\n      dup6\n        /* \"#utility.yul\":1121:1143   */\n      add\n        /* \"#utility.yul\":1100:1153   */\n      tag_139\n      jump\t// in\n    tag_211:\n        /* \"#utility.yul\":1090:1153   */\n      swap2\n      pop\n        /* \"#utility.yul\":1046:1163   */\n      pop\n        /* \"#utility.yul\":841:1170   */\n      swap3\n      swap2\n      pop\n      pop\n      jump\t// out\n        /* \"#utility.yul\":1176:1253   */\n    tag_140:\n        /* \"#utility.yul\":1213:1220   */\n      0x00\n        /* \"#utility.yul\":1242:1247   */\n      dup2\n        /* \"#utility.yul\":1231:1247   */\n      swap1\n      pop\n        /* \"#utility.yul\":1176:1253   */\n      swap2\n      swap1\n      pop\n      jump\t// out\n        /* \"#utility.yul\":1259:1377   */\n    tag_141:\n        /* \"#utility.yul\":1346:1370   */\n      tag_214\n        /* \"#utility.yul\":1364:1369   */\n      dup2\n        /* \"#utility.yul\":1346:1370   */\n      tag_140\n      jump\t// in\n    tag_214:\n        /* \"#utility.yul\":1341:1344   */\n      dup3\n        /* \"#utility.yul\":1334:1371   */\n      mstore\n        /* \"#utility.yul\":1259:1377   */\n      pop\n      pop\n      jump\t// out\n        /* \"#utility.yul\":1383:1605   */\n    tag_23:\n        /* \"#utility.yul\":1476:1480   */\n      0x00\n        /* \"#utility.yul\":1514:1516   */\n      0x20\n        /* \"#utility.yul\":1503:1512   */\n      dup3\n        /* \"#utility.yul\":1499:1517   */\n      add\n        /* \"#utility.yul\":1491:1517   */\n      swap1\n      pop\n        /* \"#utility.yul\":1527:1598   */\n      tag_216\n        /* \"#utility.yul\":1595:1596   */\n      0x00\n        /* \"#utility.yul\":1584:1593   */\n      dup4\n        /* \"#utility.yul\":1580:1597   */\n      add\n        /* \"#utility.yul\":1571:1577   */\n      dup5\n        /* \"#utility.yul\":1527:1598   */\n      tag_141\n      jump\t// in\n    tag_216:\n        /* \"#utility.yul\":1383:1605   */\n      swap3\n      swap2\n      pop\n      pop\n      jump\t// out\n        /* \"#utility.yul\":1611:1728   */\n    tag_142:\n        /* \"#utility.yul\":1720:1721   */\n      0x00\n        /* \"#utility.yul\":1717:1718   */\n      0x00\n        /* \"#utility.yul\":1710:1722   */\n      revert\n        /* \"#utility.yul\":1734:1851   */\n    tag_143:\n        /* \"#utility.yul\":1843:1844   */\n      0x00\n        /* \"#utility.yul\":1840:1841   */\n      0x00\n        /* \"#utility.yul\":1833:1845   */\n      revert\n        /* \"#utility.yul\":1857:1959   */\n    tag_144:\n        /* \"#utility.yul\":1898:1904   */\n      0x00\n        /* \"#utility.yul\":1949:1951   */\n      0x1f\n        /* \"#utility.yul\":1945:1952   */\n      not\n        /* \"#utility.yul\":1940:1942   */\n      0x1f\n        /* \"#utility.yul\":1933:1938   */\n      dup4\n        /* \"#utility.yul\":1929:1943   */\n      add\n        /* \"#utility.yul\":1925:1953   */\n      and\n        /* \"#utility.yul\":1915:1953   */\n      swap1\n      pop\n        /* \"#utility.yul\":1857:1959   */\n      swap2\n      swap1\n      pop\n      jump\t// out\n        /* \"#utility.yul\":1965:2145   */\n    tag_145:\n        /* \"#utility.yul\":2013:2090   */\n      0x4e487b7100000000000000000000000000000000000000000000000000000000\n        /* \"#utility.yul\":2010:2011   */\n      0x00\n        /* \"#utility.yul\":2003:2091   */\n      mstore\n        /* \"#utility.yul\":2110:2114   */\n      0x41\n        /* \"#utility.yul\":2107:2108   */\n      0x04\n        /* \"#utility.yul\":2100:2115   */\n      mstore\n        /* \"#utility.yul\":2134:2138   */\n      0x24\n        /* \"#utility.yul\":2131:2132   */\n      0x00\n        /* \"#utility.yul\":2124:2139   */\n      revert\n        /* \"#utility.yul\":2151:2432   */\n    tag_146:\n        /* \"#utility.yul\":2234:2261   */\n      tag_222\n        /* \"#utility.yul\":2256:2260   */\n      dup3\n        /* \"#utility.yul\":2234:2261   */\n      tag_144\n      jump\t// in\n    tag_222:\n        /* \"#utility.yul\":2226:2232   */\n      dup2\n        /* \"#utility.yul\":2222:2262   */\n      add\n        /* \"#utility.yul\":2364:2370   */\n      dup2\n        /* \"#utility.yul\":2352:2362   */\n      dup2\n        /* \"#utility.yul\":2349:2371   */\n      lt\n        /* \"#utility.yul\":2328:2346   */\n      0xffffffffffffffff\n        /* \"#utility.yul\":2316:2326   */\n      dup3\n        /* \"#utility.yul\":2313:2347   */\n      gt\n        /* \"#utility.yul\":2310:2372   */\n      or\n        /* \"#utility.yul\":2307:2395   */\n      iszero\n      tag_223\n      jumpi\n        /* \"#utility.yul\":2375:2393   */\n      tag_224\n      tag_145\n      jump\t// in\n    tag_224:\n        /* \"#utility.yul\":2307:2395   */\n    tag_223:\n        /* \"#utility.yul\":2415:2425   */\n      dup1\n        /* \"#utility.yul\":2411:2413   */\n      0x40\n        /* \"#utility.yul\":2404:2426   */\n      mstore\n        /* \"#utility.yul\":2194:2432   */\n      pop\n        /* \"#utility.yul\":2151:2432   */\n      pop\n      pop\n      jump\t// out\n        /* \"#utility.yul\":2438:2567   */\n    tag_147:\n        /* \"#utility.yul\":2472:2478   */\n      0x00\n        /* \"#utility.yul\":2499:2519   */\n      tag_226\n      tag_133\n      jump\t// in\n    tag_226:\n        /* \"#utility.yul\":2489:2519   */\n      swap1\n      pop\n        /* \"#utility.yul\":2528:2561   */\n      tag_227\n        /* \"#utility.yul\":2556:2560   */\n      dup3\n        /* \"#utility.yul\":2548:2554   */\n      dup3\n        /* \"#utility.yul\":2528:2561   */\n      tag_146\n      jump\t// in\n    tag_227:\n        /* \"#utility.yul\":2438:2567   */\n      swap2\n      swap1\n      pop\n      jump\t// out\n        /* \"#utility.yul\":2573:2880   */\n    tag_148:\n        /* \"#utility.yul\":2634:2638   */\n      0x00\n        /* \"#utility.yul\":2724:2742   */\n      0xffffffffffffffff\n        /* \"#utility.yul\":2716:2722   */\n      dup3\n        /* \"#utility.yul\":2713:2743   */\n      gt\n        /* \"#utility.yul\":2710:2766   */\n      iszero\n      tag_229\n      jumpi\n        /* \"#utility.yul\":2746:2764   */\n      tag_230\n      tag_145\n      jump\t// in\n    tag_230:\n        /* \"#utility.yul\":2710:2766   */\n    tag_229:\n        /* \"#utility.yul\":2784:2813   */\n      tag_231\n        /* \"#utility.yul\":2806:2812   */\n      dup3\n        /* \"#utility.yul\":2784:2813   */\n      tag_144\n      jump\t// in\n    tag_231:\n        /* \"#utility.yul\":2776:2813   */\n      swap1\n      pop\n        /* \"#utility.yul\":2868:2872   */\n      0x20\n        /* \"#utility.yul\":2862:2866   */\n      dup2\n        /* \"#utility.yul\":2858:2873   */\n      add\n        /* \"#utility.yul\":2850:2873   */\n      swap1\n      pop\n        /* \"#utility.yul\":2573:2880   */\n      swap2\n      swap1\n      pop\n      jump\t// out\n        /* \"#utility.yul\":2886:3034   */\n    tag_149:\n        /* \"#utility.yul\":2984:2990   */\n      dup3\n        /* \"#utility.yul\":2979:2982   */\n      dup2\n        /* \"#utility.yul\":2974:2977   */\n      dup4\n        /* \"#utility.yul\":2961:2991   */\n      calldatacopy\n        /* \"#utility.yul\":3025:3026   */\n      0x00\n        /* \"#utility.yul\":3016:3022   */\n      dup4\n        /* \"#utility.yul\":3011:3014   */\n      dup4\n        /* \"#utility.yul\":3007:3023   */\n      add\n        /* \"#utility.yul\":3000:3027   */\n      mstore\n        /* \"#utility.yul\":2886:3034   */\n      pop\n      pop\n      pop\n      jump\t// out\n        /* \"#utility.yul\":3040:3463   */\n    tag_150:\n        /* \"#utility.yul\":3117:3122   */\n      0x00\n        /* \"#utility.yul\":3142:3207   */\n      tag_234\n        /* \"#utility.yul\":3158:3206   */\n      tag_235\n        /* \"#utility.yul\":3199:3205   */\n      dup5\n        /* \"#utility.yul\":3158:3206   */\n      tag_148\n      jump\t// in\n    tag_235:\n        /* \"#utility.yul\":3142:3207   */\n      tag_147\n      jump\t// in\n    tag_234:\n        /* \"#utility.yul\":3133:3207   */\n      swap1\n      pop\n        /* \"#utility.yul\":3230:3236   */\n      dup3\n        /* \"#utility.yul\":3223:3228   */\n      dup2\n        /* \"#utility.yul\":3216:3237   */\n      mstore\n        /* \"#utility.yul\":3268:3272   */\n      0x20\n        /* \"#utility.yul\":3261:3266   */\n      dup2\n        /* \"#utility.yul\":3257:3273   */\n      add\n        /* \"#utility.yul\":3306:3309   */\n      dup5\n        /* \"#utility.yul\":3297:3303   */\n      dup5\n        /* \"#utility.yul\":3292:3295   */\n      dup5\n        /* \"#utility.yul\":3288:3304   */\n      add\n        /* \"#utility.yul\":3285:3310   */\n      gt\n        /* \"#utility.yul\":3282:3394   */\n      iszero\n      tag_236\n      jumpi\n        /* \"#utility.yul\":3313:3392   */\n      tag_237\n      tag_143\n      jump\t// in\n    tag_237:\n        /* \"#utility.yul\":3282:3394   */\n    tag_236:\n        /* \"#utility.yul\":3403:3457   */\n      tag_238\n        /* \"#utility.yul\":3450:3456   */\n      dup5\n        /* \"#utility.yul\":3445:3448   */\n      dup3\n        /* \"#utility.yul\":3440:3443   */\n      dup6\n        /* \"#utility.yul\":3403:3457   */\n      tag_149\n      jump\t// in\n    tag_238:\n        /* \"#utility.yul\":3123:3463   */\n      pop\n        /* \"#utility.yul\":3040:3463   */\n      swap4\n      swap3\n      pop\n      pop\n      pop\n      jump\t// out\n        /* \"#utility.yul\":3482:3820   */\n    tag_151:\n        /* \"#utility.yul\":3537:3542   */\n      0x00\n        /* \"#utility.yul\":3586:3589   */\n      dup3\n        /* \"#utility.yul\":3579:3583   */\n      0x1f\n        /* \"#utility.yul\":3571:3577   */\n      dup4\n        /* \"#utility.yul\":3567:3584   */\n      add\n        /* \"#utility.yul\":3563:3590   */\n      slt\n        /* \"#utility.yul\":3553:3675   */\n      tag_240\n      jumpi\n        /* \"#utility.yul\":3594:3673   */\n      tag_241\n      tag_142\n      jump\t// in\n    tag_241:\n        /* \"#utility.yul\":3553:3675   */\n    tag_240:\n        /* \"#utility.yul\":3711:3717   */\n      dup2\n        /* \"#utility.yul\":3698:3718   */\n      calldataload\n        /* \"#utility.yul\":3736:3814   */\n      tag_242\n        /* \"#utility.yul\":3810:3813   */\n      dup5\n        /* \"#utility.yul\":3802:3808   */\n      dup3\n        /* \"#utility.yul\":3795:3799   */\n      0x20\n        /* \"#utility.yul\":3787:3793   */\n      dup7\n        /* \"#utility.yul\":3783:3800   */\n      add\n        /* \"#utility.yul\":3736:3814   */\n      tag_150\n      jump\t// in\n    tag_242:\n        /* \"#utility.yul\":3727:3814   */\n      swap2\n      pop\n        /* \"#utility.yul\":3543:3820   */\n      pop\n        /* \"#utility.yul\":3482:3820   */\n      swap3\n      swap2\n      pop\n      pop\n      jump\t// out\n        /* \"#utility.yul\":3826:4478   */\n    tag_26:\n        /* \"#utility.yul\":3903:3909   */\n      0x00\n        /* \"#utility.yul\":3911:3917   */\n      0x00\n        /* \"#utility.yul\":3960:3962   */\n      0x40\n        /* \"#utility.yul\":3948:3957   */\n      dup4\n        /* \"#utility.yul\":3939:3946   */\n      dup6\n        /* \"#utility.yul\":3935:3958   */\n      sub\n        /* \"#utility.yul\":3931:3963   */\n      slt\n        /* \"#utility.yul\":3928:4047   */\n      iszero\n      tag_244\n      jumpi\n        /* \"#utility.yul\":3966:4045   */\n      tag_245\n      tag_134\n      jump\t// in\n    tag_245:\n        /* \"#utility.yul\":3928:4047   */\n    tag_244:\n        /* \"#utility.yul\":4086:4087   */\n      0x00\n        /* \"#utility.yul\":4111:4164   */\n      tag_246\n        /* \"#utility.yul\":4156:4163   */\n      dup6\n        /* \"#utility.yul\":4147:4153   */\n      dup3\n        /* \"#utility.yul\":4136:4145   */\n      dup7\n        /* \"#utility.yul\":4132:4154   */\n      add\n        /* \"#utility.yul\":4111:4164   */\n      tag_139\n      jump\t// in\n    tag_246:\n        /* \"#utility.yul\":4101:4164   */\n      swap3\n      pop\n        /* \"#utility.yul\":4057:4174   */\n      pop\n        /* \"#utility.yul\":4241:4243   */\n      0x20\n        /* \"#utility.yul\":4230:4239   */\n      dup4\n        /* \"#utility.yul\":4226:4244   */\n      add\n        /* \"#utility.yul\":4213:4245   */\n      calldataload\n        /* \"#utility.yul\":4272:4290   */\n      0xffffffffffffffff\n        /* \"#utility.yul\":4264:4270   */\n      dup2\n        /* \"#utility.yul\":4261:4291   */\n      gt\n        /* \"#utility.yul\":4258:4375   */\n      iszero\n      tag_247\n      jumpi\n        /* \"#utility.yul\":4294:4373   */\n      tag_248\n      tag_135\n      jump\t// in\n    tag_248:\n        /* \"#utility.yul\":4258:4375   */\n    tag_247:\n        /* \"#utility.yul\":4399:4461   */\n      tag_249\n        /* \"#utility.yul\":4453:4460   */\n      dup6\n        /* \"#utility.yul\":4444:4450   */\n      dup3\n        /* \"#utility.yul\":4433:4442   */\n      dup7\n        /* \"#utility.yul\":4429:4451   */\n      add\n        /* \"#utility.yul\":4399:4461   */\n      tag_151\n      jump\t// in\n    tag_249:\n        /* \"#utility.yul\":4389:4461   */\n      swap2\n      pop\n        /* \"#utility.yul\":4184:4471   */\n      pop\n        /* \"#utility.yul\":3826:4478   */\n      swap3\n      pop\n      swap3\n      swap1\n      pop\n      jump\t// out\n        /* \"#utility.yul\":4484:4574   */\n    tag_152:\n        /* \"#utility.yul\":4518:4525   */\n      0x00\n        /* \"#utility.yul\":4561:4566   */\n      dup2\n        /* \"#utility.yul\":4554:4567   */\n      iszero\n        /* \"#utility.yul\":4547:4568   */\n      iszero\n        /* \"#utility.yul\":4536:4568   */\n      swap1\n      pop\n        /* \"#utility.yul\":4484:4574   */\n      swap2\n      swap1\n      pop\n      jump\t// out\n        /* \"#utility.yul\":4580:4689   */\n    tag_153:\n        /* \"#utility.yul\":4661:4682   */\n      tag_252\n        /* \"#utility.yul\":4676:4681   */\n      dup2\n        /* \"#utility.yul\":4661:4682   */\n      tag_152\n      jump\t// in\n    tag_252:\n        /* \"#utility.yul\":4656:4659   */\n      dup3\n        /* \"#utility.yul\":4649:4683   */\n      mstore\n        /* \"#utility.yul\":4580:4689   */\n      pop\n      pop\n      jump\t// out\n        /* \"#utility.yul\":4695:4905   */\n    tag_29:\n        /* \"#utility.yul\":4782:4786   */\n      0x00\n        /* \"#utility.yul\":4820:4822   */\n      0x20\n        /* \"#utility.yul\":4809:4818   */\n      dup3\n        /* \"#utility.yul\":4805:4823   */\n      add\n        /* \"#utility.yul\":4797:4823   */\n      swap1\n      pop\n        /* \"#utility.yul\":4833:4898   */\n      tag_254\n        /* \"#utility.yul\":4895:4896   */\n      0x00\n        /* \"#utility.yul\":4884:4893   */\n      dup4\n        /* \"#utility.yul\":4880:4897   */\n      add\n        /* \"#utility.yul\":4871:4877   */\n      dup5\n        /* \"#utility.yul\":4833:4898   */\n      tag_153\n      jump\t// in\n    tag_254:\n        /* \"#utility.yul\":4695:4905   */\n      swap3\n      swap2\n      pop\n      pop\n      jump\t// out\n        /* \"#utility.yul\":4911:5418   */\n    tag_32:\n        /* \"#utility.yul\":4979:4985   */\n      0x00\n        /* \"#utility.yul\":5028:5030   */\n      0x20\n        /* \"#utility.yul\":5016:5025   */\n      dup3\n        /* \"#utility.yul\":5007:5014   */\n      dup5\n        /* \"#utility.yul\":5003:5026   */\n      sub\n        /* \"#utility.yul\":4999:5031   */\n      slt\n        /* \"#utility.yul\":4996:5115   */\n      iszero\n      tag_256\n      jumpi\n        /* \"#utility.yul\":5034:5113   */\n      tag_257\n      tag_134\n      jump\t// in\n    tag_257:\n        /* \"#utility.yul\":4996:5115   */\n    tag_256:\n        /* \"#utility.yul\":5182:5183   */\n      0x00\n        /* \"#utility.yul\":5171:5180   */\n      dup3\n        /* \"#utility.yul\":5167:5184   */\n      add\n        /* \"#utility.yul\":5154:5185   */\n      calldataload\n        /* \"#utility.yul\":5212:5230   */\n      0xffffffffffffffff\n        /* \"#utility.yul\":5204:5210   */\n      dup2\n        /* \"#utility.yul\":5201:5231   */\n      gt\n        /* \"#utility.yul\":5198:5315   */\n      iszero\n      tag_258\n      jumpi\n        /* \"#utility.yul\":5234:5313   */\n      tag_259\n      tag_135\n      jump\t// in\n    tag_259:\n        /* \"#utility.yul\":5198:5315   */\n    tag_258:\n        /* \"#utility.yul\":5339:5401   */\n      tag_260\n        /* \"#utility.yul\":5393:5400   */\n      dup5\n        /* \"#utility.yul\":5384:5390   */\n      dup3\n        /* \"#utility.yul\":5373:5382   */\n      dup6\n        /* \"#utility.yul\":5369:5391   */\n      add\n        /* \"#utility.yul\":5339:5401   */\n      tag_151\n      jump\t// in\n    tag_260:\n        /* \"#utility.yul\":5329:5401   */\n      swap2\n      pop\n        /* \"#utility.yul\":5125:5411   */\n      pop\n        /* \"#utility.yul\":4911:5418   */\n      swap3\n      swap2\n      pop\n      pop\n      jump\t// out\n        /* \"#utility.yul\":5424:5501   */\n    tag_154:\n        /* \"#utility.yul\":5461:5468   */\n      0x00\n        /* \"#utility.yul\":5490:5495   */\n      dup2\n        /* \"#utility.yul\":5479:5495   */\n      swap1\n      pop\n        /* \"#utility.yul\":5424:5501   */\n      swap2\n      swap1\n      pop\n      jump\t// out\n        /* \"#utility.yul\":5507:5625   */\n    tag_155:\n        /* \"#utility.yul\":5594:5618   */\n      tag_263\n        /* \"#utility.yul\":5612:5617   */\n      dup2\n        /* \"#utility.yul\":5594:5618   */\n      tag_154\n      jump\t// in\n    tag_263:\n        /* \"#utility.yul\":5589:5592   */\n      dup3\n        /* \"#utility.yul\":5582:5619   */\n      mstore\n        /* \"#utility.yul\":5507:5625   */\n      pop\n      pop\n      jump\t// out\n        /* \"#utility.yul\":5631:5853   */\n    tag_37:\n        /* \"#utility.yul\":5724:5728   */\n      0x00\n        /* \"#utility.yul\":5762:5764   */\n      0x20\n        /* \"#utility.yul\":5751:5760   */\n      dup3\n        /* \"#utility.yul\":5747:5765   */\n      add\n        /* \"#utility.yul\":5739:5765   */\n      swap1\n      pop\n        /* \"#utility.yul\":5775:5846   */\n      tag_265\n        /* \"#utility.yul\":5843:5844   */\n      0x00\n        /* \"#utility.yul\":5832:5841   */\n      dup4\n        /* \"#utility.yul\":5828:5845   */\n      add\n        /* \"#utility.yul\":5819:5825   */\n      dup5\n        /* \"#utility.yul\":5775:5846   */\n      tag_155\n      jump\t// in\n    tag_265:\n        /* \"#utility.yul\":5631:5853   */\n      swap3\n      swap2\n      pop\n      pop\n      jump\t// out\n        /* \"#utility.yul\":5859:5977   */\n    tag_156:\n        /* \"#utility.yul\":5946:5970   */\n      tag_267\n        /* \"#utility.yul\":5964:5969   */\n      dup2\n        /* \"#utility.yul\":5946:5970   */\n      tag_137\n      jump\t// in\n    tag_267:\n        /* \"#utility.yul\":5941:5944   */\n      dup3\n        /* \"#utility.yul\":5934:5971   */\n      mstore\n        /* \"#utility.yul\":5859:5977   */\n      pop\n      pop\n      jump\t// out\n        /* \"#utility.yul\":5983:6205   */\n    tag_44:\n        /* \"#utility.yul\":6076:6080   */\n      0x00\n        /* \"#utility.yul\":6114:6116   */\n      0x20\n        /* \"#utility.yul\":6103:6112   */\n      dup3\n        /* \"#utility.yul\":6099:6117   */\n      add\n        /* \"#utility.yul\":6091:6117   */\n      swap1\n      pop\n        /* \"#utility.yul\":6127:6198   */\n      tag_269\n        /* \"#utility.yul\":6195:6196   */\n      0x00\n        /* \"#utility.yul\":6184:6193   */\n      dup4\n        /* \"#utility.yul\":6180:6197   */\n      add\n        /* \"#utility.yul\":6171:6177   */\n      dup5\n        /* \"#utility.yul\":6127:6198   */\n      tag_156\n      jump\t// in\n    tag_269:\n        /* \"#utility.yul\":5983:6205   */\n      swap3\n      swap2\n      pop\n      pop\n      jump\t// out\n        /* \"#utility.yul\":6211:6327   */\n    tag_157:\n        /* \"#utility.yul\":6281:6302   */\n      tag_271\n        /* \"#utility.yul\":6296:6301   */\n      dup2\n        /* \"#utility.yul\":6281:6302   */\n      tag_152\n      jump\t// in\n    tag_271:\n        /* \"#utility.yul\":6274:6279   */\n      dup2\n        /* \"#utility.yul\":6271:6303   */\n      eq\n        /* \"#utility.yul\":6261:6321   */\n      tag_272\n      jumpi\n        /* \"#utility.yul\":6317:6318   */\n      0x00\n        /* \"#utility.yul\":6314:6315   */\n      0x00\n        /* \"#utility.yul\":6307:6319   */\n      revert\n        /* \"#utility.yul\":6261:6321   */\n    tag_272:\n        /* \"#utility.yul\":6211:6327   */\n      pop\n      jump\t// out\n        /* \"#utility.yul\":6333:6466   */\n    tag_158:\n        /* \"#utility.yul\":6376:6381   */\n      0x00\n        /* \"#utility.yul\":6414:6420   */\n      dup2\n        /* \"#utility.yul\":6401:6421   */\n      calldataload\n        /* \"#utility.yul\":6392:6421   */\n      swap1\n      pop\n        /* \"#utility.yul\":6430:6460   */\n      tag_274\n        /* \"#utility.yul\":6454:6459   */\n      dup2\n        /* \"#utility.yul\":6430:6460   */\n      tag_157\n      jump\t// in\n    tag_274:\n        /* \"#utility.yul\":6333:6466   */\n      swap3\n      swap2\n      pop\n      pop\n      jump\t// out\n        /* \"#utility.yul\":6472:6795   */\n    tag_47:\n        /* \"#utility.yul\":6528:6534   */\n      0x00\n        /* \"#utility.yul\":6577:6579   */\n      0x20\n        /* \"#utility.yul\":6565:6574   */\n      dup3\n        /* \"#utility.yul\":6556:6563   */\n      dup5\n        /* \"#utility.yul\":6552:6575   */\n      sub\n        /* \"#utility.yul\":6548:6580   */\n      slt\n        /* \"#utility.yul\":6545:6664   */\n      iszero\n      tag_276\n      jumpi\n        /* \"#utility.yul\":6583:6662   */\n      tag_277\n      tag_134\n      jump\t// in\n    tag_277:\n        /* \"#utility.yul\":6545:6664   */\n    tag_276:\n        /* \"#utility.yul\":6703:6704   */\n      0x00\n        /* \"#utility.yul\":6728:6778   */\n      tag_278\n        /* \"#utility.yul\":6770:6777   */\n      dup5\n        /* \"#utility.yul\":6761:6767   */\n      dup3\n        /* \"#utility.yul\":6750:6759   */\n      dup6\n        /* \"#utility.yul\":6746:6768   */\n      add\n        /* \"#utility.yul\":6728:6778   */\n      tag_158\n      jump\t// in\n    tag_278:\n        /* \"#utility.yul\":6718:6778   */\n      swap2\n      pop\n        /* \"#utility.yul\":6674:6788   */\n      pop\n        /* \"#utility.yul\":6472:6795   */\n      swap3\n      swap2\n      pop\n      pop\n      jump\t// out\n        /* \"#utility.yul\":6801:6900   */\n    tag_159:\n        /* \"#utility.yul\":6853:6859   */\n      0x00\n        /* \"#utility.yul\":6887:6892   */\n      dup2\n        /* \"#utility.yul\":6881:6893   */\n      mload\n        /* \"#utility.yul\":6871:6893   */\n      swap1\n      pop\n        /* \"#utility.yul\":6801:6900   */\n      swap2\n      swap1\n      pop\n      jump\t// out\n        /* \"#utility.yul\":6906:7075   */\n    tag_160:\n        /* \"#utility.yul\":6990:7001   */\n      0x00\n        /* \"#utility.yul\":7024:7030   */\n      dup3\n        /* \"#utility.yul\":7019:7022   */\n      dup3\n        /* \"#utility.yul\":7012:7031   */\n      mstore\n        /* \"#utility.yul\":7064:7068   */\n      0x20\n        /* \"#utility.yul\":7059:7062   */\n      dup3\n        /* \"#utility.yul\":7055:7069   */\n      add\n        /* \"#utility.yul\":7040:7069   */\n      swap1\n      pop\n        /* \"#utility.yul\":6906:7075   */\n      swap3\n      swap2\n      pop\n      pop\n      jump\t// out\n        /* \"#utility.yul\":7081:7220   */\n    tag_161:\n        /* \"#utility.yul\":7170:7176   */\n      dup3\n        /* \"#utility.yul\":7165:7168   */\n      dup2\n        /* \"#utility.yul\":7160:7163   */\n      dup4\n        /* \"#utility.yul\":7154:7177   */\n      mcopy\n        /* \"#utility.yul\":7211:7212   */\n      0x00\n        /* \"#utility.yul\":7202:7208   */\n      dup4\n        /* \"#utility.yul\":7197:7200   */\n      dup4\n        /* \"#utility.yul\":7193:7209   */\n      add\n        /* \"#utility.yul\":7186:7213   */\n      mstore\n        /* \"#utility.yul\":7081:7220   */\n      pop\n      pop\n      pop\n      jump\t// out\n        /* \"#utility.yul\":7226:7603   */\n    tag_162:\n        /* \"#utility.yul\":7314:7317   */\n      0x00\n        /* \"#utility.yul\":7342:7381   */\n      tag_283\n        /* \"#utility.yul\":7375:7380   */\n      dup3\n        /* \"#utility.yul\":7342:7381   */\n      tag_159\n      jump\t// in\n    tag_283:\n        /* \"#utility.yul\":7397:7468   */\n      tag_284\n        /* \"#utility.yul\":7461:7467   */\n      dup2\n        /* \"#utility.yul\":7456:7459   */\n      dup6\n        /* \"#utility.yul\":7397:7468   */\n      tag_160\n      jump\t// in\n    tag_284:\n        /* \"#utility.yul\":7390:7468   */\n      swap4\n      pop\n        /* \"#utility.yul\":7477:7542   */\n      tag_285\n        /* \"#utility.yul\":7535:7541   */\n      dup2\n        /* \"#utility.yul\":7530:7533   */\n      dup6\n        /* \"#utility.yul\":7523:7527   */\n      0x20\n        /* \"#utility.yul\":7516:7521   */\n      dup7\n        /* \"#utility.yul\":7512:7528   */\n      add\n        /* \"#utility.yul\":7477:7542   */\n      tag_161\n      jump\t// in\n    tag_285:\n        /* \"#utility.yul\":7567:7596   */\n      tag_286\n        /* \"#utility.yul\":7589:7595   */\n      dup2\n        /* \"#utility.yul\":7567:7596   */\n      tag_144\n      jump\t// in\n    tag_286:\n        /* \"#utility.yul\":7562:7565   */\n      dup5\n        /* \"#utility.yul\":7558:7597   */\n      add\n        /* \"#utility.yul\":7551:7597   */\n      swap2\n      pop\n        /* \"#utility.yul\":7318:7603   */\n      pop\n        /* \"#utility.yul\":7226:7603   */\n      swap3\n      swap2\n      pop\n      pop\n      jump\t// out\n        /* \"#utility.yul\":7609:7922   */\n    tag_52:\n        /* \"#utility.yul\":7722:7726   */\n      0x00\n        /* \"#utility.yul\":7760:7762   */\n      0x20\n        /* \"#utility.yul\":7749:7758   */\n      dup3\n        /* \"#utility.yul\":7745:7763   */\n      add\n        /* \"#utility.yul\":7737:7763   */\n      swap1\n      pop\n        /* \"#utility.yul\":7809:7818   */\n      dup2\n        /* \"#utility.yul\":7803:7807   */\n      dup2\n        /* \"#utility.yul\":7799:7819   */\n      sub\n        /* \"#utility.yul\":7795:7796   */\n      0x00\n        /* \"#utility.yul\":7784:7793   */\n      dup4\n        /* \"#utility.yul\":7780:7797   */\n      add\n        /* \"#utility.yul\":7773:7820   */\n      mstore\n        /* \"#utility.yul\":7837:7915   */\n      tag_288\n        /* \"#utility.yul\":7910:7914   */\n      dup2\n        /* \"#utility.yul\":7901:7907   */\n      dup5\n        /* \"#utility.yul\":7837:7915   */\n      tag_162\n      jump\t// in\n    tag_288:\n        /* \"#utility.yul\":7829:7915   */\n      swap1\n      pop\n        /* \"#utility.yul\":7609:7922   */\n      swap3\n      swap2\n      pop\n      pop\n      jump\t// out\n        /* \"#utility.yul\":7928:8050   */\n    tag_163:\n        /* \"#utility.yul\":8001:8025   */\n      tag_290\n        /* \"#utility.yul\":8019:8024   */\n      dup2\n        /* \"#utility.yul\":8001:8025   */\n      tag_140\n      jump\t// in\n    tag_290:\n        /* \"#utility.yul\":7994:7999   */\n      dup2\n        /* \"#utility.yul\":7991:8026   */\n      eq\n        /* \"#utility.yul\":7981:8044   */\n      tag_291\n      jumpi\n        /* \"#utility.yul\":8040:8041   */\n      0x00\n        /* \"#utility.yul\":8037:8038   */\n      0x00\n        /* \"#utility.yul\":8030:8042   */\n      revert\n        /* \"#utility.yul\":7981:8044   */\n    tag_291:\n        /* \"#utility.yul\":7928:8050   */\n      pop\n      jump\t// out\n        /* \"#utility.yul\":8056:8195   */\n    tag_164:\n        /* \"#utility.yul\":8102:8107   */\n      0x00\n        /* \"#utility.yul\":8140:8146   */\n      dup2\n        /* \"#utility.yul\":8127:8147   */\n      calldataload\n        /* \"#utility.yul\":8118:8147   */\n      swap1\n      pop\n        /* \"#utility.yul\":8156:8189   */\n      tag_293\n        /* \"#utility.yul\":8183:8188   */\n      dup2\n        /* \"#utility.yul\":8156:8189   */\n      tag_163\n      jump\t// in\n    tag_293:\n        /* \"#utility.yul\":8056:8195   */\n      swap3\n      swap2\n      pop\n      pop\n      jump\t// out\n        /* \"#utility.yul\":8201:8853   */\n    tag_55:\n        /* \"#utility.yul\":8278:8284   */\n      0x00\n        /* \"#utility.yul\":8286:8292   */\n      0x00\n        /* \"#utility.yul\":8335:8337   */\n      0x40\n        /* \"#utility.yul\":8323:8332   */\n      dup4\n        /* \"#utility.yul\":8314:8321   */\n      dup6\n        /* \"#utility.yul\":8310:8333   */\n      sub\n        /* \"#utility.yul\":8306:8338   */\n      slt\n        /* \"#utility.yul\":8303:8422   */\n      iszero\n      tag_295\n      jumpi\n        /* \"#utility.yul\":8341:8420   */\n      tag_296\n      tag_134\n      jump\t// in\n    tag_296:\n        /* \"#utility.yul\":8303:8422   */\n    tag_295:\n        /* \"#utility.yul\":8461:8462   */\n      0x00\n        /* \"#utility.yul\":8486:8539   */\n      tag_297\n        /* \"#utility.yul\":8531:8538   */\n      dup6\n        /* \"#utility.yul\":8522:8528   */\n      dup3\n        /* \"#utility.yul\":8511:8520   */\n      dup7\n        /* \"#utility.yul\":8507:8529   */\n      add\n        /* \"#utility.yul\":8486:8539   */\n      tag_164\n      jump\t// in\n    tag_297:\n        /* \"#utility.yul\":8476:8539   */\n      swap3\n      pop\n        /* \"#utility.yul\":8432:8549   */\n      pop\n        /* \"#utility.yul\":8616:8618   */\n      0x20\n        /* \"#utility.yul\":8605:8614   */\n      dup4\n        /* \"#utility.yul\":8601:8619   */\n      add\n        /* \"#utility.yul\":8588:8620   */\n      calldataload\n        /* \"#utility.yul\":8647:8665   */\n      0xffffffffffffffff\n        /* \"#utility.yul\":8639:8645   */\n      dup2\n        /* \"#utility.yul\":8636:8666   */\n      gt\n        /* \"#utility.yul\":8633:8750   */\n      iszero\n      tag_298\n      jumpi\n        /* \"#utility.yul\":8669:8748   */\n      tag_299\n      tag_135\n      jump\t// in\n    tag_299:\n        /* \"#utility.yul\":8633:8750   */\n    tag_298:\n        /* \"#utility.yul\":8774:8836   */\n      tag_300\n        /* \"#utility.yul\":8828:8835   */\n      dup6\n        /* \"#utility.yul\":8819:8825   */\n      dup3\n        /* \"#utility.yul\":8808:8817   */\n      dup7\n        /* \"#utility.yul\":8804:8826   */\n      add\n        /* \"#utility.yul\":8774:8836   */\n      tag_151\n      jump\t// in\n    tag_300:\n        /* \"#utility.yul\":8764:8836   */\n      swap2\n      pop\n        /* \"#utility.yul\":8559:8846   */\n      pop\n        /* \"#utility.yul\":8201:8853   */\n      swap3\n      pop\n      swap3\n      swap1\n      pop\n      jump\t// out\n        /* \"#utility.yul\":8859:9188   */\n    tag_70:\n        /* \"#utility.yul\":8918:8924   */\n      0x00\n        /* \"#utility.yul\":8967:8969   */\n      0x20\n        /* \"#utility.yul\":8955:8964   */\n      dup3\n        /* \"#utility.yul\":8946:8953   */\n      dup5\n        /* \"#utility.yul\":8942:8965   */\n      sub\n        /* \"#utility.yul\":8938:8970   */\n      slt\n        /* \"#utility.yul\":8935:9054   */\n      iszero\n      tag_302\n      jumpi\n        /* \"#utility.yul\":8973:9052   */\n      tag_303\n      tag_134\n      jump\t// in\n    tag_303:\n        /* \"#utility.yul\":8935:9054   */\n    tag_302:\n        /* \"#utility.yul\":9093:9094   */\n      0x00\n        /* \"#utility.yul\":9118:9171   */\n      tag_304\n        /* \"#utility.yul\":9163:9170   */\n      dup5\n        /* \"#utility.yul\":9154:9160   */\n      dup3\n        /* \"#utility.yul\":9143:9152   */\n      dup6\n        /* \"#utility.yul\":9139:9161   */\n      add\n        /* \"#utility.yul\":9118:9171   */\n      tag_164\n      jump\t// in\n    tag_304:\n        /* \"#utility.yul\":9108:9171   */\n      swap2\n      pop\n        /* \"#utility.yul\":9064:9181   */\n      pop\n        /* \"#utility.yul\":8859:9188   */\n      swap3\n      swap2\n      pop\n      pop\n      jump\t// out\n        /* \"#utility.yul\":9194:9288   */\n    tag_165:\n        /* \"#utility.yul\":9227:9235   */\n      0x00\n        /* \"#utility.yul\":9275:9280   */\n      dup2\n        /* \"#utility.yul\":9271:9273   */\n      0x60\n        /* \"#utility.yul\":9267:9281   */\n      shl\n        /* \"#utility.yul\":9246:9281   */\n      swap1\n      pop\n        /* \"#utility.yul\":9194:9288   */\n      swap2\n      swap1\n      pop\n      jump\t// out\n        /* \"#utility.yul\":9294:9388   */\n    tag_166:\n        /* \"#utility.yul\":9333:9340   */\n      0x00\n        /* \"#utility.yul\":9362:9382   */\n      tag_307\n        /* \"#utility.yul\":9376:9381   */\n      dup3\n        /* \"#utility.yul\":9362:9382   */\n      tag_165\n      jump\t// in\n    tag_307:\n        /* \"#utility.yul\":9351:9382   */\n      swap1\n      pop\n        /* \"#utility.yul\":9294:9388   */\n      swap2\n      swap1\n      pop\n      jump\t// out\n        /* \"#utility.yul\":9394:9494   */\n    tag_167:\n        /* \"#utility.yul\":9433:9440   */\n      0x00\n        /* \"#utility.yul\":9462:9488   */\n      tag_309\n        /* \"#utility.yul\":9482:9487   */\n      dup3\n        /* \"#utility.yul\":9462:9488   */\n      tag_166\n      jump\t// in\n    tag_309:\n        /* \"#utility.yul\":9451:9488   */\n      swap1\n      pop\n        /* \"#utility.yul\":9394:9494   */\n      swap2\n      swap1\n      pop\n      jump\t// out\n        /* \"#utility.yul\":9500:9657   */\n    tag_168:\n        /* \"#utility.yul\":9605:9650   */\n      tag_311\n        /* \"#utility.yul\":9625:9649   */\n      tag_312\n        /* \"#utility.yul\":9643:9648   */\n      dup3\n        /* \"#utility.yul\":9625:9649   */\n      tag_137\n      jump\t// in\n    tag_312:\n        /* \"#utility.yul\":9605:9650   */\n      tag_167\n      jump\t// in\n    tag_311:\n        /* \"#utility.yul\":9600:9603   */\n      dup3\n        /* \"#utility.yul\":9593:9651   */\n      mstore\n        /* \"#utility.yul\":9500:9657   */\n      pop\n      pop\n      jump\t// out\n        /* \"#utility.yul\":9663:9843   */\n    tag_169:\n        /* \"#utility.yul\":9711:9788   */\n      0x4e487b7100000000000000000000000000000000000000000000000000000000\n        /* \"#utility.yul\":9708:9709   */\n      0x00\n        /* \"#utility.yul\":9701:9789   */\n      mstore\n        /* \"#utility.yul\":9808:9812   */\n      0x22\n        /* \"#utility.yul\":9805:9806   */\n      0x04\n        /* \"#utility.yul\":9798:9813   */\n      mstore\n        /* \"#utility.yul\":9832:9836   */\n      0x24\n        /* \"#utility.yul\":9829:9830   */\n      0x00\n        /* \"#utility.yul\":9822:9837   */\n      revert\n        /* \"#utility.yul\":9849:10169   */\n    tag_110:\n        /* \"#utility.yul\":9893:9899   */\n      0x00\n        /* \"#utility.yul\":9930:9931   */\n      0x02\n        /* \"#utility.yul\":9924:9928   */\n      dup3\n        /* \"#utility.yul\":9920:9932   */\n      div\n        /* \"#utility.yul\":9910:9932   */\n      swap1\n      pop\n        /* \"#utility.yul\":9977:9978   */\n      0x01\n        /* \"#utility.yul\":9971:9975   */\n      dup3\n        /* \"#utility.yul\":9967:9979   */\n      and\n        /* \"#utility.yul\":9998:10016   */\n      dup1\n        /* \"#utility.yul\":9988:10069   */\n      tag_315\n      jumpi\n        /* \"#utility.yul\":10054:10058   */\n      0x7f\n        /* \"#utility.yul\":10046:10052   */\n      dup3\n        /* \"#utility.yul\":10042:10059   */\n      and\n        /* \"#utility.yul\":10032:10059   */\n      swap2\n      pop\n        /* \"#utility.yul\":9988:10069   */\n    tag_315:\n        /* \"#utility.yul\":10116:10118   */\n      0x20\n        /* \"#utility.yul\":10108:10114   */\n      dup3\n        /* \"#utility.yul\":10105:10119   */\n      lt\n        /* \"#utility.yul\":10085:10103   */\n      dup2\n        /* \"#utility.yul\":10082:10120   */\n      sub\n        /* \"#utility.yul\":10079:10163   */\n      tag_316\n      jumpi\n        /* \"#utility.yul\":10135:10153   */\n      tag_317\n      tag_169\n      jump\t// in\n    tag_317:\n        /* \"#utility.yul\":10079:10163   */\n    tag_316:\n        /* \"#utility.yul\":9900:10169   */\n      pop\n        /* \"#utility.yul\":9849:10169   */\n      swap2\n      swap1\n      pop\n      jump\t// out\n        /* \"#utility.yul\":10175:10323   */\n    tag_170:\n        /* \"#utility.yul\":10277:10288   */\n      0x00\n        /* \"#utility.yul\":10314:10317   */\n      dup2\n        /* \"#utility.yul\":10299:10317   */\n      swap1\n      pop\n        /* \"#utility.yul\":10175:10323   */\n      swap3\n      swap2\n      pop\n      pop\n      jump\t// out\n        /* \"#utility.yul\":10329:10470   */\n    tag_171:\n        /* \"#utility.yul\":10378:10382   */\n      0x00\n        /* \"#utility.yul\":10401:10404   */\n      dup2\n        /* \"#utility.yul\":10393:10404   */\n      swap1\n      pop\n        /* \"#utility.yul\":10424:10427   */\n      dup2\n        /* \"#utility.yul\":10421:10422   */\n      0x00\n        /* \"#utility.yul\":10414:10428   */\n      mstore\n        /* \"#utility.yul\":10458:10462   */\n      0x20\n        /* \"#utility.yul\":10455:10456   */\n      0x00\n        /* \"#utility.yul\":10445:10463   */\n      keccak256\n        /* \"#utility.yul\":10437:10463   */\n      swap1\n      pop\n        /* \"#utility.yul\":10329:10470   */\n      swap2\n      swap1\n      pop\n      jump\t// out\n        /* \"#utility.yul\":10500:11374   */\n    tag_172:\n        /* \"#utility.yul\":10603:10606   */\n      0x00\n        /* \"#utility.yul\":10640:10645   */\n      dup2\n        /* \"#utility.yul\":10634:10646   */\n      sload\n        /* \"#utility.yul\":10669:10705   */\n      tag_321\n        /* \"#utility.yul\":10695:10704   */\n      dup2\n        /* \"#utility.yul\":10669:10705   */\n      tag_110\n      jump\t// in\n    tag_321:\n        /* \"#utility.yul\":10721:10810   */\n      tag_322\n        /* \"#utility.yul\":10803:10809   */\n      dup2\n        /* \"#utility.yul\":10798:10801   */\n      dup7\n        /* \"#utility.yul\":10721:10810   */\n      tag_170\n      jump\t// in\n    tag_322:\n        /* \"#utility.yul\":10714:10810   */\n      swap5\n      pop\n        /* \"#utility.yul\":10841:10842   */\n      0x01\n        /* \"#utility.yul\":10830:10839   */\n      dup3\n        /* \"#utility.yul\":10826:10843   */\n      and\n        /* \"#utility.yul\":10857:10858   */\n      0x00\n        /* \"#utility.yul\":10852:11018   */\n      dup2\n      eq\n      tag_324\n      jumpi\n        /* \"#utility.yul\":11032:11033   */\n      0x01\n        /* \"#utility.yul\":11027:11368   */\n      dup2\n      eq\n      tag_325\n      jumpi\n        /* \"#utility.yul\":10819:11368   */\n      jump(tag_323)\n        /* \"#utility.yul\":10852:11018   */\n    tag_324:\n        /* \"#utility.yul\":10936:10940   */\n      0xff\n        /* \"#utility.yul\":10932:10941   */\n      not\n        /* \"#utility.yul\":10921:10930   */\n      dup4\n        /* \"#utility.yul\":10917:10942   */\n      and\n        /* \"#utility.yul\":10912:10915   */\n      dup7\n        /* \"#utility.yul\":10905:10943   */\n      mstore\n        /* \"#utility.yul\":10998:11004   */\n      dup2\n        /* \"#utility.yul\":10991:11005   */\n      iszero\n        /* \"#utility.yul\":10984:11006   */\n      iszero\n        /* \"#utility.yul\":10976:10982   */\n      dup3\n        /* \"#utility.yul\":10972:11007   */\n      mul\n        /* \"#utility.yul\":10967:10970   */\n      dup7\n        /* \"#utility.yul\":10963:11008   */\n      add\n        /* \"#utility.yul\":10956:11008   */\n      swap4\n      pop\n        /* \"#utility.yul\":10852:11018   */\n      jump(tag_323)\n        /* \"#utility.yul\":11027:11368   */\n    tag_325:\n        /* \"#utility.yul\":11094:11132   */\n      tag_326\n        /* \"#utility.yul\":11126:11131   */\n      dup6\n        /* \"#utility.yul\":11094:11132   */\n      tag_171\n      jump\t// in\n    tag_326:\n        /* \"#utility.yul\":11154:11155   */\n      0x00\n        /* \"#utility.yul\":11168:11322   */\n    tag_327:\n        /* \"#utility.yul\":11182:11188   */\n      dup4\n        /* \"#utility.yul\":11179:11180   */\n      dup2\n        /* \"#utility.yul\":11176:11189   */\n      lt\n        /* \"#utility.yul\":11168:11322   */\n      iszero\n      tag_329\n      jumpi\n        /* \"#utility.yul\":11256:11263   */\n      dup2\n        /* \"#utility.yul\":11250:11264   */\n      sload\n        /* \"#utility.yul\":11246:11247   */\n      dup2\n        /* \"#utility.yul\":11241:11244   */\n      dup10\n        /* \"#utility.yul\":11237:11248   */\n      add\n        /* \"#utility.yul\":11230:11265   */\n      mstore\n        /* \"#utility.yul\":11306:11307   */\n      0x01\n        /* \"#utility.yul\":11297:11304   */\n      dup3\n        /* \"#utility.yul\":11293:11308   */\n      add\n        /* \"#utility.yul\":11282:11308   */\n      swap2\n      pop\n        /* \"#utility.yul\":11204:11208   */\n      0x20\n        /* \"#utility.yul\":11201:11202   */\n      dup2\n        /* \"#utility.yul\":11197:11209   */\n      add\n        /* \"#utility.yul\":11192:11209   */\n      swap1\n      pop\n        /* \"#utility.yul\":11168:11322   */\n      jump(tag_327)\n    tag_329:\n        /* \"#utility.yul\":11351:11357   */\n      dup4\n        /* \"#utility.yul\":11346:11349   */\n      dup9\n        /* \"#utility.yul\":11342:11358   */\n      add\n        /* \"#utility.yul\":11335:11358   */\n      swap6\n      pop\n        /* \"#utility.yul\":11034:11368   */\n      pop\n      pop\n        /* \"#utility.yul\":10819:11368   */\n    tag_323:\n      pop\n        /* \"#utility.yul\":10607:11374   */\n      pop\n      pop\n        /* \"#utility.yul\":10500:11374   */\n      swap3\n      swap2\n      pop\n      pop\n      jump\t// out\n        /* \"#utility.yul\":11380:11931   */\n    tag_75:\n        /* \"#utility.yul\":11565:11568   */\n      0x00\n        /* \"#utility.yul\":11580:11655   */\n      tag_331\n        /* \"#utility.yul\":11651:11654   */\n      dup3\n        /* \"#utility.yul\":11642:11648   */\n      dup7\n        /* \"#utility.yul\":11580:11655   */\n      tag_168\n      jump\t// in\n    tag_331:\n        /* \"#utility.yul\":11680:11682   */\n      0x14\n        /* \"#utility.yul\":11675:11678   */\n      dup3\n        /* \"#utility.yul\":11671:11683   */\n      add\n        /* \"#utility.yul\":11664:11683   */\n      swap2\n      pop\n        /* \"#utility.yul\":11700:11792   */\n      tag_332\n        /* \"#utility.yul\":11788:11791   */\n      dup3\n        /* \"#utility.yul\":11779:11785   */\n      dup6\n        /* \"#utility.yul\":11700:11792   */\n      tag_172\n      jump\t// in\n    tag_332:\n        /* \"#utility.yul\":11693:11792   */\n      swap2\n      pop\n        /* \"#utility.yul\":11802:11877   */\n      tag_333\n        /* \"#utility.yul\":11873:11876   */\n      dup3\n        /* \"#utility.yul\":11864:11870   */\n      dup5\n        /* \"#utility.yul\":11802:11877   */\n      tag_168\n      jump\t// in\n    tag_333:\n        /* \"#utility.yul\":11902:11904   */\n      0x14\n        /* \"#utility.yul\":11897:11900   */\n      dup3\n        /* \"#utility.yul\":11893:11905   */\n      add\n        /* \"#utility.yul\":11886:11905   */\n      swap2\n      pop\n        /* \"#utility.yul\":11922:11925   */\n      dup2\n        /* \"#utility.yul\":11915:11925   */\n      swap1\n      pop\n        /* \"#utility.yul\":11380:11931   */\n      swap5\n      swap4\n      pop\n      pop\n      pop\n      pop\n      jump\t// out\n        /* \"#utility.yul\":11937:12106   */\n    tag_173:\n        /* \"#utility.yul\":12077:12098   */\n      0x4576656e74206973206e6f742061637469766500000000000000000000000000\n        /* \"#utility.yul\":12073:12074   */\n      0x00\n        /* \"#utility.yul\":12065:12071   */\n      dup3\n        /* \"#utility.yul\":12061:12075   */\n      add\n        /* \"#utility.yul\":12054:12099   */\n      mstore\n        /* \"#utility.yul\":11937:12106   */\n      pop\n      jump\t// out\n        /* \"#utility.yul\":12112:12478   */\n    tag_174:\n        /* \"#utility.yul\":12254:12257   */\n      0x00\n        /* \"#utility.yul\":12275:12342   */\n      tag_336\n        /* \"#utility.yul\":12339:12341   */\n      0x13\n        /* \"#utility.yul\":12334:12337   */\n      dup4\n        /* \"#utility.yul\":12275:12342   */\n      tag_160\n      jump\t// in\n    tag_336:\n        /* \"#utility.yul\":12268:12342   */\n      swap2\n      pop\n        /* \"#utility.yul\":12351:12444   */\n      tag_337\n        /* \"#utility.yul\":12440:12443   */\n      dup3\n        /* \"#utility.yul\":12351:12444   */\n      tag_173\n      jump\t// in\n    tag_337:\n        /* \"#utility.yul\":12469:12471   */\n      0x20\n        /* \"#utility.yul\":12464:12467   */\n      dup3\n        /* \"#utility.yul\":12460:12472   */\n      add\n        /* \"#utility.yul\":12453:12472   */\n      swap1\n      pop\n        /* \"#utility.yul\":12112:12478   */\n      swap2\n      swap1\n      pop\n      jump\t// out\n        /* \"#utility.yul\":12484:12903   */\n    tag_83:\n        /* \"#utility.yul\":12650:12654   */\n      0x00\n        /* \"#utility.yul\":12688:12690   */\n      0x20\n        /* \"#utility.yul\":12677:12686   */\n      dup3\n        /* \"#utility.yul\":12673:12691   */\n      add\n        /* \"#utility.yul\":12665:12691   */\n      swap1\n      pop\n        /* \"#utility.yul\":12737:12746   */\n      dup2\n        /* \"#utility.yul\":12731:12735   */\n      dup2\n        /* \"#utility.yul\":12727:12747   */\n      sub\n        /* \"#utility.yul\":12723:12724   */\n      0x00\n        /* \"#utility.yul\":12712:12721   */\n      dup4\n        /* \"#utility.yul\":12708:12725   */\n      add\n        /* \"#utility.yul\":12701:12748   */\n      mstore\n        /* \"#utility.yul\":12765:12896   */\n      tag_339\n        /* \"#utility.yul\":12891:12895   */\n      dup2\n        /* \"#utility.yul\":12765:12896   */\n      tag_174\n      jump\t// in\n    tag_339:\n        /* \"#utility.yul\":12757:12896   */\n      swap1\n      pop\n        /* \"#utility.yul\":12484:12903   */\n      swap2\n      swap1\n      pop\n      jump\t// out\n        /* \"#utility.yul\":12909:13089   */\n    tag_175:\n        /* \"#utility.yul\":12957:13034   */\n      0x4e487b7100000000000000000000000000000000000000000000000000000000\n        /* \"#utility.yul\":12954:12955   */\n      0x00\n        /* \"#utility.yul\":12947:13035   */\n      mstore\n        /* \"#utility.yul\":13054:13058   */\n      0x11\n        /* \"#utility.yul\":13051:13052   */\n      0x04\n        /* \"#utility.yul\":13044:13059   */\n      mstore\n        /* \"#utility.yul\":13078:13082   */\n      0x24\n        /* \"#utility.yul\":13075:13076   */\n      0x00\n        /* \"#utility.yul\":13068:13083   */\n      revert\n        /* \"#utility.yul\":13095:13286   */\n    tag_85:\n        /* \"#utility.yul\":13135:13138   */\n      0x00\n        /* \"#utility.yul\":13154:13174   */\n      tag_342\n        /* \"#utility.yul\":13172:13173   */\n      dup3\n        /* \"#utility.yul\":13154:13174   */\n      tag_154\n      jump\t// in\n    tag_342:\n        /* \"#utility.yul\":13149:13174   */\n      swap2\n      pop\n        /* \"#utility.yul\":13188:13208   */\n      tag_343\n        /* \"#utility.yul\":13206:13207   */\n      dup4\n        /* \"#utility.yul\":13188:13208   */\n      tag_154\n      jump\t// in\n    tag_343:\n        /* \"#utility.yul\":13183:13208   */\n      swap3\n      pop\n        /* \"#utility.yul\":13231:13232   */\n      dup3\n        /* \"#utility.yul\":13228:13229   */\n      dup3\n        /* \"#utility.yul\":13224:13233   */\n      add\n        /* \"#utility.yul\":13217:13233   */\n      swap1\n      pop\n        /* \"#utility.yul\":13252:13255   */\n      dup1\n        /* \"#utility.yul\":13249:13250   */\n      dup3\n        /* \"#utility.yul\":13246:13256   */\n      gt\n        /* \"#utility.yul\":13243:13279   */\n      iszero\n      tag_344\n      jumpi\n        /* \"#utility.yul\":13259:13277   */\n      tag_345\n      tag_175\n      jump\t// in\n    tag_345:\n        /* \"#utility.yul\":13243:13279   */\n    tag_344:\n        /* \"#utility.yul\":13095:13286   */\n      swap3\n      swap2\n      pop\n      pop\n      jump\t// out\n        /* \"#utility.yul\":13292:13457   */\n    tag_176:\n        /* \"#utility.yul\":13432:13449   */\n      0x4576656e742068617320656e6465640000000000000000000000000000000000\n        /* \"#utility.yul\":13428:13429   */\n      0x00\n        /* \"#utility.yul\":13420:13426   */\n      dup3\n        /* \"#utility.yul\":13416:13430   */\n      add\n        /* \"#utility.yul\":13409:13450   */\n      mstore\n        /* \"#utility.yul\":13292:13457   */\n      pop\n      jump\t// out\n        /* \"#utility.yul\":13463:13829   */\n    tag_177:\n        /* \"#utility.yul\":13605:13608   */\n      0x00\n        /* \"#utility.yul\":13626:13693   */\n      tag_348\n        /* \"#utility.yul\":13690:13692   */\n      0x0f\n        /* \"#utility.yul\":13685:13688   */\n      dup4\n        /* \"#utility.yul\":13626:13693   */\n      tag_160\n      jump\t// in\n    tag_348:\n        /* \"#utility.yul\":13619:13693   */\n      swap2\n      pop\n        /* \"#utility.yul\":13702:13795   */\n      tag_349\n        /* \"#utility.yul\":13791:13794   */\n      dup3\n        /* \"#utility.yul\":13702:13795   */\n      tag_176\n      jump\t// in\n    tag_349:\n        /* \"#utility.yul\":13820:13822   */\n      0x20\n        /* \"#utility.yul\":13815:13818   */\n      dup3\n        /* \"#utility.yul\":13811:13823   */\n      add\n        /* \"#utility.yul\":13804:13823   */\n      swap1\n      pop\n        /* \"#utility.yul\":13463:13829   */\n      swap2\n      swap1\n      pop\n      jump\t// out\n        /* \"#utility.yul\":13835:14254   */\n    tag_88:\n        /* \"#utility.yul\":14001:14005   */\n      0x00\n        /* \"#utility.yul\":14039:14041   */\n      0x20\n        /* \"#utility.yul\":14028:14037   */\n      dup3\n        /* \"#utility.yul\":14024:14042   */\n      add\n        /* \"#utility.yul\":14016:14042   */\n      swap1\n      pop\n        /* \"#utility.yul\":14088:14097   */\n      dup2\n        /* \"#utility.yul\":14082:14086   */\n      dup2\n        /* \"#utility.yul\":14078:14098   */\n      sub\n        /* \"#utility.yul\":14074:14075   */\n      0x00\n        /* \"#utility.yul\":14063:14072   */\n      dup4\n        /* \"#utility.yul\":14059:14076   */\n      add\n        /* \"#utility.yul\":14052:14099   */\n      mstore\n        /* \"#utility.yul\":14116:14247   */\n      tag_351\n        /* \"#utility.yul\":14242:14246   */\n      dup2\n        /* \"#utility.yul\":14116:14247   */\n      tag_177\n      jump\t// in\n    tag_351:\n        /* \"#utility.yul\":14108:14247   */\n      swap1\n      pop\n        /* \"#utility.yul\":13835:14254   */\n      swap2\n      swap1\n      pop\n      jump\t// out\n        /* \"#utility.yul\":14260:14441   */\n    tag_178:\n        /* \"#utility.yul\":14400:14433   */\n      0x417474656e6465652068617320616c726561647920636865636b656420696e00\n        /* \"#utility.yul\":14396:14397   */\n      0x00\n        /* \"#utility.yul\":14388:14394   */\n      dup3\n        /* \"#utility.yul\":14384:14398   */\n      add\n        /* \"#utility.yul\":14377:14434   */\n      mstore\n        /* \"#utility.yul\":14260:14441   */\n      pop\n      jump\t// out\n        /* \"#utility.yul\":14447:14813   */\n    tag_179:\n        /* \"#utility.yul\":14589:14592   */\n      0x00\n        /* \"#utility.yul\":14610:14677   */\n      tag_354\n        /* \"#utility.yul\":14674:14676   */\n      0x1f\n        /* \"#utility.yul\":14669:14672   */\n      dup4\n        /* \"#utility.yul\":14610:14677   */\n      tag_160\n      jump\t// in\n    tag_354:\n        /* \"#utility.yul\":14603:14677   */\n      swap2\n      pop\n        /* \"#utility.yul\":14686:14779   */\n      tag_355\n        /* \"#utility.yul\":14775:14778   */\n      dup3\n        /* \"#utility.yul\":14686:14779   */\n      tag_178\n      jump\t// in\n    tag_355:\n        /* \"#utility.yul\":14804:14806   */\n      0x20\n        /* \"#utility.yul\":14799:14802   */\n      dup3\n        /* \"#utility.yul\":14795:14807   */\n      add\n        /* \"#utility.yul\":14788:14807   */\n      swap1\n      pop\n        /* \"#utility.yul\":14447:14813   */\n      swap2\n      swap1\n      pop\n      jump\t// out\n        /* \"#utility.yul\":14819:15238   */\n    tag_91:\n        /* \"#utility.yul\":14985:14989   */\n      0x00\n        /* \"#utility.yul\":15023:15025   */\n      0x20\n        /* \"#utility.yul\":15012:15021   */\n      dup3\n        /* \"#utility.yul\":15008:15026   */\n      add\n        /* \"#utility.yul\":15000:15026   */\n      swap1\n      pop\n        /* \"#utility.yul\":15072:15081   */\n      dup2\n        /* \"#utility.yul\":15066:15070   */\n      dup2\n        /* \"#utility.yul\":15062:15082   */\n      sub\n        /* \"#utility.yul\":15058:15059   */\n      0x00\n        /* \"#utility.yul\":15047:15056   */\n      dup4\n        /* \"#utility.yul\":15043:15060   */\n      add\n        /* \"#utility.yul\":15036:15083   */\n      mstore\n        /* \"#utility.yul\":15100:15231   */\n      tag_357\n        /* \"#utility.yul\":15226:15230   */\n      dup2\n        /* \"#utility.yul\":15100:15231   */\n      tag_179\n      jump\t// in\n    tag_357:\n        /* \"#utility.yul\":15092:15231   */\n      swap1\n      pop\n        /* \"#utility.yul\":14819:15238   */\n      swap2\n      swap1\n      pop\n      jump\t// out\n        /* \"#utility.yul\":15244:15419   */\n    tag_180:\n        /* \"#utility.yul\":15384:15411   */\n      0x4d6178696d756d20617474656e64656573207265616368656400000000000000\n        /* \"#utility.yul\":15380:15381   */\n      0x00\n        /* \"#utility.yul\":15372:15378   */\n      dup3\n        /* \"#utility.yul\":15368:15382   */\n      add\n        /* \"#utility.yul\":15361:15412   */\n      mstore\n        /* \"#utility.yul\":15244:15419   */\n      pop\n      jump\t// out\n        /* \"#utility.yul\":15425:15791   */\n    tag_181:\n        /* \"#utility.yul\":15567:15570   */\n      0x00\n        /* \"#utility.yul\":15588:15655   */\n      tag_360\n        /* \"#utility.yul\":15652:15654   */\n      0x19\n        /* \"#utility.yul\":15647:15650   */\n      dup4\n        /* \"#utility.yul\":15588:15655   */\n      tag_160\n      jump\t// in\n    tag_360:\n        /* \"#utility.yul\":15581:15655   */\n      swap2\n      pop\n        /* \"#utility.yul\":15664:15757   */\n      tag_361\n        /* \"#utility.yul\":15753:15756   */\n      dup3\n        /* \"#utility.yul\":15664:15757   */\n      tag_180\n      jump\t// in\n    tag_361:\n        /* \"#utility.yul\":15782:15784   */\n      0x20\n        /* \"#utility.yul\":15777:15780   */\n      dup3\n        /* \"#utility.yul\":15773:15785   */\n      add\n        /* \"#utility.yul\":15766:15785   */\n      swap1\n      pop\n        /* \"#utility.yul\":15425:15791   */\n      swap2\n      swap1\n      pop\n      jump\t// out\n        /* \"#utility.yul\":15797:16216   */\n    tag_94:\n        /* \"#utility.yul\":15963:15967   */\n      0x00\n        /* \"#utility.yul\":16001:16003   */\n      0x20\n        /* \"#utility.yul\":15990:15999   */\n      dup3\n        /* \"#utility.yul\":15986:16004   */\n      add\n        /* \"#utility.yul\":15978:16004   */\n      swap1\n      pop\n        /* \"#utility.yul\":16050:16059   */\n      dup2\n        /* \"#utility.yul\":16044:16048   */\n      dup2\n        /* \"#utility.yul\":16040:16060   */\n      sub\n        /* \"#utility.yul\":16036:16037   */\n      0x00\n        /* \"#utility.yul\":16025:16034   */\n      dup4\n        /* \"#utility.yul\":16021:16038   */\n      add\n        /* \"#utility.yul\":16014:16061   */\n      mstore\n        /* \"#utility.yul\":16078:16209   */\n      tag_363\n        /* \"#utility.yul\":16204:16208   */\n      dup2\n        /* \"#utility.yul\":16078:16209   */\n      tag_181\n      jump\t// in\n    tag_363:\n        /* \"#utility.yul\":16070:16209   */\n      swap1\n      pop\n        /* \"#utility.yul\":15797:16216   */\n      swap2\n      swap1\n      pop\n      jump\t// out\n        /* \"#utility.yul\":16222:16389   */\n    tag_182:\n        /* \"#utility.yul\":16362:16381   */\n      0x496e76616c6964207369676e6174757265000000000000000000000000000000\n        /* \"#utility.yul\":16358:16359   */\n      0x00\n        /* \"#utility.yul\":16350:16356   */\n      dup3\n        /* \"#utility.yul\":16346:16360   */\n      add\n        /* \"#utility.yul\":16339:16382   */\n      mstore\n        /* \"#utility.yul\":16222:16389   */\n      pop\n      jump\t// out\n        /* \"#utility.yul\":16395:16761   */\n    tag_183:\n        /* \"#utility.yul\":16537:16540   */\n      0x00\n        /* \"#utility.yul\":16558:16625   */\n      tag_366\n        /* \"#utility.yul\":16622:16624   */\n      0x11\n        /* \"#utility.yul\":16617:16620   */\n      dup4\n        /* \"#utility.yul\":16558:16625   */\n      tag_160\n      jump\t// in\n    tag_366:\n        /* \"#utility.yul\":16551:16625   */\n      swap2\n      pop\n        /* \"#utility.yul\":16634:16727   */\n      tag_367\n        /* \"#utility.yul\":16723:16726   */\n      dup3\n        /* \"#utility.yul\":16634:16727   */\n      tag_182\n      jump\t// in\n    tag_367:\n        /* \"#utility.yul\":16752:16754   */\n      0x20\n        /* \"#utility.yul\":16747:16750   */\n      dup3\n        /* \"#utility.yul\":16743:16755   */\n      add\n        /* \"#utility.yul\":16736:16755   */\n      swap1\n      pop\n        /* \"#utility.yul\":16395:16761   */\n      swap2\n      swap1\n      pop\n      jump\t// out\n        /* \"#utility.yul\":16767:17186   */\n    tag_98:\n        /* \"#utility.yul\":16933:16937   */\n      0x00\n        /* \"#utility.yul\":16971:16973   */\n      0x20\n        /* \"#utility.yul\":16960:16969   */\n      dup3\n        /* \"#utility.yul\":16956:16974   */\n      add\n        /* \"#utility.yul\":16948:16974   */\n      swap1\n      pop\n        /* \"#utility.yul\":17020:17029   */\n      dup2\n        /* \"#utility.yul\":17014:17018   */\n      dup2\n        /* \"#utility.yul\":17010:17030   */\n      sub\n        /* \"#utility.yul\":17006:17007   */\n      0x00\n        /* \"#utility.yul\":16995:17004   */\n      dup4\n        /* \"#utility.yul\":16991:17008   */\n      add\n        /* \"#utility.yul\":16984:17031   */\n      mstore\n        /* \"#utility.yul\":17048:17179   */\n      tag_369\n        /* \"#utility.yul\":17174:17178   */\n      dup2\n        /* \"#utility.yul\":17048:17179   */\n      tag_183\n      jump\t// in\n    tag_369:\n        /* \"#utility.yul\":17040:17179   */\n      swap1\n      pop\n        /* \"#utility.yul\":16767:17186   */\n      swap2\n      swap1\n      pop\n      jump\t// out\n        /* \"#utility.yul\":17192:17425   */\n    tag_100:\n        /* \"#utility.yul\":17231:17234   */\n      0x00\n        /* \"#utility.yul\":17254:17278   */\n      tag_371\n        /* \"#utility.yul\":17272:17277   */\n      dup3\n        /* \"#utility.yul\":17254:17278   */\n      tag_154\n      jump\t// in\n    tag_371:\n        /* \"#utility.yul\":17245:17278   */\n      swap2\n      pop\n        /* \"#utility.yul\":17300:17366   */\n      0xffffffffffffffffffffffffffffffffffffffffffffffffffffffffffffffff\n        /* \"#utility.yul\":17293:17298   */\n      dup3\n        /* \"#utility.yul\":17290:17367   */\n      sub\n        /* \"#utility.yul\":17287:17390   */\n      tag_372\n      jumpi\n        /* \"#utility.yul\":17370:17388   */\n      tag_373\n      tag_175\n      jump\t// in\n    tag_373:\n        /* \"#utility.yul\":17287:17390   */\n    tag_372:\n        /* \"#utility.yul\":17417:17418   */\n      0x01\n        /* \"#utility.yul\":17410:17415   */\n      dup3\n        /* \"#utility.yul\":17406:17419   */\n      add\n        /* \"#utility.yul\":17399:17419   */\n      swap1\n      pop\n        /* \"#utility.yul\":17192:17425   */\n      swap2\n      swap1\n      pop\n      jump\t// out\n        /* \"#utility.yul\":17431:17763   */\n    tag_102:\n        /* \"#utility.yul\":17552:17556   */\n      0x00\n        /* \"#utility.yul\":17590:17592   */\n      0x40\n        /* \"#utility.yul\":17579:17588   */\n      dup3\n        /* \"#utility.yul\":17575:17593   */\n      add\n        /* \"#utility.yul\":17567:17593   */\n      swap1\n      pop\n        /* \"#utility.yul\":17603:17674   */\n      tag_375\n        /* \"#utility.yul\":17671:17672   */\n      0x00\n        /* \"#utility.yul\":17660:17669   */\n      dup4\n        /* \"#utility.yul\":17656:17673   */\n      add\n        /* \"#utility.yul\":17647:17653   */\n      dup6\n        /* \"#utility.yul\":17603:17674   */\n      tag_156\n      jump\t// in\n    tag_375:\n        /* \"#utility.yul\":17684:17756   */\n      tag_376\n        /* \"#utility.yul\":17752:17754   */\n      0x20\n        /* \"#utility.yul\":17741:17750   */\n      dup4\n        /* \"#utility.yul\":17737:17755   */\n      add\n        /* \"#utility.yul\":17728:17734   */\n      dup5\n        /* \"#utility.yul\":17684:17756   */\n      tag_155\n      jump\t// in\n    tag_376:\n        /* \"#utility.yul\":17431:17763   */\n      swap4\n      swap3\n      pop\n      pop\n      pop\n      jump\t// out\n        /* \"#utility.yul\":17769:17944   */\n    tag_184:\n        /* \"#utility.yul\":17909:17936   */\n      0x596f7520617265206e6f7420746865206f7267616e697a657200000000000000\n        /* \"#utility.yul\":17905:17906   */\n      0x00\n        /* \"#utility.yul\":17897:17903   */\n      dup3\n        /* \"#utility.yul\":17893:17907   */\n      add\n        /* \"#utility.yul\":17886:17937   */\n      mstore\n        /* \"#utility.yul\":17769:17944   */\n      pop\n      jump\t// out\n        /* \"#utility.yul\":17950:18316   */\n    tag_185:\n        /* \"#utility.yul\":18092:18095   */\n      0x00\n        /* \"#utility.yul\":18113:18180   */\n      tag_379\n        /* \"#utility.yul\":18177:18179   */\n      0x19\n        /* \"#utility.yul\":18172:18175   */\n      dup4\n        /* \"#utility.yul\":18113:18180   */\n      tag_160\n      jump\t// in\n    tag_379:\n        /* \"#utility.yul\":18106:18180   */\n      swap2\n      pop\n        /* \"#utility.yul\":18189:18282   */\n      tag_380\n        /* \"#utility.yul\":18278:18281   */\n      dup3\n        /* \"#utility.yul\":18189:18282   */\n      tag_184\n      jump\t// in\n    tag_380:\n        /* \"#utility.yul\":18307:18309   */\n      0x20\n        /* \"#utility.yul\":18302:18305   */\n      dup3\n        /* \"#utility.yul\":18298:18310   */\n      add\n        /* \"#utility.yul\":18291:18310   */\n      swap1\n      pop\n        /* \"#utility.yul\":17950:18316   */\n      swap2\n      swap1\n      pop\n      jump\t// out\n        /* \"#utility.yul\":18322:18741   */\n    tag_106:\n        /* \"#utility.yul\":18488:18492   */\n      0x00\n        /* \"#utility.yul\":18526:18528   */\n      0x20\n        /* \"#utility.yul\":18515:18524   */\n      dup3\n        /* \"#utility.yul\":18511:18529   */\n      add\n        /* \"#utility.yul\":18503:18529   */\n      swap1\n      pop\n        /* \"#utility.yul\":18575:18584   */\n      dup2\n        /* \"#utility.yul\":18569:18573   */\n      dup2\n        /* \"#utility.yul\":18565:18585   */\n      sub\n        /* \"#utility.yul\":18561:18562   */\n      0x00\n        /* \"#utility.yul\":18550:18559   */\n      dup4\n        /* \"#utility.yul\":18546:18563   */\n      add\n        /* \"#utility.yul\":18539:18586   */\n      mstore\n        /* \"#utility.yul\":18603:18734   */\n      tag_382\n        /* \"#utility.yul\":18729:18733   */\n      dup2\n        /* \"#utility.yul\":18603:18734   */\n      tag_185\n      jump\t// in\n    tag_382:\n        /* \"#utility.yul\":18595:18734   */\n      swap1\n      pop\n        /* \"#utility.yul\":18322:18741   */\n      swap2\n      swap1\n      pop\n      jump\t// out\n        /* \"#utility.yul\":18747:18911   */\n    tag_186:\n        /* \"#utility.yul\":18887:18903   */\n      0x496e76616c6964206c656e677468000000000000000000000000000000000000\n        /* \"#utility.yul\":18883:18884   */\n      0x00\n        /* \"#utility.yul\":18875:18881   */\n      dup3\n        /* \"#utility.yul\":18871:18885   */\n      add\n        /* \"#utility.yul\":18864:18904   */\n      mstore\n        /* \"#utility.yul\":18747:18911   */\n      pop\n      jump\t// out\n        /* \"#utility.yul\":18917:19283   */\n    tag_187:\n        /* \"#utility.yul\":19059:19062   */\n      0x00\n        /* \"#utility.yul\":19080:19147   */\n      tag_385\n        /* \"#utility.yul\":19144:19146   */\n      0x0e\n        /* \"#utility.yul\":19139:19142   */\n      dup4\n        /* \"#utility.yul\":19080:19147   */\n      tag_160\n      jump\t// in\n    tag_385:\n        /* \"#utility.yul\":19073:19147   */\n      swap2\n      pop\n        /* \"#utility.yul\":19156:19249   */\n      tag_386\n        /* \"#utility.yul\":19245:19248   */\n      dup3\n        /* \"#utility.yul\":19156:19249   */\n      tag_186\n      jump\t// in\n    tag_386:\n        /* \"#utility.yul\":19274:19276   */\n      0x20\n        /* \"#utility.yul\":19269:19272   */\n      dup3\n        /* \"#utility.yul\":19265:19277   */\n      add\n        /* \"#utility.yul\":19258:19277   */\n      swap1\n      pop\n        /* \"#utility.yul\":18917:19283   */\n      swap2\n      swap1\n      pop\n      jump\t// out\n        /* \"#utility.yul\":19289:19708   */\n    tag_118:\n        /* \"#utility.yul\":19455:19459   */\n      0x00\n        /* \"#utility.yul\":19493:19495   */\n      0x20\n        /* \"#utility.yul\":19482:19491   */\n      dup3\n        /* \"#utility.yul\":19478:19496   */\n      add\n        /* \"#utility.yul\":19470:19496   */\n      swap1\n      pop\n        /* \"#utility.yul\":19542:19551   */\n      dup2\n        /* \"#utility.yul\":19536:19540   */\n      dup2\n        /* \"#utility.yul\":19532:19552   */\n      sub\n        /* \"#utility.yul\":19528:19529   */\n      0x00\n        /* \"#utility.yul\":19517:19526   */\n      dup4\n        /* \"#utility.yul\":19513:19530   */\n      add\n        /* \"#utility.yul\":19506:19553   */\n      mstore\n        /* \"#utility.yul\":19570:19701   */\n      tag_388\n        /* \"#utility.yul\":19696:19700   */\n      dup2\n        /* \"#utility.yul\":19570:19701   */\n      tag_187\n      jump\t// in\n    tag_388:\n        /* \"#utility.yul\":19562:19701   */\n      swap1\n      pop\n        /* \"#utility.yul\":19289:19708   */\n      swap2\n      swap1\n      pop\n      jump\t// out\n        /* \"#utility.yul\":19714:19800   */\n    tag_188:\n        /* \"#utility.yul\":19749:19756   */\n      0x00\n        /* \"#utility.yul\":19789:19793   */\n      0xff\n        /* \"#utility.yul\":19782:19787   */\n      dup3\n        /* \"#utility.yul\":19778:19794   */\n      and\n        /* \"#utility.yul\":19767:19794   */\n      swap1\n      pop\n        /* \"#utility.yul\":19714:19800   */\n      swap2\n      swap1\n      pop\n      jump\t// out\n        /* \"#utility.yul\":19806:19994   */\n    tag_121:\n        /* \"#utility.yul\":19844:19847   */\n      0x00\n        /* \"#utility.yul\":19863:19881   */\n      tag_391\n        /* \"#utility.yul\":19879:19880   */\n      dup3\n        /* \"#utility.yul\":19863:19881   */\n      tag_188\n      jump\t// in\n    tag_391:\n        /* \"#utility.yul\":19858:19881   */\n      swap2\n      pop\n        /* \"#utility.yul\":19895:19913   */\n      tag_392\n        /* \"#utility.yul\":19911:19912   */\n      dup4\n        /* \"#utility.yul\":19895:19913   */\n      tag_188\n      jump\t// in\n    tag_392:\n        /* \"#utility.yul\":19890:19913   */\n      swap3\n      pop\n        /* \"#utility.yul\":19936:19937   */\n      dup3\n        /* \"#utility.yul\":19933:19934   */\n      dup3\n        /* \"#utility.yul\":19929:19938   */\n      add\n        /* \"#utility.yul\":19922:19938   */\n      swap1\n      pop\n        /* \"#utility.yul\":19959:19963   */\n      0xff\n        /* \"#utility.yul\":19954:19957   */\n      dup2\n        /* \"#utility.yul\":19951:19964   */\n      gt\n        /* \"#utility.yul\":19948:19987   */\n      iszero\n      tag_393\n      jumpi\n        /* \"#utility.yul\":19967:19985   */\n      tag_394\n      tag_175\n      jump\t// in\n    tag_394:\n        /* \"#utility.yul\":19948:19987   */\n    tag_393:\n        /* \"#utility.yul\":19806:19994   */\n      swap3\n      swap2\n      pop\n      pop\n      jump\t// out\n        /* \"#utility.yul\":20000:20177   */\n    tag_189:\n        /* \"#utility.yul\":20140:20169   */\n      0x496e76616c6964207369676e6174757265202776272076616c75650000000000\n        /* \"#utility.yul\":20136:20137   */\n      0x00\n        /* \"#utility.yul\":20128:20134   */\n      dup3\n        /* \"#utility.yul\":20124:20138   */\n      add\n        /* \"#utility.yul\":20117:20170   */\n      mstore\n        /* \"#utility.yul\":20000:20177   */\n      pop\n      jump\t// out\n        /* \"#utility.yul\":20183:20549   */\n    tag_190:\n        /* \"#utility.yul\":20325:20328   */\n      0x00\n        /* \"#utility.yul\":20346:20413   */\n      tag_397\n        /* \"#utility.yul\":20410:20412   */\n      0x1b\n        /* \"#utility.yul\":20405:20408   */\n      dup4\n        /* \"#utility.yul\":20346:20413   */\n      tag_160\n      jump\t// in\n    tag_397:\n        /* \"#utility.yul\":20339:20413   */\n      swap2\n      pop\n        /* \"#utility.yul\":20422:20515   */\n      tag_398\n        /* \"#utility.yul\":20511:20514   */\n      dup3\n        /* \"#utility.yul\":20422:20515   */\n      tag_189\n      jump\t// in\n    tag_398:\n        /* \"#utility.yul\":20540:20542   */\n      0x20\n        /* \"#utility.yul\":20535:20538   */\n      dup3\n        /* \"#utility.yul\":20531:20543   */\n      add\n        /* \"#utility.yul\":20524:20543   */\n      swap1\n      pop\n        /* \"#utility.yul\":20183:20549   */\n      swap2\n      swap1\n      pop\n      jump\t// out\n        /* \"#utility.yul\":20555:20974   */\n    tag_125:\n        /* \"#utility.yul\":20721:20725   */\n      0x00\n        /* \"#utility.yul\":20759:20761   */\n      0x20\n        /* \"#utility.yul\":20748:20757   */\n      dup3\n        /* \"#utility.yul\":20744:20762   */\n      add\n        /* \"#utility.yul\":20736:20762   */\n      swap1\n      pop\n        /* \"#utility.yul\":20808:20817   */\n      dup2\n        /* \"#utility.yul\":20802:20806   */\n      dup2\n        /* \"#utility.yul\":20798:20818   */\n      sub\n        /* \"#utility.yul\":20794:20795   */\n      0x00\n        /* \"#utility.yul\":20783:20792   */\n      dup4\n        /* \"#utility.yul\":20779:20796   */\n      add\n        /* \"#utility.yul\":20772:20819   */\n      mstore\n        /* \"#utility.yul\":20836:20967   */\n      tag_400\n        /* \"#utility.yul\":20962:20966   */\n      dup2\n        /* \"#utility.yul\":20836:20967   */\n      tag_190\n      jump\t// in\n    tag_400:\n        /* \"#utility.yul\":20828:20967   */\n      swap1\n      pop\n        /* \"#utility.yul\":20555:20974   */\n      swap2\n      swap1\n      pop\n      jump\t// out\n        /* \"#utility.yul\":20980:21092   */\n    tag_191:\n        /* \"#utility.yul\":21063:21085   */\n      tag_402\n        /* \"#utility.yul\":21079:21084   */\n      dup2\n        /* \"#utility.yul\":21063:21085   */\n      tag_188\n      jump\t// in\n    tag_402:\n        /* \"#utility.yul\":21058:21061   */\n      dup3\n        /* \"#utility.yul\":21051:21086   */\n      mstore\n        /* \"#utility.yul\":20980:21092   */\n      pop\n      pop\n      jump\t// out\n        /* \"#utility.yul\":21098:21643   */\n    tag_127:\n        /* \"#utility.yul\":21271:21275   */\n      0x00\n        /* \"#utility.yul\":21309:21312   */\n      0x80\n        /* \"#utility.yul\":21298:21307   */\n      dup3\n        /* \"#utility.yul\":21294:21313   */\n      add\n        /* \"#utility.yul\":21286:21313   */\n      swap1\n      pop\n        /* \"#utility.yul\":21323:21394   */\n      tag_404\n        /* \"#utility.yul\":21391:21392   */\n      0x00\n        /* \"#utility.yul\":21380:21389   */\n      dup4\n        /* \"#utility.yul\":21376:21393   */\n      add\n        /* \"#utility.yul\":21367:21373   */\n      dup8\n        /* \"#utility.yul\":21323:21394   */\n      tag_141\n      jump\t// in\n    tag_404:\n        /* \"#utility.yul\":21404:21472   */\n      tag_405\n        /* \"#utility.yul\":21468:21470   */\n      0x20\n        /* \"#utility.yul\":21457:21466   */\n      dup4\n        /* \"#utility.yul\":21453:21471   */\n      add\n        /* \"#utility.yul\":21444:21450   */\n      dup7\n        /* \"#utility.yul\":21404:21472   */\n      tag_191\n      jump\t// in\n    tag_405:\n        /* \"#utility.yul\":21482:21554   */\n      tag_406\n        /* \"#utility.yul\":21550:21552   */\n      0x40\n        /* \"#utility.yul\":21539:21548   */\n      dup4\n        /* \"#utility.yul\":21535:21553   */\n      add\n        /* \"#utility.yul\":21526:21532   */\n      dup6\n        /* \"#utility.yul\":21482:21554   */\n      tag_141\n      jump\t// in\n    tag_406:\n        /* \"#utility.yul\":21564:21636   */\n      tag_407\n        /* \"#utility.yul\":21632:21634   */\n      0x60\n        /* \"#utility.yul\":21621:21630   */\n      dup4\n        /* \"#utility.yul\":21617:21635   */\n      add\n        /* \"#utility.yul\":21608:21614   */\n      dup5\n        /* \"#utility.yul\":21564:21636   */\n      tag_141\n      jump\t// in\n    tag_407:\n        /* \"#utility.yul\":21098:21643   */\n      swap6\n      swap5\n      pop\n      pop\n      pop\n      pop\n      pop\n      jump\t// out\n        /* \"#utility.yul\":21649:21863   */\n    tag_192:\n        /* \"#utility.yul\":21789:21855   */\n      0x19457468657265756d205369676e6564204d6573736167653a0a333200000000\n        /* \"#utility.yul\":21785:21786   */\n      0x00\n        /* \"#utility.yul\":21777:21783   */\n      dup3\n        /* \"#utility.yul\":21773:21787   */\n      add\n        /* \"#utility.yul\":21766:21856   */\n      mstore\n        /* \"#utility.yul\":21649:21863   */\n      pop\n      jump\t// out\n        /* \"#utility.yul\":21869:22271   */\n    tag_193:\n        /* \"#utility.yul\":22029:22032   */\n      0x00\n        /* \"#utility.yul\":22050:22135   */\n      tag_410\n        /* \"#utility.yul\":22132:22134   */\n      0x1c\n        /* \"#utility.yul\":22127:22130   */\n      dup4\n        /* \"#utility.yul\":22050:22135   */\n      tag_170\n      jump\t// in\n    tag_410:\n        /* \"#utility.yul\":22043:22135   */\n      swap2\n      pop\n        /* \"#utility.yul\":22144:22237   */\n      tag_411\n        /* \"#utility.yul\":22233:22236   */\n      dup3\n        /* \"#utility.yul\":22144:22237   */\n      tag_192\n      jump\t// in\n    tag_411:\n        /* \"#utility.yul\":22262:22264   */\n      0x1c\n        /* \"#utility.yul\":22257:22260   */\n      dup3\n        /* \"#utility.yul\":22253:22265   */\n      add\n        /* \"#utility.yul\":22246:22265   */\n      swap1\n      pop\n        /* \"#utility.yul\":21869:22271   */\n      swap2\n      swap1\n      pop\n      jump\t// out\n        /* \"#utility.yul\":22277:22356   */\n    tag_194:\n        /* \"#utility.yul\":22316:22323   */\n      0x00\n        /* \"#utility.yul\":22345:22350   */\n      dup2\n        /* \"#utility.yul\":22334:22350   */\n      swap1\n      pop\n        /* \"#utility.yul\":22277:22356   */\n      swap2\n      swap1\n      pop\n      jump\t// out\n        /* \"#utility.yul\":22362:22519   */\n    tag_195:\n        /* \"#utility.yul\":22467:22512   */\n      tag_414\n        /* \"#utility.yul\":22487:22511   */\n      tag_415\n        /* \"#utility.yul\":22505:22510   */\n      dup3\n        /* \"#utility.yul\":22487:22511   */\n      tag_140\n      jump\t// in\n    tag_415:\n        /* \"#utility.yul\":22467:22512   */\n      tag_194\n      jump\t// in\n    tag_414:\n        /* \"#utility.yul\":22462:22465   */\n      dup3\n        /* \"#utility.yul\":22455:22513   */\n      mstore\n        /* \"#utility.yul\":22362:22519   */\n      pop\n      pop\n      jump\t// out\n        /* \"#utility.yul\":22525:23047   */\n    tag_132:\n        /* \"#utility.yul\":22738:22741   */\n      0x00\n        /* \"#utility.yul\":22760:22908   */\n      tag_417\n        /* \"#utility.yul\":22904:22907   */\n      dup3\n        /* \"#utility.yul\":22760:22908   */\n      tag_193\n      jump\t// in\n    tag_417:\n        /* \"#utility.yul\":22753:22908   */\n      swap2\n      pop\n        /* \"#utility.yul\":22918:22993   */\n      tag_418\n        /* \"#utility.yul\":22989:22992   */\n      dup3\n        /* \"#utility.yul\":22980:22986   */\n      dup5\n        /* \"#utility.yul\":22918:22993   */\n      tag_195\n      jump\t// in\n    tag_418:\n        /* \"#utility.yul\":23018:23020   */\n      0x20\n        /* \"#utility.yul\":23013:23016   */\n      dup3\n        /* \"#utility.yul\":23009:23021   */\n      add\n        /* \"#utility.yul\":23002:23021   */\n      swap2\n      pop\n        /* \"#utility.yul\":23038:23041   */\n      dup2\n        /* \"#utility.yul\":23031:23041   */\n      swap1\n      pop\n        /* \"#utility.yul\":22525:23047   */\n      swap3\n      swap2\n      pop\n      pop\n      jump\t// out\n\n    auxdata: 0xa264697066735822122026a0cd49dee1464eff2299ede51a8892093b2eb1c6a32ab1c385e65d75371d2f64736f6c63430008220033\n}\n",
				"bytecode": {
					"linkReferences": {},
					"object": "608060405234801561000f575f5ffd5b50604051611b20380380611b208339818101604052810190610031919061026f565b825f908161003f91906104f3565b5081600281905550806003819055503360015f6101000a81548173ffffffffffffffffffffffffffffffffffffffff021916908373ffffffffffffffffffffffffffffffffffffffff160217905550600160055f6101000a81548160ff0219169083151502179055507fef361a1e306446b9c7b03355ef7fbc9ea7cbdc417a1fd436d496c6d5523a48db5f6002546003546040516100df93929190610662565b60405180910390a150505061069e565b5f604051905090565b5f5ffd5b5f5ffd5b5f5ffd5b5f5ffd5b5f601f19601f8301169050919050565b7f4e487b71000000000000000000000000000000000000000000000000000000005f52604160045260245ffd5b61014e82610108565b810181811067ffffffffffffffff8211171561016d5761016c610118565b5b80604052505050565b5f61017f6100ef565b905061018b8282610145565b919050565b5f67ffffffffffffffff8211156101aa576101a9610118565b5b6101b382610108565b9050602081019050919050565b8281835e5f83830152505050565b5f6101e06101db84610190565b610176565b9050828152602081018484840111156101fc576101fb610104565b5b6102078482856101c0565b509392505050565b5f82601f83011261022357610222610100565b5b81516102338482602086016101ce565b91505092915050565b5f819050919050565b61024e8161023c565b8114610258575f5ffd5b50565b5f8151905061026981610245565b92915050565b5f5f5f60608486031215610286576102856100f8565b5b5f84015167ffffffffffffffff8111156102a3576102a26100fc565b5b6102af8682870161020f565b93505060206102c08682870161025b565b92505060406102d18682870161025b565b9150509250925092565b5f81519050919050565b7f4e487b71000000000000000000000000000000000000000000000000000000005f52602260045260245ffd5b5f600282049050600182168061032957607f821691505b60208210810361033c5761033b6102e5565b5b50919050565b5f819050815f5260205f209050919050565b5f6020601f8301049050919050565b5f82821b905092915050565b5f6008830261039e7fffffffffffffffffffffffffffffffffffffffffffffffffffffffffffffffff82610363565b6103a88683610363565b95508019841693508086168417925050509392505050565b5f819050919050565b5f6103e36103de6103d98461023c565b6103c0565b61023c565b9050919050565b5f819050919050565b6103fc836103c9565b610410610408826103ea565b84845461036f565b825550505050565b5f5f905090565b610427610418565b6104328184846103f3565b505050565b5f5b828110156104585761044d5f82840161041f565b600181019050610439565b505050565b601f8211156104ab57828211156104aa5761047781610342565b61048083610354565b61048985610354565b6020861015610496575f90505b8083016104a582840382610437565b505050505b5b505050565b5f82821c905092915050565b5f6104cb5f19846008026104b0565b1980831691505092915050565b5f6104e383836104bc565b9150826002028217905092915050565b6104fc826102db565b67ffffffffffffffff81111561051557610514610118565b5b61051f8254610312565b61052a82828561045d565b5f60209050601f83116001811461055b575f8415610549578287015190505b61055385826104d8565b8655506105ba565b601f19841661056986610342565b5f5b828110156105905784890151825560018201915060208501945060208101905061056b565b868310156105ad57848901516105a9601f8916826104bc565b8355505b6001600288020188555050505b505050505050565b5f82825260208201905092915050565b5f81546105de81610312565b6105e881866105c2565b9450600182165f811461060257600181146106185761064a565b60ff19831686528115156020028601935061064a565b61062185610342565b5f5b8381101561064257815481890152600182019150602081019050610623565b808801955050505b50505092915050565b61065c8161023c565b82525050565b5f6060820190508181035f83015261067a81866105d2565b90506106896020830185610653565b6106966040830184610653565b949350505050565b611475806106ab5f395ff3fe608060405234801561000f575f5ffd5b50600436106100cd575f3560e01c8063665983ec1161008a578063cc54bcf211610064578063cc54bcf214610211578063d866b0b61461022f578063f1adda471461025f578063fa5408011461027d576100cd565b8063665983ec146101a75780638043c9c0146101c357806397aba7f9146101e1576100cd565b80631f5ac1b2146100d1578063258c1ef514610101578063304c44d1146101315780634bfbe5df1461014d5780635f3d7fa11461016b5780636120326514610189575b5f5ffd5b6100eb60048036038101906100e69190610951565b6102ad565b6040516100f89190610994565b60405180910390f35b61011b60048036038101906101169190610ae9565b6102e0565b6040516101289190610b5d565b60405180910390f35b61014b60048036038101906101469190610b76565b61035c565b005b6101556105be565b6040516101629190610bd5565b60405180910390f35b6101736105c4565b6040516101809190610bd5565b60405180910390f35b6101916105ca565b60405161019e9190610bfd565b60405180910390f35b6101c160048036038101906101bc9190610c40565b6105ef565b005b6101cb6106d1565b6040516101d89190610ccb565b60405180910390f35b6101fb60048036038101906101f69190610d15565b61075c565b6040516102089190610bfd565b60405180910390f35b610219610882565b6040516102269190610b5d565b60405180910390f35b61024960048036038101906102449190610951565b610894565b6040516102569190610b5d565b60405180910390f35b6102676108b1565b6040516102749190610bd5565b60405180910390f35b61029760048036038101906102929190610d6f565b6108b7565b6040516102a49190610994565b60405180910390f35b5f305f836040516020016102c393929190610ed8565b604051602081830303815290604052805190602001209050919050565b5f5f6102eb846102ad565b90505f6102f7826108b7565b905060015f9054906101000a900473ffffffffffffffffffffffffffffffffffffffff1673ffffffffffffffffffffffffffffffffffffffff1661033b828661075c565b73ffffffffffffffffffffffffffffffffffffffff16149250505092915050565b60055f9054906101000a900460ff166103aa576040517f08c379a00000000000000000000000000000000000000000000000000000000081526004016103a190610f5a565b60405180910390fd5b620151806002546103bb9190610fa5565b4211156103fd576040517f08c379a00000000000000000000000000000000000000000000000000000000081526004016103f490611022565b60405180910390fd5b60065f3373ffffffffffffffffffffffffffffffffffffffff1673ffffffffffffffffffffffffffffffffffffffff1681526020019081526020015f205f9054906101000a900460ff1615610487576040517f08c379a000000000000000000000000000000000000000000000000000000000815260040161047e9061108a565b60405180910390fd5b600354600454106104cd576040517f08c379a00000000000000000000000000000000000000000000000000000000081526004016104c4906110f2565b60405180910390fd5b6104d733826102e0565b610516576040517f08c379a000000000000000000000000000000000000000000000000000000000815260040161050d9061115a565b60405180910390fd5b600160065f3373ffffffffffffffffffffffffffffffffffffffff1673ffffffffffffffffffffffffffffffffffffffff1681526020019081526020015f205f6101000a81548160ff02191690831515021790555060045f81548092919061057d90611178565b91905055507fc4b6af862e5edf86b47bbd28434015dfdddfc6ce20ea8f6146df2972b54db5d533426040516105b39291906111bf565b60405180910390a150565b60025481565b60035481565b60015f9054906101000a900473ffffffffffffffffffffffffffffffffffffffff1681565b60015f9054906101000a900473ffffffffffffffffffffffffffffffffffffffff1673ffffffffffffffffffffffffffffffffffffffff163373ffffffffffffffffffffffffffffffffffffffff161461067e576040517f08c379a000000000000000000000000000000000000000000000000000000000815260040161067590611230565b60405180910390fd5b8060055f6101000a81548160ff0219169083151502179055507fbf122f5eccf82e0d6594ae84d964d555bcaa29bbb1579dafb8ae5dbd3072b1b1816040516106c69190610b5d565b60405180910390a150565b5f80546106dd90610e0c565b80601f016020809104026020016040519081016040528092919081815260200182805461070990610e0c565b80156107545780601f1061072b57610100808354040283529160200191610754565b820191905f5260205f20905b81548152906001019060200180831161073757829003601f168201915b505050505081565b5f60418251146107a1576040517f08c379a000000000000000000000000000000000000000000000000000000000815260040161079890611298565b60405180910390fd5b5f5f5f602085015192506040850151915060608501515f1a9050601b8160ff1610156107d757601b816107d491906112c2565b90505b601b8160ff1614806107ec5750601c8160ff16145b61082b576040517f08c379a000000000000000000000000000000000000000000000000000000000815260040161082290611340565b60405180910390fd5b6001868285856040515f815260200160405260405161084d949392919061136d565b6020604051602081039080840390855afa15801561086d573d5f5f3e3d5ffd5b50505060206040510351935050505092915050565b60055f9054906101000a900460ff1681565b6006602052805f5260405f205f915054906101000a900460ff1681565b60045481565b5f816040516020016108c9919061141a565b604051602081830303815290604052805190602001209050919050565b5f604051905090565b5f5ffd5b5f5ffd5b5f73ffffffffffffffffffffffffffffffffffffffff82169050919050565b5f610920826108f7565b9050919050565b61093081610916565b811461093a575f5ffd5b50565b5f8135905061094b81610927565b92915050565b5f60208284031215610966576109656108ef565b5b5f6109738482850161093d565b91505092915050565b5f819050919050565b61098e8161097c565b82525050565b5f6020820190506109a75f830184610985565b92915050565b5f5ffd5b5f5ffd5b5f601f19601f8301169050919050565b7f4e487b71000000000000000000000000000000000000000000000000000000005f52604160045260245ffd5b6109fb826109b5565b810181811067ffffffffffffffff82111715610a1a57610a196109c5565b5b80604052505050565b5f610a2c6108e6565b9050610a3882826109f2565b919050565b5f67ffffffffffffffff821115610a5757610a566109c5565b5b610a60826109b5565b9050602081019050919050565b828183375f83830152505050565b5f610a8d610a8884610a3d565b610a23565b905082815260208101848484011115610aa957610aa86109b1565b5b610ab4848285610a6d565b509392505050565b5f82601f830112610ad057610acf6109ad565b5b8135610ae0848260208601610a7b565b91505092915050565b5f5f60408385031215610aff57610afe6108ef565b5b5f610b0c8582860161093d565b925050602083013567ffffffffffffffff811115610b2d57610b2c6108f3565b5b610b3985828601610abc565b9150509250929050565b5f8115159050919050565b610b5781610b43565b82525050565b5f602082019050610b705f830184610b4e565b92915050565b5f60208284031215610b8b57610b8a6108ef565b5b5f82013567ffffffffffffffff811115610ba857610ba76108f3565b5b610bb484828501610abc565b91505092915050565b5f819050919050565b610bcf81610bbd565b82525050565b5f602082019050610be85f830184610bc6565b92915050565b610bf781610916565b82525050565b5f602082019050610c105f830184610bee565b92915050565b610c1f81610b43565b8114610c29575f5ffd5b50565b5f81359050610c3a81610c16565b92915050565b5f60208284031215610c5557610c546108ef565b5b5f610c6284828501610c2c565b91505092915050565b5f81519050919050565b5f82825260208201905092915050565b8281835e5f83830152505050565b5f610c9d82610c6b565b610ca78185610c75565b9350610cb7818560208601610c85565b610cc0816109b5565b840191505092915050565b5f6020820190508181035f830152610ce38184610c93565b905092915050565b610cf48161097c565b8114610cfe575f5ffd5b50565b5f81359050610d0f81610ceb565b92915050565b5f5f60408385031215610d2b57610d2a6108ef565b5b5f610d3885828601610d01565b925050602083013567ffffffffffffffff811115610d5957610d586108f3565b5b610d6585828601610abc565b9150509250929050565b5f60208284031215610d8457610d836108ef565b5b5f610d9184828501610d01565b91505092915050565b5f8160601b9050919050565b5f610db082610d9a565b9050919050565b5f610dc182610da6565b9050919050565b610dd9610dd482610916565b610db7565b82525050565b7f4e487b71000000000000000000000000000000000000000000000000000000005f52602260045260245ffd5b5f6002820490506001821680610e2357607f821691505b602082108103610e3657610e35610ddf565b5b50919050565b5f81905092915050565b5f819050815f5260205f209050919050565b5f8154610e6481610e0c565b610e6e8186610e3c565b9450600182165f8114610e885760018114610e9d57610ecf565b60ff1983168652811515820286019350610ecf565b610ea685610e46565b5f5b83811015610ec757815481890152600182019150602081019050610ea8565b838801955050505b50505092915050565b5f610ee38286610dc8565b601482019150610ef38285610e58565b9150610eff8284610dc8565b601482019150819050949350505050565b7f4576656e74206973206e6f7420616374697665000000000000000000000000005f82015250565b5f610f44601383610c75565b9150610f4f82610f10565b602082019050919050565b5f6020820190508181035f830152610f7181610f38565b9050919050565b7f4e487b71000000000000000000000000000000000000000000000000000000005f52601160045260245ffd5b5f610faf82610bbd565b9150610fba83610bbd565b9250828201905080821115610fd257610fd1610f78565b5b92915050565b7f4576656e742068617320656e64656400000000000000000000000000000000005f82015250565b5f61100c600f83610c75565b915061101782610fd8565b602082019050919050565b5f6020820190508181035f83015261103981611000565b9050919050565b7f417474656e6465652068617320616c726561647920636865636b656420696e005f82015250565b5f611074601f83610c75565b915061107f82611040565b602082019050919050565b5f6020820190508181035f8301526110a181611068565b9050919050565b7f4d6178696d756d20617474656e646565732072656163686564000000000000005f82015250565b5f6110dc601983610c75565b91506110e7826110a8565b602082019050919050565b5f6020820190508181035f830152611109816110d0565b9050919050565b7f496e76616c6964207369676e61747572650000000000000000000000000000005f82015250565b5f611144601183610c75565b915061114f82611110565b602082019050919050565b5f6020820190508181035f83015261117181611138565b9050919050565b5f61118282610bbd565b91507fffffffffffffffffffffffffffffffffffffffffffffffffffffffffffffffff82036111b4576111b3610f78565b5b600182019050919050565b5f6040820190506111d25f830185610bee565b6111df6020830184610bc6565b9392505050565b7f596f7520617265206e6f7420746865206f7267616e697a6572000000000000005f82015250565b5f61121a601983610c75565b9150611225826111e6565b602082019050919050565b5f6020820190508181035f8301526112478161120e565b9050919050565b7f496e76616c6964206c656e6774680000000000000000000000000000000000005f82015250565b5f611282600e83610c75565b915061128d8261124e565b602082019050919050565b5f6020820190508181035f8301526112af81611276565b9050919050565b5f60ff82169050919050565b5f6112cc826112b6565b91506112d7836112b6565b9250828201905060ff8111156112f0576112ef610f78565b5b92915050565b7f496e76616c6964207369676e6174757265202776272076616c756500000000005f82015250565b5f61132a601b83610c75565b9150611335826112f6565b602082019050919050565b5f6020820190508181035f8301526113578161131e565b9050919050565b611367816112b6565b82525050565b5f6080820190506113805f830187610985565b61138d602083018661135e565b61139a6040830185610985565b6113a76060830184610985565b95945050505050565b7f19457468657265756d205369676e6564204d6573736167653a0a3332000000005f82015250565b5f6113e4601c83610e3c565b91506113ef826113b0565b601c82019050919050565b5f819050919050565b61141461140f8261097c565b6113fa565b82525050565b5f611424826113d8565b91506114308284611403565b6020820191508190509291505056fea264697066735822122026a0cd49dee1464eff2299ede51a8892093b2eb1c6a32ab1c385e65d75371d2f64736f6c63430008220033",
					"opcodes": "PUSH1 0x80 PUSH1 0x40 MSTORE CALLVALUE DUP1 ISZERO PUSH2 0xF JUMPI PUSH0 PUSH0 REVERT JUMPDEST POP PUSH1 0x40 MLOAD PUSH2 0x1B20 CODESIZE SUB DUP1 PUSH2 0x1B20 DUP4 CODECOPY DUP2 DUP2 ADD PUSH1 0x40 MSTORE DUP2 ADD SWAP1 PUSH2 0x31 SWAP2 SWAP1 PUSH2 0x26F JUMP JUMPDEST DUP3 PUSH0 SWAP1 DUP2 PUSH2 0x3F SWAP2 SWAP1 PUSH2 0x4F3 JUMP JUMPDEST POP DUP2 PUSH1 0x2 DUP2 SWAP1 SSTORE POP DUP1 PUSH1 0x3 DUP2 SWAP1 SSTORE POP CALLER PUSH1 0x1 PUSH0 PUSH2 0x100 EXP DUP2 SLOAD DUP2 PUSH20 0xFFFFFFFFFFFFFFFFFFFFFFFFFFFFFFFFFFFFFFFF MUL NOT AND SWAP1 DUP4 PUSH20 0xFFFFFFFFFFFFFFFFFFFFFFFFFFFFFFFFFFFFFFFF AND MUL OR SWAP1 SSTORE POP PUSH1 0x1 PUSH1 0x5 PUSH0 PUSH2 0x100 EXP DUP2 SLOAD DUP2 PUSH1 0xFF MUL NOT AND SWAP1 DUP4 ISZERO ISZERO MUL OR SWAP1 SSTORE POP PUSH32 0xEF361A1E306446B9C7B03355EF7FBC9EA7CBDC417A1FD436D496C6D5523A48DB PUSH0 PUSH1 0x2 SLOAD PUSH1 0x3 SLOAD PUSH1 0x40 MLOAD PUSH2 0xDF SWAP4 SWAP3 SWAP2 SWAP1 PUSH2 0x662 JUMP JUMPDEST PUSH1 0x40 MLOAD DUP1 SWAP2 SUB SWAP1 LOG1 POP POP POP PUSH2 0x69E JUMP JUMPDEST PUSH0 PUSH1 0x40 MLOAD SWAP1 POP SWAP1 JUMP JUMPDEST PUSH0 PUSH0 REVERT JUMPDEST PUSH0 PUSH0 REVERT JUMPDEST PUSH0 PUSH0 REVERT JUMPDEST PUSH0 PUSH0 REVERT JUMPDEST PUSH0 PUSH1 0x1F NOT PUSH1 0x1F DUP4 ADD AND SWAP1 POP SWAP2 SWAP1 POP JUMP JUMPDEST PUSH32 0x4E487B7100000000000000000000000000000000000000000000000000000000 PUSH0 MSTORE PUSH1 0x41 PUSH1 0x4 MSTORE PUSH1 0x24 PUSH0 REVERT JUMPDEST PUSH2 0x14E DUP3 PUSH2 0x108 JUMP JUMPDEST DUP2 ADD DUP2 DUP2 LT PUSH8 0xFFFFFFFFFFFFFFFF DUP3 GT OR ISZERO PUSH2 0x16D JUMPI PUSH2 0x16C PUSH2 0x118 JUMP JUMPDEST JUMPDEST DUP1 PUSH1 0x40 MSTORE POP POP POP JUMP JUMPDEST PUSH0 PUSH2 0x17F PUSH2 0xEF JUMP JUMPDEST SWAP1 POP PUSH2 0x18B DUP3 DUP3 PUSH2 0x145 JUMP JUMPDEST SWAP2 SWAP1 POP JUMP JUMPDEST PUSH0 PUSH8 0xFFFFFFFFFFFFFFFF DUP3 GT ISZERO PUSH2 0x1AA JUMPI PUSH2 0x1A9 PUSH2 0x118 JUMP JUMPDEST JUMPDEST PUSH2 0x1B3 DUP3 PUSH2 0x108 JUMP JUMPDEST SWAP1 POP PUSH1 0x20 DUP2 ADD SWAP1 POP SWAP2 SWAP1 POP JUMP JUMPDEST DUP3 DUP2 DUP4 MCOPY PUSH0 DUP4 DUP4 ADD MSTORE POP POP POP JUMP JUMPDEST PUSH0 PUSH2 0x1E0 PUSH2 0x1DB DUP5 PUSH2 0x190 JUMP JUMPDEST PUSH2 0x176 JUMP JUMPDEST SWAP1 POP DUP3 DUP2 MSTORE PUSH1 0x20 DUP2 ADD DUP5 DUP5 DUP5 ADD GT ISZERO PUSH2 0x1FC JUMPI PUSH2 0x1FB PUSH2 0x104 JUMP JUMPDEST JUMPDEST PUSH2 0x207 DUP5 DUP3 DUP6 PUSH2 0x1C0 JUMP JUMPDEST POP SWAP4 SWAP3 POP POP POP JUMP JUMPDEST PUSH0 DUP3 PUSH1 0x1F DUP4 ADD SLT PUSH2 0x223 JUMPI PUSH2 0x222 PUSH2 0x100 JUMP JUMPDEST JUMPDEST DUP2 MLOAD PUSH2 0x233 DUP5 DUP3 PUSH1 0x20 DUP7 ADD PUSH2 0x1CE JUMP JUMPDEST SWAP2 POP POP SWAP3 SWAP2 POP POP JUMP JUMPDEST PUSH0 DUP2 SWAP1 POP SWAP2 SWAP1 POP JUMP JUMPDEST PUSH2 0x24E DUP2 PUSH2 0x23C JUMP JUMPDEST DUP2 EQ PUSH2 0x258 JUMPI PUSH0 PUSH0 REVERT JUMPDEST POP JUMP JUMPDEST PUSH0 DUP2 MLOAD SWAP1 POP PUSH2 0x269 DUP2 PUSH2 0x245 JUMP JUMPDEST SWAP3 SWAP2 POP POP JUMP JUMPDEST PUSH0 PUSH0 PUSH0 PUSH1 0x60 DUP5 DUP7 SUB SLT ISZERO PUSH2 0x286 JUMPI PUSH2 0x285 PUSH2 0xF8 JUMP JUMPDEST JUMPDEST PUSH0 DUP5 ADD MLOAD PUSH8 0xFFFFFFFFFFFFFFFF DUP2 GT ISZERO PUSH2 0x2A3 JUMPI PUSH2 0x2A2 PUSH2 0xFC JUMP JUMPDEST JUMPDEST PUSH2 0x2AF DUP7 DUP3 DUP8 ADD PUSH2 0x20F JUMP JUMPDEST SWAP4 POP POP PUSH1 0x20 PUSH2 0x2C0 DUP7 DUP3 DUP8 ADD PUSH2 0x25B JUMP JUMPDEST SWAP3 POP POP PUSH1 0x40 PUSH2 0x2D1 DUP7 DUP3 DUP8 ADD PUSH2 0x25B JUMP JUMPDEST SWAP2 POP POP SWAP3 POP SWAP3 POP SWAP3 JUMP JUMPDEST PUSH0 DUP2 MLOAD SWAP1 POP SWAP2 SWAP1 POP JUMP JUMPDEST PUSH32 0x4E487B7100000000000000000000000000000000000000000000000000000000 PUSH0 MSTORE PUSH1 0x22 PUSH1 0x4 MSTORE PUSH1 0x24 PUSH0 REVERT JUMPDEST PUSH0 PUSH1 0x2 DUP3 DIV SWAP1 POP PUSH1 0x1 DUP3 AND DUP1 PUSH2 0x329 JUMPI PUSH1 0x7F DUP3 AND SWAP2 POP JUMPDEST PUSH1 0x20 DUP3 LT DUP2 SUB PUSH2 0x33C JUMPI PUSH2 0x33B PUSH2 0x2E5 JUMP JUMPDEST JUMPDEST POP SWAP2 SWAP1 POP JUMP JUMPDEST PUSH0 DUP2 SWAP1 POP DUP2 PUSH0 MSTORE PUSH1 0x20 PUSH0 KECCAK256 SWAP1 POP SWAP2 SWAP1 POP JUMP JUMPDEST PUSH0 PUSH1 0x20 PUSH1 0x1F DUP4 ADD DIV SWAP1 POP SWAP2 SWAP1 POP JUMP JUMPDEST PUSH0 DUP3 DUP3 SHL SWAP1 POP SWAP3 SWAP2 POP POP JUMP JUMPDEST PUSH0 PUSH1 0x8 DUP4 MUL PUSH2 0x39E PUSH32 0xFFFFFFFFFFFFFFFFFFFFFFFFFFFFFFFFFFFFFFFFFFFFFFFFFFFFFFFFFFFFFFFF DUP3 PUSH2 0x363 JUMP JUMPDEST PUSH2 0x3A8 DUP7 DUP4 PUSH2 0x363 JUMP JUMPDEST SWAP6 POP DUP1 NOT DUP5 AND SWAP4 POP DUP1 DUP7 AND DUP5 OR SWAP3 POP POP POP SWAP4 SWAP3 POP POP POP JUMP JUMPDEST PUSH0 DUP2 SWAP1 POP SWAP2 SWAP1 POP JUMP JUMPDEST PUSH0 PUSH2 0x3E3 PUSH2 0x3DE PUSH2 0x3D9 DUP5 PUSH2 0x23C JUMP JUMPDEST PUSH2 0x3C0 JUMP JUMPDEST PUSH2 0x23C JUMP JUMPDEST SWAP1 POP SWAP2 SWAP1 POP JUMP JUMPDEST PUSH0 DUP2 SWAP1 POP SWAP2 SWAP1 POP JUMP JUMPDEST PUSH2 0x3FC DUP4 PUSH2 0x3C9 JUMP JUMPDEST PUSH2 0x410 PUSH2 0x408 DUP3 PUSH2 0x3EA JUMP JUMPDEST DUP5 DUP5 SLOAD PUSH2 0x36F JUMP JUMPDEST DUP3 SSTORE POP POP POP POP JUMP JUMPDEST PUSH0 PUSH0 SWAP1 POP SWAP1 JUMP JUMPDEST PUSH2 0x427 PUSH2 0x418 JUMP JUMPDEST PUSH2 0x432 DUP2 DUP5 DUP5 PUSH2 0x3F3 JUMP JUMPDEST POP POP POP JUMP JUMPDEST PUSH0 JUMPDEST DUP3 DUP2 LT ISZERO PUSH2 0x458 JUMPI PUSH2 0x44D PUSH0 DUP3 DUP5 ADD PUSH2 0x41F JUMP JUMPDEST PUSH1 0x1 DUP2 ADD SWAP1 POP PUSH2 0x439 JUMP JUMPDEST POP POP POP JUMP JUMPDEST PUSH1 0x1F DUP3 GT ISZERO PUSH2 0x4AB JUMPI DUP3 DUP3 GT ISZERO PUSH2 0x4AA JUMPI PUSH2 0x477 DUP2 PUSH2 0x342 JUMP JUMPDEST PUSH2 0x480 DUP4 PUSH2 0x354 JUMP JUMPDEST PUSH2 0x489 DUP6 PUSH2 0x354 JUMP JUMPDEST PUSH1 0x20 DUP7 LT ISZERO PUSH2 0x496 JUMPI PUSH0 SWAP1 POP JUMPDEST DUP1 DUP4 ADD PUSH2 0x4A5 DUP3 DUP5 SUB DUP3 PUSH2 0x437 JUMP JUMPDEST POP POP POP POP JUMPDEST JUMPDEST POP POP POP JUMP JUMPDEST PUSH0 DUP3 DUP3 SHR SWAP1 POP SWAP3 SWAP2 POP POP JUMP JUMPDEST PUSH0 PUSH2 0x4CB PUSH0 NOT DUP5 PUSH1 0x8 MUL PUSH2 0x4B0 JUMP JUMPDEST NOT DUP1 DUP4 AND SWAP2 POP POP SWAP3 SWAP2 POP POP JUMP JUMPDEST PUSH0 PUSH2 0x4E3 DUP4 DUP4 PUSH2 0x4BC JUMP JUMPDEST SWAP2 POP DUP3 PUSH1 0x2 MUL DUP3 OR SWAP1 POP SWAP3 SWAP2 POP POP JUMP JUMPDEST PUSH2 0x4FC DUP3 PUSH2 0x2DB JUMP JUMPDEST PUSH8 0xFFFFFFFFFFFFFFFF DUP2 GT ISZERO PUSH2 0x515 JUMPI PUSH2 0x514 PUSH2 0x118 JUMP JUMPDEST JUMPDEST PUSH2 0x51F DUP3 SLOAD PUSH2 0x312 JUMP JUMPDEST PUSH2 0x52A DUP3 DUP3 DUP6 PUSH2 0x45D JUMP JUMPDEST PUSH0 PUSH1 0x20 SWAP1 POP PUSH1 0x1F DUP4 GT PUSH1 0x1 DUP2 EQ PUSH2 0x55B JUMPI PUSH0 DUP5 ISZERO PUSH2 0x549 JUMPI DUP3 DUP8 ADD MLOAD SWAP1 POP JUMPDEST PUSH2 0x553 DUP6 DUP3 PUSH2 0x4D8 JUMP JUMPDEST DUP7 SSTORE POP PUSH2 0x5BA JUMP JUMPDEST PUSH1 0x1F NOT DUP5 AND PUSH2 0x569 DUP7 PUSH2 0x342 JUMP JUMPDEST PUSH0 JUMPDEST DUP3 DUP2 LT ISZERO PUSH2 0x590 JUMPI DUP5 DUP10 ADD MLOAD DUP3 SSTORE PUSH1 0x1 DUP3 ADD SWAP2 POP PUSH1 0x20 DUP6 ADD SWAP5 POP PUSH1 0x20 DUP2 ADD SWAP1 POP PUSH2 0x56B JUMP JUMPDEST DUP7 DUP4 LT ISZERO PUSH2 0x5AD JUMPI DUP5 DUP10 ADD MLOAD PUSH2 0x5A9 PUSH1 0x1F DUP10 AND DUP3 PUSH2 0x4BC JUMP JUMPDEST DUP4 SSTORE POP JUMPDEST PUSH1 0x1 PUSH1 0x2 DUP9 MUL ADD DUP9 SSTORE POP POP POP JUMPDEST POP POP POP POP POP POP JUMP JUMPDEST PUSH0 DUP3 DUP3 MSTORE PUSH1 0x20 DUP3 ADD SWAP1 POP SWAP3 SWAP2 POP POP JUMP JUMPDEST PUSH0 DUP2 SLOAD PUSH2 0x5DE DUP2 PUSH2 0x312 JUMP JUMPDEST PUSH2 0x5E8 DUP2 DUP7 PUSH2 0x5C2 JUMP JUMPDEST SWAP5 POP PUSH1 0x1 DUP3 AND PUSH0 DUP2 EQ PUSH2 0x602 JUMPI PUSH1 0x1 DUP2 EQ PUSH2 0x618 JUMPI PUSH2 0x64A JUMP JUMPDEST PUSH1 0xFF NOT DUP4 AND DUP7 MSTORE DUP2 ISZERO ISZERO PUSH1 0x20 MUL DUP7 ADD SWAP4 POP PUSH2 0x64A JUMP JUMPDEST PUSH2 0x621 DUP6 PUSH2 0x342 JUMP JUMPDEST PUSH0 JUMPDEST DUP4 DUP2 LT ISZERO PUSH2 0x642 JUMPI DUP2 SLOAD DUP2 DUP10 ADD MSTORE PUSH1 0x1 DUP3 ADD SWAP2 POP PUSH1 0x20 DUP2 ADD SWAP1 POP PUSH2 0x623 JUMP JUMPDEST DUP1 DUP9 ADD SWAP6 POP POP POP JUMPDEST POP POP POP SWAP3 SWAP2 POP POP JUMP JUMPDEST PUSH2 0x65C DUP2 PUSH2 0x23C JUMP JUMPDEST DUP3 MSTORE POP POP JUMP JUMPDEST PUSH0 PUSH1 0x60 DUP3 ADD SWAP1 POP DUP2 DUP2 SUB PUSH0 DUP4 ADD MSTORE PUSH2 0x67A DUP2 DUP7 PUSH2 0x5D2 JUMP JUMPDEST SWAP1 POP PUSH2 0x689 PUSH1 0x20 DUP4 ADD DUP6 PUSH2 0x653 JUMP JUMPDEST PUSH2 0x696 PUSH1 0x40 DUP4 ADD DUP5 PUSH2 0x653 JUMP JUMPDEST SWAP5 SWAP4 POP POP POP POP JUMP JUMPDEST PUSH2 0x1475 DUP1 PUSH2 0x6AB PUSH0 CODECOPY PUSH0 RETURN INVALID PUSH1 0x80 PUSH1 0x40 MSTORE CALLVALUE DUP1 ISZERO PUSH2 0xF JUMPI PUSH0 PUSH0 REVERT JUMPDEST POP PUSH1 0x4 CALLDATASIZE LT PUSH2 0xCD JUMPI PUSH0 CALLDATALOAD PUSH1 0xE0 SHR DUP1 PUSH4 0x665983EC GT PUSH2 0x8A JUMPI DUP1 PUSH4 0xCC54BCF2 GT PUSH2 0x64 JUMPI DUP1 PUSH4 0xCC54BCF2 EQ PUSH2 0x211 JUMPI DUP1 PUSH4 0xD866B0B6 EQ PUSH2 0x22F JUMPI DUP1 PUSH4 0xF1ADDA47 EQ PUSH2 0x25F JUMPI DUP1 PUSH4 0xFA540801 EQ PUSH2 0x27D JUMPI PUSH2 0xCD JUMP JUMPDEST DUP1 PUSH4 0x665983EC EQ PUSH2 0x1A7 JUMPI DUP1 PUSH4 0x8043C9C0 EQ PUSH2 0x1C3 JUMPI DUP1 PUSH4 0x97ABA7F9 EQ PUSH2 0x1E1 JUMPI PUSH2 0xCD JUMP JUMPDEST DUP1 PUSH4 0x1F5AC1B2 EQ PUSH2 0xD1 JUMPI DUP1 PUSH4 0x258C1EF5 EQ PUSH2 0x101 JUMPI DUP1 PUSH4 0x304C44D1 EQ PUSH2 0x131 JUMPI DUP1 PUSH4 0x4BFBE5DF EQ PUSH2 0x14D JUMPI DUP1 PUSH4 0x5F3D7FA1 EQ PUSH2 0x16B JUMPI DUP1 PUSH4 0x61203265 EQ PUSH2 0x189 JUMPI JUMPDEST PUSH0 PUSH0 REVERT JUMPDEST PUSH2 0xEB PUSH1 0x4 DUP1 CALLDATASIZE SUB DUP2 ADD SWAP1 PUSH2 0xE6 SWAP2 SWAP1 PUSH2 0x951 JUMP JUMPDEST PUSH2 0x2AD JUMP JUMPDEST PUSH1 0x40 MLOAD PUSH2 0xF8 SWAP2 SWAP1 PUSH2 0x994 JUMP JUMPDEST PUSH1 0x40 MLOAD DUP1 SWAP2 SUB SWAP1 RETURN JUMPDEST PUSH2 0x11B PUSH1 0x4 DUP1 CALLDATASIZE SUB DUP2 ADD SWAP1 PUSH2 0x116 SWAP2 SWAP1 PUSH2 0xAE9 JUMP JUMPDEST PUSH2 0x2E0 JUMP JUMPDEST PUSH1 0x40 MLOAD PUSH2 0x128 SWAP2 SWAP1 PUSH2 0xB5D JUMP JUMPDEST PUSH1 0x40 MLOAD DUP1 SWAP2 SUB SWAP1 RETURN JUMPDEST PUSH2 0x14B PUSH1 0x4 DUP1 CALLDATASIZE SUB DUP2 ADD SWAP1 PUSH2 0x146 SWAP2 SWAP1 PUSH2 0xB76 JUMP JUMPDEST PUSH2 0x35C JUMP JUMPDEST STOP JUMPDEST PUSH2 0x155 PUSH2 0x5BE JUMP JUMPDEST PUSH1 0x40 MLOAD PUSH2 0x162 SWAP2 SWAP1 PUSH2 0xBD5 JUMP JUMPDEST PUSH1 0x40 MLOAD DUP1 SWAP2 SUB SWAP1 RETURN JUMPDEST PUSH2 0x173 PUSH2 0x5C4 JUMP JUMPDEST PUSH1 0x40 MLOAD PUSH2 0x180 SWAP2 SWAP1 PUSH2 0xBD5 JUMP JUMPDEST PUSH1 0x40 MLOAD DUP1 SWAP2 SUB SWAP1 RETURN JUMPDEST PUSH2 0x191 PUSH2 0x5CA JUMP JUMPDEST PUSH1 0x40 MLOAD PUSH2 0x19E SWAP2 SWAP1 PUSH2 0xBFD JUMP JUMPDEST PUSH1 0x40 MLOAD DUP1 SWAP2 SUB SWAP1 RETURN JUMPDEST PUSH2 0x1C1 PUSH1 0x4 DUP1 CALLDATASIZE SUB DUP2 ADD SWAP1 PUSH2 0x1BC SWAP2 SWAP1 PUSH2 0xC40 JUMP JUMPDEST PUSH2 0x5EF JUMP JUMPDEST STOP JUMPDEST PUSH2 0x1CB PUSH2 0x6D1 JUMP JUMPDEST PUSH1 0x40 MLOAD PUSH2 0x1D8 SWAP2 SWAP1 PUSH2 0xCCB JUMP JUMPDEST PUSH1 0x40 MLOAD DUP1 SWAP2 SUB SWAP1 RETURN JUMPDEST PUSH2 0x1FB PUSH1 0x4 DUP1 CALLDATASIZE SUB DUP2 ADD SWAP1 PUSH2 0x1F6 SWAP2 SWAP1 PUSH2 0xD15 JUMP JUMPDEST PUSH2 0x75C JUMP JUMPDEST PUSH1 0x40 MLOAD PUSH2 0x208 SWAP2 SWAP1 PUSH2 0xBFD JUMP JUMPDEST PUSH1 0x40 MLOAD DUP1 SWAP2 SUB SWAP1 RETURN JUMPDEST PUSH2 0x219 PUSH2 0x882 JUMP JUMPDEST PUSH1 0x40 MLOAD PUSH2 0x226 SWAP2 SWAP1 PUSH2 0xB5D JUMP JUMPDEST PUSH1 0x40 MLOAD DUP1 SWAP2 SUB SWAP1 RETURN JUMPDEST PUSH2 0x249 PUSH1 0x4 DUP1 CALLDATASIZE SUB DUP2 ADD SWAP1 PUSH2 0x244 SWAP2 SWAP1 PUSH2 0x951 JUMP JUMPDEST PUSH2 0x894 JUMP JUMPDEST PUSH1 0x40 MLOAD PUSH2 0x256 SWAP2 SWAP1 PUSH2 0xB5D JUMP JUMPDEST PUSH1 0x40 MLOAD DUP1 SWAP2 SUB SWAP1 RETURN JUMPDEST PUSH2 0x267 PUSH2 0x8B1 JUMP JUMPDEST PUSH1 0x40 MLOAD PUSH2 0x274 SWAP2 SWAP1 PUSH2 0xBD5 JUMP JUMPDEST PUSH1 0x40 MLOAD DUP1 SWAP2 SUB SWAP1 RETURN JUMPDEST PUSH2 0x297 PUSH1 0x4 DUP1 CALLDATASIZE SUB DUP2 ADD SWAP1 PUSH2 0x292 SWAP2 SWAP1 PUSH2 0xD6F JUMP JUMPDEST PUSH2 0x8B7 JUMP JUMPDEST PUSH1 0x40 MLOAD PUSH2 0x2A4 SWAP2 SWAP1 PUSH2 0x994 JUMP JUMPDEST PUSH1 0x40 MLOAD DUP1 SWAP2 SUB SWAP1 RETURN JUMPDEST PUSH0 ADDRESS PUSH0 DUP4 PUSH1 0x40 MLOAD PUSH1 0x20 ADD PUSH2 0x2C3 SWAP4 SWAP3 SWAP2 SWAP1 PUSH2 0xED8 JUMP JUMPDEST PUSH1 0x40 MLOAD PUSH1 0x20 DUP2 DUP4 SUB SUB DUP2 MSTORE SWAP1 PUSH1 0x40 MSTORE DUP1 MLOAD SWAP1 PUSH1 0x20 ADD KECCAK256 SWAP1 POP SWAP2 SWAP1 POP JUMP JUMPDEST PUSH0 PUSH0 PUSH2 0x2EB DUP5 PUSH2 0x2AD JUMP JUMPDEST SWAP1 POP PUSH0 PUSH2 0x2F7 DUP3 PUSH2 0x8B7 JUMP JUMPDEST SWAP1 POP PUSH1 0x1 PUSH0 SWAP1 SLOAD SWAP1 PUSH2 0x100 EXP SWAP1 DIV PUSH20 0xFFFFFFFFFFFFFFFFFFFFFFFFFFFFFFFFFFFFFFFF AND PUSH20 0xFFFFFFFFFFFFFFFFFFFFFFFFFFFFFFFFFFFFFFFF AND PUSH2 0x33B DUP3 DUP7 PUSH2 0x75C JUMP JUMPDEST PUSH20 0xFFFFFFFFFFFFFFFFFFFFFFFFFFFFFFFFFFFFFFFF AND EQ SWAP3 POP POP POP SWAP3 SWAP2 POP POP JUMP JUMPDEST PUSH1 0x5 PUSH0 SWAP1 SLOAD SWAP1 PUSH2 0x100 EXP SWAP1 DIV PUSH1 0xFF AND PUSH2 0x3AA JUMPI PUSH1 0x40 MLOAD PUSH32 0x8C379A000000000000000000000000000000000000000000000000000000000 DUP2 MSTORE PUSH1 0x4 ADD PUSH2 0x3A1 SWAP1 PUSH2 0xF5A JUMP JUMPDEST PUSH1 0x40 MLOAD DUP1 SWAP2 SUB SWAP1 REVERT JUMPDEST PUSH3 0x15180 PUSH1 0x2 SLOAD PUSH2 0x3BB SWAP2 SWAP1 PUSH2 0xFA5 JUMP JUMPDEST TIMESTAMP GT ISZERO PUSH2 0x3FD JUMPI PUSH1 0x40 MLOAD PUSH32 0x8C379A000000000000000000000000000000000000000000000000000000000 DUP2 MSTORE PUSH1 0x4 ADD PUSH2 0x3F4 SWAP1 PUSH2 0x1022 JUMP JUMPDEST PUSH1 0x40 MLOAD DUP1 SWAP2 SUB SWAP1 REVERT JUMPDEST PUSH1 0x6 PUSH0 CALLER PUSH20 0xFFFFFFFFFFFFFFFFFFFFFFFFFFFFFFFFFFFFFFFF AND PUSH20 0xFFFFFFFFFFFFFFFFFFFFFFFFFFFFFFFFFFFFFFFF AND DUP2 MSTORE PUSH1 0x20 ADD SWAP1 DUP2 MSTORE PUSH1 0x20 ADD PUSH0 KECCAK256 PUSH0 SWAP1 SLOAD SWAP1 PUSH2 0x100 EXP SWAP1 DIV PUSH1 0xFF AND ISZERO PUSH2 0x487 JUMPI PUSH1 0x40 MLOAD PUSH32 0x8C379A000000000000000000000000000000000000000000000000000000000 DUP2 MSTORE PUSH1 0x4 ADD PUSH2 0x47E SWAP1 PUSH2 0x108A JUMP JUMPDEST PUSH1 0x40 MLOAD DUP1 SWAP2 SUB SWAP1 REVERT JUMPDEST PUSH1 0x3 SLOAD PUSH1 0x4 SLOAD LT PUSH2 0x4CD JUMPI PUSH1 0x40 MLOAD PUSH32 0x8C379A000000000000000000000000000000000000000000000000000000000 DUP2 MSTORE PUSH1 0x4 ADD PUSH2 0x4C4 SWAP1 PUSH2 0x10F2 JUMP JUMPDEST PUSH1 0x40 MLOAD DUP1 SWAP2 SUB SWAP1 REVERT JUMPDEST PUSH2 0x4D7 CALLER DUP3 PUSH2 0x2E0 JUMP JUMPDEST PUSH2 0x516 JUMPI PUSH1 0x40 MLOAD PUSH32 0x8C379A000000000000000000000000000000000000000000000000000000000 DUP2 MSTORE PUSH1 0x4 ADD PUSH2 0x50D SWAP1 PUSH2 0x115A JUMP JUMPDEST PUSH1 0x40 MLOAD DUP1 SWAP2 SUB SWAP1 REVERT JUMPDEST PUSH1 0x1 PUSH1 0x6 PUSH0 CALLER PUSH20 0xFFFFFFFFFFFFFFFFFFFFFFFFFFFFFFFFFFFFFFFF AND PUSH20 0xFFFFFFFFFFFFFFFFFFFFFFFFFFFFFFFFFFFFFFFF AND DUP2 MSTORE PUSH1 0x20 ADD SWAP1 DUP2 MSTORE PUSH1 0x20 ADD PUSH0 KECCAK256 PUSH0 PUSH2 0x100 EXP DUP2 SLOAD DUP2 PUSH1 0xFF MUL NOT AND SWAP1 DUP4 ISZERO ISZERO MUL OR SWAP1 SSTORE POP PUSH1 0x4 PUSH0 DUP2 SLOAD DUP1 SWAP3 SWAP2 SWAP1 PUSH2 0x57D SWAP1 PUSH2 0x1178 JUMP JUMPDEST SWAP2 SWAP1 POP SSTORE POP PUSH32 0xC4B6AF862E5EDF86B47BBD28434015DFDDDFC6CE20EA8F6146DF2972B54DB5D5 CALLER TIMESTAMP PUSH1 0x40 MLOAD PUSH2 0x5B3 SWAP3 SWAP2 SWAP1 PUSH2 0x11BF JUMP JUMPDEST PUSH1 0x40 MLOAD DUP1 SWAP2 SUB SWAP1 LOG1 POP JUMP JUMPDEST PUSH1 0x2 SLOAD DUP2 JUMP JUMPDEST PUSH1 0x3 SLOAD DUP2 JUMP JUMPDEST PUSH1 0x1 PUSH0 SWAP1 SLOAD SWAP1 PUSH2 0x100 EXP SWAP1 DIV PUSH20 0xFFFFFFFFFFFFFFFFFFFFFFFFFFFFFFFFFFFFFFFF AND DUP2 JUMP JUMPDEST PUSH1 0x1 PUSH0 SWAP1 SLOAD SWAP1 PUSH2 0x100 EXP SWAP1 DIV PUSH20 0xFFFFFFFFFFFFFFFFFFFFFFFFFFFFFFFFFFFFFFFF AND PUSH20 0xFFFFFFFFFFFFFFFFFFFFFFFFFFFFFFFFFFFFFFFF AND CALLER PUSH20 0xFFFFFFFFFFFFFFFFFFFFFFFFFFFFFFFFFFFFFFFF AND EQ PUSH2 0x67E JUMPI PUSH1 0x40 MLOAD PUSH32 0x8C379A000000000000000000000000000000000000000000000000000000000 DUP2 MSTORE PUSH1 0x4 ADD PUSH2 0x675 SWAP1 PUSH2 0x1230 JUMP JUMPDEST PUSH1 0x40 MLOAD DUP1 SWAP2 SUB SWAP1 REVERT JUMPDEST DUP1 PUSH1 0x5 PUSH0 PUSH2 0x100 EXP DUP2 SLOAD DUP2 PUSH1 0xFF MUL NOT AND SWAP1 DUP4 ISZERO ISZERO MUL OR SWAP1 SSTORE POP PUSH32 0xBF122F5ECCF82E0D6594AE84D964D555BCAA29BBB1579DAFB8AE5DBD3072B1B1 DUP2 PUSH1 0x40 MLOAD PUSH2 0x6C6 SWAP2 SWAP1 PUSH2 0xB5D JUMP JUMPDEST PUSH1 0x40 MLOAD DUP1 SWAP2 SUB SWAP1 LOG1 POP JUMP JUMPDEST PUSH0 DUP1 SLOAD PUSH2 0x6DD SWAP1 PUSH2 0xE0C JUMP JUMPDEST DUP1 PUSH1 0x1F ADD PUSH1 0x20 DUP1 SWAP2 DIV MUL PUSH1 0x20 ADD PUSH1 0x40 MLOAD SWAP1 DUP2 ADD PUSH1 0x40 MSTORE DUP1 SWAP3 SWAP2 SWAP1 DUP2 DUP2 MSTORE PUSH1 0x20 ADD DUP3 DUP1 SLOAD PUSH2 0x709 SWAP1 PUSH2 0xE0C JUMP JUMPDEST DUP1 ISZERO PUSH2 0x754 JUMPI DUP1 PUSH1 0x1F LT PUSH2 0x72B JUMPI PUSH2 0x100 DUP1 DUP4 SLOAD DIV MUL DUP4 MSTORE SWAP2 PUSH1 0x20 ADD SWAP2 PUSH2 0x754 JUMP JUMPDEST DUP3 ADD SWAP2 SWAP1 PUSH0 MSTORE PUSH1 0x20 PUSH0 KECCAK256 SWAP1 JUMPDEST DUP2 SLOAD DUP2 MSTORE SWAP1 PUSH1 0x1 ADD SWAP1 PUSH1 0x20 ADD DUP1 DUP4 GT PUSH2 0x737 JUMPI DUP3 SWAP1 SUB PUSH1 0x1F AND DUP3 ADD SWAP2 JUMPDEST POP POP POP POP POP DUP2 JUMP JUMPDEST PUSH0 PUSH1 0x41 DUP3 MLOAD EQ PUSH2 0x7A1 JUMPI PUSH1 0x40 MLOAD PUSH32 0x8C379A000000000000000000000000000000000000000000000000000000000 DUP2 MSTORE PUSH1 0x4 ADD PUSH2 0x798 SWAP1 PUSH2 0x1298 JUMP JUMPDEST PUSH1 0x40 MLOAD DUP1 SWAP2 SUB SWAP1 REVERT JUMPDEST PUSH0 PUSH0 PUSH0 PUSH1 0x20 DUP6 ADD MLOAD SWAP3 POP PUSH1 0x40 DUP6 ADD MLOAD SWAP2 POP PUSH1 0x60 DUP6 ADD MLOAD PUSH0 BYTE SWAP1 POP PUSH1 0x1B DUP2 PUSH1 0xFF AND LT ISZERO PUSH2 0x7D7 JUMPI PUSH1 0x1B DUP2 PUSH2 0x7D4 SWAP2 SWAP1 PUSH2 0x12C2 JUMP JUMPDEST SWAP1 POP JUMPDEST PUSH1 0x1B DUP2 PUSH1 0xFF AND EQ DUP1 PUSH2 0x7EC JUMPI POP PUSH1 0x1C DUP2 PUSH1 0xFF AND EQ JUMPDEST PUSH2 0x82B JUMPI PUSH1 0x40 MLOAD PUSH32 0x8C379A000000000000000000000000000000000000000000000000000000000 DUP2 MSTORE PUSH1 0x4 ADD PUSH2 0x822 SWAP1 PUSH2 0x1340 JUMP JUMPDEST PUSH1 0x40 MLOAD DUP1 SWAP2 SUB SWAP1 REVERT JUMPDEST PUSH1 0x1 DUP7 DUP3 DUP6 DUP6 PUSH1 0x40 MLOAD PUSH0 DUP2 MSTORE PUSH1 0x20 ADD PUSH1 0x40 MSTORE PUSH1 0x40 MLOAD PUSH2 0x84D SWAP5 SWAP4 SWAP3 SWAP2 SWAP1 PUSH2 0x136D JUMP JUMPDEST PUSH1 0x20 PUSH1 0x40 MLOAD PUSH1 0x20 DUP2 SUB SWAP1 DUP1 DUP5 SUB SWAP1 DUP6 GAS STATICCALL ISZERO DUP1 ISZERO PUSH2 0x86D JUMPI RETURNDATASIZE PUSH0 PUSH0 RETURNDATACOPY RETURNDATASIZE PUSH0 REVERT JUMPDEST POP POP POP PUSH1 0x20 PUSH1 0x40 MLOAD SUB MLOAD SWAP4 POP POP POP POP SWAP3 SWAP2 POP POP JUMP JUMPDEST PUSH1 0x5 PUSH0 SWAP1 SLOAD SWAP1 PUSH2 0x100 EXP SWAP1 DIV PUSH1 0xFF AND DUP2 JUMP JUMPDEST PUSH1 0x6 PUSH1 0x20 MSTORE DUP1 PUSH0 MSTORE PUSH1 0x40 PUSH0 KECCAK256 PUSH0 SWAP2 POP SLOAD SWAP1 PUSH2 0x100 EXP SWAP1 DIV PUSH1 0xFF AND DUP2 JUMP JUMPDEST PUSH1 0x4 SLOAD DUP2 JUMP JUMPDEST PUSH0 DUP2 PUSH1 0x40 MLOAD PUSH1 0x20 ADD PUSH2 0x8C9 SWAP2 SWAP1 PUSH2 0x141A JUMP JUMPDEST PUSH1 0x40 MLOAD PUSH1 0x20 DUP2 DUP4 SUB SUB DUP2 MSTORE SWAP1 PUSH1 0x40 MSTORE DUP1 MLOAD SWAP1 PUSH1 0x20 ADD KECCAK256 SWAP1 POP SWAP2 SWAP1 POP JUMP JUMPDEST PUSH0 PUSH1 0x40 MLOAD SWAP1 POP SWAP1 JUMP JUMPDEST PUSH0 PUSH0 REVERT JUMPDEST PUSH0 PUSH0 REVERT JUMPDEST PUSH0 PUSH20 0xFFFFFFFFFFFFFFFFFFFFFFFFFFFFFFFFFFFFFFFF DUP3 AND SWAP1 POP SWAP2 SWAP1 POP JUMP JUMPDEST PUSH0 PUSH2 0x920 DUP3 PUSH2 0x8F7 JUMP JUMPDEST SWAP1 POP SWAP2 SWAP1 POP JUMP JUMPDEST PUSH2 0x930 DUP2 PUSH2 0x916 JUMP JUMPDEST DUP2 EQ PUSH2 0x93A JUMPI PUSH0 PUSH0 REVERT JUMPDEST POP JUMP JUMPDEST PUSH0 DUP2 CALLDATALOAD SWAP1 POP PUSH2 0x94B DUP2 PUSH2 0x927 JUMP JUMPDEST SWAP3 SWAP2 POP POP JUMP JUMPDEST PUSH0 PUSH1 0x20 DUP3 DUP5 SUB SLT ISZERO PUSH2 0x966 JUMPI PUSH2 0x965 PUSH2 0x8EF JUMP JUMPDEST JUMPDEST PUSH0 PUSH2 0x973 DUP5 DUP3 DUP6 ADD PUSH2 0x93D JUMP JUMPDEST SWAP2 POP POP SWAP3 SWAP2 POP POP JUMP JUMPDEST PUSH0 DUP2 SWAP1 POP SWAP2 SWAP1 POP JUMP JUMPDEST PUSH2 0x98E DUP2 PUSH2 0x97C JUMP JUMPDEST DUP3 MSTORE POP POP JUMP JUMPDEST PUSH0 PUSH1 0x20 DUP3 ADD SWAP1 POP PUSH2 0x9A7 PUSH0 DUP4 ADD DUP5 PUSH2 0x985 JUMP JUMPDEST SWAP3 SWAP2 POP POP JUMP JUMPDEST PUSH0 PUSH0 REVERT JUMPDEST PUSH0 PUSH0 REVERT JUMPDEST PUSH0 PUSH1 0x1F NOT PUSH1 0x1F DUP4 ADD AND SWAP1 POP SWAP2 SWAP1 POP JUMP JUMPDEST PUSH32 0x4E487B7100000000000000000000000000000000000000000000000000000000 PUSH0 MSTORE PUSH1 0x41 PUSH1 0x4 MSTORE PUSH1 0x24 PUSH0 REVERT JUMPDEST PUSH2 0x9FB DUP3 PUSH2 0x9B5 JUMP JUMPDEST DUP2 ADD DUP2 DUP2 LT PUSH8 0xFFFFFFFFFFFFFFFF DUP3 GT OR ISZERO PUSH2 0xA1A JUMPI PUSH2 0xA19 PUSH2 0x9C5 JUMP JUMPDEST JUMPDEST DUP1 PUSH1 0x40 MSTORE POP POP POP JUMP JUMPDEST PUSH0 PUSH2 0xA2C PUSH2 0x8E6 JUMP JUMPDEST SWAP1 POP PUSH2 0xA38 DUP3 DUP3 PUSH2 0x9F2 JUMP JUMPDEST SWAP2 SWAP1 POP JUMP JUMPDEST PUSH0 PUSH8 0xFFFFFFFFFFFFFFFF DUP3 GT ISZERO PUSH2 0xA57 JUMPI PUSH2 0xA56 PUSH2 0x9C5 JUMP JUMPDEST JUMPDEST PUSH2 0xA60 DUP3 PUSH2 0x9B5 JUMP JUMPDEST SWAP1 POP PUSH1 0x20 DUP2 ADD SWAP1 POP SWAP2 SWAP1 POP JUMP JUMPDEST DUP3 DUP2 DUP4 CALLDATACOPY PUSH0 DUP4 DUP4 ADD MSTORE POP POP POP JUMP JUMPDEST PUSH0 PUSH2 0xA8D PUSH2 0xA88 DUP5 PUSH2 0xA3D JUMP JUMPDEST PUSH2 0xA23 JUMP JUMPDEST SWAP1 POP DUP3 DUP2 MSTORE PUSH1 0x20 DUP2 ADD DUP5 DUP5 DUP5 ADD GT ISZERO PUSH2 0xAA9 JUMPI PUSH2 0xAA8 PUSH2 0x9B1 JUMP JUMPDEST JUMPDEST PUSH2 0xAB4 DUP5 DUP3 DUP6 PUSH2 0xA6D JUMP JUMPDEST POP SWAP4 SWAP3 POP POP POP JUMP JUMPDEST PUSH0 DUP3 PUSH1 0x1F DUP4 ADD SLT PUSH2 0xAD0 JUMPI PUSH2 0xACF PUSH2 0x9AD JUMP JUMPDEST JUMPDEST DUP2 CALLDATALOAD PUSH2 0xAE0 DUP5 DUP3 PUSH1 0x20 DUP7 ADD PUSH2 0xA7B JUMP JUMPDEST SWAP2 POP POP SWAP3 SWAP2 POP POP JUMP JUMPDEST PUSH0 PUSH0 PUSH1 0x40 DUP4 DUP6 SUB SLT ISZERO PUSH2 0xAFF JUMPI PUSH2 0xAFE PUSH2 0x8EF JUMP JUMPDEST JUMPDEST PUSH0 PUSH2 0xB0C DUP6 DUP3 DUP7 ADD PUSH2 0x93D JUMP JUMPDEST SWAP3 POP POP PUSH1 0x20 DUP4 ADD CALLDATALOAD PUSH8 0xFFFFFFFFFFFFFFFF DUP2 GT ISZERO PUSH2 0xB2D JUMPI PUSH2 0xB2C PUSH2 0x8F3 JUMP JUMPDEST JUMPDEST PUSH2 0xB39 DUP6 DUP3 DUP7 ADD PUSH2 0xABC JUMP JUMPDEST SWAP2 POP POP SWAP3 POP SWAP3 SWAP1 POP JUMP JUMPDEST PUSH0 DUP2 ISZERO ISZERO SWAP1 POP SWAP2 SWAP1 POP JUMP JUMPDEST PUSH2 0xB57 DUP2 PUSH2 0xB43 JUMP JUMPDEST DUP3 MSTORE POP POP JUMP JUMPDEST PUSH0 PUSH1 0x20 DUP3 ADD SWAP1 POP PUSH2 0xB70 PUSH0 DUP4 ADD DUP5 PUSH2 0xB4E JUMP JUMPDEST SWAP3 SWAP2 POP POP JUMP JUMPDEST PUSH0 PUSH1 0x20 DUP3 DUP5 SUB SLT ISZERO PUSH2 0xB8B JUMPI PUSH2 0xB8A PUSH2 0x8EF JUMP JUMPDEST JUMPDEST PUSH0 DUP3 ADD CALLDATALOAD PUSH8 0xFFFFFFFFFFFFFFFF DUP2 GT ISZERO PUSH2 0xBA8 JUMPI PUSH2 0xBA7 PUSH2 0x8F3 JUMP JUMPDEST JUMPDEST PUSH2 0xBB4 DUP5 DUP3 DUP6 ADD PUSH2 0xABC JUMP JUMPDEST SWAP2 POP POP SWAP3 SWAP2 POP POP JUMP JUMPDEST PUSH0 DUP2 SWAP1 POP SWAP2 SWAP1 POP JUMP JUMPDEST PUSH2 0xBCF DUP2 PUSH2 0xBBD JUMP JUMPDEST DUP3 MSTORE POP POP JUMP JUMPDEST PUSH0 PUSH1 0x20 DUP3 ADD SWAP1 POP PUSH2 0xBE8 PUSH0 DUP4 ADD DUP5 PUSH2 0xBC6 JUMP JUMPDEST SWAP3 SWAP2 POP POP JUMP JUMPDEST PUSH2 0xBF7 DUP2 PUSH2 0x916 JUMP JUMPDEST DUP3 MSTORE POP POP JUMP JUMPDEST PUSH0 PUSH1 0x20 DUP3 ADD SWAP1 POP PUSH2 0xC10 PUSH0 DUP4 ADD DUP5 PUSH2 0xBEE JUMP JUMPDEST SWAP3 SWAP2 POP POP JUMP JUMPDEST PUSH2 0xC1F DUP2 PUSH2 0xB43 JUMP JUMPDEST DUP2 EQ PUSH2 0xC29 JUMPI PUSH0 PUSH0 REVERT JUMPDEST POP JUMP JUMPDEST PUSH0 DUP2 CALLDATALOAD SWAP1 POP PUSH2 0xC3A DUP2 PUSH2 0xC16 JUMP JUMPDEST SWAP3 SWAP2 POP POP JUMP JUMPDEST PUSH0 PUSH1 0x20 DUP3 DUP5 SUB SLT ISZERO PUSH2 0xC55 JUMPI PUSH2 0xC54 PUSH2 0x8EF JUMP JUMPDEST JUMPDEST PUSH0 PUSH2 0xC62 DUP5 DUP3 DUP6 ADD PUSH2 0xC2C JUMP JUMPDEST SWAP2 POP POP SWAP3 SWAP2 POP POP JUMP JUMPDEST PUSH0 DUP2 MLOAD SWAP1 POP SWAP2 SWAP1 POP JUMP JUMPDEST PUSH0 DUP3 DUP3 MSTORE PUSH1 0x20 DUP3 ADD SWAP1 POP SWAP3 SWAP2 POP POP JUMP JUMPDEST DUP3 DUP2 DUP4 MCOPY PUSH0 DUP4 DUP4 ADD MSTORE POP POP POP JUMP JUMPDEST PUSH0 PUSH2 0xC9D DUP3 PUSH2 0xC6B JUMP JUMPDEST PUSH2 0xCA7 DUP2 DUP6 PUSH2 0xC75 JUMP JUMPDEST SWAP4 POP PUSH2 0xCB7 DUP2 DUP6 PUSH1 0x20 DUP7 ADD PUSH2 0xC85 JUMP JUMPDEST PUSH2 0xCC0 DUP2 PUSH2 0x9B5 JUMP JUMPDEST DUP5 ADD SWAP2 POP POP SWAP3 SWAP2 POP POP JUMP JUMPDEST PUSH0 PUSH1 0x20 DUP3 ADD SWAP1 POP DUP2 DUP2 SUB PUSH0 DUP4 ADD MSTORE PUSH2 0xCE3 DUP2 DUP5 PUSH2 0xC93 JUMP JUMPDEST SWAP1 POP SWAP3 SWAP2 POP POP JUMP JUMPDEST PUSH2 0xCF4 DUP2 PUSH2 0x97C JUMP JUMPDEST DUP2 EQ PUSH2 0xCFE JUMPI PUSH0 PUSH0 REVERT JUMPDEST POP JUMP JUMPDEST PUSH0 DUP2 CALLDATALOAD SWAP1 POP PUSH2 0xD0F DUP2 PUSH2 0xCEB JUMP JUMPDEST SWAP3 SWAP2 POP POP JUMP JUMPDEST PUSH0 PUSH0 PUSH1 0x40 DUP4 DUP6 SUB SLT ISZERO PUSH2 0xD2B JUMPI PUSH2 0xD2A PUSH2 0x8EF JUMP JUMPDEST JUMPDEST PUSH0 PUSH2 0xD38 DUP6 DUP3 DUP7 ADD PUSH2 0xD01 JUMP JUMPDEST SWAP3 POP POP PUSH1 0x20 DUP4 ADD CALLDATALOAD PUSH8 0xFFFFFFFFFFFFFFFF DUP2 GT ISZERO PUSH2 0xD59 JUMPI PUSH2 0xD58 PUSH2 0x8F3 JUMP JUMPDEST JUMPDEST PUSH2 0xD65 DUP6 DUP3 DUP7 ADD PUSH2 0xABC JUMP JUMPDEST SWAP2 POP POP SWAP3 POP SWAP3 SWAP1 POP JUMP JUMPDEST PUSH0 PUSH1 0x20 DUP3 DUP5 SUB SLT ISZERO PUSH2 0xD84 JUMPI PUSH2 0xD83 PUSH2 0x8EF JUMP JUMPDEST JUMPDEST PUSH0 PUSH2 0xD91 DUP5 DUP3 DUP6 ADD PUSH2 0xD01 JUMP JUMPDEST SWAP2 POP POP SWAP3 SWAP2 POP POP JUMP JUMPDEST PUSH0 DUP2 PUSH1 0x60 SHL SWAP1 POP SWAP2 SWAP1 POP JUMP JUMPDEST PUSH0 PUSH2 0xDB0 DUP3 PUSH2 0xD9A JUMP JUMPDEST SWAP1 POP SWAP2 SWAP1 POP JUMP JUMPDEST PUSH0 PUSH2 0xDC1 DUP3 PUSH2 0xDA6 JUMP JUMPDEST SWAP1 POP SWAP2 SWAP1 POP JUMP JUMPDEST PUSH2 0xDD9 PUSH2 0xDD4 DUP3 PUSH2 0x916 JUMP JUMPDEST PUSH2 0xDB7 JUMP JUMPDEST DUP3 MSTORE POP POP JUMP JUMPDEST PUSH32 0x4E487B7100000000000000000000000000000000000000000000000000000000 PUSH0 MSTORE PUSH1 0x22 PUSH1 0x4 MSTORE PUSH1 0x24 PUSH0 REVERT JUMPDEST PUSH0 PUSH1 0x2 DUP3 DIV SWAP1 POP PUSH1 0x1 DUP3 AND DUP1 PUSH2 0xE23 JUMPI PUSH1 0x7F DUP3 AND SWAP2 POP JUMPDEST PUSH1 0x20 DUP3 LT DUP2 SUB PUSH2 0xE36 JUMPI PUSH2 0xE35 PUSH2 0xDDF JUMP JUMPDEST JUMPDEST POP SWAP2 SWAP1 POP JUMP JUMPDEST PUSH0 DUP2 SWAP1 POP SWAP3 SWAP2 POP POP JUMP JUMPDEST PUSH0 DUP2 SWAP1 POP DUP2 PUSH0 MSTORE PUSH1 0x20 PUSH0 KECCAK256 SWAP1 POP SWAP2 SWAP1 POP JUMP JUMPDEST PUSH0 DUP2 SLOAD PUSH2 0xE64 DUP2 PUSH2 0xE0C JUMP JUMPDEST PUSH2 0xE6E DUP2 DUP7 PUSH2 0xE3C JUMP JUMPDEST SWAP5 POP PUSH1 0x1 DUP3 AND PUSH0 DUP2 EQ PUSH2 0xE88 JUMPI PUSH1 0x1 DUP2 EQ PUSH2 0xE9D JUMPI PUSH2 0xECF JUMP JUMPDEST PUSH1 0xFF NOT DUP4 AND DUP7 MSTORE DUP2 ISZERO ISZERO DUP3 MUL DUP7 ADD SWAP4 POP PUSH2 0xECF JUMP JUMPDEST PUSH2 0xEA6 DUP6 PUSH2 0xE46 JUMP JUMPDEST PUSH0 JUMPDEST DUP4 DUP2 LT ISZERO PUSH2 0xEC7 JUMPI DUP2 SLOAD DUP2 DUP10 ADD MSTORE PUSH1 0x1 DUP3 ADD SWAP2 POP PUSH1 0x20 DUP2 ADD SWAP1 POP PUSH2 0xEA8 JUMP JUMPDEST DUP4 DUP9 ADD SWAP6 POP POP POP JUMPDEST POP POP POP SWAP3 SWAP2 POP POP JUMP JUMPDEST PUSH0 PUSH2 0xEE3 DUP3 DUP7 PUSH2 0xDC8 JUMP JUMPDEST PUSH1 0x14 DUP3 ADD SWAP2 POP PUSH2 0xEF3 DUP3 DUP6 PUSH2 0xE58 JUMP JUMPDEST SWAP2 POP PUSH2 0xEFF DUP3 DUP5 PUSH2 0xDC8 JUMP JUMPDEST PUSH1 0x14 DUP3 ADD SWAP2 POP DUP2 SWAP1 POP SWAP5 SWAP4 POP POP POP POP JUMP JUMPDEST PUSH32 0x4576656E74206973206E6F742061637469766500000000000000000000000000 PUSH0 DUP3 ADD MSTORE POP JUMP JUMPDEST PUSH0 PUSH2 0xF44 PUSH1 0x13 DUP4 PUSH2 0xC75 JUMP JUMPDEST SWAP2 POP PUSH2 0xF4F DUP3 PUSH2 0xF10 JUMP JUMPDEST PUSH1 0x20 DUP3 ADD SWAP1 POP SWAP2 SWAP1 POP JUMP JUMPDEST PUSH0 PUSH1 0x20 DUP3 ADD SWAP1 POP DUP2 DUP2 SUB PUSH0 DUP4 ADD MSTORE PUSH2 0xF71 DUP2 PUSH2 0xF38 JUMP JUMPDEST SWAP1 POP SWAP2 SWAP1 POP JUMP JUMPDEST PUSH32 0x4E487B7100000000000000000000000000000000000000000000000000000000 PUSH0 MSTORE PUSH1 0x11 PUSH1 0x4 MSTORE PUSH1 0x24 PUSH0 REVERT JUMPDEST PUSH0 PUSH2 0xFAF DUP3 PUSH2 0xBBD JUMP JUMPDEST SWAP2 POP PUSH2 0xFBA DUP4 PUSH2 0xBBD JUMP JUMPDEST SWAP3 POP DUP3 DUP3 ADD SWAP1 POP DUP1 DUP3 GT ISZERO PUSH2 0xFD2 JUMPI PUSH2 0xFD1 PUSH2 0xF78 JUMP JUMPDEST JUMPDEST SWAP3 SWAP2 POP POP JUMP JUMPDEST PUSH32 0x4576656E742068617320656E6465640000000000000000000000000000000000 PUSH0 DUP3 ADD MSTORE POP JUMP JUMPDEST PUSH0 PUSH2 0x100C PUSH1 0xF DUP4 PUSH2 0xC75 JUMP JUMPDEST SWAP2 POP PUSH2 0x1017 DUP3 PUSH2 0xFD8 JUMP JUMPDEST PUSH1 0x20 DUP3 ADD SWAP1 POP SWAP2 SWAP1 POP JUMP JUMPDEST PUSH0 PUSH1 0x20 DUP3 ADD SWAP1 POP DUP2 DUP2 SUB PUSH0 DUP4 ADD MSTORE PUSH2 0x1039 DUP2 PUSH2 0x1000 JUMP JUMPDEST SWAP1 POP SWAP2 SWAP1 POP JUMP JUMPDEST PUSH32 0x417474656E6465652068617320616C726561647920636865636B656420696E00 PUSH0 DUP3 ADD MSTORE POP JUMP JUMPDEST PUSH0 PUSH2 0x1074 PUSH1 0x1F DUP4 PUSH2 0xC75 JUMP JUMPDEST SWAP2 POP PUSH2 0x107F DUP3 PUSH2 0x1040 JUMP JUMPDEST PUSH1 0x20 DUP3 ADD SWAP1 POP SWAP2 SWAP1 POP JUMP JUMPDEST PUSH0 PUSH1 0x20 DUP3 ADD SWAP1 POP DUP2 DUP2 SUB PUSH0 DUP4 ADD MSTORE PUSH2 0x10A1 DUP2 PUSH2 0x1068 JUMP JUMPDEST SWAP1 POP SWAP2 SWAP1 POP JUMP JUMPDEST PUSH32 0x4D6178696D756D20617474656E64656573207265616368656400000000000000 PUSH0 DUP3 ADD MSTORE POP JUMP JUMPDEST PUSH0 PUSH2 0x10DC PUSH1 0x19 DUP4 PUSH2 0xC75 JUMP JUMPDEST SWAP2 POP PUSH2 0x10E7 DUP3 PUSH2 0x10A8 JUMP JUMPDEST PUSH1 0x20 DUP3 ADD SWAP1 POP SWAP2 SWAP1 POP JUMP JUMPDEST PUSH0 PUSH1 0x20 DUP3 ADD SWAP1 POP DUP2 DUP2 SUB PUSH0 DUP4 ADD MSTORE PUSH2 0x1109 DUP2 PUSH2 0x10D0 JUMP JUMPDEST SWAP1 POP SWAP2 SWAP1 POP JUMP JUMPDEST PUSH32 0x496E76616C6964207369676E6174757265000000000000000000000000000000 PUSH0 DUP3 ADD MSTORE POP JUMP JUMPDEST PUSH0 PUSH2 0x1144 PUSH1 0x11 DUP4 PUSH2 0xC75 JUMP JUMPDEST SWAP2 POP PUSH2 0x114F DUP3 PUSH2 0x1110 JUMP JUMPDEST PUSH1 0x20 DUP3 ADD SWAP1 POP SWAP2 SWAP1 POP JUMP JUMPDEST PUSH0 PUSH1 0x20 DUP3 ADD SWAP1 POP DUP2 DUP2 SUB PUSH0 DUP4 ADD MSTORE PUSH2 0x1171 DUP2 PUSH2 0x1138 JUMP JUMPDEST SWAP1 POP SWAP2 SWAP1 POP JUMP JUMPDEST PUSH0 PUSH2 0x1182 DUP3 PUSH2 0xBBD JUMP JUMPDEST SWAP2 POP PUSH32 0xFFFFFFFFFFFFFFFFFFFFFFFFFFFFFFFFFFFFFFFFFFFFFFFFFFFFFFFFFFFFFFFF DUP3 SUB PUSH2 0x11B4 JUMPI PUSH2 0x11B3 PUSH2 0xF78 JUMP JUMPDEST JUMPDEST PUSH1 0x1 DUP3 ADD SWAP1 POP SWAP2 SWAP1 POP JUMP JUMPDEST PUSH0 PUSH1 0x40 DUP3 ADD SWAP1 POP PUSH2 0x11D2 PUSH0 DUP4 ADD DUP6 PUSH2 0xBEE JUMP JUMPDEST PUSH2 0x11DF PUSH1 0x20 DUP4 ADD DUP5 PUSH2 0xBC6 JUMP JUMPDEST SWAP4 SWAP3 POP POP POP JUMP JUMPDEST PUSH32 0x596F7520617265206E6F7420746865206F7267616E697A657200000000000000 PUSH0 DUP3 ADD MSTORE POP JUMP JUMPDEST PUSH0 PUSH2 0x121A PUSH1 0x19 DUP4 PUSH2 0xC75 JUMP JUMPDEST SWAP2 POP PUSH2 0x1225 DUP3 PUSH2 0x11E6 JUMP JUMPDEST PUSH1 0x20 DUP3 ADD SWAP1 POP SWAP2 SWAP1 POP JUMP JUMPDEST PUSH0 PUSH1 0x20 DUP3 ADD SWAP1 POP DUP2 DUP2 SUB PUSH0 DUP4 ADD MSTORE PUSH2 0x1247 DUP2 PUSH2 0x120E JUMP JUMPDEST SWAP1 POP SWAP2 SWAP1 POP JUMP JUMPDEST PUSH32 0x496E76616C6964206C656E677468000000000000000000000000000000000000 PUSH0 DUP3 ADD MSTORE POP JUMP JUMPDEST PUSH0 PUSH2 0x1282 PUSH1 0xE DUP4 PUSH2 0xC75 JUMP JUMPDEST SWAP2 POP PUSH2 0x128D DUP3 PUSH2 0x124E JUMP JUMPDEST PUSH1 0x20 DUP3 ADD SWAP1 POP SWAP2 SWAP1 POP JUMP JUMPDEST PUSH0 PUSH1 0x20 DUP3 ADD SWAP1 POP DUP2 DUP2 SUB PUSH0 DUP4 ADD MSTORE PUSH2 0x12AF DUP2 PUSH2 0x1276 JUMP JUMPDEST SWAP1 POP SWAP2 SWAP1 POP JUMP JUMPDEST PUSH0 PUSH1 0xFF DUP3 AND SWAP1 POP SWAP2 SWAP1 POP JUMP JUMPDEST PUSH0 PUSH2 0x12CC DUP3 PUSH2 0x12B6 JUMP JUMPDEST SWAP2 POP PUSH2 0x12D7 DUP4 PUSH2 0x12B6 JUMP JUMPDEST SWAP3 POP DUP3 DUP3 ADD SWAP1 POP PUSH1 0xFF DUP2 GT ISZERO PUSH2 0x12F0 JUMPI PUSH2 0x12EF PUSH2 0xF78 JUMP JUMPDEST JUMPDEST SWAP3 SWAP2 POP POP JUMP JUMPDEST PUSH32 0x496E76616C6964207369676E6174757265202776272076616C75650000000000 PUSH0 DUP3 ADD MSTORE POP JUMP JUMPDEST PUSH0 PUSH2 0x132A PUSH1 0x1B DUP4 PUSH2 0xC75 JUMP JUMPDEST SWAP2 POP PUSH2 0x1335 DUP3 PUSH2 0x12F6 JUMP JUMPDEST PUSH1 0x20 DUP3 ADD SWAP1 POP SWAP2 SWAP1 POP JUMP JUMPDEST PUSH0 PUSH1 0x20 DUP3 ADD SWAP1 POP DUP2 DUP2 SUB PUSH0 DUP4 ADD MSTORE PUSH2 0x1357 DUP2 PUSH2 0x131E JUMP JUMPDEST SWAP1 POP SWAP2 SWAP1 POP JUMP JUMPDEST PUSH2 0x1367 DUP2 PUSH2 0x12B6 JUMP JUMPDEST DUP3 MSTORE POP POP JUMP JUMPDEST PUSH0 PUSH1 0x80 DUP3 ADD SWAP1 POP PUSH2 0x1380 PUSH0 DUP4 ADD DUP8 PUSH2 0x985 JUMP JUMPDEST PUSH2 0x138D PUSH1 0x20 DUP4 ADD DUP7 PUSH2 0x135E JUMP JUMPDEST PUSH2 0x139A PUSH1 0x40 DUP4 ADD DUP6 PUSH2 0x985 JUMP JUMPDEST PUSH2 0x13A7 PUSH1 0x60 DUP4 ADD DUP5 PUSH2 0x985 JUMP JUMPDEST SWAP6 SWAP5 POP POP POP POP POP JUMP JUMPDEST PUSH32 0x19457468657265756D205369676E6564204D6573736167653A0A333200000000 PUSH0 DUP3 ADD MSTORE POP JUMP JUMPDEST PUSH0 PUSH2 0x13E4 PUSH1 0x1C DUP4 PUSH2 0xE3C JUMP JUMPDEST SWAP2 POP PUSH2 0x13EF DUP3 PUSH2 0x13B0 JUMP JUMPDEST PUSH1 0x1C DUP3 ADD SWAP1 POP SWAP2 SWAP1 POP JUMP JUMPDEST PUSH0 DUP2 SWAP1 POP SWAP2 SWAP1 POP JUMP JUMPDEST PUSH2 0x1414 PUSH2 0x140F DUP3 PUSH2 0x97C JUMP JUMPDEST PUSH2 0x13FA JUMP JUMPDEST DUP3 MSTORE POP POP JUMP JUMPDEST PUSH0 PUSH2 0x1424 DUP3 PUSH2 0x13D8 JUMP JUMPDEST SWAP2 POP PUSH2 0x1430 DUP3 DUP5 PUSH2 0x1403 JUMP JUMPDEST PUSH1 0x20 DUP3 ADD SWAP2 POP DUP2 SWAP1 POP SWAP3 SWAP2 POP POP JUMP INVALID LOG2 PUSH5 0x6970667358 0x22 SLT KECCAK256 0x26 LOG0 0xCD BLOBHASH 0xDE RJUMPI 0x464E SELFDESTRUCT 0x22 SWAP10 0xED JUMPF 0x1A88 SWAP3 MULMOD EXTCODESIZE 0x2E 0xB1 0xC6 LOG3 0x2A 0xB1 0xC3 DUP6 DUPN 0x5D PUSH22 0x371D2F64736F6C634300082200330000000000000000 "
				},
				"gasEstimates": {
					"creation": {
						"codeDepositCost": "1047400",
						"executionCost": "infinite",
						"totalCost": "infinite"
					},
					"external": {
						"attendeeCount()": "2491",
						"checkIn(bytes)": "infinite",
						"eventDate()": "2492",
						"eventName()": "infinite",
						"getEthSignedMessageHash(bytes32)": "infinite",
						"getMessageHash(address)": "infinite",
						"hasAttended(address)": "2877",
						"isEventActive()": "2488",
						"maxAttendees()": "2514",
						"organizer()": "2619",
						"recoverSigner(bytes32,bytes)": "infinite",
						"setEventStatus(bool)": "infinite",
						"verifySignature(address,bytes)": "infinite"
					}
				},
				"methodIdentifiers": {
					"attendeeCount()": "f1adda47",
					"checkIn(bytes)": "304c44d1",
					"eventDate()": "4bfbe5df",
					"eventName()": "8043c9c0",
					"getEthSignedMessageHash(bytes32)": "fa540801",
					"getMessageHash(address)": "1f5ac1b2",
					"hasAttended(address)": "d866b0b6",
					"isEventActive()": "cc54bcf2",
					"maxAttendees()": "5f3d7fa1",
					"organizer()": "61203265",
					"recoverSigner(bytes32,bytes)": "97aba7f9",
					"setEventStatus(bool)": "665983ec",
					"verifySignature(address,bytes)": "258c1ef5"
				}
			},
			"storageLayout": {
				"storage": [
					{
						"astId": 3,
						"contract": "019-SignThis/EventEntry.sol:EventEntry",
						"label": "eventName",
						"offset": 0,
						"slot": "0",
						"type": "t_string_storage"
					},
					{
						"astId": 5,
						"contract": "019-SignThis/EventEntry.sol:EventEntry",
						"label": "organizer",
						"offset": 0,
						"slot": "1",
						"type": "t_address"
					},
					{
						"astId": 7,
						"contract": "019-SignThis/EventEntry.sol:EventEntry",
						"label": "eventDate",
						"offset": 0,
						"slot": "2",
						"type": "t_uint256"
					},
					{
						"astId": 9,
						"contract": "019-SignThis/EventEntry.sol:EventEntry",
						"label": "maxAttendees",
						"offset": 0,
						"slot": "3",
						"type": "t_uint256"
					},
					{
						"astId": 11,
						"contract": "019-SignThis/EventEntry.sol:EventEntry",
						"label": "attendeeCount",
						"offset": 0,
						"slot": "4",
						"type": "t_uint256"
					},
					{
						"astId": 13,
						"contract": "019-SignThis/EventEntry.sol:EventEntry",
						"label": "isEventActive",
						"offset": 0,
						"slot": "5",
						"type": "t_bool"
					},
					{
						"astId": 17,
						"contract": "019-SignThis/EventEntry.sol:EventEntry",
						"label": "hasAttended",
						"offset": 0,
						"slot": "6",
						"type": "t_mapping(t_address,t_bool)"
					}
				],
				"types": {
					"t_address": {
						"encoding": "inplace",
						"label": "address",
						"numberOfBytes": "20"
					},
					"t_bool": {
						"encoding": "inplace",
						"label": "bool",
						"numberOfBytes": "1"
					},
					"t_mapping(t_address,t_bool)": {
						"encoding": "mapping",
						"key": "t_address",
						"label": "mapping(address => bool)",
						"numberOfBytes": "32",
						"value": "t_bool"
					},
					"t_string_storage": {
						"encoding": "bytes",
						"label": "string",
						"numberOfBytes": "32"
					},
					"t_uint256": {
						"encoding": "inplace",
						"label": "uint256",
						"numberOfBytes": "32"
					}
				}
			},
			"userdoc": {
				"kind": "user",
				"methods": {},
				"version": 1
			}
		}
	}
}